{
  "address": "0x35D2F51DBC8b401B11fA3FE04423E0f5cd9fEDb4",
  "abi": [
    {
      "inputs": [],
      "name": "FIXED_PRICE_ETH",
      "outputs": [
        {
          "internalType": "uint256",
          "name": "",
          "type": "uint256"
        }
      ],
      "stateMutability": "view",
      "type": "function"
    },
    {
      "inputs": [
        {
          "internalType": "string",
          "name": "",
          "type": "string"
        },
        {
          "internalType": "uint256",
          "name": "",
          "type": "uint256"
        },
        {
          "internalType": "uint256",
          "name": "",
          "type": "uint256"
        }
      ],
      "name": "price",
      "outputs": [
        {
          "components": [
            {
              "internalType": "uint256",
              "name": "base",
              "type": "uint256"
            },
            {
              "internalType": "uint256",
              "name": "premium",
              "type": "uint256"
            }
          ],
          "internalType": "struct IPriceOracle.Price",
          "name": "",
          "type": "tuple"
        }
      ],
      "stateMutability": "pure",
      "type": "function"
    }
  ],
  "transactionHash": "0x156374c7eba31ff2877fd018e1b48e24b0d6c5b40959c2049844297e4ad05bef",
  "args": [],
  "numDeployments": 1,
  "solcInputHash": "c0f36ab5c09e5ca1505e8fd6b51217d5",
  "bytecode": "0x608060405234801561001057600080fd5b50610174806100206000396000f3fe608060405234801561001057600080fd5b50600436106100365760003560e01c806350e9a7151461003b578063ca2801c3146100a0575b600080fd5b6100806100493660046100bf565b505060408051808201825260008082526020918201819052825180840190935269d3c21bcecceda100000083529082015292915050565b604080518251815260209283015192810192909252015b60405180910390f35b6100b169d3c21bcecceda100000081565b604051908152602001610097565b600080600080606085870312156100d557600080fd5b843567ffffffffffffffff808211156100ed57600080fd5b818701915087601f83011261010157600080fd5b81358181111561011057600080fd5b88602082850101111561012257600080fd5b602092830199909850918701359660400135955090935050505056fea2646970667358221220d47bc36dbda7393049ef6cf0fb5a322da08d611625cbf710b45bb92640197d8864736f6c63430008110033",
  "devdoc": {
    "kind": "dev",
    "methods": {
      "price(string,uint256,uint256)": {
        "details": "Kept 3 empty args to match the default price() method definition of the ExponentialPremiumPriceOracle."
      }
    },
    "stateVariables": {
      "FIXED_PRICE_ETH": {
        "details": "1,000,000 ETH in Wei"
      }
    },
    "version": 1
  },
  "userdoc": {
    "kind": "user",
    "methods": {
      "price(string,uint256,uint256)": {
        "notice": "Returns a fixed amount of ETH as the price."
      }
    },
    "version": 1
  },
  "storageLayout": {
    "storage": [],
    "types": null
  }
}