{
  "address": "0xad6729C101691A63F7d1e4CcbaD04bC8c6818a22",
  "abi": [
    {
      "inputs": [
        {
          "internalType": "contract IEVMVerifier",
          "name": "_verifier",
          "type": "address"
        },
        {
          "internalType": "contract ENS",
          "name": "_ens",
          "type": "address"
        },
        {
          "internalType": "contract INameWrapper",
          "name": "_nameWrapper",
          "type": "address"
        }
      ],
      "stateMutability": "nonpayable",
      "type": "constructor"
    },
    {
      "inputs": [],
      "name": "CommandTooLong",
      "type": "error"
    },
    {
      "inputs": [
        {
          "internalType": "uint256",
          "name": "value",
          "type": "uint256"
        },
        {
          "internalType": "uint256",
          "name": "max",
          "type": "uint256"
        }
      ],
      "name": "InvalidReference",
      "type": "error"
    },
    {
      "inputs": [
        {
          "internalType": "address",
          "name": "sender",
          "type": "address"
        },
        {
          "internalType": "string[]",
          "name": "urls",
          "type": "string[]"
        },
        {
          "internalType": "bytes",
          "name": "callData",
          "type": "bytes"
        },
        {
          "internalType": "bytes4",
          "name": "callbackFunction",
          "type": "bytes4"
        },
        {
          "internalType": "bytes",
          "name": "extraData",
          "type": "bytes"
        }
      ],
      "name": "OffchainLookup",
      "type": "error"
    },
    {
      "inputs": [
        {
          "internalType": "uint256",
          "name": "actual",
          "type": "uint256"
        },
        {
          "internalType": "uint256",
          "name": "expected",
          "type": "uint256"
        }
      ],
      "name": "ResponseLengthMismatch",
      "type": "error"
    },
    {
      "inputs": [
        {
          "internalType": "uint256",
          "name": "max",
          "type": "uint256"
        }
      ],
      "name": "TooManyCommands",
      "type": "error"
    },
    {
      "anonymous": false,
      "inputs": [
        {
          "indexed": true,
          "internalType": "bytes32",
          "name": "node",
          "type": "bytes32"
        },
        {
          "indexed": false,
          "internalType": "address",
          "name": "target",
          "type": "address"
        }
      ],
      "name": "TargetSet",
      "type": "event"
    },
    {
      "inputs": [
        {
          "internalType": "bytes[]",
          "name": "values",
          "type": "bytes[]"
        },
        {
          "internalType": "bytes",
          "name": "",
          "type": "bytes"
        }
      ],
      "name": "addrCallback",
      "outputs": [
        {
          "internalType": "bytes",
          "name": "",
          "type": "bytes"
        }
      ],
      "stateMutability": "pure",
      "type": "function"
    },
    {
      "inputs": [
        {
          "internalType": "bytes[]",
          "name": "values",
          "type": "bytes[]"
        },
        {
          "internalType": "bytes",
          "name": "",
          "type": "bytes"
        }
      ],
      "name": "addrCoinTypeCallback",
      "outputs": [
        {
          "internalType": "bytes",
          "name": "",
          "type": "bytes"
        }
      ],
      "stateMutability": "pure",
      "type": "function"
    },
    {
      "inputs": [
        {
          "internalType": "bytes[]",
          "name": "values",
          "type": "bytes[]"
        },
        {
          "internalType": "bytes",
          "name": "",
          "type": "bytes"
        }
      ],
      "name": "contenthashCallback",
      "outputs": [
        {
          "internalType": "bytes",
          "name": "",
          "type": "bytes"
        }
      ],
      "stateMutability": "pure",
      "type": "function"
    },
    {
      "inputs": [
        {
          "internalType": "bytes",
          "name": "response",
          "type": "bytes"
        },
        {
          "internalType": "bytes",
          "name": "extradata",
          "type": "bytes"
        }
      ],
      "name": "getStorageSlotsCallback",
      "outputs": [],
      "stateMutability": "nonpayable",
      "type": "function"
    },
    {
      "inputs": [
        {
          "internalType": "bytes",
          "name": "name",
          "type": "bytes"
        },
        {
          "internalType": "uint256",
          "name": "offset",
          "type": "uint256"
        }
      ],
      "name": "getTarget",
      "outputs": [
        {
          "internalType": "bytes32",
          "name": "node",
          "type": "bytes32"
        },
        {
          "internalType": "address",
          "name": "target",
          "type": "address"
        }
      ],
      "stateMutability": "view",
      "type": "function"
    },
    {
      "inputs": [
        {
          "internalType": "bytes",
          "name": "name",
          "type": "bytes"
        },
        {
          "internalType": "bytes",
          "name": "data",
          "type": "bytes"
        }
      ],
      "name": "resolve",
      "outputs": [
        {
          "internalType": "bytes",
          "name": "result",
          "type": "bytes"
        }
      ],
      "stateMutability": "view",
      "type": "function"
    },
    {
      "inputs": [
        {
          "internalType": "bytes32",
          "name": "node",
          "type": "bytes32"
        },
        {
          "internalType": "address",
          "name": "target",
          "type": "address"
        }
      ],
      "name": "setTarget",
      "outputs": [],
      "stateMutability": "nonpayable",
      "type": "function"
    },
    {
      "inputs": [
        {
          "internalType": "bytes[]",
          "name": "values",
          "type": "bytes[]"
        },
        {
          "internalType": "bytes",
          "name": "",
          "type": "bytes"
        }
      ],
      "name": "textCallback",
      "outputs": [
        {
          "internalType": "bytes",
          "name": "",
          "type": "bytes"
        }
      ],
      "stateMutability": "pure",
      "type": "function"
    }
  ],
  "transactionHash": "0xed3f418b648ebfa0a93733e9c0f098cf3092df253f038d1fced90036093d07bf",
  "args": [
    "0x4167C0E7DE2f265A13E2E6B19f26AC4F8C7b4e5f",
    "0x00000000000C2E074eC69A0dFb2997BA6C7d2e1e",
    "0x0635513f179D50A207757E05759CbD106d7dFcE8"
  ],
  "numDeployments": 1,
  "solcInputHash": "4f2f57ee56ecc7735104c998f416d8c8",
  "bytecode": "0x60e03461019757601f611d7a38819003918201601f191683019291906001600160401b0384118385101761019c5781606092849260409687528339810103126101975780516001600160a01b039182821691908282036101975760208101519284841691828503610197578601519485168086036101975715610154571561011057156100cc5760805260a05260c05251611bc790816101b38239608051818181610de601528181610fc70152818161113c0152611240015260a05181610424015260c0518161045b0152f35b835162461bcd60e51b815260206004820152601c60248201527f52656769737472792061646472657373206d75737420626520736574000000006044820152606490fd5b845162461bcd60e51b815260206004820152601c60248201527f56657269666965722061646472657373206d75737420626520736574000000006044820152606490fd5b6064865162461bcd60e51b815260206004820152602060248201527f4e616d6520577261707065722061646472657373206d757374206265207365746044820152fd5b600080fd5b634e487b7160e01b600052604160045260246000fdfe6080604052600436101561001257600080fd5b6000803560e01c9081632ec7385a146100905750806338bf92e6146100775780634280bfb51461008b5780635bdaa916146100865780639061b92314610081578063de9abe5e14610077578063f470901a1461007c5763fcd2e3811461007757600080fd5b610363565b61078b565b6106a0565b6105ad565b6103dc565b346100e35760403660031901126100e357600435906001600160401b0382116100e35760406100ce6100c536600486016101cb565b60243590610849565b82519182526001600160a01b03166020820152f35b80fd5b634e487b7160e01b600052604160045260246000fd5b604081019081106001600160401b0382111761011757604052565b6100e6565b602081019081106001600160401b0382111761011757604052565b61042081019081106001600160401b0382111761011757604052565b90601f801991011681019081106001600160401b0382111761011757604052565b6001600160401b03811161011757601f01601f191660200190565b92919261019b82610174565b916101a96040519384610153565b8294818452818301116101c6578281602093846000960137010152565b600080fd5b9080601f830112156101c6578160206101e69335910161018f565b90565b6001600160401b0381116101175760051b60200190565b81601f820112156101c65780359160209161021a846101e9565b936102286040519586610153565b808552838086019160051b830101928084116101c657848301915b8483106102535750505050505090565b82356001600160401b0381116101c6578691610274848480948901016101cb565b815201920191610243565b9060406003198301126101c6576001600160401b036004358181116101c657836102ab91600401610200565b926024359182116101c6576101e6916004016101cb565b60005b8381106102d55750506000910152565b81810151838201526020016102c5565b906020916102fe815180928185528580860191016102c2565b601f01601f1916010190565b906020916020815260605180602083015260005b81811061033f575060409293506000838284010152601f8019910116010190565b608081015183820160400152840161031e565b9060206101e69281815201906102e5565b346101c6576103713661027f565b508051600110156103c6576103a06103ae60406103c293015160405192839160208084015260408301906102e5565b03601f198101835282610153565b6040519182916020835260208301906102e5565b0390f35b61090e565b6001600160a01b038116036101c657565b346101c65760403660031901126101c6576004356024356103fc816103cb565b6040516302571be360e01b8152600481018390526001600160a01b03929060209081816024817f000000000000000000000000000000000000000000000000000000000000000089165afa918215610512578591600093610517575b507f0000000000000000000000000000000000000000000000000000000000000000821691831682146104a0575b50506104999061049e9433911614610938565b61093f565b005b6040516331a9108f60e11b81526004810185905295909250908290869060249082905afa80156105125761049e95610499936000926104e5575b505091819550610486565b6105049250803d1061050b575b6104fc8183610153565b810190610d3c565b38806104da565b503d6104f2565b610c44565b8161052f9294503d851161050b576104fc8183610153565b9138610458565b9181601f840112156101c6578235916001600160401b0383116101c657602083818601950101116101c657565b60406003198201126101c6576001600160401b03916004358381116101c6578261058f91600401610536565b939093926024359182116101c6576105a991600401610536565b9091565b346101c6576105d26105fe60006105db6105c636610563565b9691839193019061099b565b948101906109d5565b9492939096916040518097819482936322b2358760e01b84528860048501610c0d565b03916001600160a01b03165afa9283156105125760009361067b575b5082519051908181036106555761064d84610647876103a087604051948593602085015260248401610c50565b30610d51565b602081519101f35b604051632918942560e01b815260048101919091526024810191909152604490fd5b0390fd5b6106999193503d806000833e6106918183610153565b810190610ad2565b913861061a565b346101c6576106c260006106c76106b636610563565b9492909591369161018f565b610849565b9290506001600160e01b03196106dd8383610c75565b16631d9dabef60e11b8114610777576378e5bf0360e11b811461075a57631674750f60e21b811461073d5763bc1c58d160e01b1461072257604051806103c28161030a565b816107389261073092610ca1565b810190610cbe565b611232565b50816107549261074c92610ca1565b810190610ce3565b9061112d565b50816107719261076992610ca1565b810190610ccd565b90610fad565b50816107869261073092610ca1565b610dd0565b346101c6576107993661027f565b508051600110156103c6576103a06107f260406103c293015160208151910151906bffffffffffffffffffffffff199182811691601481106107fe575b50506040805160609290921c6020830152909384925090820190565b60405191829182610352565b8391925060140360031b1b16168038806107d6565b634e487b7160e01b600052601160045260246000fd5b906001820180921161083757565b610813565b9190820180921161083757565b919091805183101561090e576020838201015160f81c8015610902579061088e610889836108836108949561087d89610829565b86610d22565b9661083c565b610829565b90610849565b604080516020810193845290810194909452926108b481606081016103a0565b51902060008181526020819052604090206001600160a01b03906108e0905b546001600160a01b031690565b166108e9579190565b91506101e66108d3836000526000602052604060002090565b50509050600090600090565b634e487b7160e01b600052603260045260246000fd5b80518210156103c65760209160051b010190565b156101c657565b9060207faf930f9068b0eb51ed43cbf5948d6bab0229ebadb371dd850de50b9d6d30106a91836000526000825260406000209060018060a01b031690816bffffffffffffffffffffffff60a01b825416179055604051908152a2565b906020828203126101c65781356001600160401b0381116101c6576101e692016101cb565b35906001600160e01b0319821682036101c657565b9060a0828203126101c65781356109eb816103cb565b926001600160401b03906020848101358381116101c65785019084601f830112156101c657813591610a1c836101e9565b92610a2a6040519485610153565b808452828085019160051b830101918783116101c6578301905b828210610a8c57505050509360408101358381116101c65784610a68918301610200565b93610a75606083016109c0565b9360808301359081116101c6576101e692016101cb565b81358152908301908301610a44565b90929192610aa881610174565b91610ab66040519384610153565b8294828452828201116101c6576020610ad09301906102c2565b565b9060209081838203126101c65782516001600160401b03938482116101c657019080601f830112156101c6578151610b09816101e9565b94604090610b1a6040519788610153565b828752858088019360051b860101948486116101c657868101935b868510610b4757505050505050505090565b84518381116101c657820186603f820112156101c6578891610b7188838886809601519101610a9b565b815201940193610b35565b90815180825260208080930193019160005b828110610b9c575050505090565b835185529381019392810192600101610b8e565b90808251908181526020809101926020808460051b8301019501936000915b848310610bdf5750505050505090565b9091929394958480610bfd600193601f198682030187528a516102e5565b9801930193019194939290610bcf565b91610c3690610c286101e69593606086526060860190610b7c565b908482036020860152610bb0565b9160408184039101526102e5565b6040513d6000823e3d90fd5b9091610c676101e693604084526040840190610bb0565b9160208184039101526102e5565b6001600160e01b03199035818116939260048110610c9257505050565b60040360031b82901b16169150565b90929192836004116101c65783116101c657600401916003190190565b908160209103126101c6573590565b91908260409103126101c6576020823592013590565b91906040838203126101c6578235926020810135906001600160401b0382116101c657019080601f830112156101c6578160206101e69335910161018f565b90828101808211610837578251106101c657016020012090565b908160209103126101c657516101e6816103cb565b906101e69160008060405193610d66856100fc565b601e85527f416464726573733a206c6f772d6c6576656c2063616c6c206661696c65640000602086015260208151910182855af13d15610dc8573d91610dab83610174565b92610db96040519485610153565b83523d6000602085013e61196d565b60609161196d565b610e0f610e19610e1483610e0f610e0a610e1e977f0000000000000000000000000000000000000000000000000000000000000000611336565b6113d2565b611449565b61147d565b6114f4565b610e266112f9565b50606081016020918282511015610f9b57600490604090610e63610e5d8351603c88820152878152610e57816100fc565b83611b64565b82611b03565b815194610e6f8661011c565b60008652828201948186515115159182610f90575b5050610f82575b8151600090610eaa906001600160a01b03165b6001600160a01b031690565b8451632d43cbef60e21b815295869182905afa93841561051257600094610f65575b50818101516001600160a01b0316948051966080840197885197865198899263ea9cd3bf60e01b878501526024840192610f0593611567565b0393601f19948581018952610f1a9089610153565b516001600160a01b0316915197518551988994850193610f399461159d565b039081018552610f499085610153565b51630556f18360e41b81529283926106779230600486016116b7565b610f7b9194503d806000833e6106918183610153565b9238610ecc565b610f8b826119fe565b610e8b565b511090508138610e84565b604051631601fac760e31b8152600490fd5b80610e0f610e19610e14610e0f94610e0f610e0a610feb997f0000000000000000000000000000000000000000000000000000000000000000611336565b6040906004825192610ffc8461011c565b600084528083019081515115158061111f575b611111575b835160009061102b906001600160a01b0316610e9e565b8251632d43cbef60e21b815294859182905afa928315610512576000936110ee575b5060208401519293610677936110d691906001600160a01b0316936110ca8151986110b86080850197611096895189519d8e9363ea9cd3bf60e01b602086015260248501611567565b03946110ab601f19968d88820190528d610153565b516001600160a01b031690565b925196518651978894602086016115ee565b03908101845283610153565b51630556f18360e41b815293849330600486016116b7565b610677935061110a6110d6913d806000833e6106918183610153565b935061104d565b61111a846119fe565b611014565b50602060608501511061100f565b909181610e0f610e0a611160937f0000000000000000000000000000000000000000000000000000000000000000611336565b906111696112f9565b5060206040830180516001815180151580611225575b611217575b0190525151116111fe57610e0f82600060606111c49501526111a581611aa8565b610e19610e5d604051610e57816103a06020820190600a602083019252565b906111cd6112f9565b50602060608301511015610f9b57610e5d6111e89183611b64565b604051906111f58261011c565b6000825261175b565b604051630251ce0160e31b815260206004820152602490fd5b611220876119fe565b611184565b508460608801511061117f565b9081610e0f610e0a611264937f0000000000000000000000000000000000000000000000000000000000000000611336565b9061126d6112f9565b50602060408301805160018151801515806112ec575b6112de575b0190525151116111fe57610e0f82600060606112c89501526112a981611aa8565b610e19610e5d604051610e57816103a060208201906003602083019252565b604051906112d58261011c565b60008252611881565b6112e7876119fe565b611288565b5084606088015110611283565b6040519060a082018281106001600160401b0382111761011757604052606060808360008152600060208201528260408201526000838201520152565b61133e6112f9565b5060405161134b81610137565b6020916020825261040092833660208501376040519361136a85610137565b60005b8181106113c35750505060008252600083526040519360a085018581106001600160401b03821117610117576040526001600160a01b039182168552166020840152604083015260006060830152608082015290565b6060868201840152820161136d565b6113da6112f9565b506020604082018051600181518015158061143c575b61142e575b0190525151116111fe576000606082015261140f81611a5c565b6101e6610e5d604051610e57816103a060208201906000602083019252565b611437866119fe565b6113f5565b50846060870151106113f0565b906114526112f9565b50602060608301511015610f9b57610e5d6101e69160405190602082015260208152610e57816100fc565b6114856112f9565b50602060408201805160018151801515806114e7575b6114d9575b0190525151116111fe57600060608201526114ba81611aa8565b6101e6610e5d604051610e57816103a060208201906002602083019252565b6114e2866119fe565b6114a0565b508460608701511061149b565b6114fc6112f9565b5060608101602081511015610f9b576040820190815151600019918282019182116108375761152c828551610924565b51908051938414610837576001840190526001600160fd1b03831683036108375761156392600160fd1b9060031b1c179251610924565b5290565b6001600160a01b0390911681526060602082018190526101e693919261158f91840190610b7c565b916040818403910152610bb0565b926115c56101e695936115d39360018060a01b0316865260a0602087015260a0860190610b7c565b908482036040860152610bb0565b91637a38480d60e11b606082015260808184039101526102e5565b926115c56101e695936116169360018060a01b0316865260a0602087015260a0860190610b7c565b91631c5fc97360e11b606082015260808184039101526102e5565b926115c56101e695936116599360018060a01b0316865260a0602087015260a0860190610b7c565b91636f4d5f2f60e11b606082015260808184039101526102e5565b926115c56101e6959361169c9360018060a01b0316865260a0602087015260a0860190610b7c565b9163fcd2e38160e01b606082015260808184039101526102e5565b92909493919460a084019060018060a01b0316845260209060a06020860152865180915260c0850191602060c08360051b8801019801926000905b83821061172f5750505050508461171491846101e696970360408601526102e5565b632ded548b60e11b60608401529160808184039101526102e5565b9091929398838061174c60019360bf198c82030186528d516102e5565b9b0192019201909392916116f2565b600460408201805151151580611873575b611865575b8251600090611788906001600160a01b0316610e9e565b604051632d43cbef60e21b815293849182905afa91821561051257600092611842575b50602083015191926106779261182891906001600160a01b03169261181c81519761180960808501966117f588516040519c8d9363ea9cd3bf60e01b602086015260248501611567565b03946110ab601f19968781018d528c610153565b9251955160405196879460208601611631565b03908101835282610153565b604051630556f18360e41b815293849330600486016116b7565b610677925061185e611828913d806000833e6106918183610153565b92506117ab565b61186e836119fe565b611771565b50602060608401511061176c565b60046040820180515115158061195f575b611951575b82516000906118ae906001600160a01b0316610e9e565b604051632d43cbef60e21b815293849182905afa9182156105125760009261192e575b50602083015191926106779261182891906001600160a01b03169261181c81519761191b60808501966117f588516040519c8d9363ea9cd3bf60e01b602086015260248501611567565b9251955160405196879460208601611674565b610677925061194a611828913d806000833e6106918183610153565b92506118d1565b61195a836119fe565b611897565b506020606084015110611892565b919290156119cf5750815115611981575090565b3b1561198a5790565b60405162461bcd60e51b815260206004820152601d60248201527f416464726573733a2063616c6c20746f206e6f6e2d636f6e74726163740000006044820152606490fd5b8251909150156119e25750805190602001fd5b60405162461bcd60e51b81529081906106779060048301610352565b604081019081515160001991828201918211610837576060611a21838651610924565b5191018051938414610837576001840190526001600160fd1b038316830361083757611a599260ff60f81b9060031b1c179251610924565b52565b60408101805151600019808201918211610837576060611a7d838551610924565b5194018051918214610837576001820190526001600160fd1b0381160361083757611a599151610924565b604081019081515160001991828201918211610837576060611acb838651610924565b5191018051938414610837576001840190526001600160fd1b038316830361083757611a5992600160f81b9060031b1c179251610924565b60408101805151909291600019808301928311610837576060611b27848751610924565b5192018051918214610837576001820190526001600160fd1b038116810361083757611a599360ff60f81b9060f81b169060031b1c179251610924565b6080611b8e9193929301519260ff845116938491600183018252611b888383610924565b52610924565b5056fea2646970667358221220f3e6f49d6a4a594b471f7a90fea21a1a972a6bdca7d99ebc7ca3c4c7318ba20464736f6c63430008190033",
  "devdoc": {
    "kind": "dev",
    "methods": {
      "getStorageSlotsCallback(bytes,bytes)": {
        "details": "Internal callback function invoked by CCIP-Read in response to a `getStorageSlots` request."
      },
      "getTarget(bytes,uint256)": {
        "details": "Returns the L2 target address that can answer queries for `name`.",
        "params": {
          "name": "DNS encoded ENS name to query",
          "offset": "The offset of the label to query recursively."
        },
        "returns": {
          "node": "The node of the name",
          "target": "The L2 resolver address to verify against."
        }
      },
      "resolve(bytes,bytes)": {
        "details": "Resolve and verify a record stored in l2 target address. It supports subname by fetching target recursively to the nearlest parent.",
        "params": {
          "data": "The actual calldata",
          "name": "DNS encoded ENS name to query"
        },
        "returns": {
          "result": "result of the call"
        }
      },
      "setTarget(bytes32,address)": {
        "params": {
          "node": "The ENS node to query.",
          "target": "The L2 resolver address to verify against."
        }
      }
    },
    "version": 1
  },
  "userdoc": {
    "kind": "user",
    "methods": {
      "setTarget(bytes32,address)": {
        "notice": "Set target address to verify aagainst"
      }
    },
    "version": 1
  },
  "storageLayout": {
    "storage": [
      {
        "astId": 13866,
        "contract": "contracts/L1Resolver.sol:L1Resolver",
        "label": "targets",
        "offset": 0,
        "slot": "0",
        "type": "t_mapping(t_bytes32,t_address)"
      }
    ],
    "types": {
      "t_address": {
        "encoding": "inplace",
        "label": "address",
        "numberOfBytes": "20"
      },
      "t_bytes32": {
        "encoding": "inplace",
        "label": "bytes32",
        "numberOfBytes": "32"
      },
      "t_mapping(t_bytes32,t_address)": {
        "encoding": "mapping",
        "key": "t_bytes32",
        "label": "mapping(bytes32 => address)",
        "numberOfBytes": "32",
        "value": "t_address"
      }
    }
  }
}