{
  "address": "0x694DC6bac0835Db310a764574aF5DfF9D5639316",
  "abi": [
    {
      "inputs": [
        {
          "internalType": "contract IEVMVerifier",
          "name": "_verifier",
          "type": "address"
        },
        {
          "internalType": "contract ENS",
          "name": "_ens",
          "type": "address"
        },
        {
          "internalType": "contract INameWrapper",
          "name": "_nameWrapper",
          "type": "address"
        },
        {
          "internalType": "string",
          "name": "_graphqlUrl",
          "type": "string"
        },
        {
          "internalType": "uint256",
          "name": "_l2ChainId",
          "type": "uint256"
        }
      ],
      "stateMutability": "nonpayable",
      "type": "constructor"
    },
    {
      "inputs": [],
      "name": "CommandTooLong",
      "type": "error"
    },
    {
      "inputs": [
        {
          "internalType": "uint256",
          "name": "value",
          "type": "uint256"
        },
        {
          "internalType": "uint256",
          "name": "max",
          "type": "uint256"
        }
      ],
      "name": "InvalidReference",
      "type": "error"
    },
    {
      "inputs": [
        {
          "internalType": "address",
          "name": "sender",
          "type": "address"
        },
        {
          "internalType": "string[]",
          "name": "urls",
          "type": "string[]"
        },
        {
          "internalType": "bytes",
          "name": "callData",
          "type": "bytes"
        },
        {
          "internalType": "bytes4",
          "name": "callbackFunction",
          "type": "bytes4"
        },
        {
          "internalType": "bytes",
          "name": "extraData",
          "type": "bytes"
        }
      ],
      "name": "OffchainLookup",
      "type": "error"
    },
    {
      "inputs": [
        {
          "internalType": "uint256",
          "name": "actual",
          "type": "uint256"
        },
        {
          "internalType": "uint256",
          "name": "expected",
          "type": "uint256"
        }
      ],
      "name": "ResponseLengthMismatch",
      "type": "error"
    },
    {
      "inputs": [
        {
          "internalType": "uint256",
          "name": "chainId",
          "type": "uint256"
        },
        {
          "internalType": "address",
          "name": "contractAddress",
          "type": "address"
        }
      ],
      "name": "StorageHandledByL2",
      "type": "error"
    },
    {
      "inputs": [
        {
          "internalType": "uint256",
          "name": "max",
          "type": "uint256"
        }
      ],
      "name": "TooManyCommands",
      "type": "error"
    },
    {
      "anonymous": false,
      "inputs": [
        {
          "indexed": false,
          "internalType": "bytes",
          "name": "name",
          "type": "bytes"
        },
        {
          "indexed": false,
          "internalType": "string",
          "name": "graphqlUrl",
          "type": "string"
        }
      ],
      "name": "MetadataChanged",
      "type": "event"
    },
    {
      "anonymous": false,
      "inputs": [
        {
          "indexed": false,
          "internalType": "bytes",
          "name": "name",
          "type": "bytes"
        },
        {
          "indexed": false,
          "internalType": "address",
          "name": "target",
          "type": "address"
        }
      ],
      "name": "TargetSet",
      "type": "event"
    },
    {
      "inputs": [
        {
          "internalType": "bytes[]",
          "name": "values",
          "type": "bytes[]"
        },
        {
          "internalType": "bytes",
          "name": "",
          "type": "bytes"
        }
      ],
      "name": "addrCallback",
      "outputs": [
        {
          "internalType": "bytes",
          "name": "",
          "type": "bytes"
        }
      ],
      "stateMutability": "pure",
      "type": "function"
    },
    {
      "inputs": [
        {
          "internalType": "bytes[]",
          "name": "values",
          "type": "bytes[]"
        },
        {
          "internalType": "bytes",
          "name": "",
          "type": "bytes"
        }
      ],
      "name": "addrCoinTypeCallback",
      "outputs": [
        {
          "internalType": "bytes",
          "name": "",
          "type": "bytes"
        }
      ],
      "stateMutability": "pure",
      "type": "function"
    },
    {
      "inputs": [
        {
          "internalType": "bytes[]",
          "name": "values",
          "type": "bytes[]"
        },
        {
          "internalType": "bytes",
          "name": "",
          "type": "bytes"
        }
      ],
      "name": "contenthashCallback",
      "outputs": [
        {
          "internalType": "bytes",
          "name": "",
          "type": "bytes"
        }
      ],
      "stateMutability": "pure",
      "type": "function"
    },
    {
      "inputs": [],
      "name": "ens",
      "outputs": [
        {
          "internalType": "contract ENS",
          "name": "",
          "type": "address"
        }
      ],
      "stateMutability": "view",
      "type": "function"
    },
    {
      "inputs": [
        {
          "internalType": "bytes",
          "name": "response",
          "type": "bytes"
        },
        {
          "internalType": "bytes",
          "name": "extradata",
          "type": "bytes"
        }
      ],
      "name": "getStorageSlotsCallback",
      "outputs": [],
      "stateMutability": "nonpayable",
      "type": "function"
    },
    {
      "inputs": [
        {
          "internalType": "bytes",
          "name": "name",
          "type": "bytes"
        }
      ],
      "name": "getTarget",
      "outputs": [
        {
          "internalType": "bytes32",
          "name": "node",
          "type": "bytes32"
        },
        {
          "internalType": "address",
          "name": "target",
          "type": "address"
        }
      ],
      "stateMutability": "view",
      "type": "function"
    },
    {
      "inputs": [],
      "name": "graphqlUrl",
      "outputs": [
        {
          "internalType": "string",
          "name": "",
          "type": "string"
        }
      ],
      "stateMutability": "view",
      "type": "function"
    },
    {
      "inputs": [],
      "name": "l2ChainId",
      "outputs": [
        {
          "internalType": "uint256",
          "name": "",
          "type": "uint256"
        }
      ],
      "stateMutability": "view",
      "type": "function"
    },
    {
      "inputs": [
        {
          "internalType": "bytes",
          "name": "name",
          "type": "bytes"
        }
      ],
      "name": "metadata",
      "outputs": [
        {
          "internalType": "string",
          "name": "",
          "type": "string"
        }
      ],
      "stateMutability": "view",
      "type": "function"
    },
    {
      "inputs": [],
      "name": "nameWrapper",
      "outputs": [
        {
          "internalType": "contract INameWrapper",
          "name": "",
          "type": "address"
        }
      ],
      "stateMutability": "view",
      "type": "function"
    },
    {
      "inputs": [
        {
          "internalType": "bytes",
          "name": "name",
          "type": "bytes"
        },
        {
          "internalType": "bytes",
          "name": "data",
          "type": "bytes"
        }
      ],
      "name": "resolve",
      "outputs": [
        {
          "internalType": "bytes",
          "name": "result",
          "type": "bytes"
        }
      ],
      "stateMutability": "view",
      "type": "function"
    },
    {
      "inputs": [
        {
          "internalType": "bytes",
          "name": "name",
          "type": "bytes"
        },
        {
          "internalType": "address",
          "name": "_addr",
          "type": "address"
        }
      ],
      "name": "setAddr",
      "outputs": [
        {
          "internalType": "bytes",
          "name": "result",
          "type": "bytes"
        }
      ],
      "stateMutability": "view",
      "type": "function"
    },
    {
      "inputs": [
        {
          "internalType": "bytes",
          "name": "name",
          "type": "bytes"
        },
        {
          "internalType": "address",
          "name": "target",
          "type": "address"
        }
      ],
      "name": "setTarget",
      "outputs": [],
      "stateMutability": "nonpayable",
      "type": "function"
    },
    {
      "inputs": [
        {
          "internalType": "bytes4",
          "name": "interfaceId",
          "type": "bytes4"
        }
      ],
      "name": "supportsInterface",
      "outputs": [
        {
          "internalType": "bool",
          "name": "",
          "type": "bool"
        }
      ],
      "stateMutability": "view",
      "type": "function"
    },
    {
      "inputs": [
        {
          "internalType": "bytes[]",
          "name": "values",
          "type": "bytes[]"
        },
        {
          "internalType": "bytes",
          "name": "",
          "type": "bytes"
        }
      ],
      "name": "textCallback",
      "outputs": [
        {
          "internalType": "bytes",
          "name": "",
          "type": "bytes"
        }
      ],
      "stateMutability": "pure",
      "type": "function"
    },
    {
      "inputs": [],
      "name": "verifier",
      "outputs": [
        {
          "internalType": "contract IEVMVerifier",
          "name": "",
          "type": "address"
        }
      ],
      "stateMutability": "view",
      "type": "function"
    }
  ],
  "transactionHash": "0x3eb3402f31a01d636ff35b092e19baf69e3c48f2d91721ff3552fe831babb5be",
  "args": [
    "0x4167C0E7DE2f265A13E2E6B19f26AC4F8C7b4e5f",
    "0x00000000000C2E074eC69A0dFb2997BA6C7d2e1e",
    "0x0635513f179D50A207757E05759CbD106d7dFcE8",
    "https://api.studio.thegraph.com/query/69290/ens-linea-sepolia/version/latest",
    59141
  ],
  "numDeployments": 3,
  "solcInputHash": "f61b67d309df2633cb65b80f0947946b",
  "bytecode": "0x60e060405234610377576124f4803803908161001a8161037c565b91823960a08183810103126103775780516001600160a01b039182821682036103775760208101518381168103610377576040820151908482168203610377576060830151936001600160401b03851161037757601f938781018587830101121561037757808601516001600160401b03811161027d57601f19966100a5828801891660200161037c565b99828b5283016020838386010101116103775760005b82811061036157505060009089016020015260800151958381161561031d57808216156102d8578216156102935760805260a05260c0528351906001600160401b03821161027d5760019283548481811c91168015610273575b602082101461025d57828111610215575b5060209183116001146101b65750819293946000926101ab575b5050600019600383901b1c191690821b1790555b60025560405161215290816103a28239608051818181610361015281816113420152818161152301528181611698015261179c015260a0518181816105840152610a3a015260c05181818161097d0152610a6f0152f35b015190503880610140565b8216908360005260206000209160005b8181106101ff57509583859697106101e6575b505050811b019055610154565b015160001960f88460031b161c191690553880806101d9565b87830151845592850192602092830192016101c6565b8460005260206000208380860160051c82019260208710610254575b0160051c019085905b828110610248575050610126565b6000815501859061023a565b92508192610231565b634e487b7160e01b600052602260045260246000fd5b90607f1690610115565b634e487b7160e01b600052604160045260246000fd5b60405162461bcd60e51b815260206004820152601c60248201527f52656769737472792061646472657373206d75737420626520736574000000006044820152606490fd5b60405162461bcd60e51b815260206004820152601c60248201527f56657269666965722061646472657373206d75737420626520736574000000006044820152606490fd5b606460405162461bcd60e51b815260206004820152602060248201527f4e616d6520577261707065722061646472657373206d757374206265207365746044820152fd5b602082850182018101518c8301820152016100bb565b600080fd5b6040519190601f01601f191682016001600160401b0381118382101761027d5760405256fe6080604052600436101561001257600080fd5b60003560e01c806301ffc9a71461010d57806315f64386146101085780632b7ac3f31461010357806338bf92e6146100cc5780633f15457f146100fe5780634062b43f146100f95780635bdaa916146100f45780638a596ebe146100ef5780639061b923146100ea578063a8e5fbc0146100e5578063d358df77146100e0578063d6ae3cd5146100db578063de9abe5e146100cc578063f00eebf4146100d6578063f470901a146100d15763fcd2e381146100cc57600080fd5b61050a565b610c9c565b610c50565b610c32565b6109f5565b610967565b610881565b61083c565b610744565b6106a2565b61056e565b61034b565b6102fa565b61012c565b35906001600160e01b03198216820361012757565b600080fd5b346101275760203660031901126101275760043563ffffffff60e01b81168091036101275761018f90639061b92360e01b81149081156101c6575b81156101b5575b81156101a4575b8115610193575b5060405190151581529081906020820190565b0390f35b6301ffc9a760e01b1490503861017c565b633c03bafd60e21b81149150610175565b63452cb75f60e11b8114915061016e565b630afb21c360e11b81149150610167565b634e487b7160e01b600052604160045260246000fd5b604081019081106001600160401b0382111761020857604052565b6101d7565b602081019081106001600160401b0382111761020857604052565b61042081019081106001600160401b0382111761020857604052565b90601f801991011681019081106001600160401b0382111761020857604052565b6001600160401b03811161020857601f01601f191660200190565b92919261028c82610265565b9161029a6040519384610244565b829481845281830111610127578281602093846000960137010152565b9080601f83011215610127578160206102d293359101610280565b90565b906020828203126101275781356001600160401b038111610127576102d292016102b7565b34610127576020366003190112610127576004356001600160401b03811161012757610336600061033160409336906004016102b7565b6111e8565b82519182526001600160a01b03166020820152f35b34610127576000366003190112610127576040517f00000000000000000000000000000000000000000000000000000000000000006001600160a01b03168152602090f35b6001600160401b0381116102085760051b60200190565b81601f82011215610127578035916020916103c184610390565b936103cf6040519586610244565b808552838086019160051b8301019280841161012757848301915b8483106103fa5750505050505090565b82356001600160401b03811161012757869161041b848480948901016102b7565b8152019201916103ea565b906040600319830112610127576001600160401b036004358181116101275783610452916004016103a7565b92602435918211610127576102d2916004016102b7565b60005b83811061047c5750506000910152565b818101518382015260200161046c565b906020916104a581518092818552858086019101610469565b601f01601f1916010190565b906020916020815260605180602083015260005b8181106104e6575060409293506000838284010152601f8019910116010190565b60808101518382016040015284016104c5565b9060206102d292818152019061048c565b346101275761051836610426565b5080516001101561056957610547610555604061018f930151604051928391602080840152604083019061048c565b03601f198101835282610244565b60405191829160208352602083019061048c565b610d24565b34610127576000366003190112610127576040517f00000000000000000000000000000000000000000000000000000000000000006001600160a01b03168152602090f35b90600182811c921680156105e3575b60208310146105cd57565b634e487b7160e01b600052602260045260246000fd5b91607f16916105c2565b90600091600190600154610600816105b3565b808352926020916001811690811561067d5750600114610621575b50505050565b9293945060016000527fb10e2d527612073b26eecdfd717e6a320cf44b4afac2b0732d9fcbe2b7fa0cf6926000935b85851061066a57505050602092500101903880808061061b565b8054858501840152938201938101610650565b92505050602093945060ff929192191683830152151560051b0101903880808061061b565b346101275760003660031901126101275761018f604051610555816106c6816105ed565b0382610244565b9181601f84011215610127578235916001600160401b038311610127576020838186019501011161012757565b6040600319820112610127576001600160401b03916004358381116101275782610726916004016106cd565b9390939260243591821161012757610740916004016106cd565b9091565b3461012757610769610795600061077261075d366106fa565b969183919301906102d5565b94810190610d4e565b9492939096916040518097819482936322b2358760e01b84528860048501610f86565b03916001600160a01b03165afa92831561083757600093610812575b5082519051908181036107ec576107e4846107de8761054787604051948593602085015260248401610fc9565b306112ad565b602081519101f35b604051632918942560e01b815260048101919091526024810191909152604490fd5b0390fd5b6108309193503d806000833e6108288183610244565b810190610e4b565b91386107b1565b610fbd565b34610127576020366003190112610127576004356001600160401b0381116101275761086c9036906004016106cd565b505061018f604051610555816106c6816105ed565b346101275761033160006108a3610897366106fa565b94929095913691610280565b9290506001600160e01b03196108b98383610fee565b16631d9dabef60e11b8114610953576378e5bf0360e11b811461093657631674750f60e21b81146109195763bc1c58d160e01b146108fe576040518061018f816104b1565b816109149261090c9261101a565b810190611037565b61178e565b5081610930926109289261101a565b81019061105c565b90611689565b508161094d926109459261101a565b810190611046565b90611509565b50816109629261090c9261101a565b61132c565b34610127576000366003190112610127576040517f00000000000000000000000000000000000000000000000000000000000000006001600160a01b03168152602090f35b6001600160a01b0381160361012757565b604060031982011261012757600435906001600160401b038211610127576109e7916004016106cd565b90916024356102d2816109ac565b3461012757610a03366109bd565b91610a146000610331368585610280565b506040516302571be360e01b8152600481018290526001600160a01b03602080836024817f000000000000000000000000000000000000000000000000000000000000000086165afa92831561083757600093610c11575b507f00000000000000000000000000000000000000000000000000000000000000008216908383168214610b4d575b505094610b2881610b097f88781081cc340609705af0f96bf3ba64ea267873444e91725bd072f2af0f44d895610af9610b36967f3c68652dbd57659176ef0092991d5753aac3039c3134b7a3eb5689acfaccf62d9b3391161461109b565b6000526000602052604060002090565b80546001600160a01b0319166001600160a01b03909216919091179055565b6040519182918686846110c3565b0390a1610b48604051928392836110ec565b0390a1005b6040516331a9108f60e11b8152600481018690529790935091908390889060249082905afa801561083757610b097f88781081cc340609705af0f96bf3ba64ea267873444e91725bd072f2af0f44d895610af9610b289486947f3c68652dbd57659176ef0092991d5753aac3039c3134b7a3eb5689acfaccf62d9c610b3699600092610be4575b50509750959a5050955050610a9b565b610c039250803d10610c0a575b610bfb8183610244565b810190611855565b3880610bd4565b503d610bf1565b819350610c2b9083923d8611610c0a57610bfb8183610244565b9290610a6c565b34610127576000366003190112610127576020600254604051908152f35b34610127576044610c706000610331610c68366109bd565b503691610280565b60025460405163e0a0507160e01b815260048101919091526001600160a01b0390911660248201529050fd5b3461012757610caa36610426565b5080516001101561056957610547610d03604061018f93015160208151910151906bffffffffffffffffffffffff19918281169160148110610d0f575b50506040805160609290921c6020830152909384925090820190565b604051918291826104f9565b8391925060140360031b1b1616803880610ce7565b634e487b7160e01b600052603260045260246000fd5b80518210156105695760209160051b010190565b9060a082820312610127578135610d64816109ac565b926001600160401b03906020848101358381116101275785019084601f8301121561012757813591610d9583610390565b92610da36040519485610244565b808452828085019160051b83010191878311610127578301905b828210610e0557505050509360408101358381116101275784610de19183016103a7565b93610dee60608301610112565b936080830135908111610127576102d292016102b7565b81358152908301908301610dbd565b90929192610e2181610265565b91610e2f6040519384610244565b829482845282820111610127576020610e49930190610469565b565b9060209081838203126101275782516001600160401b039384821161012757019080601f83011215610127578151610e8281610390565b94604090610e936040519788610244565b828752858088019360051b8601019484861161012757868101935b868510610ec057505050505050505090565b845183811161012757820186603f82011215610127578891610eea88838886809601519101610e14565b815201940193610eae565b90815180825260208080930193019160005b828110610f15575050505090565b835185529381019392810192600101610f07565b90808251908181526020809101926020808460051b8301019501936000915b848310610f585750505050505090565b9091929394958480610f76600193601f198682030187528a5161048c565b9801930193019194939290610f48565b91610faf90610fa16102d29593606086526060860190610ef5565b908482036020860152610f29565b91604081840391015261048c565b6040513d6000823e3d90fd5b9091610fe06102d293604084526040840190610f29565b91602081840391015261048c565b6001600160e01b0319903581811693926004811061100b57505050565b60040360031b82901b16169150565b909291928360041161012757831161012757600401916003190190565b90816020910312610127573590565b9190826040910312610127576020823592013590565b9190604083820312610127578235926020810135906001600160401b03821161012757019080601f83011215610127578160206102d293359101610280565b1561012757565b908060209392818452848401376000828201840152601f01601f1916010190565b916020916110dc919594956040855260408501916110a2565b6001600160a01b03909416910152565b9190611100916040845260408401916110a2565b8181036020928301526001805460009392909161111c836105b3565b8083529260018116908115611195575060011461113b575b5050505090565b9293509060016000527fb10e2d527612073b26eecdfd717e6a320cf44b4afac2b0732d9fcbe2b7fa0cf692846000945b8386106111815750505050010138808080611134565b80548587018301529401938590820161116b565b60ff191685840152505090151560051b0101905038808080611134565b634e487b7160e01b600052601160045260246000fd5b90600182018092116111d657565b6111b2565b919082018092116111d657565b9190918051831015610569576020838201015160f81c80156112a1579061122d611228836112226112339561121c896111c8565b8661186a565b966111db565b6111c8565b906111e8565b604080516020810193845290810194909452926112538160608101610547565b51902060008181526020819052604090206001600160a01b039061127f905b546001600160a01b031690565b16611288579190565b91506102d2611272836000526000602052604060002090565b50509050600090600090565b906102d291600080604051936112c2856101ed565b601e85527f416464726573733a206c6f772d6c6576656c2063616c6c206661696c65640000602086015260208151910182855af13d15611324573d9161130783610265565b926113156040519485610244565b83523d6000602085013e611ef8565b606091611ef8565b61136b6113756113708361136b61136661137a977f00000000000000000000000000000000000000000000000000000000000000006118c1565b61195d565b6119d4565b611a08565b611a7f565b611382611884565b506060810160209182825110156114f7576004906040906113bf6113b98351603c888201528781526113b3816101ed565b836120ef565b8261208e565b8151946113cb8661020d565b600086528282019481865151151591826114ec575b50506114de575b8151600090611406906001600160a01b03165b6001600160a01b031690565b8451632d43cbef60e21b815295869182905afa938415610837576000946114c1575b50818101516001600160a01b0316948051966080840197885197865198899263ea9cd3bf60e01b87850152602484019261146193611af2565b0393601f199485810189526114769089610244565b516001600160a01b031691519751855198899485019361149594611b28565b0390810185526114a59085610244565b51630556f18360e41b815292839261080e923060048601611c42565b6114d79194503d806000833e6108288183610244565b9238611428565b6114e782611f89565b6113e7565b5110905081386113e0565b604051631601fac760e31b8152600490fd5b8061136b61137561137061136b9461136b611366611547997f00000000000000000000000000000000000000000000000000000000000000006118c1565b60409060048251926115588461020d565b600084528083019081515115158061167b575b61166d575b8351600090611587906001600160a01b03166113fa565b8251632d43cbef60e21b815294859182905afa9283156108375760009361164a575b506020840151929361080e9361163291906001600160a01b03169361162681519861161460808501976115f2895189519d8e9363ea9cd3bf60e01b602086015260248501611af2565b0394611607601f19968d88820190528d610244565b516001600160a01b031690565b92519651865197889460208601611b79565b03908101845283610244565b51630556f18360e41b81529384933060048601611c42565b61080e9350611666611632913d806000833e6108288183610244565b93506115a9565b61167684611f89565b611570565b50602060608501511061156b565b90918161136b6113666116bc937f00000000000000000000000000000000000000000000000000000000000000006118c1565b906116c5611884565b5060206040830180516001815180151580611781575b611773575b01905251511161175a5761136b826000606061172095015261170181612033565b6113756113b96040516113b3816105476020820190600a602083019252565b90611729611884565b506020606083015110156114f7576113b961174491836120ef565b604051906117518261020d565b60008252611ce6565b604051630251ce0160e31b815260206004820152602490fd5b61177c87611f89565b6116e0565b50846060880151106116db565b908161136b6113666117c0937f00000000000000000000000000000000000000000000000000000000000000006118c1565b906117c9611884565b5060206040830180516001815180151580611848575b61183a575b01905251511161175a5761136b826000606061182495015261180581612033565b6113756113b96040516113b38161054760208201906003602083019252565b604051906118318261020d565b60008252611e0c565b61184387611f89565b6117e4565b50846060880151106117df565b9081602091031261012757516102d2816109ac565b908281018082116111d65782511061012757016020012090565b6040519060a082018281106001600160401b0382111761020857604052606060808360008152600060208201528260408201526000838201520152565b6118c9611884565b506040516118d681610228565b602091602082526104009283366020850137604051936118f585610228565b60005b81811061194e5750505060008252600083526040519360a085018581106001600160401b03821117610208576040526001600160a01b039182168552166020840152604083015260006060830152608082015290565b606086820184015282016118f8565b611965611884565b50602060408201805160018151801515806119c7575b6119b9575b01905251511161175a576000606082015261199a81611fe7565b6102d26113b96040516113b38161054760208201906000602083019252565b6119c286611f89565b611980565b508460608701511061197b565b906119dd611884565b506020606083015110156114f7576113b96102d291604051906020820152602081526113b3816101ed565b611a10611884565b5060206040820180516001815180151580611a72575b611a64575b01905251511161175a5760006060820152611a4581612033565b6102d26113b96040516113b38161054760208201906002602083019252565b611a6d86611f89565b611a2b565b5084606087015110611a26565b611a87611884565b50606081016020815110156114f7576040820190815151600019918282019182116111d657611ab7828551610d3a565b519080519384146111d6576001840190526001600160fd1b03831683036111d657611aee92600160fd1b9060031b1c179251610d3a565b5290565b6001600160a01b0390911681526060602082018190526102d2939192611b1a91840190610ef5565b916040818403910152610f29565b92611b506102d29593611b5e9360018060a01b0316865260a0602087015260a0860190610ef5565b908482036040860152610f29565b91637a38480d60e11b6060820152608081840391015261048c565b92611b506102d29593611ba19360018060a01b0316865260a0602087015260a0860190610ef5565b91631c5fc97360e11b6060820152608081840391015261048c565b92611b506102d29593611be49360018060a01b0316865260a0602087015260a0860190610ef5565b91636f4d5f2f60e11b6060820152608081840391015261048c565b92611b506102d29593611c279360018060a01b0316865260a0602087015260a0860190610ef5565b9163fcd2e38160e01b6060820152608081840391015261048c565b92909493919460a084019060018060a01b0316845260209060a06020860152865180915260c0850191602060c08360051b8801019801926000905b838210611cba57505050505084611c9f91846102d2969703604086015261048c565b632ded548b60e11b606084015291608081840391015261048c565b90919293988380611cd760019360bf198c82030186528d5161048c565b9b019201920190939291611c7d565b600460408201805151151580611dfe575b611df0575b8251600090611d13906001600160a01b03166113fa565b604051632d43cbef60e21b815293849182905afa91821561083757600092611dcd575b506020830151919261080e92611db391906001600160a01b031692611da7815197611d946080850196611d8088516040519c8d9363ea9cd3bf60e01b602086015260248501611af2565b0394611607601f19968781018d528c610244565b9251955160405196879460208601611bbc565b03908101835282610244565b604051630556f18360e41b81529384933060048601611c42565b61080e9250611de9611db3913d806000833e6108288183610244565b9250611d36565b611df983611f89565b611cfc565b506020606084015110611cf7565b600460408201805151151580611eea575b611edc575b8251600090611e39906001600160a01b03166113fa565b604051632d43cbef60e21b815293849182905afa91821561083757600092611eb9575b506020830151919261080e92611db391906001600160a01b031692611da7815197611ea66080850196611d8088516040519c8d9363ea9cd3bf60e01b602086015260248501611af2565b9251955160405196879460208601611bff565b61080e9250611ed5611db3913d806000833e6108288183610244565b9250611e5c565b611ee583611f89565b611e22565b506020606084015110611e1d565b91929015611f5a5750815115611f0c575090565b3b15611f155790565b60405162461bcd60e51b815260206004820152601d60248201527f416464726573733a2063616c6c20746f206e6f6e2d636f6e74726163740000006044820152606490fd5b825190915015611f6d5750805190602001fd5b60405162461bcd60e51b815290819061080e90600483016104f9565b6040810190815151600019918282019182116111d6576060611fac838651610d3a565b51910180519384146111d6576001840190526001600160fd1b03831683036111d657611fe49260ff60f81b9060031b1c179251610d3a565b52565b604081018051516000198082019182116111d6576060612008838551610d3a565b51940180519182146111d6576001820190526001600160fd1b038116036111d657611fe49151610d3a565b6040810190815151600019918282019182116111d6576060612056838651610d3a565b51910180519384146111d6576001840190526001600160fd1b03831683036111d657611fe492600160f81b9060031b1c179251610d3a565b604081018051519092916000198083019283116111d65760606120b2848751610d3a565b51920180519182146111d6576001820190526001600160fd1b03811681036111d657611fe49360ff60f81b9060f81b169060031b1c179251610d3a565b60806121199193929301519260ff8451169384916001830182526121138383610d3a565b52610d3a565b5056fea26469706673582212205e3a625ffb5179e185383b2bb38234762b970b23939516dd0e645f19132762f864736f6c63430008190033",
  "devdoc": {
    "errors": {
      "StorageHandledByL2(uint256,address)": [
        {
          "details": "EIP-5559 - Error to raise when mutations are being deferred to an L2.",
          "params": {
            "chainId": "Chain ID to perform the deferred mutation to.",
            "contractAddress": "Contract Address at which the deferred mutation should transact with."
          }
        }
      ]
    },
    "kind": "dev",
    "methods": {
      "constructor": {
        "params": {
          "_ens": "The ENS registry address",
          "_graphqlUrl": "The offchain/l2 graphql endpoint url",
          "_l2ChainId": "The chainId at which the resolver resolves data from",
          "_nameWrapper": "The ENS name wrapper address",
          "_verifier": "The chain verifier address"
        }
      },
      "getStorageSlotsCallback(bytes,bytes)": {
        "details": "Internal callback function invoked by CCIP-Read in response to a `getStorageSlots` request."
      },
      "getTarget(bytes)": {
        "details": "Returns the L2 target address that can answer queries for `name`.",
        "params": {
          "name": "DNS encoded ENS name to query"
        },
        "returns": {
          "node": "The node of the name",
          "target": "The L2 resolver address to verify against."
        }
      },
      "metadata(bytes)": {
        "details": "This function provides metadata about the L1 Resolver, including its name, coin type, GraphQL URL, storage type, and encoded information.",
        "params": {
          "name": "The domain name in format (dnsEncoded)"
        },
        "returns": {
          "_0": "graphqlUrl The GraphQL URL used by the resolver"
        }
      },
      "resolve(bytes,bytes)": {
        "details": "Resolve and verify a record stored in l2 target address. It supports subname by fetching target recursively to the nearlest parent.",
        "params": {
          "data": "The actual calldata",
          "name": "DNS encoded ENS name to query"
        },
        "returns": {
          "result": "result of the call"
        }
      },
      "setAddr(bytes,address)": {
        "details": "Resolve and throws an EIP 3559 compliant error",
        "params": {
          "_addr": "The actual calldata",
          "name": "DNS encoded ENS name to query"
        },
        "returns": {
          "result": "result of the call"
        }
      },
      "setTarget(bytes,address)": {
        "params": {
          "name": "The encoded name to query.",
          "target": "The L2 resolver address to verify against."
        }
      },
      "supportsInterface(bytes4)": {
        "details": "See {IERC165-supportsInterface}."
      }
    },
    "version": 1
  },
  "userdoc": {
    "kind": "user",
    "methods": {
      "metadata(bytes)": {
        "notice": "Get metadata about the L1 Resolver"
      },
      "setTarget(bytes,address)": {
        "notice": "Set target address to verify aagainst"
      }
    },
    "version": 1
  },
  "storageLayout": {
    "storage": [
      {
        "astId": 2247,
        "contract": "contracts/L1Resolver.sol:L1Resolver",
        "label": "targets",
        "offset": 0,
        "slot": "0",
        "type": "t_mapping(t_bytes32,t_address)"
      },
      {
        "astId": 2267,
        "contract": "contracts/L1Resolver.sol:L1Resolver",
        "label": "graphqlUrl",
        "offset": 0,
        "slot": "1",
        "type": "t_string_storage"
      },
      {
        "astId": 2269,
        "contract": "contracts/L1Resolver.sol:L1Resolver",
        "label": "l2ChainId",
        "offset": 0,
        "slot": "2",
        "type": "t_uint256"
      }
    ],
    "types": {
      "t_address": {
        "encoding": "inplace",
        "label": "address",
        "numberOfBytes": "20"
      },
      "t_bytes32": {
        "encoding": "inplace",
        "label": "bytes32",
        "numberOfBytes": "32"
      },
      "t_mapping(t_bytes32,t_address)": {
        "encoding": "mapping",
        "key": "t_bytes32",
        "label": "mapping(bytes32 => address)",
        "numberOfBytes": "32",
        "value": "t_address"
      },
      "t_string_storage": {
        "encoding": "bytes",
        "label": "string",
        "numberOfBytes": "32"
      },
      "t_uint256": {
        "encoding": "inplace",
        "label": "uint256",
        "numberOfBytes": "32"
      }
    }
  }
}