{
  "address": "0x024A4449b68257EC87EbeF3df12268281cFC0a75",
  "abi": [
    {
      "inputs": [
        {
          "internalType": "contract IEVMVerifier",
          "name": "_verifier",
          "type": "address"
        },
        {
          "internalType": "contract ENS",
          "name": "_ens",
          "type": "address"
        },
        {
          "internalType": "contract INameWrapper",
          "name": "_nameWrapper",
          "type": "address"
        },
        {
          "internalType": "string",
          "name": "_graphqlUrl",
          "type": "string"
        },
        {
          "internalType": "uint256",
          "name": "_l2ChainId",
          "type": "uint256"
        }
      ],
      "stateMutability": "nonpayable",
      "type": "constructor"
    },
    {
      "inputs": [],
      "name": "CommandTooLong",
      "type": "error"
    },
    {
      "inputs": [
        {
          "internalType": "uint256",
          "name": "value",
          "type": "uint256"
        },
        {
          "internalType": "uint256",
          "name": "max",
          "type": "uint256"
        }
      ],
      "name": "InvalidReference",
      "type": "error"
    },
    {
      "inputs": [
        {
          "internalType": "address",
          "name": "sender",
          "type": "address"
        },
        {
          "internalType": "string[]",
          "name": "urls",
          "type": "string[]"
        },
        {
          "internalType": "bytes",
          "name": "callData",
          "type": "bytes"
        },
        {
          "internalType": "bytes4",
          "name": "callbackFunction",
          "type": "bytes4"
        },
        {
          "internalType": "bytes",
          "name": "extraData",
          "type": "bytes"
        }
      ],
      "name": "OffchainLookup",
      "type": "error"
    },
    {
      "inputs": [
        {
          "internalType": "uint256",
          "name": "actual",
          "type": "uint256"
        },
        {
          "internalType": "uint256",
          "name": "expected",
          "type": "uint256"
        }
      ],
      "name": "ResponseLengthMismatch",
      "type": "error"
    },
    {
      "inputs": [
        {
          "internalType": "uint256",
          "name": "chainId",
          "type": "uint256"
        },
        {
          "internalType": "address",
          "name": "contractAddress",
          "type": "address"
        }
      ],
      "name": "StorageHandledByL2",
      "type": "error"
    },
    {
      "inputs": [
        {
          "internalType": "uint256",
          "name": "max",
          "type": "uint256"
        }
      ],
      "name": "TooManyCommands",
      "type": "error"
    },
    {
      "anonymous": false,
      "inputs": [
        {
          "indexed": false,
          "internalType": "bytes",
          "name": "name",
          "type": "bytes"
        },
        {
          "indexed": false,
          "internalType": "string",
          "name": "graphqlUrl",
          "type": "string"
        }
      ],
      "name": "MetadataChanged",
      "type": "event"
    },
    {
      "anonymous": false,
      "inputs": [
        {
          "indexed": true,
          "internalType": "bytes32",
          "name": "node",
          "type": "bytes32"
        },
        {
          "indexed": false,
          "internalType": "address",
          "name": "target",
          "type": "address"
        }
      ],
      "name": "TargetSet",
      "type": "event"
    },
    {
      "inputs": [
        {
          "internalType": "bytes[]",
          "name": "values",
          "type": "bytes[]"
        },
        {
          "internalType": "bytes",
          "name": "",
          "type": "bytes"
        }
      ],
      "name": "addrCallback",
      "outputs": [
        {
          "internalType": "bytes",
          "name": "",
          "type": "bytes"
        }
      ],
      "stateMutability": "pure",
      "type": "function"
    },
    {
      "inputs": [
        {
          "internalType": "bytes[]",
          "name": "values",
          "type": "bytes[]"
        },
        {
          "internalType": "bytes",
          "name": "",
          "type": "bytes"
        }
      ],
      "name": "addrCoinTypeCallback",
      "outputs": [
        {
          "internalType": "bytes",
          "name": "",
          "type": "bytes"
        }
      ],
      "stateMutability": "pure",
      "type": "function"
    },
    {
      "inputs": [
        {
          "internalType": "bytes[]",
          "name": "values",
          "type": "bytes[]"
        },
        {
          "internalType": "bytes",
          "name": "",
          "type": "bytes"
        }
      ],
      "name": "contenthashCallback",
      "outputs": [
        {
          "internalType": "bytes",
          "name": "",
          "type": "bytes"
        }
      ],
      "stateMutability": "pure",
      "type": "function"
    },
    {
      "inputs": [
        {
          "internalType": "bytes",
          "name": "response",
          "type": "bytes"
        },
        {
          "internalType": "bytes",
          "name": "extradata",
          "type": "bytes"
        }
      ],
      "name": "getStorageSlotsCallback",
      "outputs": [],
      "stateMutability": "nonpayable",
      "type": "function"
    },
    {
      "inputs": [
        {
          "internalType": "bytes",
          "name": "name",
          "type": "bytes"
        }
      ],
      "name": "getTarget",
      "outputs": [
        {
          "internalType": "bytes32",
          "name": "node",
          "type": "bytes32"
        },
        {
          "internalType": "address",
          "name": "target",
          "type": "address"
        }
      ],
      "stateMutability": "view",
      "type": "function"
    },
    {
      "inputs": [],
      "name": "graphqlUrl",
      "outputs": [
        {
          "internalType": "string",
          "name": "",
          "type": "string"
        }
      ],
      "stateMutability": "view",
      "type": "function"
    },
    {
      "inputs": [],
      "name": "l2ChainId",
      "outputs": [
        {
          "internalType": "uint256",
          "name": "",
          "type": "uint256"
        }
      ],
      "stateMutability": "view",
      "type": "function"
    },
    {
      "inputs": [
        {
          "internalType": "bytes",
          "name": "name",
          "type": "bytes"
        }
      ],
      "name": "metadata",
      "outputs": [
        {
          "internalType": "string",
          "name": "",
          "type": "string"
        }
      ],
      "stateMutability": "view",
      "type": "function"
    },
    {
      "inputs": [
        {
          "internalType": "bytes",
          "name": "name",
          "type": "bytes"
        },
        {
          "internalType": "bytes",
          "name": "data",
          "type": "bytes"
        }
      ],
      "name": "resolve",
      "outputs": [
        {
          "internalType": "bytes",
          "name": "result",
          "type": "bytes"
        }
      ],
      "stateMutability": "view",
      "type": "function"
    },
    {
      "inputs": [
        {
          "internalType": "bytes",
          "name": "name",
          "type": "bytes"
        },
        {
          "internalType": "address",
          "name": "_addr",
          "type": "address"
        }
      ],
      "name": "setAddr",
      "outputs": [
        {
          "internalType": "bytes",
          "name": "result",
          "type": "bytes"
        }
      ],
      "stateMutability": "view",
      "type": "function"
    },
    {
      "inputs": [
        {
          "internalType": "bytes32",
          "name": "node",
          "type": "bytes32"
        },
        {
          "internalType": "address",
          "name": "target",
          "type": "address"
        }
      ],
      "name": "setTarget",
      "outputs": [],
      "stateMutability": "nonpayable",
      "type": "function"
    },
    {
      "inputs": [
        {
          "internalType": "bytes4",
          "name": "interfaceId",
          "type": "bytes4"
        }
      ],
      "name": "supportsInterface",
      "outputs": [
        {
          "internalType": "bool",
          "name": "",
          "type": "bool"
        }
      ],
      "stateMutability": "view",
      "type": "function"
    },
    {
      "inputs": [
        {
          "internalType": "bytes[]",
          "name": "values",
          "type": "bytes[]"
        },
        {
          "internalType": "bytes",
          "name": "",
          "type": "bytes"
        }
      ],
      "name": "textCallback",
      "outputs": [
        {
          "internalType": "bytes",
          "name": "",
          "type": "bytes"
        }
      ],
      "stateMutability": "pure",
      "type": "function"
    }
  ],
  "transactionHash": "0x8782bcb60dbe4210d9721836ea808eb5141c8acc11c5081413fa32d4b52494da",
  "args": [
    "0x4167C0E7DE2f265A13E2E6B19f26AC4F8C7b4e5f",
    "0x00000000000C2E074eC69A0dFb2997BA6C7d2e1e",
    "0x0635513f179D50A207757E05759CbD106d7dFcE8",
    "https://api.studio.thegraph.com/query/69290/ens-linea-sepolia/version/latest",
    59141
  ],
  "numDeployments": 2,
  "solcInputHash": "3d40a7bf9588ff5346ee1046c26bf7c9",
  "bytecode": "0x60e060405234610362576122d9803803908161001a81610367565b91823960a08183810103126103625780516001600160a01b039182821682036103625760208101518381168103610362576040820151908482168203610362576060830151936001600160401b03851161036257601f938781018587830101121561036257808601516001600160401b03811161026857601f19966100a58288018916602001610367565b99828b5283016020838386010101116103625760005b82811061034c57505060009089016020015260800151958381161561030857808216156102c35782161561027e5760805260a05260c0528351906001600160401b0382116102685760019283548481811c9116801561025e575b602082101461024857828111610200575b5060209183116001146101a1575081929394600092610196575b5050600019600383901b1c191690821b1790555b600255604051611f4c908161038d823960805181818161109f01528181611288015281816113fd0152611501015260a05181610665015260c0518161069c0152f35b015190503880610140565b8216908360005260206000209160005b8181106101ea57509583859697106101d1575b505050811b019055610154565b015160001960f88460031b161c191690553880806101c4565b87830151845592850192602092830192016101b1565b8460005260206000208380860160051c8201926020871061023f575b0160051c019085905b828110610233575050610126565b60008155018590610225565b9250819261021c565b634e487b7160e01b600052602260045260246000fd5b90607f1690610115565b634e487b7160e01b600052604160045260246000fd5b60405162461bcd60e51b815260206004820152601c60248201527f52656769737472792061646472657373206d75737420626520736574000000006044820152606490fd5b60405162461bcd60e51b815260206004820152601c60248201527f56657269666965722061646472657373206d75737420626520736574000000006044820152606490fd5b606460405162461bcd60e51b815260206004820152602060248201527f4e616d6520577261707065722061646472657373206d757374206265207365746044820152fd5b602082850182018101518c8301820152016100bb565b600080fd5b6040519190601f01601f191682016001600160401b038111838210176102685760405256fe6080604052600436101561001257600080fd5b60003560e01c806301ffc9a7146100dd57806315f64386146100d857806338bf92e6146100ab5780634062b43f146100d35780634280bfb5146100ce5780635bdaa916146100c95780638a596ebe146100c45780639061b923146100bf578063d6ae3cd5146100ba578063de9abe5e146100ab578063f00eebf4146100b5578063f470901a146100b05763fcd2e381146100ab57600080fd5b610495565b610a9a565b610a22565b610a04565b61091e565b6108e1565b6107ee565b61061d565b6105f0565b6102ca565b6100fc565b35906001600160e01b0319821682036100f757565b600080fd5b346100f75760203660031901126100f75760043563ffffffff60e01b81168091036100f75761015f90639061b92360e01b8114908115610196575b8115610185575b8115610174575b8115610163575b5060405190151581529081906020820190565b0390f35b6301ffc9a760e01b1490503861014c565b633c03bafd60e21b81149150610145565b63452cb75f60e11b8114915061013e565b630afb21c360e11b81149150610137565b634e487b7160e01b600052604160045260246000fd5b604081019081106001600160401b038211176101d857604052565b6101a7565b602081019081106001600160401b038211176101d857604052565b61042081019081106001600160401b038211176101d857604052565b90601f801991011681019081106001600160401b038211176101d857604052565b6001600160401b0381116101d857601f01601f191660200190565b92919261025c82610235565b9161026a6040519384610214565b8294818452818301116100f7578281602093846000960137010152565b9080601f830112156100f7578160206102a293359101610250565b90565b906020828203126100f75781356001600160401b0381116100f7576102a29201610287565b346100f75760203660031901126100f7576004356001600160401b0381116100f75761030660006103016040933690600401610287565b610f30565b82519182526001600160a01b03166020820152f35b6001600160401b0381116101d85760051b60200190565b81601f820112156100f75780359160209161034c8461031b565b9361035a6040519586610214565b808552838086019160051b830101928084116100f757848301915b8483106103855750505050505090565b82356001600160401b0381116100f75786916103a684848094890101610287565b815201920191610375565b9060406003198301126100f7576001600160401b036004358181116100f757836103dd91600401610332565b926024359182116100f7576102a291600401610287565b60005b8381106104075750506000910152565b81810151838201526020016103f7565b90602091610430815180928185528580860191016103f4565b601f01601f1916010190565b906020916020815260605180602083015260005b818110610471575060409293506000838284010152601f8019910116010190565b6080810151838201604001528401610450565b9060206102a2928181520190610417565b346100f7576104a3366103b1565b508051600110156104f4576104d26104e0604061015f9301516040519283916020808401526040830190610417565b03601f198101835282610214565b604051918291602083526020830190610417565b610b22565b604051906000600190600154918260011c92600181169182156105e6575b6020916020861084146105d2578588528794936020860193929181156105b35750600114610551575b50505061054f92500383610214565b565b92509361058060016000527fb10e2d527612073b26eecdfd717e6a320cf44b4afac2b0732d9fcbe2b7fa0cf690565b946000935b82851061059d5750505061054f935001388080610540565b8654858501529586019588955093810193610585565b9250505061054f9491925060ff19168252151560051b01388080610540565b634e487b7160e01b85526022600452602485fd5b93607f1693610517565b346100f75760003660031901126100f75761015f6104e06104f9565b6001600160a01b038116036100f757565b346100f75760403660031901126100f75760043560243561063d8161060c565b6040516302571be360e01b8152600481018390526001600160a01b03929060209081816024817f000000000000000000000000000000000000000000000000000000000000000089165afa918215610753578591600093610758575b507f0000000000000000000000000000000000000000000000000000000000000000821691831682146106e1575b50506106da906106df9433911614610b4c565b610b53565b005b6040516331a9108f60e11b81526004810185905295909250908290869060249082905afa8015610753576106df956106da93600092610726575b5050918195506106c7565b6107459250803d1061074c575b61073d8183610214565b810190610ff5565b388061071b565b503d610733565b610e1c565b816107709294503d851161074c5761073d8183610214565b9138610699565b9181601f840112156100f7578235916001600160401b0383116100f757602083818601950101116100f757565b60406003198201126100f7576001600160401b03916004358381116100f757826107d091600401610777565b939093926024359182116100f7576107ea91600401610777565b9091565b346100f75761081361083f600061081c610807366107a4565b969183919301906102a5565b94810190610baf565b9492939096916040518097819482936322b2358760e01b84528860048501610de5565b03916001600160a01b03165afa928315610753576000936108bc575b5082519051908181036108965761088e84610888876104d287604051948593602085015260248401610e28565b3061100a565b602081519101f35b604051632918942560e01b815260048101919091526024810191909152604490fd5b0390fd5b6108da9193503d806000833e6108d28183610214565b810190610caa565b913861085b565b346100f75760203660031901126100f7576004356001600160401b0381116100f757610911903690600401610777565b505061015f6104e06104f9565b346100f7576103016000610940610934366107a4565b94929095913691610250565b9290506001600160e01b03196109568383610e4d565b16631d9dabef60e11b81146109f0576378e5bf0360e11b81146109d357631674750f60e21b81146109b65763bc1c58d160e01b1461099b576040518061015f8161043c565b816109b1926109a992610e79565b810190610e96565b6114f3565b50816109cd926109c592610e79565b810190610ebb565b906113ee565b50816109ea926109e292610e79565b810190610ea5565b9061126e565b50816109ff926109a992610e79565b611089565b346100f75760003660031901126100f7576020600254604051908152f35b346100f75760403660031901126100f7576004356001600160401b0381116100f757610a6e6000610301610a5c6044943690600401610777565b610a6760243561060c565b3691610250565b60025460405163e0a0507160e01b815260048101919091526001600160a01b0390911660248201529050fd5b346100f757610aa8366103b1565b508051600110156104f4576104d2610b01604061015f93015160208151910151906bffffffffffffffffffffffff19918281169160148110610b0d575b50506040805160609290921c6020830152909384925090820190565b60405191829182610484565b8391925060140360031b1b1616803880610ae5565b634e487b7160e01b600052603260045260246000fd5b80518210156104f45760209160051b010190565b156100f757565b9060207faf930f9068b0eb51ed43cbf5948d6bab0229ebadb371dd850de50b9d6d30106a91836000526000825260406000209060018060a01b031690816bffffffffffffffffffffffff60a01b825416179055604051908152a2565b9060a0828203126100f7578135610bc58161060c565b926001600160401b03906020848101358381116100f75785019084601f830112156100f757813591610bf68361031b565b92610c046040519485610214565b808452828085019160051b830101918783116100f7578301905b828210610c6657505050509360408101358381116100f75784610c42918301610332565b93610c4f606083016100e2565b9360808301359081116100f7576102a29201610287565b81358152908301908301610c1e565b90929192610c8281610235565b91610c906040519384610214565b8294828452828201116100f757602061054f9301906103f4565b9060209081838203126100f75782516001600160401b03938482116100f757019080601f830112156100f7578151610ce18161031b565b94604090610cf26040519788610214565b828752858088019360051b860101948486116100f757868101935b868510610d1f57505050505050505090565b84518381116100f757820186603f820112156100f7578891610d4988838886809601519101610c75565b815201940193610d0d565b90815180825260208080930193019160005b828110610d74575050505090565b835185529381019392810192600101610d66565b90808251908181526020809101926020808460051b8301019501936000915b848310610db75750505050505090565b9091929394958480610dd5600193601f198682030187528a51610417565b9801930193019194939290610da7565b91610e0e90610e006102a29593606086526060860190610d54565b908482036020860152610d88565b916040818403910152610417565b6040513d6000823e3d90fd5b9091610e3f6102a293604084526040840190610d88565b916020818403910152610417565b6001600160e01b03199035818116939260048110610e6a57505050565b60040360031b82901b16169150565b90929192836004116100f75783116100f757600401916003190190565b908160209103126100f7573590565b91908260409103126100f7576020823592013590565b91906040838203126100f7578235926020810135906001600160401b0382116100f757019080601f830112156100f7578160206102a293359101610250565b634e487b7160e01b600052601160045260246000fd5b9060018201809211610f1e57565b610efa565b91908201809211610f1e57565b91909180518310156104f4576020838201015160f81c8015610fe95790610f75610f7083610f6a610f7b95610f6489610f10565b866115ba565b96610f23565b610f10565b90610f30565b60408051602081019384529081019490945292610f9b81606081016104d2565b51902060008181526020819052604090206001600160a01b0390610fc7905b546001600160a01b031690565b16610fd0579190565b91506102a2610fba836000526000602052604060002090565b50509050600090600090565b908160209103126100f757516102a28161060c565b906102a2916000806040519361101f856101bd565b601e85527f416464726573733a206c6f772d6c6576656c2063616c6c206661696c65640000602086015260208151910182855af13d15611081573d9161106483610235565b926110726040519485610214565b83523d6000602085013e611cf2565b606091611cf2565b6110c86110d26110cd836110c86110c36110d7977f0000000000000000000000000000000000000000000000000000000000000000611611565b6116ad565b611724565b611758565b6117cf565b6110df6115d4565b5060608101602091828251101561125c5760049060409061111c6111168351603c88820152878152611110816101bd565b83611ee9565b82611e88565b815194611128866101dd565b60008652828201948186515115159182611251575b5050611243575b8151600090611163906001600160a01b03165b6001600160a01b031690565b8451632d43cbef60e21b815295869182905afa9384156107535760009461121e575b50818101516001600160a01b0316948051966080840197885197865198899263ea9cd3bf60e01b8785015260248401926111be936118ec565b0393601f199485810189526111d39089610214565b516001600160a01b03169151975185519889948501936111f294611922565b0390810185526112029085610214565b51630556f18360e41b81529283926108b8923060048601611a3c565b61123c9194503d806000833e6112348183610214565b810190611842565b9238611185565b61124c82611d83565b611144565b51109050813861113d565b604051631601fac760e31b8152600490fd5b806110c86110d26110cd6110c8946110c86110c36112ac997f0000000000000000000000000000000000000000000000000000000000000000611611565b60409060048251926112bd846101dd565b60008452808301908151511515806113e0575b6113d2575b83516000906112ec906001600160a01b0316611157565b8251632d43cbef60e21b815294859182905afa928315610753576000936113af575b50602084015192936108b89361139791906001600160a01b03169361138b8151986113796080850197611357895189519d8e9363ea9cd3bf60e01b6020860152602485016118ec565b039461136c601f19968d88820190528d610214565b516001600160a01b031690565b92519651865197889460208601611973565b03908101845283610214565b51630556f18360e41b81529384933060048601611a3c565b6108b893506113cb611397913d806000833e6112348183610214565b935061130e565b6113db84611d83565b6112d5565b5060206060850151106112d0565b9091816110c86110c3611421937f0000000000000000000000000000000000000000000000000000000000000000611611565b9061142a6115d4565b50602060408301805160018151801515806114e6575b6114d8575b0190525151116114bf576110c8826000606061148595015261146681611e2d565b6110d2611116604051611110816104d26020820190600a602083019252565b9061148e6115d4565b5060206060830151101561125c576111166114a99183611ee9565b604051906114b6826101dd565b60008252611ae0565b604051630251ce0160e31b815260206004820152602490fd5b6114e187611d83565b611445565b5084606088015110611440565b90816110c86110c3611525937f0000000000000000000000000000000000000000000000000000000000000000611611565b9061152e6115d4565b50602060408301805160018151801515806115ad575b61159f575b0190525151116114bf576110c8826000606061158995015261156a81611e2d565b6110d2611116604051611110816104d260208201906003602083019252565b60405190611596826101dd565b60008252611c06565b6115a887611d83565b611549565b5084606088015110611544565b90828101808211610f1e578251106100f757016020012090565b6040519060a082018281106001600160401b038211176101d857604052606060808360008152600060208201528260408201526000838201520152565b6116196115d4565b50604051611626816101f8565b60209160208252610400928336602085013760405193611645856101f8565b60005b81811061169e5750505060008252600083526040519360a085018581106001600160401b038211176101d8576040526001600160a01b039182168552166020840152604083015260006060830152608082015290565b60608682018401528201611648565b6116b56115d4565b5060206040820180516001815180151580611717575b611709575b0190525151116114bf57600060608201526116ea81611de1565b6102a2611116604051611110816104d260208201906000602083019252565b61171286611d83565b6116d0565b50846060870151106116cb565b9061172d6115d4565b5060206060830151101561125c576111166102a29160405190602082015260208152611110816101bd565b6117606115d4565b50602060408201805160018151801515806117c2575b6117b4575b0190525151116114bf576000606082015261179581611e2d565b6102a2611116604051611110816104d260208201906002602083019252565b6117bd86611d83565b61177b565b5084606087015110611776565b6117d76115d4565b506060810160208151101561125c57604082019081515160001991828201918211610f1e57611807828551610b38565b51908051938414610f1e576001840190526001600160fd1b0383168303610f1e5761183e92600160fd1b9060031b1c179251610b38565b5290565b9060209081838203126100f75782516001600160401b03938482116100f757019080601f830112156100f75781516118798161031b565b9460409061188a6040519788610214565b828752858088019360051b860101948486116100f757868101935b8685106118b757505050505050505090565b84518381116100f757820186603f820112156100f75788916118e188838886809601519101610c75565b8152019401936118a5565b6001600160a01b0390911681526060602082018190526102a293919261191491840190610d54565b916040818403910152610d88565b9261194a6102a295936119589360018060a01b0316865260a0602087015260a0860190610d54565b908482036040860152610d88565b91637a38480d60e11b60608201526080818403910152610417565b9261194a6102a2959361199b9360018060a01b0316865260a0602087015260a0860190610d54565b91631c5fc97360e11b60608201526080818403910152610417565b9261194a6102a295936119de9360018060a01b0316865260a0602087015260a0860190610d54565b91636f4d5f2f60e11b60608201526080818403910152610417565b9261194a6102a29593611a219360018060a01b0316865260a0602087015260a0860190610d54565b9163fcd2e38160e01b60608201526080818403910152610417565b92909493919460a084019060018060a01b0316845260209060a06020860152865180915260c0850191602060c08360051b8801019801926000905b838210611ab457505050505084611a9991846102a29697036040860152610417565b632ded548b60e11b6060840152916080818403910152610417565b90919293988380611ad160019360bf198c82030186528d51610417565b9b019201920190939291611a77565b600460408201805151151580611bf8575b611bea575b8251600090611b0d906001600160a01b0316611157565b604051632d43cbef60e21b815293849182905afa91821561075357600092611bc7575b50602083015191926108b892611bad91906001600160a01b031692611ba1815197611b8e6080850196611b7a88516040519c8d9363ea9cd3bf60e01b6020860152602485016118ec565b039461136c601f19968781018d528c610214565b92519551604051968794602086016119b6565b03908101835282610214565b604051630556f18360e41b81529384933060048601611a3c565b6108b89250611be3611bad913d806000833e6112348183610214565b9250611b30565b611bf383611d83565b611af6565b506020606084015110611af1565b600460408201805151151580611ce4575b611cd6575b8251600090611c33906001600160a01b0316611157565b604051632d43cbef60e21b815293849182905afa91821561075357600092611cb3575b50602083015191926108b892611bad91906001600160a01b031692611ba1815197611ca06080850196611b7a88516040519c8d9363ea9cd3bf60e01b6020860152602485016118ec565b92519551604051968794602086016119f9565b6108b89250611ccf611bad913d806000833e6112348183610214565b9250611c56565b611cdf83611d83565b611c1c565b506020606084015110611c17565b91929015611d545750815115611d06575090565b3b15611d0f5790565b60405162461bcd60e51b815260206004820152601d60248201527f416464726573733a2063616c6c20746f206e6f6e2d636f6e74726163740000006044820152606490fd5b825190915015611d675750805190602001fd5b60405162461bcd60e51b81529081906108b89060048301610484565b604081019081515160001991828201918211610f1e576060611da6838651610b38565b5191018051938414610f1e576001840190526001600160fd1b0383168303610f1e57611dde9260ff60f81b9060031b1c179251610b38565b52565b60408101805151600019808201918211610f1e576060611e02838551610b38565b5194018051918214610f1e576001820190526001600160fd1b03811603610f1e57611dde9151610b38565b604081019081515160001991828201918211610f1e576060611e50838651610b38565b5191018051938414610f1e576001840190526001600160fd1b0383168303610f1e57611dde92600160f81b9060031b1c179251610b38565b60408101805151909291600019808301928311610f1e576060611eac848751610b38565b5192018051918214610f1e576001820190526001600160fd1b0381168103610f1e57611dde9360ff60f81b9060f81b169060031b1c179251610b38565b6080611f139193929301519260ff845116938491600183018252611f0d8383610b38565b52610b38565b5056fea2646970667358221220115f026084ff9e96f10ed0a5ab7d1a9f37b33a9b51dc27cfe2c0a48b6f9e3fb264736f6c63430008190033",
  "devdoc": {
    "errors": {
      "StorageHandledByL2(uint256,address)": [
        {
          "details": "EIP-5559 - Error to raise when mutations are being deferred to an L2.",
          "params": {
            "chainId": "Chain ID to perform the deferred mutation to.",
            "contractAddress": "Contract Address at which the deferred mutation should transact with."
          }
        }
      ]
    },
    "kind": "dev",
    "methods": {
      "constructor": {
        "params": {
          "_ens": "The ENS registry address",
          "_graphqlUrl": "The offchain/l2 graphql endpoint url",
          "_l2ChainId": "The chainId at which the resolver resolves data from",
          "_nameWrapper": "The ENS name wrapper address",
          "_verifier": "The chain verifier address"
        }
      },
      "getStorageSlotsCallback(bytes,bytes)": {
        "details": "Internal callback function invoked by CCIP-Read in response to a `getStorageSlots` request."
      },
      "getTarget(bytes)": {
        "details": "Returns the L2 target address that can answer queries for `name`.",
        "params": {
          "name": "DNS encoded ENS name to query"
        },
        "returns": {
          "node": "The node of the name",
          "target": "The L2 resolver address to verify against."
        }
      },
      "metadata(bytes)": {
        "details": "This function provides metadata about the L1 Resolver, including its name, coin type, GraphQL URL, storage type, and encoded information.",
        "params": {
          "name": "The domain name in format (dnsEncoded)"
        },
        "returns": {
          "_0": "graphqlUrl The GraphQL URL used by the resolver"
        }
      },
      "resolve(bytes,bytes)": {
        "details": "Resolve and verify a record stored in l2 target address. It supports subname by fetching target recursively to the nearlest parent.",
        "params": {
          "data": "The actual calldata",
          "name": "DNS encoded ENS name to query"
        },
        "returns": {
          "result": "result of the call"
        }
      },
      "setAddr(bytes,address)": {
        "details": "Resolve and throws an EIP 3559 compliant error",
        "params": {
          "_addr": "The actual calldata",
          "name": "DNS encoded ENS name to query"
        },
        "returns": {
          "result": "result of the call"
        }
      },
      "setTarget(bytes32,address)": {
        "params": {
          "node": "The ENS node to query.",
          "target": "The L2 resolver address to verify against."
        }
      },
      "supportsInterface(bytes4)": {
        "details": "See {IERC165-supportsInterface}."
      }
    },
    "version": 1
  },
  "userdoc": {
    "kind": "user",
    "methods": {
      "metadata(bytes)": {
        "notice": "Get metadata about the L1 Resolver"
      },
      "setTarget(bytes32,address)": {
        "notice": "Set target address to verify aagainst"
      }
    },
    "version": 1
  },
  "storageLayout": {
    "storage": [
      {
        "astId": 2247,
        "contract": "contracts/L1Resolver.sol:L1Resolver",
        "label": "targets",
        "offset": 0,
        "slot": "0",
        "type": "t_mapping(t_bytes32,t_address)"
      },
      {
        "astId": 2267,
        "contract": "contracts/L1Resolver.sol:L1Resolver",
        "label": "graphqlUrl",
        "offset": 0,
        "slot": "1",
        "type": "t_string_storage"
      },
      {
        "astId": 2269,
        "contract": "contracts/L1Resolver.sol:L1Resolver",
        "label": "l2ChainId",
        "offset": 0,
        "slot": "2",
        "type": "t_uint256"
      }
    ],
    "types": {
      "t_address": {
        "encoding": "inplace",
        "label": "address",
        "numberOfBytes": "20"
      },
      "t_bytes32": {
        "encoding": "inplace",
        "label": "bytes32",
        "numberOfBytes": "32"
      },
      "t_mapping(t_bytes32,t_address)": {
        "encoding": "mapping",
        "key": "t_bytes32",
        "label": "mapping(bytes32 => address)",
        "numberOfBytes": "32",
        "value": "t_address"
      },
      "t_string_storage": {
        "encoding": "bytes",
        "label": "string",
        "numberOfBytes": "32"
      },
      "t_uint256": {
        "encoding": "inplace",
        "label": "uint256",
        "numberOfBytes": "32"
      }
    }
  }
}