{
  "address": "0x4167C0E7DE2f265A13E2E6B19f26AC4F8C7b4e5f",
  "abi": [
    {
      "inputs": [
        {
          "internalType": "string[]",
          "name": "urls",
          "type": "string[]"
        },
        {
          "internalType": "address",
          "name": "rollup",
          "type": "address"
        }
      ],
      "stateMutability": "nonpayable",
      "type": "constructor"
    },
    {
      "inputs": [
        {
          "internalType": "uint256",
          "name": "size",
          "type": "uint256"
        }
      ],
      "name": "InvalidSlotSize",
      "type": "error"
    },
    {
      "inputs": [
        {
          "internalType": "uint8",
          "name": "",
          "type": "uint8"
        }
      ],
      "name": "UnknownOpcode",
      "type": "error"
    },
    {
      "inputs": [
        {
          "internalType": "uint256",
          "name": "",
          "type": "uint256"
        }
      ],
      "name": "_gatewayURLs",
      "outputs": [
        {
          "internalType": "string",
          "name": "",
          "type": "string"
        }
      ],
      "stateMutability": "view",
      "type": "function"
    },
    {
      "inputs": [],
      "name": "_rollup",
      "outputs": [
        {
          "internalType": "address",
          "name": "",
          "type": "address"
        }
      ],
      "stateMutability": "view",
      "type": "function"
    },
    {
      "inputs": [],
      "name": "gatewayURLs",
      "outputs": [
        {
          "internalType": "string[]",
          "name": "",
          "type": "string[]"
        }
      ],
      "stateMutability": "view",
      "type": "function"
    },
    {
      "inputs": [
        {
          "internalType": "bytes32[]",
          "name": "commands",
          "type": "bytes32[]"
        },
        {
          "internalType": "bytes[]",
          "name": "constants",
          "type": "bytes[]"
        },
        {
          "internalType": "bytes",
          "name": "proof",
          "type": "bytes"
        }
      ],
      "name": "getStorageValues",
      "outputs": [
        {
          "internalType": "bytes[]",
          "name": "values",
          "type": "bytes[]"
        }
      ],
      "stateMutability": "view",
      "type": "function"
    }
  ],
  "transactionHash": "0x5155562d6a9a60eb0f2eea306b0460f0f422fa321c18dce842a157b6e1445fa9",
  "args": [
    [
      "https://linea-ens-gateway.devnet.linea.build"
    ],
    "0xB218f8A4Bc926cF1cA7b3423c154a0D627Bdb7E5"
  ],
  "numDeployments": 1,
  "solcInputHash": "4f2f57ee56ecc7735104c998f416d8c8",
  "bytecode": "0x604060806040523461029f57611ab5908138038061001c81610346565b93843982019060408383031261029f5782516001600160401b03919082811161029f57840190601f9284848401121561029f57825195602093828811610289576005938860051b9786610070818b01610346565b809b8152019087829a8501019381851161029f5790818980979695949301925b8584106102a45750505050505001519560018060a01b03871680970361029f57519368010000000000000000851161028957600095865486885580871061021e575b50868052848720939087905b87891061010657600180546001600160a01b0319168b1790556040516116f890816103bd8239f35b805180519086821161020a5790889161011f895461036b565b8781116101d6575b50829087831160011461016f579180600195928695948892610164575b5050600019600383901b1c191690841b1789555b019601980197946100de565b015190503880610144565b8986528386209190601f198416875b8181106101be57509160019693918588979694106101a5575b505050831b83018955610158565b015160001960f88460031b161c19169055388080610197565b8284015185558d96600190950194938401930161017e565b6101fb908a8752848720898086018a1c820192878710610201575b01891c01906103a5565b38610127565b925081926101f1565b634e487b7160e01b84526041600452602484fd5b8780528686892091820191015b81811061023857506100d2565b80896102466001935461036b565b80610254575b50500161022b565b8681118414610268575081555b893861024c565b828252610280878b842092018a1c82018583016103a5565b81835555610261565b634e487b7160e01b600052604160045260246000fd5b600080fd5b9091928094959697505188811161029f57820183603f8201121561029f578a810151898111610331576102de818e01601f19168d01610346565b918183528588838301011161029f579290918c926000945b8186106103195750600090820184015281528b9897969582019493925001610090565b8086018a015183870186015293909401938d936102f6565b60246000634e487b7160e01b81526041600452fd5b6040519190601f01601f191682016001600160401b0381118382101761028957604052565b90600182811c9216801561039b575b602083101461038557565b634e487b7160e01b600052602260045260246000fd5b91607f169161037a565b8181106103b0575050565b600081556001016103a556fe6080604052600436101561001257600080fd5b60003560e01c806322b23587146101c4578063a183bada1461019b578063b50f2fbc146100b55763f36c452e1461004857600080fd5b346100b05760203660031901126100b0576004356000548110156100b0576100986100ac91600080527f290decd9548b62a8d60345a988386fc84ba6bc95484008f6362f93160ef3e56301610de5565b604051918291602083526020830190610dc0565b0390f35b600080fd5b346100b05760003660031901126100b0576000546100d281610d24565b906100e06040519283610d03565b8082526000808052602091828401917f290decd9548b62a8d60345a988386fc84ba6bc95484008f6362f93160ef3e563835b8383106101795750505050604051918083019381845251809452604083019360408160051b85010192916000955b82871061014d5785850386f35b909192938280610169600193603f198a82030186528851610dc0565b9601920196019592919092610140565b600186819261018a859a999a610de5565b815201920192019190959495610112565b346100b05760003660031901126100b0576001546040516001600160a01b039091168152602090f35b346100b05760603660031901126100b0576004356001600160401b0381116100b057366023820112156100b05780600401359061020082610d24565b9161020e6040519384610d03565b8083526024602084019160051b830101913683116100b057602401905b828210610ca257602435846001600160401b0382116100b057366023830112156100b057816004013561025d81610d24565b9261026b6040519485610d03565b8184526024602085019260051b820101903682116100b05760248101925b828410610c735785856044356001600160401b0381116100b0576102b1903690600401610d56565b80518101916060828403126100b0576020820151916040810151906001600160401b0382116100b05760608282018603126100b05760405191606083018381106001600160401b0382111761099957604052818101602001516001600160a01b03811681036100b057835281810160408101516020850152606001516001600160401b0381116100b057604081838501018803126100b0576040519161035683610cb2565b6020828286010101516001600160401b0381116100b057610383906020808b019185858901010101610eb8565b8352604082828601010151916001600160401b0383116100b0576103b292602091828b01938701010101610efd565b602082015260408301526060810151906001600160401b0382116100b05760208601603f8383010112156100b05760208282010151906103f182610d24565b966103ff6040519889610d03565b82885260208801906020810160408560051b8786010101116100b057604085840101915b60408560051b87860101018310610b91575050600154604051638be745d160e01b8152600481019890985260209450879350602492508391506001600160a01b03165afa9283156109b757600093610b5d575b508215610b0a5773310D7A96d8179bf4601b22299643Bf39b3fBcbb8926020806040840151015181840151906104c0604051948593849363662e10f560e11b855260048501610fe7565b0381875af49081156109b757600091610ad0575b5015610a7a576105066020604083015151604051809381926302318a3960e61b83528460048401526024830190610dc0565b0381875af49081156109b757600091610a48575b506105546080610531602060408601510151610f9d565b5160405180938192635ea5a98f60e01b8352602060048401526024830190610dc0565b0381885af480156109b757606091600091610a19575b500151036109c3576105a292604060c0920151519060405180809681946360f0f00f60e01b8352602060048401526024830190610dc0565b03915af49182156109b75760009261090c575b50906000908251906105df6105c983610d24565b926105d76040519485610d03565b808452610d24565b601f190160005b8181106108f957505060005b8451811015610891576106058186610fae565b519361061884898760011a60f81b61159f565b60208151036108405760208151910151906020811061082e575b506002905b6020821089818061080e575b156106bc5750156106a6576106a090610662878c8a861a60f81b61159f565b9061069760408051809360206106818184019788815193849201610d9d565b8201906020820152036020810184520182610d03565b51902091610fc2565b90610637565b634e487b7160e01b600052603260045260246000fd5b91939498978693506001915060001a16156000146107f05760609150836106e291610fae565b51015161072d5750610722600191604051600060208201526020815261070781610cb2565b6107118887610fae565b5261071c8786610fae565b50610fc2565b945b019392936105f2565b61076d906020610740848a999599610fae565b510151602060406107518a8c610fae565b510151015160406107628a8c610fae565b5101515191866112eb565b604061078261077b87610fc2565b9688610fae565b510151516040519060208201526020815261079c81610cb2565b6107a68285610fae565b526107b18184610fae565b5060206107be8285610fae565b5151116107cd57600190610724565b6107d960249184610fae565b5151604051906354d0209160e01b82526004820152fd5b6001936107fc93611094565b95906108088286610fae565b52610724565b9050156106a657896001600160f81b031989851a60f81b81161415610643565b6000199060200360031b1b1689610632565b60405162461bcd60e51b815260206004820152602360248201527f4669727374207061746820656c656d656e74206d75737420626520333220627960448201526274657360e81b6064820152608490fd5b826040518091602082016020835281518091526040830190602060408260051b8601019301916000905b8282106108ca57505050500390f35b919360019193955060206108e98192603f198a82030186528851610dc0565b96019201920185949391926108bb565b60606020828601810191909152016105e6565b90915060c0813d60c0116109af575b8161092860c09383610d03565b810103126100b0576040519060c082018281106001600160401b038211176109995761098d9160a09160405261095d81610f89565b84526020810151602085015260408101516040850152606081015160608501526080810151608085015201610f89565b60a082015290846105b5565b634e487b7160e01b600052604160045260246000fd5b3d915061091b565b6040513d6000823e3d90fd5b60405162461bcd60e51b815260206004820152602860248201527f4c696e65615265736f6c766572537475623a206163636f756e742076616c7565604482015267081a5b9d985b1a5960c21b6064820152608490fd5b610a3b915060803d608011610a41575b610a338183610d03565b810190611058565b8861056a565b503d610a29565b90506020813d602011610a72575b81610a6360209383610d03565b810103126100b057518661051a565b3d9150610a56565b60405162461bcd60e51b815260206004820152602860248201527f4c696e65615265736f6c766572537475623a20696e76616c6964206163636f75604482015267373a10383937b7b360c11b6064820152608490fd5b90506020813d602011610b02575b81610aeb60209383610d03565b810103126100b057610afc90610f7c565b866104d4565b3d9150610ade565b60405162461bcd60e51b815260206004820152602560248201527f4c696e65615265736f6c766572537475623a20696e76616c6964207374617465604482015264081c9bdbdd60da1b6064820152608490fd5b9092506020813d602011610b89575b81610b7960209383610d03565b810103126100b057519185610476565b3d9150610b6c565b82516001600160401b0381116100b057608085880182018403601f1901126100b057604051610bbf81610ccd565b8588018201604081015182526060810151602083015260800151926001600160401b0384116100b0576040878a01840185018603601f1901126100b05760405191610c0983610cb2565b878a018401850160408101518452606001516001600160401b0381116100b05760a08560209695610c4f8c8f610c619660409c8c9b8f938f948e01950101010101610efd565b87820152888501528c8b010101610f7c565b60608201528152019301929050610423565b83356001600160401b0381116100b057602091610c97839260243691870101610d56565b815201930192610289565b813581526020918201910161022b565b604081019081106001600160401b0382111761099957604052565b608081019081106001600160401b0382111761099957604052565b602081019081106001600160401b0382111761099957604052565b90601f801991011681019081106001600160401b0382111761099957604052565b6001600160401b0381116109995760051b60200190565b6001600160401b03811161099957601f01601f191660200190565b81601f820112156100b057803590610d6d82610d3b565b92610d7b6040519485610d03565b828452602083830101116100b057816000926020809301838601378301015290565b60005b838110610db05750506000910152565b8181015183820152602001610da0565b90602091610dd981518092818552858086019101610d9d565b601f01601f1916010190565b9060405190600083549060018260011c9060018416968715610eae575b6020948584108914610e9a5787988489979899529081600014610e785750600114610e39575b505050610e3792500383610d03565b565b600090815285812095935091905b818310610e60575050610e379350820101388080610e28565b85548884018501529485019487945091830191610e47565b92505050610e3794925060ff191682840152151560051b820101388080610e28565b634e487b7160e01b85526022600452602485fd5b91607f1691610e02565b81601f820112156100b0578051610ece81610d3b565b92610edc6040519485610d03565b818452602082840101116100b057610efa9160208085019101610d9d565b90565b81601f820112156100b057805191602091610f1784610d24565b93610f256040519586610d03565b808552838086019160051b830101928084116100b057848301915b848310610f505750505050505090565b82516001600160401b0381116100b0578691610f7184848094890101610eb8565b815201920191610f40565b519081151582036100b057565b51906001600160401b03821682036100b057565b8051602910156106a6576105400190565b80518210156106a65760209160051b010190565b6000198114610fd15760010190565b634e487b7160e01b600052601160045260246000fd5b909392919360608201606083528151809152608083019060808160051b850101926020809101926000905b83821061102c575050505050906040919460208201520152565b90919293948380611049600193607f198b82030186528951610dc0565b97019201920190939291611012565b908160809103126100b05760606040519161107283610ccd565b8051835260208101516020840152604081015160408401520151606082015290565b9190939260606110a48684610fae565b510151156112ca576040806110b98785610fae565b51015151956110f46020916110ef878a856110d4858b610fae565b51015186886110e3878d610fae565b510151015190896112eb565b610fc2565b9660018082160361129d576000198101908111610fd1579187959491939260011c9381519261112284610ce8565b856000946000815297845184810191825284815261113f81610cb2565b519020905b611155575050505050505090509190565b6110ef818461116e8597999b96989a9c61119996610fae565b5101518d8961118e8a82611182858d610fae565b5101510151928a610fae565b51015151918c6112eb565b968984821015611228576111dc61121492876111c06111b989959f610fc2565b9e88610fae565b51015151885190848201528381526111d781610cb2565b611608565b92865193816111f48693518092868087019101610d9d565b820161120882518093868085019101610d9d565b01038084520182610d03565b958495865b9593918a989795939195611144565b858061124561123e611275949c96959c9e610fc2565b9d87610fae565b51015151928151938161126186935180928b8087019101610d9d565b820190888201520386810184520182610d03565b96601f198101908111611289579586611219565b634e487b7160e01b86526011600452602486fd5b919093506112c69450607f92505192818185015283526112bc83610cb2565b60011c1690611608565b9190565b5050506112d682610fc2565b506040516112e381610ce8565b600081529190565b9193909273310D7A96d8179bf4601b22299643Bf39b3fBcbb891856040809501519585519063662e10f560e11b8252818061132f60209a8b9460049d8e8501610fe7565b0381885af49081156114df5760009161156a575b5015611516579060806113596113799493610f9d565b51865180958192635ea5a98f60e01b83528a8c8401526024830190610dc0565b0381875af492831561150b576000936114ea575b5084516333bbbd4160e21b91828252888201528681602481885af49081156114df576000916114b2575b50858401510361146f5790602486928651958693849283528a8301525af491821561146457600092611434575b5060600151036113f357505050565b5162461bcd60e51b815291820181905260248201527f4c696e65615265736f6c766572537475623a2076616c756520696e76616c6964604482015260649150fd5b9091508381813d831161145d575b61144c8183610d03565b810103126100b057519060606113e4565b503d611442565b83513d6000823e3d90fd5b845162461bcd60e51b8152808801879052601e60248201527f4c696e65615265736f6c766572537475623a206b657920696e76616c696400006044820152606490fd5b90508681813d83116114d8575b6114c98183610d03565b810103126100b05751386113b7565b503d6114bf565b86513d6000823e3d90fd5b61150491935060803d608011610a4157610a338183610d03565b913861138d565b85513d6000823e3d90fd5b845162461bcd60e51b8152808801879052602860248201527f4c696e65615265736f6c766572537475623a20696e76616c69642073746f726160448201526733b290383937b7b360c11b6064820152608490fd5b90508681813d8311611598575b6115818183610d03565b810103126100b05761159290610f7c565b38611343565b503d611577565b9291909260f81c92601f60e0851694169184156000146115c957506115c5929350610fae565b5190565b9050602084036115de576115c5929350610fae565b604051632cde2db560e21b815260048101859052602490fd5b9081518110156106a6570160200190565b908151811161167d5761161a81610d3b565b916116286040519384610d03565b818352601f1961163783610d3b565b0136602085013760009060005b838110611652575050505090565b6001906001600160f81b031961166882856115f7565b5116841a61167682886115f7565b5301611644565b60405162461bcd60e51b815260206004820152601860248201527f736c69636542797465733a206f7574206f662072616e676500000000000000006044820152606490fdfea2646970667358221220444f243b2fa86e1fceaa476dcd8b84837104997889acdb9ee05421803213364164736f6c63430008190033",
  "deployedBytecode": "0x6080604052600436101561001257600080fd5b60003560e01c806322b23587146101c4578063a183bada1461019b578063b50f2fbc146100b55763f36c452e1461004857600080fd5b346100b05760203660031901126100b0576004356000548110156100b0576100986100ac91600080527f290decd9548b62a8d60345a988386fc84ba6bc95484008f6362f93160ef3e56301610de5565b604051918291602083526020830190610dc0565b0390f35b600080fd5b346100b05760003660031901126100b0576000546100d281610d24565b906100e06040519283610d03565b8082526000808052602091828401917f290decd9548b62a8d60345a988386fc84ba6bc95484008f6362f93160ef3e563835b8383106101795750505050604051918083019381845251809452604083019360408160051b85010192916000955b82871061014d5785850386f35b909192938280610169600193603f198a82030186528851610dc0565b9601920196019592919092610140565b600186819261018a859a999a610de5565b815201920192019190959495610112565b346100b05760003660031901126100b0576001546040516001600160a01b039091168152602090f35b346100b05760603660031901126100b0576004356001600160401b0381116100b057366023820112156100b05780600401359061020082610d24565b9161020e6040519384610d03565b8083526024602084019160051b830101913683116100b057602401905b828210610ca257602435846001600160401b0382116100b057366023830112156100b057816004013561025d81610d24565b9261026b6040519485610d03565b8184526024602085019260051b820101903682116100b05760248101925b828410610c735785856044356001600160401b0381116100b0576102b1903690600401610d56565b80518101916060828403126100b0576020820151916040810151906001600160401b0382116100b05760608282018603126100b05760405191606083018381106001600160401b0382111761099957604052818101602001516001600160a01b03811681036100b057835281810160408101516020850152606001516001600160401b0381116100b057604081838501018803126100b0576040519161035683610cb2565b6020828286010101516001600160401b0381116100b057610383906020808b019185858901010101610eb8565b8352604082828601010151916001600160401b0383116100b0576103b292602091828b01938701010101610efd565b602082015260408301526060810151906001600160401b0382116100b05760208601603f8383010112156100b05760208282010151906103f182610d24565b966103ff6040519889610d03565b82885260208801906020810160408560051b8786010101116100b057604085840101915b60408560051b87860101018310610b91575050600154604051638be745d160e01b8152600481019890985260209450879350602492508391506001600160a01b03165afa9283156109b757600093610b5d575b508215610b0a5773__$af9e7a6d5a7d00c799794b48a877d9c570$__926020806040840151015181840151906104c0604051948593849363662e10f560e11b855260048501610fe7565b0381875af49081156109b757600091610ad0575b5015610a7a576105066020604083015151604051809381926302318a3960e61b83528460048401526024830190610dc0565b0381875af49081156109b757600091610a48575b506105546080610531602060408601510151610f9d565b5160405180938192635ea5a98f60e01b8352602060048401526024830190610dc0565b0381885af480156109b757606091600091610a19575b500151036109c3576105a292604060c0920151519060405180809681946360f0f00f60e01b8352602060048401526024830190610dc0565b03915af49182156109b75760009261090c575b50906000908251906105df6105c983610d24565b926105d76040519485610d03565b808452610d24565b601f190160005b8181106108f957505060005b8451811015610891576106058186610fae565b519361061884898760011a60f81b61159f565b60208151036108405760208151910151906020811061082e575b506002905b6020821089818061080e575b156106bc5750156106a6576106a090610662878c8a861a60f81b61159f565b9061069760408051809360206106818184019788815193849201610d9d565b8201906020820152036020810184520182610d03565b51902091610fc2565b90610637565b634e487b7160e01b600052603260045260246000fd5b91939498978693506001915060001a16156000146107f05760609150836106e291610fae565b51015161072d5750610722600191604051600060208201526020815261070781610cb2565b6107118887610fae565b5261071c8786610fae565b50610fc2565b945b019392936105f2565b61076d906020610740848a999599610fae565b510151602060406107518a8c610fae565b510151015160406107628a8c610fae565b5101515191866112eb565b604061078261077b87610fc2565b9688610fae565b510151516040519060208201526020815261079c81610cb2565b6107a68285610fae565b526107b18184610fae565b5060206107be8285610fae565b5151116107cd57600190610724565b6107d960249184610fae565b5151604051906354d0209160e01b82526004820152fd5b6001936107fc93611094565b95906108088286610fae565b52610724565b9050156106a657896001600160f81b031989851a60f81b81161415610643565b6000199060200360031b1b1689610632565b60405162461bcd60e51b815260206004820152602360248201527f4669727374207061746820656c656d656e74206d75737420626520333220627960448201526274657360e81b6064820152608490fd5b826040518091602082016020835281518091526040830190602060408260051b8601019301916000905b8282106108ca57505050500390f35b919360019193955060206108e98192603f198a82030186528851610dc0565b96019201920185949391926108bb565b60606020828601810191909152016105e6565b90915060c0813d60c0116109af575b8161092860c09383610d03565b810103126100b0576040519060c082018281106001600160401b038211176109995761098d9160a09160405261095d81610f89565b84526020810151602085015260408101516040850152606081015160608501526080810151608085015201610f89565b60a082015290846105b5565b634e487b7160e01b600052604160045260246000fd5b3d915061091b565b6040513d6000823e3d90fd5b60405162461bcd60e51b815260206004820152602860248201527f4c696e65615265736f6c766572537475623a206163636f756e742076616c7565604482015267081a5b9d985b1a5960c21b6064820152608490fd5b610a3b915060803d608011610a41575b610a338183610d03565b810190611058565b8861056a565b503d610a29565b90506020813d602011610a72575b81610a6360209383610d03565b810103126100b057518661051a565b3d9150610a56565b60405162461bcd60e51b815260206004820152602860248201527f4c696e65615265736f6c766572537475623a20696e76616c6964206163636f75604482015267373a10383937b7b360c11b6064820152608490fd5b90506020813d602011610b02575b81610aeb60209383610d03565b810103126100b057610afc90610f7c565b866104d4565b3d9150610ade565b60405162461bcd60e51b815260206004820152602560248201527f4c696e65615265736f6c766572537475623a20696e76616c6964207374617465604482015264081c9bdbdd60da1b6064820152608490fd5b9092506020813d602011610b89575b81610b7960209383610d03565b810103126100b057519185610476565b3d9150610b6c565b82516001600160401b0381116100b057608085880182018403601f1901126100b057604051610bbf81610ccd565b8588018201604081015182526060810151602083015260800151926001600160401b0384116100b0576040878a01840185018603601f1901126100b05760405191610c0983610cb2565b878a018401850160408101518452606001516001600160401b0381116100b05760a08560209695610c4f8c8f610c619660409c8c9b8f938f948e01950101010101610efd565b87820152888501528c8b010101610f7c565b60608201528152019301929050610423565b83356001600160401b0381116100b057602091610c97839260243691870101610d56565b815201930192610289565b813581526020918201910161022b565b604081019081106001600160401b0382111761099957604052565b608081019081106001600160401b0382111761099957604052565b602081019081106001600160401b0382111761099957604052565b90601f801991011681019081106001600160401b0382111761099957604052565b6001600160401b0381116109995760051b60200190565b6001600160401b03811161099957601f01601f191660200190565b81601f820112156100b057803590610d6d82610d3b565b92610d7b6040519485610d03565b828452602083830101116100b057816000926020809301838601378301015290565b60005b838110610db05750506000910152565b8181015183820152602001610da0565b90602091610dd981518092818552858086019101610d9d565b601f01601f1916010190565b9060405190600083549060018260011c9060018416968715610eae575b6020948584108914610e9a5787988489979899529081600014610e785750600114610e39575b505050610e3792500383610d03565b565b600090815285812095935091905b818310610e60575050610e379350820101388080610e28565b85548884018501529485019487945091830191610e47565b92505050610e3794925060ff191682840152151560051b820101388080610e28565b634e487b7160e01b85526022600452602485fd5b91607f1691610e02565b81601f820112156100b0578051610ece81610d3b565b92610edc6040519485610d03565b818452602082840101116100b057610efa9160208085019101610d9d565b90565b81601f820112156100b057805191602091610f1784610d24565b93610f256040519586610d03565b808552838086019160051b830101928084116100b057848301915b848310610f505750505050505090565b82516001600160401b0381116100b0578691610f7184848094890101610eb8565b815201920191610f40565b519081151582036100b057565b51906001600160401b03821682036100b057565b8051602910156106a6576105400190565b80518210156106a65760209160051b010190565b6000198114610fd15760010190565b634e487b7160e01b600052601160045260246000fd5b909392919360608201606083528151809152608083019060808160051b850101926020809101926000905b83821061102c575050505050906040919460208201520152565b90919293948380611049600193607f198b82030186528951610dc0565b97019201920190939291611012565b908160809103126100b05760606040519161107283610ccd565b8051835260208101516020840152604081015160408401520151606082015290565b9190939260606110a48684610fae565b510151156112ca576040806110b98785610fae565b51015151956110f46020916110ef878a856110d4858b610fae565b51015186886110e3878d610fae565b510151015190896112eb565b610fc2565b9660018082160361129d576000198101908111610fd1579187959491939260011c9381519261112284610ce8565b856000946000815297845184810191825284815261113f81610cb2565b519020905b611155575050505050505090509190565b6110ef818461116e8597999b96989a9c61119996610fae565b5101518d8961118e8a82611182858d610fae565b5101510151928a610fae565b51015151918c6112eb565b968984821015611228576111dc61121492876111c06111b989959f610fc2565b9e88610fae565b51015151885190848201528381526111d781610cb2565b611608565b92865193816111f48693518092868087019101610d9d565b820161120882518093868085019101610d9d565b01038084520182610d03565b958495865b9593918a989795939195611144565b858061124561123e611275949c96959c9e610fc2565b9d87610fae565b51015151928151938161126186935180928b8087019101610d9d565b820190888201520386810184520182610d03565b96601f198101908111611289579586611219565b634e487b7160e01b86526011600452602486fd5b919093506112c69450607f92505192818185015283526112bc83610cb2565b60011c1690611608565b9190565b5050506112d682610fc2565b506040516112e381610ce8565b600081529190565b9193909273__$af9e7a6d5a7d00c799794b48a877d9c570$__91856040809501519585519063662e10f560e11b8252818061132f60209a8b9460049d8e8501610fe7565b0381885af49081156114df5760009161156a575b5015611516579060806113596113799493610f9d565b51865180958192635ea5a98f60e01b83528a8c8401526024830190610dc0565b0381875af492831561150b576000936114ea575b5084516333bbbd4160e21b91828252888201528681602481885af49081156114df576000916114b2575b50858401510361146f5790602486928651958693849283528a8301525af491821561146457600092611434575b5060600151036113f357505050565b5162461bcd60e51b815291820181905260248201527f4c696e65615265736f6c766572537475623a2076616c756520696e76616c6964604482015260649150fd5b9091508381813d831161145d575b61144c8183610d03565b810103126100b057519060606113e4565b503d611442565b83513d6000823e3d90fd5b845162461bcd60e51b8152808801879052601e60248201527f4c696e65615265736f6c766572537475623a206b657920696e76616c696400006044820152606490fd5b90508681813d83116114d8575b6114c98183610d03565b810103126100b05751386113b7565b503d6114bf565b86513d6000823e3d90fd5b61150491935060803d608011610a4157610a338183610d03565b913861138d565b85513d6000823e3d90fd5b845162461bcd60e51b8152808801879052602860248201527f4c696e65615265736f6c766572537475623a20696e76616c69642073746f726160448201526733b290383937b7b360c11b6064820152608490fd5b90508681813d8311611598575b6115818183610d03565b810103126100b05761159290610f7c565b38611343565b503d611577565b9291909260f81c92601f60e0851694169184156000146115c957506115c5929350610fae565b5190565b9050602084036115de576115c5929350610fae565b604051632cde2db560e21b815260048101859052602490fd5b9081518110156106a6570160200190565b908151811161167d5761161a81610d3b565b916116286040519384610d03565b818352601f1961163783610d3b565b0136602085013760009060005b838110611652575050505090565b6001906001600160f81b031961166882856115f7565b5116841a61167682886115f7565b5301611644565b60405162461bcd60e51b815260206004820152601860248201527f736c69636542797465733a206f7574206f662072616e676500000000000000006044820152606490fdfea2646970667358221220444f243b2fa86e1fceaa476dcd8b84837104997889acdb9ee05421803213364164736f6c63430008190033",
  "libraries": {
    "SparseMerkleProof": "0x310D7A96d8179bf4601b22299643Bf39b3fBcbb8"
  },
  "devdoc": {
    "kind": "dev",
    "methods": {},
    "version": 1
  },
  "userdoc": {
    "kind": "user",
    "methods": {},
    "version": 1
  },
  "storageLayout": {
    "storage": [
      {
        "astId": 16110,
        "contract": "contracts/linea-verifier/LineaSparseProofVerifier.sol:LineaSparseProofVerifier",
        "label": "_gatewayURLs",
        "offset": 0,
        "slot": "0",
        "type": "t_array(t_string_storage)dyn_storage"
      },
      {
        "astId": 16112,
        "contract": "contracts/linea-verifier/LineaSparseProofVerifier.sol:LineaSparseProofVerifier",
        "label": "_rollup",
        "offset": 0,
        "slot": "1",
        "type": "t_address"
      }
    ],
    "types": {
      "t_address": {
        "encoding": "inplace",
        "label": "address",
        "numberOfBytes": "20"
      },
      "t_array(t_string_storage)dyn_storage": {
        "base": "t_string_storage",
        "encoding": "dynamic_array",
        "label": "string[]",
        "numberOfBytes": "32"
      },
      "t_string_storage": {
        "encoding": "bytes",
        "label": "string",
        "numberOfBytes": "32"
      }
    }
  }
}