{
  "address": "0x310D7A96d8179bf4601b22299643Bf39b3fBcbb8",
  "abi": [
    {
      "inputs": [
        {
          "internalType": "uint256",
          "name": "expectedLength",
          "type": "uint256"
        },
        {
          "internalType": "uint256",
          "name": "bytesLength",
          "type": "uint256"
        }
      ],
      "name": "WrongBytesLength",
      "type": "error"
    },
    {
      "inputs": [
        {
          "internalType": "bytes",
          "name": "_encodedAccountValue",
          "type": "bytes"
        }
      ],
      "name": "getAccount",
      "outputs": [
        {
          "components": [
            {
              "internalType": "uint64",
              "name": "nonce",
              "type": "uint64"
            },
            {
              "internalType": "uint256",
              "name": "balance",
              "type": "uint256"
            },
            {
              "internalType": "bytes32",
              "name": "storageRoot",
              "type": "bytes32"
            },
            {
              "internalType": "bytes32",
              "name": "mimcCodeHash",
              "type": "bytes32"
            },
            {
              "internalType": "bytes32",
              "name": "keccakCodeHash",
              "type": "bytes32"
            },
            {
              "internalType": "uint64",
              "name": "codeSize",
              "type": "uint64"
            }
          ],
          "internalType": "struct SparseMerkleProof.Account",
          "name": "",
          "type": "tuple"
        }
      ],
      "stateMutability": "pure",
      "type": "function"
    },
    {
      "inputs": [
        {
          "internalType": "bytes",
          "name": "_encodedLeaf",
          "type": "bytes"
        }
      ],
      "name": "getLeaf",
      "outputs": [
        {
          "components": [
            {
              "internalType": "uint256",
              "name": "prev",
              "type": "uint256"
            },
            {
              "internalType": "uint256",
              "name": "next",
              "type": "uint256"
            },
            {
              "internalType": "bytes32",
              "name": "hKey",
              "type": "bytes32"
            },
            {
              "internalType": "bytes32",
              "name": "hValue",
              "type": "bytes32"
            }
          ],
          "internalType": "struct SparseMerkleProof.Leaf",
          "name": "",
          "type": "tuple"
        }
      ],
      "stateMutability": "pure",
      "type": "function"
    },
    {
      "inputs": [
        {
          "internalType": "bytes",
          "name": "_value",
          "type": "bytes"
        }
      ],
      "name": "hashAccountValue",
      "outputs": [
        {
          "internalType": "bytes32",
          "name": "",
          "type": "bytes32"
        }
      ],
      "stateMutability": "pure",
      "type": "function"
    },
    {
      "inputs": [
        {
          "internalType": "bytes32",
          "name": "_value",
          "type": "bytes32"
        }
      ],
      "name": "hashStorageValue",
      "outputs": [
        {
          "internalType": "bytes32",
          "name": "",
          "type": "bytes32"
        }
      ],
      "stateMutability": "pure",
      "type": "function"
    },
    {
      "inputs": [
        {
          "internalType": "bytes",
          "name": "_input",
          "type": "bytes"
        }
      ],
      "name": "mimcHash",
      "outputs": [
        {
          "internalType": "bytes32",
          "name": "",
          "type": "bytes32"
        }
      ],
      "stateMutability": "pure",
      "type": "function"
    },
    {
      "inputs": [
        {
          "internalType": "bytes[]",
          "name": "_rawProof",
          "type": "bytes[]"
        },
        {
          "internalType": "uint256",
          "name": "_leafIndex",
          "type": "uint256"
        },
        {
          "internalType": "bytes32",
          "name": "_root",
          "type": "bytes32"
        }
      ],
      "name": "verifyProof",
      "outputs": [
        {
          "internalType": "bool",
          "name": "",
          "type": "bool"
        }
      ],
      "stateMutability": "pure",
      "type": "function"
    }
  ],
  "transactionHash": "0xe82a45784356d3ec2281e9494c5d51ad6bf450391453235bd3a22bfdf0915a22",
  "args": [],
  "numDeployments": 1,
  "solcInputHash": "4f2f57ee56ecc7735104c998f416d8c8",
  "bytecode": "0x60808060405234601957610bbb908161001f823930815050f35b600080fdfe6080604052600436101561001257600080fd5b60003560e01c80635ea5a98f1461084057806360f0f00f146107db5780638c628e40146106b7578063b893e57914610644578063cc5c21ea146101225763ceeef5041461005e57600080fd5b60208060031936011261010a576100b381600435604051906001600160801b0381168383015260801c6040820152604081526100998161095f565b6040518093819263550f426f60e11b8352600483016109f4565b038173B9ad9c4f3E29e7ADDCE567e212C0a753C3804fDd5af4908115610116576000916100e4575b50604051908152f35b90508181813d831161010f575b6100fb818361097b565b8101031261010a5751386100db565b600080fd5b503d6100f1565b6040513d6000823e3d90fd5b606036600319011261010a5760043567ffffffffffffffff80821161010a573660238301121561010a578082600401351161010a57366024836004013560051b8401011161010a5760048201356001198101116105b05761018a600483013560011901610b0a565b91610198604051938461097b565b6004810135600119018084526101ad90610b0a565b601f190136602085013780600401351561062e5760248101356042198236030181121561010a57810191602483013590811161010a57803603604484011361010a5760201161010a5760048101356000198101919082116105b057602061021f61023b93836004013560248501610b22565b60405163550f426f60e11b815294859283929060048401610a3d565b038173B9ad9c4f3E29e7ADDCE567e212C0a753C3804fDd5af4918215610116576000926105fa575b5060015b6004820135600119018110610546575061028e600482013560011981019060248401610b22565b90600191815b818301811061052a575b505050600014610486575060006102b484610b64565b525b916000905b60288210610351576102e8602084866044604051920135838301526040820152604081526100998161095f565b038173B9ad9c4f3E29e7ADDCE567e212C0a753C3804fDd5af480156101165760009061031e575b60209060405190604435148152f35b506020813d602011610349575b816103386020938361097b565b8101031261010a576020905161030f565b3d915061032b565b9092600180602435861c16146000146103f7576020610390916103748685610b71565b519060405191838301526040820152604081526100998161095f565b038173B9ad9c4f3E29e7ADDCE567e212C0a753C3804fDd5af48015610116576000906103c4575b60019150935b01906102bb565b506020813d6020116103ef575b816103de6020938361097b565b8101031261010a57600190516103b7565b3d91506103d1565b6020610422916104078685610b71565b5160405191838301526040820152604081526100998161095f565b038173B9ad9c4f3E29e7ADDCE567e212C0a753C3804fDd5af4801561011657600090610453575b60019150936103bd565b506020813d60201161047e575b8161046d6020938361097b565b8101031261010a5760019051610449565b3d9150610460565b6104c0906020906104a4906004810135600119810191602401610b22565b60405163550f426f60e11b815293849283929060048401610a3d565b038173B9ad9c4f3E29e7ADDCE567e212C0a753C3804fDd5af4908115610116576000916104f8575b506104f284610b64565b526102b6565b90506020813d602011610522575b816105136020938361097b565b8101031261010a5751846104e8565b3d9150610506565b803561053857602001610294565b50505050600085808061029e565b80602061021f61055e93856004013560248701610b22565b038173B9ad9c4f3E29e7ADDCE567e212C0a753C3804fDd5af4918215610116576000926105c6575b506001196004840135828103820193910183116105b0576105a960019388610b71565b5201610267565b634e487b7160e01b600052601160045260246000fd5b9091506020813d6020116105f2575b816105e26020938361097b565b8101031261010a57519086610586565b3d91506105d5565b9091506020813d602011610626575b816106166020938361097b565b8101031261010a57519084610263565b3d9150610609565b634e487b7160e01b600052603260045260246000fd5b61065260206104a4366108dd565b038173B9ad9c4f3E29e7ADDCE567e212C0a753C3804fDd5af4801561011657600090610684575b602090604051908152f35b506020813d6020116106af575b8161069e6020938361097b565b8101031261010a5760209051610679565b3d9150610691565b6106c96106c3366108dd565b90610a7a565b60808101519067ffffffffffffffff8082511691602093848201519160408101518460a06060840151930151169360405196888801526040870152606086015260808501526001600160801b03811660a085015260801c60c084015260e083015260e08252610100820190828210908211176107c557604081905263550f426f60e11b8152828160ff19846107628161010481016109f4565b03018173B9ad9c4f3E29e7ADDCE567e212C0a753C3804fDd5af4918215610116578390600093610796575b50604051838152f35b90809293503d83116107be575b6107ad818561097b565b8101031261010a575182828161078d565b503d6107a3565b634e487b7160e01b600052604160045260246000fd5b60c06107f86107e9366108dd565b906107f26109c2565b50610a7a565b6040519060a067ffffffffffffffff918281511684526020810151602085015260408101516040850152606081015160608501526080810151608085015201511660a0820152f35b610849366108dd565b61085161099d565b5061085a61099d565b50608081106108be57816080918101031261010a5760405160809161087e82610927565b8035918281526020810160208301358152606080604084019360408601358552019301358352604051938452516020840152516040830152516060820152f35b60449060405190637b45159f60e01b8252608060048301526024820152fd5b90602060031983011261010a5760043567ffffffffffffffff9283821161010a578060238301121561010a57816004013593841161010a576024848301011161010a576024019190565b6080810190811067ffffffffffffffff8211176107c557604052565b60c0810190811067ffffffffffffffff8211176107c557604052565b6060810190811067ffffffffffffffff8211176107c557604052565b90601f8019910116810190811067ffffffffffffffff8211176107c557604052565b604051906109aa82610927565b60006060838281528260208201528260408201520152565b604051906109cf82610943565b8160a06000918281528260208201528260408201528260608201528260808201520152565b6020808252825181830181905290939260005b828110610a2957505060409293506000838284010152601f8019910116010190565b818101860151848201604001528501610a07565b90918060409360208452816020850152848401376000828201840152601f01601f1916010190565b359067ffffffffffffffff8216820361010a57565b90610a836109c2565b5060c08110610aeb578160c0918101031261010a57610ae360a060405192610aaa84610943565b610ab381610a65565b84526020810135602085015260408101356040850152606081013560608501526080810135608085015201610a65565b60a082015290565b60449060405190637b45159f60e01b825260c060048301526024820152fd5b67ffffffffffffffff81116107c55760051b60200190565b919081101561062e5760051b81013590601e198136030182121561010a57019081359167ffffffffffffffff831161010a57602001823603811361010a579190565b80511561062e5760200190565b805182101561062e5760209160051b01019056fea2646970667358221220f6decf92575a7767a15822b17d94097a50ba73ac251c2ca3fb667685507946da64736f6c63430008190033",
  "deployedBytecode": "0x6080604052600436101561001257600080fd5b60003560e01c80635ea5a98f1461084057806360f0f00f146107db5780638c628e40146106b7578063b893e57914610644578063cc5c21ea146101225763ceeef5041461005e57600080fd5b60208060031936011261010a576100b381600435604051906001600160801b0381168383015260801c6040820152604081526100998161095f565b6040518093819263550f426f60e11b8352600483016109f4565b038173__$01c0e0866e94f2e6045b15dfd82b392d04$__5af4908115610116576000916100e4575b50604051908152f35b90508181813d831161010f575b6100fb818361097b565b8101031261010a5751386100db565b600080fd5b503d6100f1565b6040513d6000823e3d90fd5b606036600319011261010a5760043567ffffffffffffffff80821161010a573660238301121561010a578082600401351161010a57366024836004013560051b8401011161010a5760048201356001198101116105b05761018a600483013560011901610b0a565b91610198604051938461097b565b6004810135600119018084526101ad90610b0a565b601f190136602085013780600401351561062e5760248101356042198236030181121561010a57810191602483013590811161010a57803603604484011361010a5760201161010a5760048101356000198101919082116105b057602061021f61023b93836004013560248501610b22565b60405163550f426f60e11b815294859283929060048401610a3d565b038173__$01c0e0866e94f2e6045b15dfd82b392d04$__5af4918215610116576000926105fa575b5060015b6004820135600119018110610546575061028e600482013560011981019060248401610b22565b90600191815b818301811061052a575b505050600014610486575060006102b484610b64565b525b916000905b60288210610351576102e8602084866044604051920135838301526040820152604081526100998161095f565b038173__$01c0e0866e94f2e6045b15dfd82b392d04$__5af480156101165760009061031e575b60209060405190604435148152f35b506020813d602011610349575b816103386020938361097b565b8101031261010a576020905161030f565b3d915061032b565b9092600180602435861c16146000146103f7576020610390916103748685610b71565b519060405191838301526040820152604081526100998161095f565b038173__$01c0e0866e94f2e6045b15dfd82b392d04$__5af48015610116576000906103c4575b60019150935b01906102bb565b506020813d6020116103ef575b816103de6020938361097b565b8101031261010a57600190516103b7565b3d91506103d1565b6020610422916104078685610b71565b5160405191838301526040820152604081526100998161095f565b038173__$01c0e0866e94f2e6045b15dfd82b392d04$__5af4801561011657600090610453575b60019150936103bd565b506020813d60201161047e575b8161046d6020938361097b565b8101031261010a5760019051610449565b3d9150610460565b6104c0906020906104a4906004810135600119810191602401610b22565b60405163550f426f60e11b815293849283929060048401610a3d565b038173__$01c0e0866e94f2e6045b15dfd82b392d04$__5af4908115610116576000916104f8575b506104f284610b64565b526102b6565b90506020813d602011610522575b816105136020938361097b565b8101031261010a5751846104e8565b3d9150610506565b803561053857602001610294565b50505050600085808061029e565b80602061021f61055e93856004013560248701610b22565b038173__$01c0e0866e94f2e6045b15dfd82b392d04$__5af4918215610116576000926105c6575b506001196004840135828103820193910183116105b0576105a960019388610b71565b5201610267565b634e487b7160e01b600052601160045260246000fd5b9091506020813d6020116105f2575b816105e26020938361097b565b8101031261010a57519086610586565b3d91506105d5565b9091506020813d602011610626575b816106166020938361097b565b8101031261010a57519084610263565b3d9150610609565b634e487b7160e01b600052603260045260246000fd5b61065260206104a4366108dd565b038173__$01c0e0866e94f2e6045b15dfd82b392d04$__5af4801561011657600090610684575b602090604051908152f35b506020813d6020116106af575b8161069e6020938361097b565b8101031261010a5760209051610679565b3d9150610691565b6106c96106c3366108dd565b90610a7a565b60808101519067ffffffffffffffff8082511691602093848201519160408101518460a06060840151930151169360405196888801526040870152606086015260808501526001600160801b03811660a085015260801c60c084015260e083015260e08252610100820190828210908211176107c557604081905263550f426f60e11b8152828160ff19846107628161010481016109f4565b03018173__$01c0e0866e94f2e6045b15dfd82b392d04$__5af4918215610116578390600093610796575b50604051838152f35b90809293503d83116107be575b6107ad818561097b565b8101031261010a575182828161078d565b503d6107a3565b634e487b7160e01b600052604160045260246000fd5b60c06107f86107e9366108dd565b906107f26109c2565b50610a7a565b6040519060a067ffffffffffffffff918281511684526020810151602085015260408101516040850152606081015160608501526080810151608085015201511660a0820152f35b610849366108dd565b61085161099d565b5061085a61099d565b50608081106108be57816080918101031261010a5760405160809161087e82610927565b8035918281526020810160208301358152606080604084019360408601358552019301358352604051938452516020840152516040830152516060820152f35b60449060405190637b45159f60e01b8252608060048301526024820152fd5b90602060031983011261010a5760043567ffffffffffffffff9283821161010a578060238301121561010a57816004013593841161010a576024848301011161010a576024019190565b6080810190811067ffffffffffffffff8211176107c557604052565b60c0810190811067ffffffffffffffff8211176107c557604052565b6060810190811067ffffffffffffffff8211176107c557604052565b90601f8019910116810190811067ffffffffffffffff8211176107c557604052565b604051906109aa82610927565b60006060838281528260208201528260408201520152565b604051906109cf82610943565b8160a06000918281528260208201528260408201528260608201528260808201520152565b6020808252825181830181905290939260005b828110610a2957505060409293506000838284010152601f8019910116010190565b818101860151848201604001528501610a07565b90918060409360208452816020850152848401376000828201840152601f01601f1916010190565b359067ffffffffffffffff8216820361010a57565b90610a836109c2565b5060c08110610aeb578160c0918101031261010a57610ae360a060405192610aaa84610943565b610ab381610a65565b84526020810135602085015260408101356040850152606081013560608501526080810135608085015201610a65565b60a082015290565b60449060405190637b45159f60e01b825260c060048301526024820152fd5b67ffffffffffffffff81116107c55760051b60200190565b919081101561062e5760051b81013590601e198136030182121561010a57019081359167ffffffffffffffff831161010a57602001823603811361010a579190565b80511561062e5760200190565b805182101561062e5760209160051b01019056fea2646970667358221220f6decf92575a7767a15822b17d94097a50ba73ac251c2ca3fb667685507946da64736f6c63430008190033",
  "libraries": {
    "Mimc": "0xB9ad9c4f3E29e7ADDCE567e212C0a753C3804fDd"
  },
  "devdoc": {
    "kind": "dev",
    "methods": {
      "getAccount(bytes)": {
        "params": {
          "_encodedAccountValue": "Encoded account value bytes (nonce, balance, storageRoot, mimcCodeHash, keccakCodeHash, codeSize)"
        },
        "returns": {
          "_0": "Account Formatted account struct"
        }
      },
      "getLeaf(bytes)": {
        "params": {
          "_encodedLeaf": "Encoded leaf bytes (prev, next, hKey, hValue)"
        },
        "returns": {
          "_0": "Leaf Formatted leaf struct"
        }
      },
      "hashAccountValue(bytes)": {
        "params": {
          "_value": "Encoded account value bytes (nonce, balance, storageRoot, mimcCodeHash, keccakCodeHash, codeSize)"
        },
        "returns": {
          "_0": "{bytes32} Account value hash"
        }
      },
      "hashStorageValue(bytes32)": {
        "params": {
          "_value": "Encoded storage value bytes"
        },
        "returns": {
          "_0": "{bytes32} Storage value hash"
        }
      },
      "mimcHash(bytes)": {
        "params": {
          "_input": "Value to hash"
        },
        "returns": {
          "_0": "{bytes32} Mimc hash"
        }
      },
      "verifyProof(bytes[],uint256,bytes32)": {
        "params": {
          "_leafIndex": "Index of the leaf",
          "_rawProof": "Raw sparse merkle tree proof",
          "_root": "Sparse merkle root"
        }
      }
    },
    "version": 1
  },
  "userdoc": {
    "kind": "user",
    "methods": {
      "getAccount(bytes)": {
        "notice": "Get account"
      },
      "getLeaf(bytes)": {
        "notice": "Get leaf"
      },
      "hashAccountValue(bytes)": {
        "notice": "Hash account value"
      },
      "hashStorageValue(bytes32)": {
        "notice": "Hash storage value"
      },
      "mimcHash(bytes)": {
        "notice": "Hash a value using MIMC hash"
      },
      "verifyProof(bytes[],uint256,bytes32)": {
        "notice": "Format input and verify sparse merkle proof"
      }
    },
    "version": 1
  },
  "storageLayout": {
    "storage": [],
    "types": null
  }
}