{
  "address": "0xD8E10beb27DbAd30BcfB4a6824f1B480C9Bfe32A",
  "abi": [
    {
      "inputs": [
        {
          "internalType": "contract IEVMVerifier",
          "name": "_verifier",
          "type": "address"
        },
        {
          "internalType": "contract ENS",
          "name": "_ens",
          "type": "address"
        },
        {
          "internalType": "contract INameWrapper",
          "name": "_nameWrapper",
          "type": "address"
        },
        {
          "internalType": "string",
          "name": "_graphqlUrl",
          "type": "string"
        },
        {
          "internalType": "uint256",
          "name": "_l2ChainId",
          "type": "uint256"
        }
      ],
      "stateMutability": "nonpayable",
      "type": "constructor"
    },
    {
      "inputs": [],
      "name": "CommandTooLong",
      "type": "error"
    },
    {
      "inputs": [
        {
          "internalType": "uint256",
          "name": "value",
          "type": "uint256"
        },
        {
          "internalType": "uint256",
          "name": "max",
          "type": "uint256"
        }
      ],
      "name": "InvalidReference",
      "type": "error"
    },
    {
      "inputs": [
        {
          "internalType": "address",
          "name": "sender",
          "type": "address"
        },
        {
          "internalType": "string[]",
          "name": "urls",
          "type": "string[]"
        },
        {
          "internalType": "bytes",
          "name": "callData",
          "type": "bytes"
        },
        {
          "internalType": "bytes4",
          "name": "callbackFunction",
          "type": "bytes4"
        },
        {
          "internalType": "bytes",
          "name": "extraData",
          "type": "bytes"
        }
      ],
      "name": "OffchainLookup",
      "type": "error"
    },
    {
      "inputs": [
        {
          "internalType": "uint256",
          "name": "actual",
          "type": "uint256"
        },
        {
          "internalType": "uint256",
          "name": "expected",
          "type": "uint256"
        }
      ],
      "name": "ResponseLengthMismatch",
      "type": "error"
    },
    {
      "inputs": [
        {
          "internalType": "uint256",
          "name": "chainId",
          "type": "uint256"
        },
        {
          "internalType": "address",
          "name": "contractAddress",
          "type": "address"
        }
      ],
      "name": "StorageHandledByL2",
      "type": "error"
    },
    {
      "inputs": [
        {
          "internalType": "uint256",
          "name": "max",
          "type": "uint256"
        }
      ],
      "name": "TooManyCommands",
      "type": "error"
    },
    {
      "anonymous": false,
      "inputs": [
        {
          "indexed": false,
          "internalType": "bytes",
          "name": "name",
          "type": "bytes"
        },
        {
          "indexed": false,
          "internalType": "string",
          "name": "graphqlUrl",
          "type": "string"
        }
      ],
      "name": "MetadataChanged",
      "type": "event"
    },
    {
      "anonymous": false,
      "inputs": [
        {
          "indexed": false,
          "internalType": "bytes",
          "name": "name",
          "type": "bytes"
        },
        {
          "indexed": false,
          "internalType": "address",
          "name": "target",
          "type": "address"
        }
      ],
      "name": "TargetSet",
      "type": "event"
    },
    {
      "inputs": [
        {
          "internalType": "bytes[]",
          "name": "values",
          "type": "bytes[]"
        },
        {
          "internalType": "bytes",
          "name": "",
          "type": "bytes"
        }
      ],
      "name": "addrCallback",
      "outputs": [
        {
          "internalType": "bytes",
          "name": "",
          "type": "bytes"
        }
      ],
      "stateMutability": "pure",
      "type": "function"
    },
    {
      "inputs": [
        {
          "internalType": "bytes[]",
          "name": "values",
          "type": "bytes[]"
        },
        {
          "internalType": "bytes",
          "name": "",
          "type": "bytes"
        }
      ],
      "name": "addrCoinTypeCallback",
      "outputs": [
        {
          "internalType": "bytes",
          "name": "",
          "type": "bytes"
        }
      ],
      "stateMutability": "pure",
      "type": "function"
    },
    {
      "inputs": [
        {
          "internalType": "bytes[]",
          "name": "values",
          "type": "bytes[]"
        },
        {
          "internalType": "bytes",
          "name": "",
          "type": "bytes"
        }
      ],
      "name": "contenthashCallback",
      "outputs": [
        {
          "internalType": "bytes",
          "name": "",
          "type": "bytes"
        }
      ],
      "stateMutability": "pure",
      "type": "function"
    },
    {
      "inputs": [],
      "name": "ens",
      "outputs": [
        {
          "internalType": "contract ENS",
          "name": "",
          "type": "address"
        }
      ],
      "stateMutability": "view",
      "type": "function"
    },
    {
      "inputs": [
        {
          "internalType": "bytes",
          "name": "response",
          "type": "bytes"
        },
        {
          "internalType": "bytes",
          "name": "extradata",
          "type": "bytes"
        }
      ],
      "name": "getStorageSlotsCallback",
      "outputs": [
        {
          "internalType": "bytes",
          "name": "",
          "type": "bytes"
        }
      ],
      "stateMutability": "nonpayable",
      "type": "function"
    },
    {
      "inputs": [
        {
          "internalType": "bytes",
          "name": "name",
          "type": "bytes"
        }
      ],
      "name": "getTarget",
      "outputs": [
        {
          "internalType": "bytes32",
          "name": "node",
          "type": "bytes32"
        },
        {
          "internalType": "address",
          "name": "target",
          "type": "address"
        }
      ],
      "stateMutability": "view",
      "type": "function"
    },
    {
      "inputs": [],
      "name": "graphqlUrl",
      "outputs": [
        {
          "internalType": "string",
          "name": "",
          "type": "string"
        }
      ],
      "stateMutability": "view",
      "type": "function"
    },
    {
      "inputs": [],
      "name": "l2ChainId",
      "outputs": [
        {
          "internalType": "uint256",
          "name": "",
          "type": "uint256"
        }
      ],
      "stateMutability": "view",
      "type": "function"
    },
    {
      "inputs": [
        {
          "internalType": "bytes",
          "name": "name",
          "type": "bytes"
        }
      ],
      "name": "metadata",
      "outputs": [
        {
          "internalType": "string",
          "name": "",
          "type": "string"
        }
      ],
      "stateMutability": "view",
      "type": "function"
    },
    {
      "inputs": [],
      "name": "nameWrapper",
      "outputs": [
        {
          "internalType": "contract INameWrapper",
          "name": "",
          "type": "address"
        }
      ],
      "stateMutability": "view",
      "type": "function"
    },
    {
      "inputs": [
        {
          "internalType": "bytes",
          "name": "name",
          "type": "bytes"
        },
        {
          "internalType": "bytes",
          "name": "data",
          "type": "bytes"
        }
      ],
      "name": "resolve",
      "outputs": [
        {
          "internalType": "bytes",
          "name": "result",
          "type": "bytes"
        }
      ],
      "stateMutability": "view",
      "type": "function"
    },
    {
      "inputs": [
        {
          "internalType": "bytes",
          "name": "name",
          "type": "bytes"
        },
        {
          "internalType": "address",
          "name": "_addr",
          "type": "address"
        }
      ],
      "name": "setAddr",
      "outputs": [
        {
          "internalType": "bytes",
          "name": "result",
          "type": "bytes"
        }
      ],
      "stateMutability": "view",
      "type": "function"
    },
    {
      "inputs": [
        {
          "internalType": "bytes",
          "name": "name",
          "type": "bytes"
        },
        {
          "internalType": "address",
          "name": "target",
          "type": "address"
        }
      ],
      "name": "setTarget",
      "outputs": [],
      "stateMutability": "nonpayable",
      "type": "function"
    },
    {
      "inputs": [
        {
          "internalType": "bytes4",
          "name": "interfaceId",
          "type": "bytes4"
        }
      ],
      "name": "supportsInterface",
      "outputs": [
        {
          "internalType": "bool",
          "name": "",
          "type": "bool"
        }
      ],
      "stateMutability": "view",
      "type": "function"
    },
    {
      "inputs": [
        {
          "internalType": "bytes[]",
          "name": "values",
          "type": "bytes[]"
        },
        {
          "internalType": "bytes",
          "name": "",
          "type": "bytes"
        }
      ],
      "name": "textCallback",
      "outputs": [
        {
          "internalType": "bytes",
          "name": "",
          "type": "bytes"
        }
      ],
      "stateMutability": "pure",
      "type": "function"
    },
    {
      "inputs": [],
      "name": "verifier",
      "outputs": [
        {
          "internalType": "contract IEVMVerifier",
          "name": "",
          "type": "address"
        }
      ],
      "stateMutability": "view",
      "type": "function"
    }
  ],
  "transactionHash": "0x4db13c78740626af6a36f720413ed29435040e890c7562d7180104f00e2c51d2",
  "args": [
    "0x0E17803049765C276Ae09a3D1450F82F6a75D220",
    "0x00000000000C2E074eC69A0dFb2997BA6C7d2e1e",
    "0x0635513f179D50A207757E05759CbD106d7dFcE8",
    "https://api.studio.thegraph.com/query/69290/ens-linea-sepolia/version/latest",
    59141
  ],
  "numDeployments": 7,
  "solcInputHash": "617c92f0f6f9d0cc08a713d0472e5f03",
  "bytecode": "0x6101006040523461038857612641803803908161001b8161038d565b91823960a08183810103126103885780516001600160a01b039182821682036103885760208101518381168103610388576040820151908482168203610388576060830151936001600160401b03851161038857601f938781018587830101121561038857808601516001600160401b03811161028e57601f19966100a6828801891660200161038d565b99828b5283016020838386010101116103885760005b82811061037257505060009089016020015260800151958381161561032e57808216156102e9578216156102a45760805260a05260c0528351906001600160401b03821161028e5760019283548481811c91168015610284575b602082101461026e57828111610226575b5060209183116001146101c75750819293946000926101bc575b5050600019600383901b1c191690821b1790555b60e05260405161228e90816103b3823960805181818161034601528181611403015281816115f9015281816117480152611875015260a0518181816105210152610a12015260c0518181816109550152610a47015260e051818181610c220152610c740152f35b015190503880610141565b8216908360005260206000209160005b81811061021057509583859697106101f7575b505050811b019055610155565b015160001960f88460031b161c191690553880806101ea565b87830151845592850192602092830192016101d7565b8460005260206000208380860160051c82019260208710610265575b0160051c019085905b828110610259575050610127565b6000815501859061024b565b92508192610242565b634e487b7160e01b600052602260045260246000fd5b90607f1690610116565b634e487b7160e01b600052604160045260246000fd5b60405162461bcd60e51b815260206004820152601c60248201527f52656769737472792061646472657373206d75737420626520736574000000006044820152606490fd5b60405162461bcd60e51b815260206004820152601c60248201527f56657269666965722061646472657373206d75737420626520736574000000006044820152606490fd5b606460405162461bcd60e51b815260206004820152602060248201527f4e616d6520577261707065722061646472657373206d757374206265207365746044820152fd5b602082850182018101518c8301820152016100bc565b600080fd5b6040519190601f01601f191682016001600160401b0381118382101761028e5760405256fe6080604052600436101561001257600080fd5b60003560e01c806301ffc9a71461010d57806315f64386146101085780632b7ac3f31461010357806338bf92e6146100cc5780633f15457f146100fe5780634062b43f146100f95780635bdaa916146100f45780638a596ebe146100ef5780639061b923146100ea578063a8e5fbc0146100e5578063d358df77146100e0578063d6ae3cd5146100db578063de9abe5e146100cc578063f00eebf4146100d6578063f470901a146100d15763fcd2e381146100cc57600080fd5b6104a7565b610cac565b610c45565b610c0a565b6109cd565b61093f565b610821565b6107dc565b6106e1565b61063f565b61050b565b610330565b6102df565b61012c565b35906001600160e01b03198216820361012757565b600080fd5b346101275760203660031901126101275760043563ffffffff60e01b81168091036101275761018f90639061b92360e01b81149081156101c6575b81156101b5575b81156101a4575b8115610193575b5060405190151581529081906020820190565b0390f35b6301ffc9a760e01b1490503861017c565b633c03bafd60e21b81149150610175565b63452cb75f60e11b8114915061016e565b630afb21c360e11b81149150610167565b634e487b7160e01b600052604160045260246000fd5b604081019081106001600160401b0382111761020857604052565b6101d7565b61042081019081106001600160401b0382111761020857604052565b90601f801991011681019081106001600160401b0382111761020857604052565b6001600160401b03811161020857601f01601f191660200190565b9291926102718261024a565b9161027f6040519384610229565b829481845281830111610127578281602093846000960137010152565b9080601f83011215610127578160206102b793359101610265565b90565b906020828203126101275781356001600160401b038111610127576102b7920161029c565b34610127576020366003190112610127576004356001600160401b0381116101275761031b6000610316604093369060040161029c565b6112a9565b82519182526001600160a01b03166020820152f35b34610127576000366003190112610127576040517f00000000000000000000000000000000000000000000000000000000000000006001600160a01b03168152602090f35b6001600160401b0381116102085760051b60200190565b81601f82011215610127578035916020916103a684610375565b936103b46040519586610229565b808552838086019160051b8301019280841161012757848301915b8483106103df5750505050505090565b82356001600160401b0381116101275786916104008484809489010161029c565b8152019201916103cf565b906040600319830112610127576001600160401b0360043581811161012757836104379160040161038c565b92602435918211610127576102b79160040161029c565b60005b8381106104615750506000910152565b8181015183820152602001610451565b9060209161048a8151809281855285808601910161044e565b601f01601f1916010190565b9060206102b7928181520190610471565b34610127576104b53661040b565b50805160011015610506576104e46104f2604061018f9301516040519283916020808401526040830190610471565b03601f198101835282610229565b604051918291602083526020830190610471565b610d34565b34610127576000366003190112610127576040517f00000000000000000000000000000000000000000000000000000000000000006001600160a01b03168152602090f35b90600182811c92168015610580575b602083101461056a57565b634e487b7160e01b600052602260045260246000fd5b91607f169161055f565b9060009160019060015461059d81610550565b808352926020916001811690811561061a57506001146105be575b50505050565b9293945060016000527fb10e2d527612073b26eecdfd717e6a320cf44b4afac2b0732d9fcbe2b7fa0cf6926000935b8585106106075750505060209250010190388080806105b8565b80548585018401529382019381016105ed565b92505050602093945060ff929192191683830152151560051b010190388080806105b8565b346101275760003660031901126101275761018f6040516104f2816106638161058a565b0382610229565b9181601f84011215610127578235916001600160401b038311610127576020838186019501011161012757565b6040600319820112610127576001600160401b039160043583811161012757826106c39160040161066a565b93909392602435918211610127576106dd9160040161066a565b9091565b3461012757610703600061070c6106f736610697565b959183919301906102ba565b93810190610d5e565b9096839592969461073e60018060a01b039384936040519a8b988997889663628e501560e11b88521660048701610f96565b0392165afa9182156107d7576000926107b2575b50815190519081810361078c576107848361077e866104e4604051938492602084015260248301610ff0565b3061136e565b602081519101f35b604051632918942560e01b815260048101919091526024810191909152604490fd5b0390fd5b6107d09192503d806000833e6107c88183610229565b810190610e5b565b9038610752565b610fe4565b34610127576020366003190112610127576004356001600160401b0381116101275761080c90369060040161066a565b505061018f6040516104f2816106638161058a565b3461012757610316600061085061083736610697565b94929095916108496004871015611014565b3691610265565b9290506001600160e01b03196108668383611057565b16631d9dabef60e11b811461092b576378e5bf0360e11b811461090e57631674750f60e21b81146108f15763bc1c58d160e01b146108d65760405162461bcd60e51b815260206004820152601060248201526f34b73b30b634b21039b2b632b1ba37b960811b6044820152606490fd5b816108ec926108e492611083565b8101906110a0565b611867565b50816109089261090092611083565b8101906110c5565b9061173a565b50816109259261091d92611083565b8101906110af565b906115df565b508161093a926108e492611083565b6113ed565b34610127576000366003190112610127576040517f00000000000000000000000000000000000000000000000000000000000000006001600160a01b03168152602090f35b6001600160a01b0381160361012757565b604060031982011261012757600435906001600160401b038211610127576109bf9160040161066a565b90916024356102b781610984565b34610127576109db36610995565b916109ec6000610316368585610265565b506040516302571be360e01b8152600481018290526001600160a01b03602080836024817f000000000000000000000000000000000000000000000000000000000000000086165afa9283156107d757600093610be9575b507f00000000000000000000000000000000000000000000000000000000000000008216908383168214610b25575b505094610b0081610ae17f88781081cc340609705af0f96bf3ba64ea267873444e91725bd072f2af0f44d895610ad1610b0e967f3c68652dbd57659176ef0092991d5753aac3039c3134b7a3eb5689acfaccf62d9b33911614611104565b6000526000602052604060002090565b80546001600160a01b0319166001600160a01b03909216919091179055565b604051918291868684611184565b0390a1610b20604051928392836111ad565b0390a1005b6040516331a9108f60e11b8152600481018690529790935091908390889060249082905afa80156107d757610ae17f88781081cc340609705af0f96bf3ba64ea267873444e91725bd072f2af0f44d895610ad1610b009486947f3c68652dbd57659176ef0092991d5753aac3039c3134b7a3eb5689acfaccf62d9c610b0e99600092610bbc575b50509750959a5050955050610a73565b610bdb9250803d10610be2575b610bd38183610229565b810190611937565b3880610bac565b503d610bc9565b819350610c039083923d8611610be257610bd38183610229565b9290610a44565b346101275760003660031901126101275760206040517f00000000000000000000000000000000000000000000000000000000000000008152f35b34610127576044610c656000610316610c5d36610995565b503691610265565b60405163e0a0507160e01b81527f000000000000000000000000000000000000000000000000000000000000000060048201526001600160a01b0390911660248201529050fd5b3461012757610cba3661040b565b50805160011015610506576104e4610d13604061018f93015160208151910151906bffffffffffffffffffffffff19918281169160148110610d1f575b50506040805160609290921c6020830152909384925090820190565b60405191829182610496565b8391925060140360031b1b1616803880610cf7565b634e487b7160e01b600052603260045260246000fd5b80518210156105065760209160051b010190565b9060c082820312610127578135610d7481610984565b9260209283810135610d8581610984565b936001600160401b039060408301358281116101275783019085601f8301121561012757813591610db583610375565b92610dc36040519485610229565b808452828085019160051b83010191888311610127578301905b828210610e15575050505093606083013591821161012757610e0091830161038c565b9160a0610e0f60808401610112565b92013590565b81358152908301908301610ddd565b90929192610e318161024a565b91610e3f6040519384610229565b829482845282820111610127576020610e5993019061044e565b565b9060209081838203126101275782516001600160401b039384821161012757019080601f83011215610127578151610e9281610375565b94604090610ea36040519788610229565b828752858088019360051b8601019484861161012757868101935b868510610ed057505050505050505090565b845183811161012757820186603f82011215610127578891610efa88838886809601519101610e24565b815201940193610ebe565b90815180825260208080930193019160005b828110610f25575050505090565b835185529381019392810192600101610f17565b90808251908181526020809101926020808460051b8301019501936000915b848310610f685750505050505090565b9091929394958480610f86600193601f198682030187528a51610471565b9801930193019194939290610f58565b95949390608093610fc3610fdf94610fd19360018060a01b03168a5260a060208b015260a08a0190610f05565b9088820360408a0152610f39565b908682036060880152610471565b930152565b6040513d6000823e3d90fd5b611004602092604083526040830190610f39565b9082818303910152600081520190565b1561101b57565b60405162461bcd60e51b81526020600482015260146024820152731c185c985b4819185d18481d1bdbc81cda1bdc9d60621b6044820152606490fd5b6001600160e01b0319903581811693926004811061107457505050565b60040360031b82901b16169150565b909291928360041161012757831161012757600401916003190190565b90816020910312610127573590565b9190826040910312610127576020823592013590565b9190604083820312610127578235926020810135906001600160401b03821161012757019080601f83011215610127578160206102b793359101610265565b1561110b57565b60405162461bcd60e51b815260206004820152602a60248201527f4e6f7420617574686f72697a656420746f207365742074617267657420666f726044820152692074686973206e6f646560b01b6064820152608490fd5b908060209392818452848401376000828201840152601f01601f1916010190565b9160209161119d91959495604085526040850191611163565b6001600160a01b03909416910152565b91906111c191604084526040840191611163565b818103602092830152600180546000939290916111dd83610550565b808352926001811690811561125657506001146111fc575b5050505090565b9293509060016000527fb10e2d527612073b26eecdfd717e6a320cf44b4afac2b0732d9fcbe2b7fa0cf692846000945b83861061124257505050500101388080806111f5565b80548587018301529401938590820161122c565b60ff191685840152505090151560051b01019050388080806111f5565b634e487b7160e01b600052601160045260246000fd5b906001820180921161129757565b611273565b9190820180921161129757565b9190918051831015610506576020838201015160f81c801561136257906112ee6112e9836112e36112f4956112dd89611289565b8661194c565b9661129c565b611289565b906112a9565b6040805160208101938452908101949094529261131481606081016104e4565b51902060008181526020819052604090206001600160a01b0390611340905b546001600160a01b031690565b16611349579190565b91506102b7611333836000526000602052604060002090565b50509050600090600090565b906102b79160008060405193611383856101ed565b601e85527f416464726573733a206c6f772d6c6576656c2063616c6c206661696c65640000602086015260208151910182855af13d156113e5573d916113c88361024a565b926113d66040519485610229565b83523d6000602085013e612034565b606091612034565b61142c6114366114318361142c61142761143b977f00000000000000000000000000000000000000000000000000000000000000006119a3565b611a3f565b611ab6565b611aea565b611b61565b611443611966565b50606081019060209081835110156115cd5760049060409061148161147b8351603c87820152868152611475816101ed565b8361222b565b826121ca565b8151936201518081860152808552611498856101ed565b8282019581875151151591826115c2575b50506115b4575b81516000906114cf906001600160a01b03165b6001600160a01b031690565b8451632d43cbef60e21b815295869182905afa9384156107d757600094611597575b5081810180516001600160a01b03168751608085018051875163ea9cd3bf60e01b87820152999391928a9261152b92919060248501611bd4565b0394601f19958681018a52611540908a610229565b516001600160a01b031692516001600160a01b031698519051908651998a9586019461156b95611c0a565b03908101855261157b9085610229565b51630556f18360e41b81529283926107ae923060048601611d4c565b6115ad9194503d806000833e6107c88183610229565b92386114f1565b6115bd826120c5565b6114b0565b5110905081386114a9565b604051631601fac760e31b8152600490fd5b8061142c61143661143161142c9461142c61142761161d997f00000000000000000000000000000000000000000000000000000000000000006119a3565b60406004815191602093620151808585015284845261163b846101ed565b8181019485515115158061172d575b61171f575b8151600090611666906001600160a01b03166114c3565b8451632d43cbef60e21b815295869182905afa9384156107d757600094611702575b5081810180516001600160a01b03168751608085018051875163ea9cd3bf60e01b87820152999391928a926116c292919060248501611bd4565b0394601f19958681018a526116d7908a610229565b516001600160a01b031692516001600160a01b031698519051908651998a9586019461156b95611c65565b6117189194503d806000833e6107c88183610229565b9238611688565b611728826120c5565b61164f565b508060608301511061164a565b918261142c61142761176c937f00000000000000000000000000000000000000000000000000000000000000006119a3565b91611775611966565b506020604084018051600181518015158061185a575b61184c575b019052515111611833576117e290600060608501526117ae8461216f565b61142c6040519461143661147b876117ce6020820190600a602083019252565b0397611475601f19998a8101835282610229565b906117eb611966565b506020606083015110156115cd5761147b611806918361222b565b61182e6040519283611822602082019062015180602083019252565b03908101845283610229565b611df0565b604051630251ce0160e31b815260206004820152602490fd5b611855886120c5565b611790565b508460608901511061178b565b908161142c611427611899937f00000000000000000000000000000000000000000000000000000000000000006119a3565b906118a2611966565b506020604083018051600181518015158061192a575b61191c575b0190525151116118335761142c82600060606118fd9501526118de8161216f565b61143661147b604051611475816104e460208201906003602083019252565b6040519062015180602083015260208252611917826101ed565b611f29565b611925876120c5565b6118bd565b50846060880151106118b8565b9081602091031261012757516102b781610984565b908281018082116112975782511061012757016020012090565b6040519060a082018281106001600160401b0382111761020857604052606060808360008152600060208201528260408201526000838201520152565b6119ab611966565b506040516119b88161020d565b602091602082526104009283366020850137604051936119d78561020d565b60005b818110611a305750505060008252600083526040519360a085018581106001600160401b03821117610208576040526001600160a01b039182168552166020840152604083015260006060830152608082015290565b606086820184015282016119da565b611a47611966565b5060206040820180516001815180151580611aa9575b611a9b575b0190525151116118335760006060820152611a7c81612123565b6102b761147b604051611475816104e460208201906000602083019252565b611aa4866120c5565b611a62565b5084606087015110611a5d565b90611abf611966565b506020606083015110156115cd5761147b6102b79160405190602082015260208152611475816101ed565b611af2611966565b5060206040820180516001815180151580611b54575b611b46575b0190525151116118335760006060820152611b278161216f565b6102b761147b604051611475816104e460208201906002602083019252565b611b4f866120c5565b611b0d565b5084606087015110611b08565b611b69611966565b50606081016020815110156115cd5760408201908151516000199182820191821161129757611b99828551610d4a565b51908051938414611297576001840190526001600160fd1b038316830361129757611bd092600160fd1b9060031b1c179251610d4a565b5290565b6001600160a01b0390911681526060602082018190526102b7939192611bfc91840190610f05565b916040818403910152610f39565b93906102b79593611c3c91611c4a9460018060a01b03809216885216602087015260c0604087015260c0860190610f05565b908482036060860152610f39565b91637a38480d60e11b608082015260a0818403910152610471565b93906102b79593611c3c91611c979460018060a01b03809216885216602087015260c0604087015260c0860190610f05565b91631c5fc97360e11b608082015260a0818403910152610471565b93906102b79593611c3c91611ce49460018060a01b03809216885216602087015260c0604087015260c0860190610f05565b91636f4d5f2f60e11b608082015260a0818403910152610471565b93906102b79593611c3c91611d319460018060a01b03809216885216602087015260c0604087015260c0860190610f05565b9163fcd2e38160e01b608082015260a0818403910152610471565b92909493919460a084019060018060a01b0316845260209060a06020860152865180915260c0850191602060c08360051b8801019801926000905b838210611dc457505050505084611da991846102b79697036040860152610471565b632ded548b60e11b6060840152916080818403910152610471565b90919293988380611de160019360bf198c82030186528d51610471565b9b019201920190939291611d87565b60046040820191825151151580611f1b575b611f0d575b8051600090611e1e906001600160a01b03166114c3565b604051632d43cbef60e21b815293849182905afa9182156107d757600092611ef0575b506020810180519093906001600160a01b031693815195608084019687519660405197889263ea9cd3bf60e01b60208501526024840192611e8193611bd4565b0393601f19948581018852611e969088610229565b516001600160a01b031691516001600160a01b031692519651604051978894611ec29460208701611cb2565b039081018452611ed29084610229565b604051630556f18360e41b81529283926107ae923060048601611d4c565b611f069192503d806000833e6107c88183610229565b9038611e41565b611f16816120c5565b611e07565b506020606082015110611e02565b60046040820191825151151580612026575b612018575b8051600090611f57906001600160a01b03166114c3565b604051632d43cbef60e21b815293849182905afa9182156107d757600092611ffb575b506020810180519093906001600160a01b031693815195608084019687519660405197889263ea9cd3bf60e01b60208501526024840192611fba93611bd4565b0393601f19948581018852611fcf9088610229565b516001600160a01b031691516001600160a01b031692519651604051978894611ec29460208701611cff565b6120119192503d806000833e6107c88183610229565b9038611f7a565b612021816120c5565b611f40565b506020606082015110611f3b565b919290156120965750815115612048575090565b3b156120515790565b60405162461bcd60e51b815260206004820152601d60248201527f416464726573733a2063616c6c20746f206e6f6e2d636f6e74726163740000006044820152606490fd5b8251909150156120a95750805190602001fd5b60405162461bcd60e51b81529081906107ae9060048301610496565b6040810190815151600019918282019182116112975760606120e8838651610d4a565b5191018051938414611297576001840190526001600160fd1b0383168303611297576121209260ff60f81b9060031b1c179251610d4a565b52565b60408101805151600019808201918211611297576060612144838551610d4a565b5194018051918214611297576001820190526001600160fd1b03811603611297576121209151610d4a565b604081019081515160001991828201918211611297576060612192838651610d4a565b5191018051938414611297576001840190526001600160fd1b03831683036112975761212092600160f81b9060031b1c179251610d4a565b604081018051519092916000198083019283116112975760606121ee848751610d4a565b5192018051918214611297576001820190526001600160fd1b0381168103611297576121209360ff60f81b9060f81b169060031b1c179251610d4a565b60806122559193929301519260ff84511693849160018301825261224f8383610d4a565b52610d4a565b5056fea264697066735822122028e4f18d893eca1ab82b0aab9e99c190881e50b0e9fe2ee03b03daa2e08a1d0364736f6c63430008190033",
  "devdoc": {
    "errors": {
      "StorageHandledByL2(uint256,address)": [
        {
          "details": "EIP-5559 - Error to raise when mutations are being deferred to an L2.",
          "params": {
            "chainId": "Chain ID to perform the deferred mutation to.",
            "contractAddress": "Contract Address at which the deferred mutation should transact with."
          }
        }
      ]
    },
    "kind": "dev",
    "methods": {
      "constructor": {
        "params": {
          "_ens": "The ENS registry address",
          "_graphqlUrl": "The offchain/l2 graphql endpoint url",
          "_l2ChainId": "The chainId at which the resolver resolves data from",
          "_nameWrapper": "The ENS name wrapper address",
          "_verifier": "The chain verifier address"
        }
      },
      "getStorageSlotsCallback(bytes,bytes)": {
        "details": "Internal callback function invoked by CCIP-Read in response to a `getStorageSlots` request."
      },
      "getTarget(bytes)": {
        "details": "Returns the L2 target address that can answer queries for `name`.",
        "params": {
          "name": "DNS encoded ENS name to query"
        },
        "returns": {
          "node": "The node of the name",
          "target": "The L2 resolver address to verify against."
        }
      },
      "metadata(bytes)": {
        "details": "This function provides metadata about the L1 Resolver, including its name, coin type, GraphQL URL, storage type, and encoded information.",
        "params": {
          "name": "The domain name in format (dnsEncoded)"
        },
        "returns": {
          "_0": "graphqlUrl The GraphQL URL used by the resolver"
        }
      },
      "resolve(bytes,bytes)": {
        "details": "Resolve and verify a record stored in l2 target address. It supports subname by fetching target recursively to the nearest parent.",
        "params": {
          "data": "The actual calldata",
          "name": "DNS encoded ENS name to query"
        },
        "returns": {
          "result": "result of the call"
        }
      },
      "setAddr(bytes,address)": {
        "details": "Resolve and throws an EIP 3559 compliant error",
        "params": {
          "_addr": "The actual calldata",
          "name": "DNS encoded ENS name to query"
        },
        "returns": {
          "result": "result of the call"
        }
      },
      "setTarget(bytes,address)": {
        "params": {
          "name": "The encoded name to query.",
          "target": "The L2 resolver address to verify against."
        }
      },
      "supportsInterface(bytes4)": {
        "details": "See {IERC165-supportsInterface}."
      }
    },
    "version": 1
  },
  "userdoc": {
    "kind": "user",
    "methods": {
      "metadata(bytes)": {
        "notice": "Get metadata about the L1 Resolver"
      },
      "setTarget(bytes,address)": {
        "notice": "Set target address to verify against"
      }
    },
    "version": 1
  },
  "storageLayout": {
    "storage": [
      {
        "astId": 13938,
        "contract": "contracts/L1Resolver.sol:L1Resolver",
        "label": "targets",
        "offset": 0,
        "slot": "0",
        "type": "t_mapping(t_bytes32,t_address)"
      },
      {
        "astId": 13961,
        "contract": "contracts/L1Resolver.sol:L1Resolver",
        "label": "graphqlUrl",
        "offset": 0,
        "slot": "1",
        "type": "t_string_storage"
      }
    ],
    "types": {
      "t_address": {
        "encoding": "inplace",
        "label": "address",
        "numberOfBytes": "20"
      },
      "t_bytes32": {
        "encoding": "inplace",
        "label": "bytes32",
        "numberOfBytes": "32"
      },
      "t_mapping(t_bytes32,t_address)": {
        "encoding": "mapping",
        "key": "t_bytes32",
        "label": "mapping(bytes32 => address)",
        "numberOfBytes": "32",
        "value": "t_address"
      },
      "t_string_storage": {
        "encoding": "bytes",
        "label": "string",
        "numberOfBytes": "32"
      }
    }
  }
}