{
  "address": "0x0E17803049765C276Ae09a3D1450F82F6a75D220",
  "abi": [
    {
      "inputs": [
        {
          "internalType": "string[]",
          "name": "urls",
          "type": "string[]"
        },
        {
          "internalType": "address",
          "name": "rollup",
          "type": "address"
        }
      ],
      "stateMutability": "nonpayable",
      "type": "constructor"
    },
    {
      "inputs": [
        {
          "internalType": "uint256",
          "name": "size",
          "type": "uint256"
        }
      ],
      "name": "InvalidSlotSize",
      "type": "error"
    },
    {
      "inputs": [
        {
          "internalType": "uint8",
          "name": "",
          "type": "uint8"
        }
      ],
      "name": "UnknownOpcode",
      "type": "error"
    },
    {
      "inputs": [
        {
          "internalType": "uint256",
          "name": "",
          "type": "uint256"
        }
      ],
      "name": "_gatewayURLs",
      "outputs": [
        {
          "internalType": "string",
          "name": "",
          "type": "string"
        }
      ],
      "stateMutability": "view",
      "type": "function"
    },
    {
      "inputs": [],
      "name": "_rollup",
      "outputs": [
        {
          "internalType": "address",
          "name": "",
          "type": "address"
        }
      ],
      "stateMutability": "view",
      "type": "function"
    },
    {
      "inputs": [],
      "name": "gatewayURLs",
      "outputs": [
        {
          "internalType": "string[]",
          "name": "",
          "type": "string[]"
        }
      ],
      "stateMutability": "view",
      "type": "function"
    },
    {
      "inputs": [
        {
          "internalType": "address",
          "name": "target",
          "type": "address"
        },
        {
          "internalType": "bytes32[]",
          "name": "commands",
          "type": "bytes32[]"
        },
        {
          "internalType": "bytes[]",
          "name": "constants",
          "type": "bytes[]"
        },
        {
          "internalType": "bytes",
          "name": "proof",
          "type": "bytes"
        },
        {
          "internalType": "uint256",
          "name": "l2BlockRangeAccepted",
          "type": "uint256"
        }
      ],
      "name": "getStorageValues",
      "outputs": [
        {
          "internalType": "bytes[]",
          "name": "values",
          "type": "bytes[]"
        }
      ],
      "stateMutability": "view",
      "type": "function"
    }
  ],
  "transactionHash": "0x0077e95c967f65142b0468d97c588992f49681e2e6b14afc1ade922b5238a0bc",
  "args": [
    [
      "https://linea-ccip-gateway.sepolia.linea.build/{sender}/{data}.json"
    ],
    "0xB218f8A4Bc926cF1cA7b3423c154a0D627Bdb7E5"
  ],
  "numDeployments": 5,
  "solcInputHash": "617c92f0f6f9d0cc08a713d0472e5f03",
  "bytecode": "0x604060806040523461029f57611c7b908138038061001c81610346565b93843982019060408383031261029f5782516001600160401b03919082811161029f57840190601f9284848401121561029f57825195602093828811610289576005938860051b9786610070818b01610346565b809b8152019087829a8501019381851161029f5790818980979695949301925b8584106102a45750505050505001519560018060a01b03871680970361029f57519368010000000000000000851161028957600095865486885580871061021e575b50868052848720939087905b87891061010657600180546001600160a01b0319168b1790556040516118be90816103bd8239f35b805180519086821161020a5790889161011f895461036b565b8781116101d6575b50829087831160011461016f579180600195928695948892610164575b5050600019600383901b1c191690841b1789555b019601980197946100de565b015190503880610144565b8986528386209190601f198416875b8181106101be57509160019693918588979694106101a5575b505050831b83018955610158565b015160001960f88460031b161c19169055388080610197565b8284015185558d96600190950194938401930161017e565b6101fb908a8752848720898086018a1c820192878710610201575b01891c01906103a5565b38610127565b925081926101f1565b634e487b7160e01b84526041600452602484fd5b8780528686892091820191015b81811061023857506100d2565b80896102466001935461036b565b80610254575b50500161022b565b8681118414610268575081555b893861024c565b828252610280878b842092018a1c82018583016103a5565b81835555610261565b634e487b7160e01b600052604160045260246000fd5b600080fd5b9091928094959697505188811161029f57820183603f8201121561029f578a810151898111610331576102de818e01601f19168d01610346565b918183528588838301011161029f579290918c926000945b8186106103195750600090820184015281528b9897969582019493925001610090565b8086018a015183870186015293909401938d936102f6565b60246000634e487b7160e01b81526041600452fd5b6040519190601f01601f191682016001600160401b0381118382101761028957604052565b90600182811c9216801561039b575b602083101461038557565b634e487b7160e01b600052602260045260246000fd5b91607f169161037a565b8181106103b0575050565b600081556001016103a556fe6080604052600436101561001257600080fd5b6000803560e01c908163a183bada1461013b578163b50f2fbc1461005557508063c51ca02a146100505763f36c452e1461004b57600080fd5b61059e565b6103a8565b3461013857806003193601126101385780546100708161024c565b9061007e604051928361022b565b80825282805260209283830191817f290decd9548b62a8d60345a988386fc84ba6bc95484008f6362f93160ef3e563845b8383106101145750505050604051928484019085855251809152604084019460408260051b8601019392955b8287106100e85785850386f35b909192938280610104600193603f198a82030186528851610184565b96019201960195929190926100db565b6001888192610126859b9a989b6104a2565b815201920192019190969395966100af565b80fd5b346101385780600319360112610138576001546001600160a01b03166080908152602090f35b60005b8381106101745750506000910152565b8181015183820152602001610164565b9060209161019d81518092818552858086019101610161565b601f01601f1916010190565b6001600160a01b038116036101ba57565b600080fd5b634e487b7160e01b600052604160045260246000fd5b608081019081106001600160401b038211176101f057604052565b6101bf565b604081019081106001600160401b038211176101f057604052565b606081019081106001600160401b038211176101f057604052565b90601f801991011681019081106001600160401b038211176101f057604052565b6001600160401b0381116101f05760051b60200190565b6001600160401b0381116101f057601f01601f191660200190565b81601f820112156101ba5780359061029582610263565b926102a3604051948561022b565b828452602083830101116101ba57816000926020809301838601378301015290565b81601f820112156101ba578035916020916102df8461024c565b936102ed604051958661022b565b808552838086019160051b830101928084116101ba57848301915b8483106103185750505050505090565b82356001600160401b0381116101ba5786916103398484809489010161027e565b815201920191610308565b6020808201906020835283518092526040830192602060408460051b8301019501936000915b84831061037a5750505050505090565b9091929394958480610398600193603f198682030187528a51610184565b980193019301919493929061036a565b346101ba5760a03660031901126101ba576004356103c5816101a9565b602435906001600160401b03908183116101ba57366023840112156101ba5782600401356103f28161024c565b93610400604051958661022b565b8185526020916024602087019160051b830101913683116101ba57602401905b82821061047d57505050506044358281116101ba576104439036906004016102c5565b926064359283116101ba576104799361046361046d94369060040161027e565b91608435936109a6565b60405191829182610344565b0390f35b81358152908301908301610420565b634e487b7160e01b600052603260045260246000fd5b906040519060009280549360018560011c9260018716918215610580575b60209160208610841461056c5787986104e0878a98999a60209181520190565b9490811561054b5750600114610503575b505050506105019250038361022b565b565b610517919450959195600052602060002090565b946000935b82851061053557505050610501935001388080806104f1565b865485850152958601958895509381019361051c565b93505050506105019491925060ff19168252151560051b01388080806104f1565b634e487b7160e01b85526022600452602485fd5b93607f16936104c0565b90602061059b928181520190610184565b90565b346101ba5760203660031901126101ba576004356000548110156101ba576105ee61047991600080527f290decd9548b62a8d60345a988386fc84ba6bc95484008f6362f93160ef3e563016104a2565b604051918291602083526020830190610184565b81601f820112156101ba57805161061881610263565b92610626604051948561022b565b818452602082840101116101ba5761059b9160208085019101610161565b81601f820112156101ba5780519160209161065e8461024c565b9361066c604051958661022b565b808552838086019160051b830101928084116101ba57848301915b8483106106975750505050505090565b82516001600160401b0381116101ba5786916106b884848094890101610602565b815201920191610687565b519081151582036101ba57565b9080601f830112156101ba578151916020916106eb8461024c565b936040926106fb8451968761022b565b818652848087019260051b820101938385116101ba57858201925b858410610727575050505050505090565b83516001600160401b03908181116101ba57840191601f19916080848903840181136101ba57855191610759836101d5565b8b8601518352868601518c840152606091828701518281116101ba578890880196878d0301126101ba5787519661078f886101f5565b8d8701518852888701519283116101ba578d976107b48d8a6107c296819b0101610644565b8882015289860152016106c3565b90820152815201930192610716565b916060838303126101ba578251926020810151926001600160401b03938481116101ba578201936060858303126101ba5760409485519061081182610210565b805161081c816101a9565b82526020810151602083015286810151908382116101ba570186818503126101ba5786519061084a826101f5565b80518481116101ba578561085f918301610602565b82526020810151908482116101ba5761087a91869101610644565b602082015286820152948301519081116101ba5761059b92016106d0565b908160209103126101ba575190565b6040513d6000823e3d90fd5b634e487b7160e01b600052601160045260246000fd5b919082039182116108d657565b6108b3565b156108e257565b60405162461bcd60e51b815260206004820152603560248201527f4c696e656153706172736550726f6f6656657269666965723a20626c6f636b206044820152741b9bdd081a5b881c985b99d9481858d8d95c1d1959605a1b6064820152608490fd5b1561094c57565b60405162461bcd60e51b815260206004820152602c60248201527f4c696e656153706172736550726f6f6656657269666965723a20696e76616c6960448201526b19081cdd185d19481c9bdbdd60a21b6064820152608490fd5b909293916109bf855195602080809883010191016107d1565b95919390946109e76109db6109db60015460018060a01b031690565b6001600160a01b031690565b60405163695378f560e01b815295908987600481845afa968715610aa957610a51978b94610a3192600092610acd575b50808211159182610ac2575b8215610aae575b50506108db565b6040518080988194638be745d160e01b8352600483019190602083019252565b03915afa938415610aa95761059b97600095610a7a575b5050610a75841515610945565b610c65565b610a9a929550803d10610aa2575b610a92818361022b565b810190610898565b923880610a68565b503d610a88565b6108a7565b610ab892506108c9565b8310153880610a2a565b808611159250610a23565b610ae5919250863d8811610aa257610a92818361022b565b9038610a17565b15610af357565b60405162461bcd60e51b815260206004820152603960248201527f4c696e656150726f6f6648656c7065723a20636f6d6d616e6473206e756d626560448201527f72203e2073746f726167652070726f6f6673206e756d626572000000000000006064820152608490fd5b51906001600160401b03821682036101ba57565b908160c09103126101ba576040519060c082018281106001600160401b038211176101f057610bda9160a091604052610baa81610b5e565b84526020810151602085015260408101516040850152606081015160608501526080810151608085015201610b5e565b60a082015290565b90610bec8261024c565b610bf9604051918261022b565b8281528092610c0a601f199161024c565b019060005b828110610c1b57505050565b806060602080938501015201610c0f565b805160291015610c3d576105400190565b61048c565b8051821015610c3d5760209160051b010190565b60001981146108d65760010190565b9284610c8492949796939597610c7f865186511015610aec565b611012565b5060408095015151908551906360f0f00f60e01b825260c08280610cad6004966004830161058a565b038173718D20736A637CDB15b6B586D8f1BF081080837f5af4918215610aa957600092610e78575b50600094610ce38551610be2565b94865b8151881015610e6d57898486610d078a87610d018e89610c42565b516112ad565b9290610e4b57610d2d91506060610d2186610d2993610c42565b510151151590565b1590565b15610d7d57505160006020820152600191610d7491610d5981604081015b03601f19810183528261022b565b610d638b8b610c42565b52610d6e8a8a610c42565b50610c56565b975b0196610ce6565b610dbd90868460209c959c94610db28682610da68583610d9d828a610c42565b51015197610c42565b5101510151928b610c42565b51015151918a6115d3565b610d4b610dec8c610dd7610dd08d610c56565b9c89610c42565b510151518d5184810191825292839160200190565b610df6838a610c42565b52610e018289610c42565b50610e0c8289610c42565b515111610e1b57600190610d76565b85610e47610e2a8c938a610c42565b515192519283926354d0209160e01b845283019190602083019252565b0390fd5b9091610e5b9350936001946113dd565b9890610e67828a610c42565b52610d76565b505050505050925050565b610e9b91925060c03d60c011610ea2575b610e93818361022b565b810190610b72565b9038610cd5565b503d610e89565b908160809103126101ba57606060405191610ec3836101d5565b8051835260208101516020840152604081015160408401520151606082015290565b15610eec57565b60405162461bcd60e51b815260206004820152601e60248201527f4c696e656150726f6f6648656c7065723a2077726f6e672074617267657400006044820152606490fd5b908160209103126101ba5761059b906106c3565b909392919360608201606083528151809152608083019060808160051b850101926020809101926000905b838210610f8a575050505050906040919460208201520152565b90919293948380610fa7600193607f198b82030186528951610184565b97019201920190939291610f70565b15610fbd57565b60405162461bcd60e51b815260206004820152602760248201527f4c696e656150726f6f6648656c7065723a20696e76616c6964206163636f756e6044820152663a10383937b7b360c91b6064820152608490fd5b604080516001600160a01b039092166020808401919091529373718D20736A637CDB15b6B586D8f1BF081080837f9261106d9290869061105481808501610d4b565b82518095819263b893e57960e01b83526004830161058a565b0381875af4928315610aa9576000936111f5575b506110b28186019560806110988989510151610c2c565b51845180948192635ea5a98f60e01b83526004830161058a565b0381895af4948515610aa95788926000966111c0575b506110d7908487015114610ee5565b865182015190820151835163662e10f560e11b815294859283926110ff929160048501610f45565b0381875af4938415610aa957869260009561118f575b5061113794955151915180809681946302318a3960e61b83526004830161058a565b03915af4918215610aa95761115d94600093611170575b505082611162575b5050610fb6565b600190565b606001511490503880611156565b611187929350803d10610aa257610a92818361022b565b90388061114e565b61113795506111b390843d86116111b9575b6111ab818361022b565b810190610f31565b94611115565b503d6111a1565b6110d79196506111e79060803d6080116111ee575b6111df818361022b565b810190610ea9565b95906110c8565b503d6111d5565b61120d919350863d8811610aa257610a92818361022b565b9138611081565b1561121b57565b60405162461bcd60e51b815260206004820152602360248201527f4669727374207061746820656c656d656e74206d75737420626520333220627960448201526274657360e81b6064820152608490fd5b602081519101519060208110611280575090565b6000199060200360031b1b1690565b60209291906112a5849282815194859201610161565b019081520190565b92906001908160018660001a1615159560f86112d087858460011a60f81b611788565b916112e96020936112e46020825114611214565b61126c565b976002965b6112fc575b50505050505050565b9091929394959784891080809161135e575b156113575715610c3d5761134b90610d4b611342611331858b888f1a8a1b611788565b926040519283918a8301958661128f565b51902098610c56565b959493929190846112ee565b50976112f3565b15610c3d576001600160f81b0319848b1a861b8116141561130e565b60405190602082018281106001600160401b038211176101f05760405260008252565b906113a782610263565b6113b4604051918261022b565b82815280926113c5601f1991610263565b0190602036910137565b90602082018092116108d657565b919093926113f3610d296060610d218886610c42565b61156257602092836114058785610c42565b5101519161143782604094878661141c8c8a610c42565b51015101518661142c8c8a610c42565b5101515191856115d3565b8261144b61144489610c56565b9886610c42565b5101515190600192600180841614600014611523579561148a899397865161147e81610d4b868201948560209181520190565b5190209760011c61139d565b966000855b6114a0575b50505050505050509190565b885181101561151e576114f26114f79286896114dd87826114d18f9c836114c88f8390610c42565b5101519d610c42565b5101510151928d610c42565b51015151906114eb83610c56565b98886115d3565b6113cf565b938561150c6115058c610c56565b9b89610c42565b5101515185890152939289938561148f565b611494565b50509250508161155461155e94611546607f945195869283019190602083019252565b03601f19810185528461022b565b60011c16906117f1565b9190565b50505061156e82610c56565b5061155e61137a565b1561157e57565b60405162461bcd60e51b815260206004820152602760248201527f4c696e656150726f6f6648656c7065723a20696e76616c69642073746f7261676044820152663290383937b7b360c91b6064820152608490fd5b939091929373718D20736A637CDB15b6B586D8f1BF081080837f906040809101519581519463662e10f560e11b8652858061161660209a8b948b60048501610f45565b0381865af4948515610aa95760009561175e575b50608061163b611655959697610c2c565b51835180968192635ea5a98f60e01b83526004830161058a565b0381865af4938415610aa95760009461173d575b5081516333bbbd4160e21b8082526004820196909652908782602481875af4938415610aa9576116b696899360009661171e575b5084518098819482938352600483019190602083019252565b03915af4938415610aa957610501966000956116ff575b5050846116f2575b5050826116e4575b5050611577565b6060015114905038806116dd565b82015114925038806116d5565b611716929550803d10610aa257610a92818361022b565b9238806116cd565b611736919650843d8611610aa257610a92818361022b565b943861169d565b61175791945060803d6080116111ee576111df818361022b565b9238611669565b61165594955061163b61177f6080928a3d8c116111b9576111ab818361022b565b9695505061162a565b9291909260f81c92601f60e0851694169184156000146117b257506117ae929350610c42565b5190565b9050602084036117c7576117ae929350610c42565b604051632cde2db560e21b815260048101859052602490fd5b908151811015610c3d570160200190565b9081518111611843576118038161139d565b9160009060005b838110611818575050505090565b6001906001600160f81b031961182e82856117e0565b5116841a61183c82886117e0565b530161180a565b60405162461bcd60e51b815260206004820152601860248201527f736c69636542797465733a206f7574206f662072616e676500000000000000006044820152606490fdfea26469706673582212209e0ca502d019bec52663b80cc9d732645bbbf57d7d1af74376c3351ffbd37f6f64736f6c63430008190033",
  "deployedBytecode": "0x6080604052600436101561001257600080fd5b6000803560e01c908163a183bada1461013b578163b50f2fbc1461005557508063c51ca02a146100505763f36c452e1461004b57600080fd5b61059e565b6103a8565b3461013857806003193601126101385780546100708161024c565b9061007e604051928361022b565b80825282805260209283830191817f290decd9548b62a8d60345a988386fc84ba6bc95484008f6362f93160ef3e563845b8383106101145750505050604051928484019085855251809152604084019460408260051b8601019392955b8287106100e85785850386f35b909192938280610104600193603f198a82030186528851610184565b96019201960195929190926100db565b6001888192610126859b9a989b6104a2565b815201920192019190969395966100af565b80fd5b346101385780600319360112610138576001546001600160a01b03166080908152602090f35b60005b8381106101745750506000910152565b8181015183820152602001610164565b9060209161019d81518092818552858086019101610161565b601f01601f1916010190565b6001600160a01b038116036101ba57565b600080fd5b634e487b7160e01b600052604160045260246000fd5b608081019081106001600160401b038211176101f057604052565b6101bf565b604081019081106001600160401b038211176101f057604052565b606081019081106001600160401b038211176101f057604052565b90601f801991011681019081106001600160401b038211176101f057604052565b6001600160401b0381116101f05760051b60200190565b6001600160401b0381116101f057601f01601f191660200190565b81601f820112156101ba5780359061029582610263565b926102a3604051948561022b565b828452602083830101116101ba57816000926020809301838601378301015290565b81601f820112156101ba578035916020916102df8461024c565b936102ed604051958661022b565b808552838086019160051b830101928084116101ba57848301915b8483106103185750505050505090565b82356001600160401b0381116101ba5786916103398484809489010161027e565b815201920191610308565b6020808201906020835283518092526040830192602060408460051b8301019501936000915b84831061037a5750505050505090565b9091929394958480610398600193603f198682030187528a51610184565b980193019301919493929061036a565b346101ba5760a03660031901126101ba576004356103c5816101a9565b602435906001600160401b03908183116101ba57366023840112156101ba5782600401356103f28161024c565b93610400604051958661022b565b8185526020916024602087019160051b830101913683116101ba57602401905b82821061047d57505050506044358281116101ba576104439036906004016102c5565b926064359283116101ba576104799361046361046d94369060040161027e565b91608435936109a6565b60405191829182610344565b0390f35b81358152908301908301610420565b634e487b7160e01b600052603260045260246000fd5b906040519060009280549360018560011c9260018716918215610580575b60209160208610841461056c5787986104e0878a98999a60209181520190565b9490811561054b5750600114610503575b505050506105019250038361022b565b565b610517919450959195600052602060002090565b946000935b82851061053557505050610501935001388080806104f1565b865485850152958601958895509381019361051c565b93505050506105019491925060ff19168252151560051b01388080806104f1565b634e487b7160e01b85526022600452602485fd5b93607f16936104c0565b90602061059b928181520190610184565b90565b346101ba5760203660031901126101ba576004356000548110156101ba576105ee61047991600080527f290decd9548b62a8d60345a988386fc84ba6bc95484008f6362f93160ef3e563016104a2565b604051918291602083526020830190610184565b81601f820112156101ba57805161061881610263565b92610626604051948561022b565b818452602082840101116101ba5761059b9160208085019101610161565b81601f820112156101ba5780519160209161065e8461024c565b9361066c604051958661022b565b808552838086019160051b830101928084116101ba57848301915b8483106106975750505050505090565b82516001600160401b0381116101ba5786916106b884848094890101610602565b815201920191610687565b519081151582036101ba57565b9080601f830112156101ba578151916020916106eb8461024c565b936040926106fb8451968761022b565b818652848087019260051b820101938385116101ba57858201925b858410610727575050505050505090565b83516001600160401b03908181116101ba57840191601f19916080848903840181136101ba57855191610759836101d5565b8b8601518352868601518c840152606091828701518281116101ba578890880196878d0301126101ba5787519661078f886101f5565b8d8701518852888701519283116101ba578d976107b48d8a6107c296819b0101610644565b8882015289860152016106c3565b90820152815201930192610716565b916060838303126101ba578251926020810151926001600160401b03938481116101ba578201936060858303126101ba5760409485519061081182610210565b805161081c816101a9565b82526020810151602083015286810151908382116101ba570186818503126101ba5786519061084a826101f5565b80518481116101ba578561085f918301610602565b82526020810151908482116101ba5761087a91869101610644565b602082015286820152948301519081116101ba5761059b92016106d0565b908160209103126101ba575190565b6040513d6000823e3d90fd5b634e487b7160e01b600052601160045260246000fd5b919082039182116108d657565b6108b3565b156108e257565b60405162461bcd60e51b815260206004820152603560248201527f4c696e656153706172736550726f6f6656657269666965723a20626c6f636b206044820152741b9bdd081a5b881c985b99d9481858d8d95c1d1959605a1b6064820152608490fd5b1561094c57565b60405162461bcd60e51b815260206004820152602c60248201527f4c696e656153706172736550726f6f6656657269666965723a20696e76616c6960448201526b19081cdd185d19481c9bdbdd60a21b6064820152608490fd5b909293916109bf855195602080809883010191016107d1565b95919390946109e76109db6109db60015460018060a01b031690565b6001600160a01b031690565b60405163695378f560e01b815295908987600481845afa968715610aa957610a51978b94610a3192600092610acd575b50808211159182610ac2575b8215610aae575b50506108db565b6040518080988194638be745d160e01b8352600483019190602083019252565b03915afa938415610aa95761059b97600095610a7a575b5050610a75841515610945565b610c65565b610a9a929550803d10610aa2575b610a92818361022b565b810190610898565b923880610a68565b503d610a88565b6108a7565b610ab892506108c9565b8310153880610a2a565b808611159250610a23565b610ae5919250863d8811610aa257610a92818361022b565b9038610a17565b15610af357565b60405162461bcd60e51b815260206004820152603960248201527f4c696e656150726f6f6648656c7065723a20636f6d6d616e6473206e756d626560448201527f72203e2073746f726167652070726f6f6673206e756d626572000000000000006064820152608490fd5b51906001600160401b03821682036101ba57565b908160c09103126101ba576040519060c082018281106001600160401b038211176101f057610bda9160a091604052610baa81610b5e565b84526020810151602085015260408101516040850152606081015160608501526080810151608085015201610b5e565b60a082015290565b90610bec8261024c565b610bf9604051918261022b565b8281528092610c0a601f199161024c565b019060005b828110610c1b57505050565b806060602080938501015201610c0f565b805160291015610c3d576105400190565b61048c565b8051821015610c3d5760209160051b010190565b60001981146108d65760010190565b9284610c8492949796939597610c7f865186511015610aec565b611012565b5060408095015151908551906360f0f00f60e01b825260c08280610cad6004966004830161058a565b038173__$ad35a2d5dfd3b3559b9c8d4d3b1202b26b$__5af4918215610aa957600092610e78575b50600094610ce38551610be2565b94865b8151881015610e6d57898486610d078a87610d018e89610c42565b516112ad565b9290610e4b57610d2d91506060610d2186610d2993610c42565b510151151590565b1590565b15610d7d57505160006020820152600191610d7491610d5981604081015b03601f19810183528261022b565b610d638b8b610c42565b52610d6e8a8a610c42565b50610c56565b975b0196610ce6565b610dbd90868460209c959c94610db28682610da68583610d9d828a610c42565b51015197610c42565b5101510151928b610c42565b51015151918a6115d3565b610d4b610dec8c610dd7610dd08d610c56565b9c89610c42565b510151518d5184810191825292839160200190565b610df6838a610c42565b52610e018289610c42565b50610e0c8289610c42565b515111610e1b57600190610d76565b85610e47610e2a8c938a610c42565b515192519283926354d0209160e01b845283019190602083019252565b0390fd5b9091610e5b9350936001946113dd565b9890610e67828a610c42565b52610d76565b505050505050925050565b610e9b91925060c03d60c011610ea2575b610e93818361022b565b810190610b72565b9038610cd5565b503d610e89565b908160809103126101ba57606060405191610ec3836101d5565b8051835260208101516020840152604081015160408401520151606082015290565b15610eec57565b60405162461bcd60e51b815260206004820152601e60248201527f4c696e656150726f6f6648656c7065723a2077726f6e672074617267657400006044820152606490fd5b908160209103126101ba5761059b906106c3565b909392919360608201606083528151809152608083019060808160051b850101926020809101926000905b838210610f8a575050505050906040919460208201520152565b90919293948380610fa7600193607f198b82030186528951610184565b97019201920190939291610f70565b15610fbd57565b60405162461bcd60e51b815260206004820152602760248201527f4c696e656150726f6f6648656c7065723a20696e76616c6964206163636f756e6044820152663a10383937b7b360c91b6064820152608490fd5b604080516001600160a01b039092166020808401919091529373__$ad35a2d5dfd3b3559b9c8d4d3b1202b26b$__9261106d9290869061105481808501610d4b565b82518095819263b893e57960e01b83526004830161058a565b0381875af4928315610aa9576000936111f5575b506110b28186019560806110988989510151610c2c565b51845180948192635ea5a98f60e01b83526004830161058a565b0381895af4948515610aa95788926000966111c0575b506110d7908487015114610ee5565b865182015190820151835163662e10f560e11b815294859283926110ff929160048501610f45565b0381875af4938415610aa957869260009561118f575b5061113794955151915180809681946302318a3960e61b83526004830161058a565b03915af4918215610aa95761115d94600093611170575b505082611162575b5050610fb6565b600190565b606001511490503880611156565b611187929350803d10610aa257610a92818361022b565b90388061114e565b61113795506111b390843d86116111b9575b6111ab818361022b565b810190610f31565b94611115565b503d6111a1565b6110d79196506111e79060803d6080116111ee575b6111df818361022b565b810190610ea9565b95906110c8565b503d6111d5565b61120d919350863d8811610aa257610a92818361022b565b9138611081565b1561121b57565b60405162461bcd60e51b815260206004820152602360248201527f4669727374207061746820656c656d656e74206d75737420626520333220627960448201526274657360e81b6064820152608490fd5b602081519101519060208110611280575090565b6000199060200360031b1b1690565b60209291906112a5849282815194859201610161565b019081520190565b92906001908160018660001a1615159560f86112d087858460011a60f81b611788565b916112e96020936112e46020825114611214565b61126c565b976002965b6112fc575b50505050505050565b9091929394959784891080809161135e575b156113575715610c3d5761134b90610d4b611342611331858b888f1a8a1b611788565b926040519283918a8301958661128f565b51902098610c56565b959493929190846112ee565b50976112f3565b15610c3d576001600160f81b0319848b1a861b8116141561130e565b60405190602082018281106001600160401b038211176101f05760405260008252565b906113a782610263565b6113b4604051918261022b565b82815280926113c5601f1991610263565b0190602036910137565b90602082018092116108d657565b919093926113f3610d296060610d218886610c42565b61156257602092836114058785610c42565b5101519161143782604094878661141c8c8a610c42565b51015101518661142c8c8a610c42565b5101515191856115d3565b8261144b61144489610c56565b9886610c42565b5101515190600192600180841614600014611523579561148a899397865161147e81610d4b868201948560209181520190565b5190209760011c61139d565b966000855b6114a0575b50505050505050509190565b885181101561151e576114f26114f79286896114dd87826114d18f9c836114c88f8390610c42565b5101519d610c42565b5101510151928d610c42565b51015151906114eb83610c56565b98886115d3565b6113cf565b938561150c6115058c610c56565b9b89610c42565b5101515185890152939289938561148f565b611494565b50509250508161155461155e94611546607f945195869283019190602083019252565b03601f19810185528461022b565b60011c16906117f1565b9190565b50505061156e82610c56565b5061155e61137a565b1561157e57565b60405162461bcd60e51b815260206004820152602760248201527f4c696e656150726f6f6648656c7065723a20696e76616c69642073746f7261676044820152663290383937b7b360c91b6064820152608490fd5b939091929373__$ad35a2d5dfd3b3559b9c8d4d3b1202b26b$__906040809101519581519463662e10f560e11b8652858061161660209a8b948b60048501610f45565b0381865af4948515610aa95760009561175e575b50608061163b611655959697610c2c565b51835180968192635ea5a98f60e01b83526004830161058a565b0381865af4938415610aa95760009461173d575b5081516333bbbd4160e21b8082526004820196909652908782602481875af4938415610aa9576116b696899360009661171e575b5084518098819482938352600483019190602083019252565b03915af4938415610aa957610501966000956116ff575b5050846116f2575b5050826116e4575b5050611577565b6060015114905038806116dd565b82015114925038806116d5565b611716929550803d10610aa257610a92818361022b565b9238806116cd565b611736919650843d8611610aa257610a92818361022b565b943861169d565b61175791945060803d6080116111ee576111df818361022b565b9238611669565b61165594955061163b61177f6080928a3d8c116111b9576111ab818361022b565b9695505061162a565b9291909260f81c92601f60e0851694169184156000146117b257506117ae929350610c42565b5190565b9050602084036117c7576117ae929350610c42565b604051632cde2db560e21b815260048101859052602490fd5b908151811015610c3d570160200190565b9081518111611843576118038161139d565b9160009060005b838110611818575050505090565b6001906001600160f81b031961182e82856117e0565b5116841a61183c82886117e0565b530161180a565b60405162461bcd60e51b815260206004820152601860248201527f736c69636542797465733a206f7574206f662072616e676500000000000000006044820152606490fdfea26469706673582212209e0ca502d019bec52663b80cc9d732645bbbf57d7d1af74376c3351ffbd37f6f64736f6c63430008190033",
  "libraries": {
    "SparseMerkleProof": "0x718D20736A637CDB15b6B586D8f1BF081080837f"
  },
  "devdoc": {
    "kind": "dev",
    "methods": {},
    "version": 1
  },
  "userdoc": {
    "kind": "user",
    "methods": {},
    "version": 1
  },
  "storageLayout": {
    "storage": [
      {
        "astId": 16320,
        "contract": "linea-state-verifier/contracts/LineaSparseProofVerifier.sol:LineaSparseProofVerifier",
        "label": "_gatewayURLs",
        "offset": 0,
        "slot": "0",
        "type": "t_array(t_string_storage)dyn_storage"
      },
      {
        "astId": 16322,
        "contract": "linea-state-verifier/contracts/LineaSparseProofVerifier.sol:LineaSparseProofVerifier",
        "label": "_rollup",
        "offset": 0,
        "slot": "1",
        "type": "t_address"
      }
    ],
    "types": {
      "t_address": {
        "encoding": "inplace",
        "label": "address",
        "numberOfBytes": "20"
      },
      "t_array(t_string_storage)dyn_storage": {
        "base": "t_string_storage",
        "encoding": "dynamic_array",
        "label": "string[]",
        "numberOfBytes": "32"
      },
      "t_string_storage": {
        "encoding": "bytes",
        "label": "string",
        "numberOfBytes": "32"
      }
    }
  }
}