{
  "_format": "hh-sol-artifact-1",
  "contractName": "AssertionHelper",
  "sourceName": "contracts/l1/AssertionHelper.sol",
  "abi": [
    {
      "inputs": [
        {
          "components": [
            {
              "components": [
                {
                  "components": [
                    {
                      "internalType": "bytes32[2]",
                      "name": "bytes32Vals",
                      "type": "bytes32[2]"
                    },
                    {
                      "internalType": "uint64[2]",
                      "name": "u64Vals",
                      "type": "uint64[2]"
                    }
                  ],
                  "internalType": "struct GlobalState",
                  "name": "globalState",
                  "type": "tuple"
                },
                {
                  "internalType": "enum MachineStatus",
                  "name": "machineStatus",
                  "type": "uint8"
                }
              ],
              "internalType": "struct ExecutionState",
              "name": "beforeState",
              "type": "tuple"
            },
            {
              "components": [
                {
                  "components": [
                    {
                      "internalType": "bytes32[2]",
                      "name": "bytes32Vals",
                      "type": "bytes32[2]"
                    },
                    {
                      "internalType": "uint64[2]",
                      "name": "u64Vals",
                      "type": "uint64[2]"
                    }
                  ],
                  "internalType": "struct GlobalState",
                  "name": "globalState",
                  "type": "tuple"
                },
                {
                  "internalType": "enum MachineStatus",
                  "name": "machineStatus",
                  "type": "uint8"
                }
              ],
              "internalType": "struct ExecutionState",
              "name": "afterState",
              "type": "tuple"
            },
            {
              "internalType": "uint64",
              "name": "numBlocks",
              "type": "uint64"
            }
          ],
          "internalType": "struct Assertion",
          "name": "assertion",
          "type": "tuple"
        }
      ],
      "name": "getBlockHash",
      "outputs": [
        {
          "internalType": "bytes32",
          "name": "hash",
          "type": "bytes32"
        }
      ],
      "stateMutability": "pure",
      "type": "function"
    },
    {
      "inputs": [
        {
          "components": [
            {
              "components": [
                {
                  "components": [
                    {
                      "internalType": "bytes32[2]",
                      "name": "bytes32Vals",
                      "type": "bytes32[2]"
                    },
                    {
                      "internalType": "uint64[2]",
                      "name": "u64Vals",
                      "type": "uint64[2]"
                    }
                  ],
                  "internalType": "struct GlobalState",
                  "name": "globalState",
                  "type": "tuple"
                },
                {
                  "internalType": "enum MachineStatus",
                  "name": "machineStatus",
                  "type": "uint8"
                }
              ],
              "internalType": "struct ExecutionState",
              "name": "beforeState",
              "type": "tuple"
            },
            {
              "components": [
                {
                  "components": [
                    {
                      "internalType": "bytes32[2]",
                      "name": "bytes32Vals",
                      "type": "bytes32[2]"
                    },
                    {
                      "internalType": "uint64[2]",
                      "name": "u64Vals",
                      "type": "uint64[2]"
                    }
                  ],
                  "internalType": "struct GlobalState",
                  "name": "globalState",
                  "type": "tuple"
                },
                {
                  "internalType": "enum MachineStatus",
                  "name": "machineStatus",
                  "type": "uint8"
                }
              ],
              "internalType": "struct ExecutionState",
              "name": "afterState",
              "type": "tuple"
            },
            {
              "internalType": "uint64",
              "name": "numBlocks",
              "type": "uint64"
            }
          ],
          "internalType": "struct Assertion",
          "name": "assertion",
          "type": "tuple"
        }
      ],
      "name": "getSendRoot",
      "outputs": [
        {
          "internalType": "bytes32",
          "name": "root",
          "type": "bytes32"
        }
      ],
      "stateMutability": "pure",
      "type": "function"
    }
  ],
  "bytecode": "0x608060405234801561001057600080fd5b50610518806100206000396000f3fe608060405234801561001057600080fd5b50600436106100365760003560e01c806359cfe4b11461003b5780637378c88a1461006b575b600080fd5b6100556004803603810190610050919061016b565b61009b565b60405161006291906101b2565b60405180910390f35b6100856004803603810190610080919061016b565b6100c3565b60405161009291906101b2565b60405180910390f35b60006100bc8260a0016000018036038101906100b79190610486565b6100eb565b9050919050565b60006100e48260a0016000018036038101906100df9190610486565b610111565b9050919050565b60008160000151600060028110610105576101046104b3565b5b60200201519050919050565b6000816000015160016002811061012b5761012a6104b3565b5b60200201519050919050565b6000604051905090565b600080fd5b600080fd5b6000610160828403121561016257610161610146565b5b81905092915050565b6000610160828403121561018257610181610141565b5b60006101908482850161014b565b91505092915050565b6000819050919050565b6101ac81610199565b82525050565b60006020820190506101c760008301846101a3565b92915050565b600080fd5b6000601f19601f8301169050919050565b7f4e487b7100000000000000000000000000000000000000000000000000000000600052604160045260246000fd5b61021b826101d2565b810181811067ffffffffffffffff8211171561023a576102396101e3565b5b80604052505050565b600061024d610137565b90506102598282610212565b919050565b600080fd5b600067ffffffffffffffff82111561027e5761027d6101e3565b5b602082029050919050565b600080fd5b61029781610199565b81146102a257600080fd5b50565b6000813590506102b48161028e565b92915050565b60006102cd6102c884610263565b610243565b905080602084028301858111156102e7576102e6610289565b5b835b8181101561031057806102fc88826102a5565b8452602084019350506020810190506102e9565b5050509392505050565b600082601f83011261032f5761032e61025e565b5b600261033c8482856102ba565b91505092915050565b600067ffffffffffffffff8211156103605761035f6101e3565b5b602082029050919050565b600067ffffffffffffffff82169050919050565b6103888161036b565b811461039357600080fd5b50565b6000813590506103a58161037f565b92915050565b60006103be6103b984610345565b610243565b905080602084028301858111156103d8576103d7610289565b5b835b8181101561040157806103ed8882610396565b8452602084019350506020810190506103da565b5050509392505050565b600082601f8301126104205761041f61025e565b5b600261042d8482856103ab565b91505092915050565b60006080828403121561044c5761044b6101cd565b5b6104566040610243565b905060006104668482850161031a565b600083015250604061047a8482850161040b565b60208301525092915050565b60006080828403121561049c5761049b610141565b5b60006104aa84828501610436565b91505092915050565b7f4e487b7100000000000000000000000000000000000000000000000000000000600052603260045260246000fdfea2646970667358221220b4b32d0cd4d03b4cc071f1142ad2a446834d3b0e57fa1abd509e7e5ff54a0d1a64736f6c63430008110033",
  "linkReferences": {},
  "deployedLinkReferences": {}
}