{
  "_format": "hh-sol-artifact-1",
  "contractName": "LineaResolverStub",
  "sourceName": "contracts/l1/LineaResolverStub.sol",
  "abi": [
    {
      "inputs": [
        {
          "internalType": "string[]",
          "name": "_gateways",
          "type": "string[]"
        },
        {
          "internalType": "address",
          "name": "_rollup",
          "type": "address"
        },
        {
          "internalType": "address",
          "name": "_l2resolver",
          "type": "address"
        }
      ],
      "stateMutability": "nonpayable",
      "type": "constructor"
    },
    {
      "inputs": [
        {
          "internalType": "address",
          "name": "sender",
          "type": "address"
        },
        {
          "internalType": "string[]",
          "name": "urls",
          "type": "string[]"
        },
        {
          "internalType": "bytes",
          "name": "callData",
          "type": "bytes"
        },
        {
          "internalType": "bytes4",
          "name": "callbackFunction",
          "type": "bytes4"
        },
        {
          "internalType": "bytes",
          "name": "extraData",
          "type": "bytes"
        }
      ],
      "name": "OffchainLookup",
      "type": "error"
    },
    {
      "inputs": [
        {
          "internalType": "bytes32",
          "name": "node",
          "type": "bytes32"
        }
      ],
      "name": "addr",
      "outputs": [
        {
          "internalType": "address",
          "name": "",
          "type": "address"
        }
      ],
      "stateMutability": "view",
      "type": "function"
    },
    {
      "inputs": [
        {
          "internalType": "bytes32",
          "name": "node",
          "type": "bytes32"
        },
        {
          "internalType": "uint256",
          "name": "coinType",
          "type": "uint256"
        }
      ],
      "name": "addr",
      "outputs": [
        {
          "internalType": "bytes",
          "name": "",
          "type": "bytes"
        }
      ],
      "stateMutability": "view",
      "type": "function"
    },
    {
      "inputs": [
        {
          "internalType": "bytes",
          "name": "response",
          "type": "bytes"
        },
        {
          "internalType": "bytes",
          "name": "extraData",
          "type": "bytes"
        }
      ],
      "name": "addrWithProof",
      "outputs": [
        {
          "internalType": "address",
          "name": "",
          "type": "address"
        }
      ],
      "stateMutability": "view",
      "type": "function"
    },
    {
      "inputs": [
        {
          "internalType": "bytes",
          "name": "response",
          "type": "bytes"
        },
        {
          "internalType": "bytes",
          "name": "extraData",
          "type": "bytes"
        }
      ],
      "name": "bytesAddrWithProof",
      "outputs": [
        {
          "internalType": "bytes",
          "name": "",
          "type": "bytes"
        }
      ],
      "stateMutability": "view",
      "type": "function"
    },
    {
      "inputs": [
        {
          "internalType": "uint256",
          "name": "",
          "type": "uint256"
        }
      ],
      "name": "gateways",
      "outputs": [
        {
          "internalType": "string",
          "name": "",
          "type": "string"
        }
      ],
      "stateMutability": "view",
      "type": "function"
    },
    {
      "inputs": [],
      "name": "getl2Resolver",
      "outputs": [
        {
          "internalType": "address",
          "name": "",
          "type": "address"
        }
      ],
      "stateMutability": "view",
      "type": "function"
    },
    {
      "inputs": [],
      "name": "l2resolver",
      "outputs": [
        {
          "internalType": "address",
          "name": "",
          "type": "address"
        }
      ],
      "stateMutability": "view",
      "type": "function"
    },
    {
      "inputs": [],
      "name": "rollup",
      "outputs": [
        {
          "internalType": "address",
          "name": "",
          "type": "address"
        }
      ],
      "stateMutability": "view",
      "type": "function"
    }
  ],
  "bytecode": "0x60806040523480156200001157600080fd5b5060405162003e9638038062003e968339818101604052810190620000379190620004bc565b82600090805190602001906200004f929190620000db565b5081600160006101000a81548173ffffffffffffffffffffffffffffffffffffffff021916908373ffffffffffffffffffffffffffffffffffffffff16021790555080600260006101000a81548173ffffffffffffffffffffffffffffffffffffffff021916908373ffffffffffffffffffffffffffffffffffffffff16021790555050505062000869565b82805482825590600052602060002090810192821562000128579160200282015b828111156200012757825182908162000116919062000782565b5091602001919060010190620000fc565b5b5090506200013791906200013b565b5090565b5b808211156200015f576000818162000155919062000163565b506001016200013c565b5090565b508054620001719062000571565b6000825580601f10620001855750620001a6565b601f016020900490600052602060002090810190620001a59190620001a9565b5b50565b5b80821115620001c4576000816000905550600101620001aa565b5090565b6000604051905090565b600080fd5b600080fd5b600080fd5b6000601f19601f8301169050919050565b7f4e487b7100000000000000000000000000000000000000000000000000000000600052604160045260246000fd5b6200022c82620001e1565b810181811067ffffffffffffffff821117156200024e576200024d620001f2565b5b80604052505050565b600062000263620001c8565b905062000271828262000221565b919050565b600067ffffffffffffffff821115620002945762000293620001f2565b5b602082029050602081019050919050565b600080fd5b600080fd5b600067ffffffffffffffff821115620002cd57620002cc620001f2565b5b620002d882620001e1565b9050602081019050919050565b60005b8381101562000305578082015181840152602081019050620002e8565b60008484015250505050565b6000620003286200032284620002af565b62000257565b905082815260208101848484011115620003475762000346620002aa565b5b62000354848285620002e5565b509392505050565b600082601f830112620003745762000373620001dc565b5b81516200038684826020860162000311565b91505092915050565b6000620003a6620003a08462000276565b62000257565b90508083825260208201905060208402830185811115620003cc57620003cb620002a5565b5b835b818110156200041a57805167ffffffffffffffff811115620003f557620003f4620001dc565b5b8086016200040489826200035c565b85526020850194505050602081019050620003ce565b5050509392505050565b600082601f8301126200043c576200043b620001dc565b5b81516200044e8482602086016200038f565b91505092915050565b600073ffffffffffffffffffffffffffffffffffffffff82169050919050565b6000620004848262000457565b9050919050565b620004968162000477565b8114620004a257600080fd5b50565b600081519050620004b6816200048b565b92915050565b600080600060608486031215620004d857620004d7620001d2565b5b600084015167ffffffffffffffff811115620004f957620004f8620001d7565b5b620005078682870162000424565b93505060206200051a86828701620004a5565b92505060406200052d86828701620004a5565b9150509250925092565b600081519050919050565b7f4e487b7100000000000000000000000000000000000000000000000000000000600052602260045260246000fd5b600060028204905060018216806200058a57607f821691505b602082108103620005a0576200059f62000542565b5b50919050565b60008190508160005260206000209050919050565b60006020601f8301049050919050565b600082821b905092915050565b6000600883026200060a7fffffffffffffffffffffffffffffffffffffffffffffffffffffffffffffffff82620005cb565b620006168683620005cb565b95508019841693508086168417925050509392505050565b6000819050919050565b6000819050919050565b6000620006636200065d62000657846200062e565b62000638565b6200062e565b9050919050565b6000819050919050565b6200067f8362000642565b620006976200068e826200066a565b848454620005d8565b825550505050565b600090565b620006ae6200069f565b620006bb81848462000674565b505050565b5b81811015620006e357620006d7600082620006a4565b600181019050620006c1565b5050565b601f8211156200073257620006fc81620005a6565b6200070784620005bb565b8101602085101562000717578190505b6200072f6200072685620005bb565b830182620006c0565b50505b505050565b600082821c905092915050565b6000620007576000198460080262000737565b1980831691505092915050565b600062000772838362000744565b9150826002028217905092915050565b6200078d8262000537565b67ffffffffffffffff811115620007a957620007a8620001f2565b5b620007b5825462000571565b620007c2828285620006e7565b600060209050601f831160018114620007fa5760008415620007e5578287015190505b620007f1858262000764565b86555062000861565b601f1984166200080a86620005a6565b60005b8281101562000834578489015182556001820191506020850194506020810190506200080d565b8683101562000854578489015162000850601f89168262000744565b8355505b6001600288020188555050505b505050505050565b61361d80620008796000396000f3fe608060405234801561001057600080fd5b50600436106100885760003560e01c80637a1dc0701161005b5780637a1dc0701461014d57806388083d501461016b578063cb23bcb514610189578063f1cb7e06146101a757610088565b80630cfe46e61461008d5780632a9d7cbe146100bd5780633b3b57de146100ed57806364c170561461011d575b600080fd5b6100a760048036038101906100a29190611dbe565b6101d7565b6040516100b49190611ecf565b60405180910390f35b6100d760048036038101906100d29190611dbe565b6101f7565b6040516100e49190611f32565b60405180910390f35b61010760048036038101906101029190611f83565b61020f565b6040516101149190611f32565b60405180910390f35b61013760048036038101906101329190611fe6565b610229565b6040516101449190612068565b60405180910390f35b6101556102d5565b6040516101629190611f32565b60405180910390f35b6101736102fb565b6040516101809190611f32565b60405180910390f35b610191610325565b60405161019e9190611f32565b60405180910390f35b6101c160048036038101906101bc919061208a565b61034b565b6040516101ce9190611ecf565b60405180910390f35b60606101ed6101e886868686610388565b6105a1565b9050949350505050565b600061020585858585610388565b9050949350505050565b600061022282632a9d7cbe60e01b610605565b9050919050565b6000818154811061023957600080fd5b906000526020600020016000915090508054610254906120f9565b80601f0160208091040260200160405190810160405280929190818152602001828054610280906120f9565b80156102cd5780601f106102a2576101008083540402835291602001916102cd565b820191906000526020600020905b8154815290600101906020018083116102b057829003601f168201915b505050505081565b600260009054906101000a900473ffffffffffffffffffffffffffffffffffffffff1681565b6000600260009054906101000a900473ffffffffffffffffffffffffffffffffffffffff16905090565b600160009054906101000a900473ffffffffffffffffffffffffffffffffffffffff1681565b6060603c82036103755761036e61036984630cfe46e660e01b610605565b6105a1565b9050610382565b61037f60006105a1565b90505b92915050565b600080858581019061039a91906123c8565b9050600084848101906103ad9190611f83565b90506000826020015183604001516040516020016103cc92919061246e565b6040516020818303038152906040528051906020012090506000600160009054906101000a900473ffffffffffffffffffffffffffffffffffffffff1673ffffffffffffffffffffffffffffffffffffffff166392c8134c85600001516040518263ffffffff1660e01b815260040161044591906124a5565b61018060405180830381865afa158015610463573d6000803e3d6000fd5b505050506040513d601f19601f82011682018060405250810190610487919061260c565b9050818160400151146104cf576040517f08c379a00000000000000000000000000000000000000000000000000000000081526004016104c690612686565b60405180910390fd5b836060015180519060200120846020015114610520576040517f08c379a000000000000000000000000000000000000000000000000000000000815260040161051790612718565b60405180910390fd5b6000836001604051602001610536929190612759565b604051602081830303815290604052805190602001209050600061058b600260009054906101000a900473ffffffffffffffffffffffffffffffffffffffff16838860a0015189608001518a60c001516106e5565b90508060001c9650505050505050949350505050565b6060601467ffffffffffffffff8111156105be576105bd61212f565b5b6040519080825280601f01601f1916602001820160405280156105f05781602001600182028036833780820191505090505b509050600c6101000a82026020820152919050565b600080633b3b57de60e01b846040516024016106219190612794565b604051602081830303815290604052907bffffffffffffffffffffffffffffffffffffffffffffffffffffffff19166020820180517bffffffffffffffffffffffffffffffffffffffffffffffffffffffff838183161783525050505090503060008285876040516020016106969190612794565b6040516020818303038152906040526040517f556f18300000000000000000000000000000000000000000000000000000000081526004016106dc95949392919061295a565b60405180910390fd5b6000806000610714886040516020016106fe9190612a0a565b60405160208183030381529060405286886107fb565b9150915081610758576040517f08c379a000000000000000000000000000000000000000000000000000000000815260040161074f90612a71565b60405180910390fd5b600061076382610824565b90506000806107968a60405160200161077c9190612a91565b6040516020818303038152906040528885604001516107fb565b91509150816107da576040517f08c379a00000000000000000000000000000000000000000000000000000000081526004016107d190612af8565b60405180910390fd5b6107eb6107e6826108ee565b610908565b9550505050505095945050505050565b60006060600061080a8661093c565b905061081781868661096c565b9250925050935093915050565b61082c611ce3565b600061083783610a45565b905060405180608001604052806108688360008151811061085b5761085a612b18565b5b6020026020010151610a5f565b81526020016108918360018151811061088457610883612b18565b5b6020026020010151610a5f565b81526020016108ba836002815181106108ad576108ac612b18565b5b6020026020010151610a74565b81526020016108e3836003815181106108d6576108d5612b18565b5b6020026020010151610a74565b815250915050919050565b60606109016108fc83610b76565b610ba4565b9050919050565b600080600060208451111561091e576020610921565b83515b90506020840151600882602003021c91508192505050919050565b606081805190602001206040516020016109569190612a91565b6040516020818303038152906040529050919050565b60006060600061097b85610c3a565b9050600080600061098d848a89610d2f565b925092509250600080835114905080806109a45750815b6109e3576040517f08c379a00000000000000000000000000000000000000000000000000000000081526004016109da90612b93565b60405180910390fd5b6000816109ff5760405180602001604052806000815250610a2f565b610a2e86600187610a109190612be2565b81518110610a2157610a20612b18565b5b6020026020010151611198565b5b9050818197509750505050505050935093915050565b6060610a58610a5383610b76565b6111d9565b9050919050565b6000610a6a82610a74565b60001c9050919050565b6000602182600001511115610abe576040517f08c379a0000000000000000000000000000000000000000000000000000000008152600401610ab590612c62565b60405180910390fd5b6000806000610acc856113d0565b92509250925060006001811115610ae657610ae5612c82565b5b816001811115610af957610af8612c82565b5b14610b39576040517f08c379a0000000000000000000000000000000000000000000000000000000008152600401610b3090612c62565b60405180910390fd5b6000838660200151610b4b9190612cb1565b90506000815190506020841015610b6957836020036101000a810490505b8095505050505050919050565b610b7e611d11565b600060208301905060405180604001604052808451815260200182815250915050919050565b60606000806000610bb4856113d0565b92509250925060006001811115610bce57610bcd612c82565b5b816001811115610be157610be0612c82565b5b14610c21576040517f08c379a0000000000000000000000000000000000000000000000000000000008152600401610c1890612d31565b60405180910390fd5b610c30856020015184846116e9565b9350505050919050565b60606000610c4783610a45565b90506000815167ffffffffffffffff811115610c6657610c6561212f565b5b604051908082528060200260200182016040528015610c9f57816020015b610c8c611d2b565b815260200190600190039081610c845790505b50905060005b8251811015610d24576000610cd3848381518110610cc657610cc5612b18565b5b6020026020010151610ba4565b90506040518060400160405280828152602001610cef83610a45565b815250838381518110610d0557610d04612b18565b5b6020026020010181905250508080610d1c90612d51565b915050610ca5565b508092505050919050565b60006060600080600090506000610d45876117ee565b90506000869050600080610d57611d2b565b60005b8c51811015611148578c8181518110610d7657610d75612b18565b5b602002602001015191508284610d8c9190612cb1565b9350600187610d9b9190612cb1565b965060008403610df7578482600001518051906020012014610df2576040517f08c379a0000000000000000000000000000000000000000000000000000000008152600401610de990612de5565b60405180910390fd5b610ea6565b602082600001515110610e56578482600001518051906020012014610e51576040517f08c379a0000000000000000000000000000000000000000000000000000000008152600401610e4890612e51565b60405180910390fd5b610ea5565b84610e648360000151611993565b14610ea4576040517f08c379a0000000000000000000000000000000000000000000000000000000008152600401610e9b90612ebd565b60405180910390fd5b5b5b60016010610eb49190612cb1565b82602001515103610f29578551840315611148576000868581518110610edd57610edc612b18565b5b602001015160f81c60f81b60f81c9050600083602001518260ff1681518110610f0957610f08612b18565b5b60200260200101519050610f1c816119cd565b9650600194505050611135565b6002826020015151036110fa576000610f4183611a0b565b9050600081600081518110610f5957610f58612b18565b5b602001015160f81c60f81b60f81c90506000600282610f789190612f19565b6002610f849190612f4a565b90506000610f95848360ff16611a44565b90506000610fa38b8a611a44565b90506000610fb18383611a85565b9050600260ff168560ff161480610fce5750600360ff168560ff16145b1561102b57808351148015610fe35750808251145b15610ff757808a610ff49190612cb1565b99505b608060f81b7effffffffffffffffffffffffffffffffffffffffffffffffffffffffffffff19169a50505050505050611148565b600060ff168560ff1614806110465750600160ff168560ff16145b156110bf578251811461108757608060f81b7effffffffffffffffffffffffffffffffffffffffffffffffffffffffffffff19169a50505050505050611148565b6110af88602001516001815181106110a2576110a1612b18565b5b60200260200101516119cd565b9a50809850505050505050611135565b6040517f08c379a00000000000000000000000000000000000000000000000000000000081526004016110f190612ff1565b60405180910390fd5b6040517f08c379a000000000000000000000000000000000000000000000000000000000815260040161112c9061305d565b60405180910390fd5b808061114090612d51565b915050610d5a565b506000608060f81b7effffffffffffffffffffffffffffffffffffffffffffffffffffffffffffff191685149050866111818786611a44565b829950995099505050505050505093509350939050565b60606111d2826020015160018460200151516111b49190612be2565b815181106111c5576111c4612b18565b5b6020026020010151610ba4565b9050919050565b60606000806111e7846113d0565b92505091506001808111156111ff576111fe612c82565b5b81600181111561121257611211612c82565b5b14611252576040517f08c379a0000000000000000000000000000000000000000000000000000000008152600401611249906130c9565b60405180910390fd5b6000602067ffffffffffffffff81111561126f5761126e61212f565b5b6040519080825280602002602001820160405280156112a857816020015b611295611d11565b81526020019060019003908161128d5790505b5090506000808490505b86600001518110156113c05760208210611301576040517f08c379a00000000000000000000000000000000000000000000000000000000081526004016112f89061315b565b60405180910390fd5b60008061133f6040518060400160405280858c600001516113229190612be2565b8152602001858c602001516113379190612cb1565b8152506113d0565b50915091506040518060400160405280838361135b9190612cb1565b8152602001848b602001516113709190612cb1565b81525085858151811061138657611385612b18565b5b602002602001018190525060018461139e9190612cb1565b935080826113ac9190612cb1565b836113b79190612cb1565b925050506112b2565b8183528295505050505050919050565b60008060008084600001511161141b576040517f08c379a0000000000000000000000000000000000000000000000000000000008152600401611412906131c7565b60405180910390fd5b6000846020015190506000815160001a9050607f81116114485760006001600094509450945050506116e2565b60b781116114ba57600060808261145f9190612be2565b9050808760000151116114a7576040517f08c379a000000000000000000000000000000000000000000000000000000000815260040161149e90613233565b60405180910390fd5b60018160009550955095505050506116e2565b60bf811161159b57600060b7826114d19190612be2565b905080876000015111611519576040517f08c379a00000000000000000000000000000000000000000000000000000000081526004016115109061329f565b60405180910390fd5b6000816020036101000a600185015104905080826115379190612cb1565b88600001511161157c576040517f08c379a00000000000000000000000000000000000000000000000000000000081526004016115739061330b565b60405180910390fd5b8160016115899190612cb1565b816000965096509650505050506116e2565b60f7811161160d57600060c0826115b29190612be2565b9050808760000151116115fa576040517f08c379a00000000000000000000000000000000000000000000000000000000081526004016115f190613377565b60405180910390fd5b60018160019550955095505050506116e2565b600060f78261161c9190612be2565b905080876000015111611664576040517f08c379a000000000000000000000000000000000000000000000000000000000815260040161165b906133e3565b60405180910390fd5b6000816020036101000a600185015104905080826116829190612cb1565b8860000151116116c7576040517f08c379a00000000000000000000000000000000000000000000000000000000081526004016116be9061344f565b60405180910390fd5b8160016116d49190612cb1565b816001965096509650505050505b9193909250565b606060008267ffffffffffffffff8111156117075761170661212f565b5b6040519080825280601f01601f1916602001820160405280156117395781602001600182028036833780820191505090505b509050600081510361174e57809150506117e7565b6000848661175c9190612cb1565b9050600060208301905060005b602086611776919061346f565b8110156117b2578251825260208361178e9190612cb1565b925060208261179d9190612cb1565b915080806117aa90612d51565b915050611769565b5060006001602087816117c8576117c7612eea565b5b066020036101000a039050808251168119845116178252839450505050505b9392505050565b606060006002835161180091906134a0565b67ffffffffffffffff8111156118195761181861212f565b5b6040519080825280601f01601f19166020018201604052801561184b5781602001600182028036833780820191505090505b50905060005b835181101561198957600484828151811061186f5761186e612b18565b5b602001015160f81c60f81b7effffffffffffffffffffffffffffffffffffffffffffffffffffffffffffff1916901c826002836118ac91906134a0565b815181106118bd576118bc612b18565b5b60200101907effffffffffffffffffffffffffffffffffffffffffffffffffffffffffffff1916908160001a905350601084828151811061190157611900612b18565b5b602001015160f81c60f81b60f81c6119199190612f19565b60f81b82600160028461192c91906134a0565b6119369190612cb1565b8151811061194757611946612b18565b5b60200101907effffffffffffffffffffffffffffffffffffffffffffffffffffffffffffff1916908160001a905350808061198190612d51565b915050611851565b5080915050919050565b60006020825110156119b157600060208301519050809150506119c8565b818060200190518101906119c591906134e2565b90505b919050565b600060606020836000015110156119ee576119e783611b48565b90506119fa565b6119f783610ba4565b90505b611a0381611993565b915050919050565b6060611a3d611a388360200151600081518110611a2b57611a2a612b18565b5b6020026020010151610ba4565b6117ee565b9050919050565b606082518210611a6557604051806020016040528060008152509050611a7f565b611a7c8383848651611a779190612be2565b611b5a565b90505b92915050565b600080600090505b808451118015611a9d5750808351115b8015611b265750828181518110611ab757611ab6612b18565b5b602001015160f81c60f81b7effffffffffffffffffffffffffffffffffffffffffffffffffffffffffffff1916848281518110611af757611af6612b18565b5b602001015160f81c60f81b7effffffffffffffffffffffffffffffffffffffffffffffffffffffffffffff1916145b15611b3e578080611b3690612d51565b915050611a8d565b8091505092915050565b6060611b5382611cc6565b9050919050565b606081601f83611b6a9190612cb1565b1015611bab576040517f08c379a0000000000000000000000000000000000000000000000000000000008152600401611ba29061355b565b60405180910390fd5b828284611bb89190612cb1565b1015611bf9576040517f08c379a0000000000000000000000000000000000000000000000000000000008152600401611bf09061355b565b60405180910390fd5b8183611c059190612cb1565b84511015611c48576040517f08c379a0000000000000000000000000000000000000000000000000000000008152600401611c3f906135c7565b60405180910390fd5b6060821560008114611c695760405191506000825260208201604052611cba565b6040519150601f8416801560200281840101858101878315602002848b0101015b81831015611ca75780518352602083019250602081019050611c8a565b50868552601f19601f8301166040525050505b50809150509392505050565b6060611cdc8260200151600084600001516116e9565b9050919050565b6040518060800160405280600081526020016000815260200160008019168152602001600080191681525090565b604051806040016040528060008152602001600081525090565b604051806040016040528060608152602001606081525090565b6000604051905090565b600080fd5b600080fd5b600080fd5b600080fd5b600080fd5b60008083601f840112611d7e57611d7d611d59565b5b8235905067ffffffffffffffff811115611d9b57611d9a611d5e565b5b602083019150836001820283011115611db757611db6611d63565b5b9250929050565b60008060008060408587031215611dd857611dd7611d4f565b5b600085013567ffffffffffffffff811115611df657611df5611d54565b5b611e0287828801611d68565b9450945050602085013567ffffffffffffffff811115611e2557611e24611d54565b5b611e3187828801611d68565b925092505092959194509250565b600081519050919050565b600082825260208201905092915050565b60005b83811015611e79578082015181840152602081019050611e5e565b60008484015250505050565b6000601f19601f8301169050919050565b6000611ea182611e3f565b611eab8185611e4a565b9350611ebb818560208601611e5b565b611ec481611e85565b840191505092915050565b60006020820190508181036000830152611ee98184611e96565b905092915050565b600073ffffffffffffffffffffffffffffffffffffffff82169050919050565b6000611f1c82611ef1565b9050919050565b611f2c81611f11565b82525050565b6000602082019050611f476000830184611f23565b92915050565b6000819050919050565b611f6081611f4d565b8114611f6b57600080fd5b50565b600081359050611f7d81611f57565b92915050565b600060208284031215611f9957611f98611d4f565b5b6000611fa784828501611f6e565b91505092915050565b6000819050919050565b611fc381611fb0565b8114611fce57600080fd5b50565b600081359050611fe081611fba565b92915050565b600060208284031215611ffc57611ffb611d4f565b5b600061200a84828501611fd1565b91505092915050565b600081519050919050565b600082825260208201905092915050565b600061203a82612013565b612044818561201e565b9350612054818560208601611e5b565b61205d81611e85565b840191505092915050565b60006020820190508181036000830152612082818461202f565b905092915050565b600080604083850312156120a1576120a0611d4f565b5b60006120af85828601611f6e565b92505060206120c085828601611fd1565b9150509250929050565b7f4e487b7100000000000000000000000000000000000000000000000000000000600052602260045260246000fd5b6000600282049050600182168061211157607f821691505b602082108103612124576121236120ca565b5b50919050565b600080fd5b7f4e487b7100000000000000000000000000000000000000000000000000000000600052604160045260246000fd5b61216782611e85565b810181811067ffffffffffffffff821117156121865761218561212f565b5b80604052505050565b6000612199611d45565b90506121a5828261215e565b919050565b600080fd5b600067ffffffffffffffff82169050919050565b6121cc816121af565b81146121d757600080fd5b50565b6000813590506121e9816121c3565b92915050565b600080fd5b600067ffffffffffffffff82111561220f5761220e61212f565b5b61221882611e85565b9050602081019050919050565b82818337600083830152505050565b6000612247612242846121f4565b61218f565b905082815260208101848484011115612263576122626121ef565b5b61226e848285612225565b509392505050565b600082601f83011261228b5761228a611d59565b5b813561229b848260208601612234565b91505092915050565b600060e082840312156122ba576122b961212a565b5b6122c460e061218f565b905060006122d4848285016121da565b60008301525060206122e884828501611f6e565b602083015250604082013567ffffffffffffffff81111561230c5761230b6121aa565b5b61231884828501612276565b604083015250606082013567ffffffffffffffff81111561233c5761233b6121aa565b5b61234884828501612276565b606083015250608082013567ffffffffffffffff81111561236c5761236b6121aa565b5b61237884828501612276565b60808301525060a061238c84828501611f6e565b60a08301525060c082013567ffffffffffffffff8111156123b0576123af6121aa565b5b6123bc84828501612276565b60c08301525092915050565b6000602082840312156123de576123dd611d4f565b5b600082013567ffffffffffffffff8111156123fc576123fb611d54565b5b612408848285016122a4565b91505092915050565b6000819050919050565b61242c61242782611f4d565b612411565b82525050565b600081905092915050565b600061244882611e3f565b6124528185612432565b9350612462818560208601611e5b565b80840191505092915050565b600061247a828561241b565b60208201915061248a828461243d565b91508190509392505050565b61249f816121af565b82525050565b60006020820190506124ba6000830184612496565b92915050565b6000815190506124cf81611f57565b92915050565b6000815190506124e4816121c3565b92915050565b600061018082840312156125015761250061212a565b5b61250c61018061218f565b9050600061251c848285016124c0565b6000830152506020612530848285016124c0565b6020830152506040612544848285016124c0565b6040830152506060612558848285016124d5565b606083015250608061256c848285016124d5565b60808301525060a0612580848285016124d5565b60a08301525060c0612594848285016124d5565b60c08301525060e06125a8848285016124d5565b60e0830152506101006125bd848285016124d5565b610100830152506101206125d3848285016124d5565b610120830152506101406125e9848285016124d5565b610140830152506101606125ff848285016124c0565b6101608301525092915050565b6000610180828403121561262357612622611d4f565b5b6000612631848285016124ea565b91505092915050565b7f636f6e6669726d44617461206d69736d61746368000000000000000000000000600082015250565b600061267060148361201e565b915061267b8261263a565b602082019050919050565b6000602082019050818103600083015261269f81612663565b9050919050565b7f626c6f636b4861736820656e636f646564426c6f636b4172726179206d69736d60008201527f6174636800000000000000000000000000000000000000000000000000000000602082015250565b600061270260248361201e565b915061270d826126a6565b604082019050919050565b60006020820190508181036000830152612731816126f5565b9050919050565b6000819050919050565b61275361274e82611fb0565b612738565b82525050565b6000612765828561241b565b6020820191506127758284612742565b6020820191508190509392505050565b61278e81611f4d565b82525050565b60006020820190506127a96000830184612785565b92915050565b600081549050919050565b600082825260208201905092915050565b60008190508160005260206000209050919050565b600082825260208201905092915050565b60008190508160005260206000209050919050565b60008154612813816120f9565b61281d81866127e0565b94506001821660008114612838576001811461284e57612881565b60ff198316865281151560200286019350612881565b612857856127f1565b60005b838110156128795781548189015260018201915060208101905061285a565b808801955050505b50505092915050565b60006128968383612806565b905092915050565b6000600182019050919050565b60006128b6826127af565b6128c081856127ba565b9350836020820285016128d2856127cb565b8060005b8581101561290d578484038952816128ee858261288a565b94506128f98361289e565b925060208a019950506001810190506128d6565b50829750879550505050505092915050565b60007fffffffff0000000000000000000000000000000000000000000000000000000082169050919050565b6129548161291f565b82525050565b600060a08201905061296f6000830188611f23565b818103602083015261298181876128ab565b905081810360408301526129958186611e96565b90506129a4606083018561294b565b81810360808301526129b68184611e96565b90509695505050505050565b60008160601b9050919050565b60006129da826129c2565b9050919050565b60006129ec826129cf565b9050919050565b612a046129ff82611f11565b6129e1565b82525050565b6000612a1682846129f3565b60148201915081905092915050565b7f4163636f756e7420646f6573206e6f7420657869737400000000000000000000600082015250565b6000612a5b60168361201e565b9150612a6682612a25565b602082019050919050565b60006020820190508181036000830152612a8a81612a4e565b9050919050565b6000612a9d828461241b565b60208201915081905092915050565b7f53746f726167652076616c756520646f6573206e6f7420657869737400000000600082015250565b6000612ae2601c8361201e565b9150612aed82612aac565b602082019050919050565b60006020820190508181036000830152612b1181612ad5565b9050919050565b7f4e487b7100000000000000000000000000000000000000000000000000000000600052603260045260246000fd5b7f50726f76696465642070726f6f6620697320696e76616c69642e000000000000600082015250565b6000612b7d601a8361201e565b9150612b8882612b47565b602082019050919050565b60006020820190508181036000830152612bac81612b70565b9050919050565b7f4e487b7100000000000000000000000000000000000000000000000000000000600052601160045260246000fd5b6000612bed82611fb0565b9150612bf883611fb0565b9250828203905081811115612c1057612c0f612bb3565b5b92915050565b7f496e76616c696420524c5020627974657333322076616c75652e000000000000600082015250565b6000612c4c601a8361201e565b9150612c5782612c16565b602082019050919050565b60006020820190508181036000830152612c7b81612c3f565b9050919050565b7f4e487b7100000000000000000000000000000000000000000000000000000000600052602160045260246000fd5b6000612cbc82611fb0565b9150612cc783611fb0565b9250828201905080821115612cdf57612cde612bb3565b5b92915050565b7f496e76616c696420524c502062797465732076616c75652e0000000000000000600082015250565b6000612d1b60188361201e565b9150612d2682612ce5565b602082019050919050565b60006020820190508181036000830152612d4a81612d0e565b9050919050565b6000612d5c82611fb0565b91507fffffffffffffffffffffffffffffffffffffffffffffffffffffffffffffffff8203612d8e57612d8d612bb3565b5b600182019050919050565b7f496e76616c696420726f6f742068617368000000000000000000000000000000600082015250565b6000612dcf60118361201e565b9150612dda82612d99565b602082019050919050565b60006020820190508181036000830152612dfe81612dc2565b9050919050565b7f496e76616c6964206c6172676520696e7465726e616c20686173680000000000600082015250565b6000612e3b601b8361201e565b9150612e4682612e05565b602082019050919050565b60006020820190508181036000830152612e6a81612e2e565b9050919050565b7f496e76616c696420696e7465726e616c206e6f64652068617368000000000000600082015250565b6000612ea7601a8361201e565b9150612eb282612e71565b602082019050919050565b60006020820190508181036000830152612ed681612e9a565b9050919050565b600060ff82169050919050565b7f4e487b7100000000000000000000000000000000000000000000000000000000600052601260045260246000fd5b6000612f2482612edd565b9150612f2f83612edd565b925082612f3f57612f3e612eea565b5b828206905092915050565b6000612f5582612edd565b9150612f6083612edd565b9250828203905060ff811115612f7957612f78612bb3565b5b92915050565b7f52656365697665642061206e6f6465207769746820616e20756e6b6e6f776e2060008201527f7072656669780000000000000000000000000000000000000000000000000000602082015250565b6000612fdb60268361201e565b9150612fe682612f7f565b604082019050919050565b6000602082019050818103600083015261300a81612fce565b9050919050565b7f526563656976656420616e20756e706172736561626c65206e6f64652e000000600082015250565b6000613047601d8361201e565b915061305282613011565b602082019050919050565b600060208201905081810360008301526130768161303a565b9050919050565b7f496e76616c696420524c50206c6973742076616c75652e000000000000000000600082015250565b60006130b360178361201e565b91506130be8261307d565b602082019050919050565b600060208201905081810360008301526130e2816130a6565b9050919050565b7f50726f766964656420524c50206c6973742065786365656473206d6178206c6960008201527f7374206c656e6774682e00000000000000000000000000000000000000000000602082015250565b6000613145602a8361201e565b9150613150826130e9565b604082019050919050565b6000602082019050818103600083015261317481613138565b9050919050565b7f524c50206974656d2063616e6e6f74206265206e756c6c2e0000000000000000600082015250565b60006131b160188361201e565b91506131bc8261317b565b602082019050919050565b600060208201905081810360008301526131e0816131a4565b9050919050565b7f496e76616c696420524c502073686f727420737472696e672e00000000000000600082015250565b600061321d60198361201e565b9150613228826131e7565b602082019050919050565b6000602082019050818103600083015261324c81613210565b9050919050565b7f496e76616c696420524c50206c6f6e6720737472696e67206c656e6774682e00600082015250565b6000613289601f8361201e565b915061329482613253565b602082019050919050565b600060208201905081810360008301526132b88161327c565b9050919050565b7f496e76616c696420524c50206c6f6e6720737472696e672e0000000000000000600082015250565b60006132f560188361201e565b9150613300826132bf565b602082019050919050565b60006020820190508181036000830152613324816132e8565b9050919050565b7f496e76616c696420524c502073686f7274206c6973742e000000000000000000600082015250565b600061336160178361201e565b915061336c8261332b565b602082019050919050565b6000602082019050818103600083015261339081613354565b9050919050565b7f496e76616c696420524c50206c6f6e67206c697374206c656e6774682e000000600082015250565b60006133cd601d8361201e565b91506133d882613397565b602082019050919050565b600060208201905081810360008301526133fc816133c0565b9050919050565b7f496e76616c696420524c50206c6f6e67206c6973742e00000000000000000000600082015250565b600061343960168361201e565b915061344482613403565b602082019050919050565b600060208201905081810360008301526134688161342c565b9050919050565b600061347a82611fb0565b915061348583611fb0565b92508261349557613494612eea565b5b828204905092915050565b60006134ab82611fb0565b91506134b683611fb0565b92508282026134c481611fb0565b915082820484148315176134db576134da612bb3565b5b5092915050565b6000602082840312156134f8576134f7611d4f565b5b6000613506848285016124c0565b91505092915050565b7f736c6963655f6f766572666c6f77000000000000000000000000000000000000600082015250565b6000613545600e8361201e565b91506135508261350f565b602082019050919050565b6000602082019050818103600083015261357481613538565b9050919050565b7f736c6963655f6f75744f66426f756e6473000000000000000000000000000000600082015250565b60006135b160118361201e565b91506135bc8261357b565b602082019050919050565b600060208201905081810360008301526135e0816135a4565b905091905056fea2646970667358221220c498565b0facc6b909633af1eb7dde7e96714b9e4359359b2e20eb916ca09b5b64736f6c63430008110033",
  "linkReferences": {},
  "deployedLinkReferences": {}
}