{
  "address": "0xDb75Db974B1F2bD3b5916d503036208064D18295",
  "abi": [
    {
      "inputs": [
        {
          "internalType": "contract BaseRegistrarImplementation",
          "name": "_base",
          "type": "address"
        },
        {
          "internalType": "contract IPriceOracle",
          "name": "_prices",
          "type": "address"
        },
        {
          "internalType": "uint256",
          "name": "_minCommitmentAge",
          "type": "uint256"
        },
        {
          "internalType": "uint256",
          "name": "_maxCommitmentAge",
          "type": "uint256"
        },
        {
          "internalType": "contract ReverseRegistrar",
          "name": "_reverseRegistrar",
          "type": "address"
        },
        {
          "internalType": "contract INameWrapper",
          "name": "_nameWrapper",
          "type": "address"
        },
        {
          "internalType": "contract ENS",
          "name": "_ens",
          "type": "address"
        },
        {
          "internalType": "contract PohVerifier",
          "name": "_pohVerifier",
          "type": "address"
        },
        {
          "internalType": "contract PohRegistrationManager",
          "name": "_pohRegistrationManager",
          "type": "address"
        },
        {
          "internalType": "bytes32",
          "name": "_baseNode",
          "type": "bytes32"
        },
        {
          "internalType": "string",
          "name": "_baseDomain",
          "type": "string"
        }
      ],
      "stateMutability": "nonpayable",
      "type": "constructor"
    },
    {
      "inputs": [],
      "name": "BaseNodeAsETHNodeOrROOTNodeNotAllowed",
      "type": "error"
    },
    {
      "inputs": [
        {
          "internalType": "bytes32",
          "name": "commitment",
          "type": "bytes32"
        }
      ],
      "name": "CommitmentTooNew",
      "type": "error"
    },
    {
      "inputs": [
        {
          "internalType": "bytes32",
          "name": "commitment",
          "type": "bytes32"
        }
      ],
      "name": "CommitmentTooOld",
      "type": "error"
    },
    {
      "inputs": [],
      "name": "DifferentBaseDomainBaseNode",
      "type": "error"
    },
    {
      "inputs": [
        {
          "internalType": "uint256",
          "name": "duration",
          "type": "uint256"
        }
      ],
      "name": "DurationTooShort",
      "type": "error"
    },
    {
      "inputs": [],
      "name": "EmptyStringNotAllowed",
      "type": "error"
    },
    {
      "inputs": [],
      "name": "InsufficientValue",
      "type": "error"
    },
    {
      "inputs": [],
      "name": "MaxCommitmentAgeTooHigh",
      "type": "error"
    },
    {
      "inputs": [],
      "name": "MaxCommitmentAgeTooLow",
      "type": "error"
    },
    {
      "inputs": [
        {
          "internalType": "string",
          "name": "name",
          "type": "string"
        }
      ],
      "name": "NameNotAvailable",
      "type": "error"
    },
    {
      "inputs": [
        {
          "internalType": "address",
          "name": "owner",
          "type": "address"
        }
      ],
      "name": "OwnerAlreadyRegistered",
      "type": "error"
    },
    {
      "inputs": [
        {
          "internalType": "address",
          "name": "owner",
          "type": "address"
        }
      ],
      "name": "PohVerificationFailed",
      "type": "error"
    },
    {
      "inputs": [
        {
          "internalType": "uint256",
          "name": "currentTime",
          "type": "uint256"
        },
        {
          "internalType": "uint256",
          "name": "renewTimeStart",
          "type": "uint256"
        }
      ],
      "name": "RenewPOHNotStarted",
      "type": "error"
    },
    {
      "inputs": [],
      "name": "ResolverRequiredWhenDataSupplied",
      "type": "error"
    },
    {
      "inputs": [
        {
          "internalType": "address",
          "name": "owner",
          "type": "address"
        },
        {
          "internalType": "address",
          "name": "sender",
          "type": "address"
        }
      ],
      "name": "SenderNotOwner",
      "type": "error"
    },
    {
      "inputs": [
        {
          "internalType": "bytes32",
          "name": "commitment",
          "type": "bytes32"
        }
      ],
      "name": "UnexpiredCommitmentExists",
      "type": "error"
    },
    {
      "inputs": [
        {
          "internalType": "uint256",
          "name": "duration",
          "type": "uint256"
        }
      ],
      "name": "WrongPohRegistrationDuration",
      "type": "error"
    },
    {
      "inputs": [],
      "name": "ZeroAddressNotAllowed",
      "type": "error"
    },
    {
      "anonymous": false,
      "inputs": [
        {
          "indexed": false,
          "internalType": "string",
          "name": "name",
          "type": "string"
        },
        {
          "indexed": true,
          "internalType": "bytes32",
          "name": "label",
          "type": "bytes32"
        },
        {
          "indexed": true,
          "internalType": "address",
          "name": "owner",
          "type": "address"
        },
        {
          "indexed": false,
          "internalType": "uint256",
          "name": "baseCost",
          "type": "uint256"
        },
        {
          "indexed": false,
          "internalType": "uint256",
          "name": "premium",
          "type": "uint256"
        },
        {
          "indexed": false,
          "internalType": "uint256",
          "name": "expires",
          "type": "uint256"
        }
      ],
      "name": "NameRegistered",
      "type": "event"
    },
    {
      "anonymous": false,
      "inputs": [
        {
          "indexed": false,
          "internalType": "string",
          "name": "name",
          "type": "string"
        },
        {
          "indexed": true,
          "internalType": "bytes32",
          "name": "label",
          "type": "bytes32"
        },
        {
          "indexed": false,
          "internalType": "uint256",
          "name": "cost",
          "type": "uint256"
        },
        {
          "indexed": false,
          "internalType": "uint256",
          "name": "expires",
          "type": "uint256"
        }
      ],
      "name": "NameRenewed",
      "type": "event"
    },
    {
      "anonymous": false,
      "inputs": [
        {
          "indexed": false,
          "internalType": "string",
          "name": "name",
          "type": "string"
        },
        {
          "indexed": true,
          "internalType": "bytes32",
          "name": "label",
          "type": "bytes32"
        },
        {
          "indexed": false,
          "internalType": "uint256",
          "name": "expires",
          "type": "uint256"
        }
      ],
      "name": "NameRenewedPoh",
      "type": "event"
    },
    {
      "anonymous": false,
      "inputs": [
        {
          "indexed": false,
          "internalType": "string",
          "name": "name",
          "type": "string"
        },
        {
          "indexed": true,
          "internalType": "bytes32",
          "name": "label",
          "type": "bytes32"
        },
        {
          "indexed": true,
          "internalType": "address",
          "name": "owner",
          "type": "address"
        },
        {
          "indexed": false,
          "internalType": "uint256",
          "name": "expires",
          "type": "uint256"
        }
      ],
      "name": "OwnerNameRegistered",
      "type": "event"
    },
    {
      "anonymous": false,
      "inputs": [
        {
          "indexed": true,
          "internalType": "address",
          "name": "previousOwner",
          "type": "address"
        },
        {
          "indexed": true,
          "internalType": "address",
          "name": "newOwner",
          "type": "address"
        }
      ],
      "name": "OwnershipTransferred",
      "type": "event"
    },
    {
      "anonymous": false,
      "inputs": [
        {
          "indexed": false,
          "internalType": "string",
          "name": "name",
          "type": "string"
        },
        {
          "indexed": true,
          "internalType": "bytes32",
          "name": "label",
          "type": "bytes32"
        },
        {
          "indexed": true,
          "internalType": "address",
          "name": "owner",
          "type": "address"
        },
        {
          "indexed": false,
          "internalType": "uint256",
          "name": "expires",
          "type": "uint256"
        }
      ],
      "name": "PohNameRegistered",
      "type": "event"
    },
    {
      "inputs": [],
      "name": "GRACE_PERIOD",
      "outputs": [
        {
          "internalType": "uint256",
          "name": "",
          "type": "uint256"
        }
      ],
      "stateMutability": "view",
      "type": "function"
    },
    {
      "inputs": [],
      "name": "MIN_REGISTRATION_DURATION",
      "outputs": [
        {
          "internalType": "uint256",
          "name": "",
          "type": "uint256"
        }
      ],
      "stateMutability": "view",
      "type": "function"
    },
    {
      "inputs": [],
      "name": "POH_REGISTRATION_DURATION",
      "outputs": [
        {
          "internalType": "uint256",
          "name": "",
          "type": "uint256"
        }
      ],
      "stateMutability": "view",
      "type": "function"
    },
    {
      "inputs": [
        {
          "internalType": "string",
          "name": "name",
          "type": "string"
        }
      ],
      "name": "available",
      "outputs": [
        {
          "internalType": "bool",
          "name": "",
          "type": "bool"
        }
      ],
      "stateMutability": "view",
      "type": "function"
    },
    {
      "inputs": [],
      "name": "baseDomain",
      "outputs": [
        {
          "internalType": "string",
          "name": "",
          "type": "string"
        }
      ],
      "stateMutability": "view",
      "type": "function"
    },
    {
      "inputs": [],
      "name": "baseNode",
      "outputs": [
        {
          "internalType": "bytes32",
          "name": "",
          "type": "bytes32"
        }
      ],
      "stateMutability": "view",
      "type": "function"
    },
    {
      "inputs": [
        {
          "internalType": "bytes32",
          "name": "commitment",
          "type": "bytes32"
        }
      ],
      "name": "commit",
      "outputs": [],
      "stateMutability": "nonpayable",
      "type": "function"
    },
    {
      "inputs": [
        {
          "internalType": "bytes32",
          "name": "",
          "type": "bytes32"
        }
      ],
      "name": "commitments",
      "outputs": [
        {
          "internalType": "uint256",
          "name": "",
          "type": "uint256"
        }
      ],
      "stateMutability": "view",
      "type": "function"
    },
    {
      "inputs": [
        {
          "internalType": "string",
          "name": "name",
          "type": "string"
        },
        {
          "internalType": "address",
          "name": "owner",
          "type": "address"
        },
        {
          "internalType": "uint256",
          "name": "duration",
          "type": "uint256"
        },
        {
          "internalType": "bytes32",
          "name": "secret",
          "type": "bytes32"
        },
        {
          "internalType": "address",
          "name": "resolver",
          "type": "address"
        },
        {
          "internalType": "bytes[]",
          "name": "data",
          "type": "bytes[]"
        },
        {
          "internalType": "bool",
          "name": "reverseRecord",
          "type": "bool"
        },
        {
          "internalType": "uint16",
          "name": "ownerControlledFuses",
          "type": "uint16"
        }
      ],
      "name": "makeCommitment",
      "outputs": [
        {
          "internalType": "bytes32",
          "name": "",
          "type": "bytes32"
        }
      ],
      "stateMutability": "pure",
      "type": "function"
    },
    {
      "inputs": [],
      "name": "maxCommitmentAge",
      "outputs": [
        {
          "internalType": "uint256",
          "name": "",
          "type": "uint256"
        }
      ],
      "stateMutability": "view",
      "type": "function"
    },
    {
      "inputs": [],
      "name": "minCommitmentAge",
      "outputs": [
        {
          "internalType": "uint256",
          "name": "",
          "type": "uint256"
        }
      ],
      "stateMutability": "view",
      "type": "function"
    },
    {
      "inputs": [],
      "name": "nameWrapper",
      "outputs": [
        {
          "internalType": "contract INameWrapper",
          "name": "",
          "type": "address"
        }
      ],
      "stateMutability": "view",
      "type": "function"
    },
    {
      "inputs": [],
      "name": "owner",
      "outputs": [
        {
          "internalType": "address",
          "name": "",
          "type": "address"
        }
      ],
      "stateMutability": "view",
      "type": "function"
    },
    {
      "inputs": [
        {
          "internalType": "string",
          "name": "name",
          "type": "string"
        },
        {
          "internalType": "address",
          "name": "owner",
          "type": "address"
        },
        {
          "internalType": "uint256",
          "name": "duration",
          "type": "uint256"
        },
        {
          "internalType": "address",
          "name": "resolver",
          "type": "address"
        },
        {
          "internalType": "bytes[]",
          "name": "data",
          "type": "bytes[]"
        },
        {
          "internalType": "uint16",
          "name": "ownerControlledFuses",
          "type": "uint16"
        },
        {
          "internalType": "bool",
          "name": "reverseRecord",
          "type": "bool"
        }
      ],
      "name": "ownerRegister",
      "outputs": [],
      "stateMutability": "nonpayable",
      "type": "function"
    },
    {
      "inputs": [],
      "name": "pohRegistrationManager",
      "outputs": [
        {
          "internalType": "contract PohRegistrationManager",
          "name": "",
          "type": "address"
        }
      ],
      "stateMutability": "view",
      "type": "function"
    },
    {
      "inputs": [],
      "name": "pohVerifier",
      "outputs": [
        {
          "internalType": "contract PohVerifier",
          "name": "",
          "type": "address"
        }
      ],
      "stateMutability": "view",
      "type": "function"
    },
    {
      "inputs": [],
      "name": "prices",
      "outputs": [
        {
          "internalType": "contract IPriceOracle",
          "name": "",
          "type": "address"
        }
      ],
      "stateMutability": "view",
      "type": "function"
    },
    {
      "inputs": [
        {
          "internalType": "address",
          "name": "_token",
          "type": "address"
        },
        {
          "internalType": "address",
          "name": "_to",
          "type": "address"
        },
        {
          "internalType": "uint256",
          "name": "_amount",
          "type": "uint256"
        }
      ],
      "name": "recoverFunds",
      "outputs": [],
      "stateMutability": "nonpayable",
      "type": "function"
    },
    {
      "inputs": [
        {
          "internalType": "address",
          "name": "_address",
          "type": "address"
        }
      ],
      "name": "redeemed",
      "outputs": [
        {
          "internalType": "bool",
          "name": "",
          "type": "bool"
        }
      ],
      "stateMutability": "view",
      "type": "function"
    },
    {
      "inputs": [
        {
          "internalType": "string",
          "name": "name",
          "type": "string"
        },
        {
          "internalType": "address",
          "name": "owner",
          "type": "address"
        },
        {
          "internalType": "uint256",
          "name": "duration",
          "type": "uint256"
        },
        {
          "internalType": "bytes32",
          "name": "secret",
          "type": "bytes32"
        },
        {
          "internalType": "address",
          "name": "resolver",
          "type": "address"
        },
        {
          "internalType": "bytes[]",
          "name": "data",
          "type": "bytes[]"
        },
        {
          "internalType": "bool",
          "name": "reverseRecord",
          "type": "bool"
        },
        {
          "internalType": "uint16",
          "name": "ownerControlledFuses",
          "type": "uint16"
        }
      ],
      "name": "register",
      "outputs": [],
      "stateMutability": "payable",
      "type": "function"
    },
    {
      "inputs": [
        {
          "internalType": "string",
          "name": "name",
          "type": "string"
        },
        {
          "internalType": "address",
          "name": "owner",
          "type": "address"
        },
        {
          "internalType": "uint256",
          "name": "duration",
          "type": "uint256"
        },
        {
          "internalType": "bytes32",
          "name": "secret",
          "type": "bytes32"
        },
        {
          "internalType": "address",
          "name": "resolver",
          "type": "address"
        },
        {
          "internalType": "bytes[]",
          "name": "data",
          "type": "bytes[]"
        },
        {
          "internalType": "bool",
          "name": "reverseRecord",
          "type": "bool"
        },
        {
          "internalType": "uint16",
          "name": "ownerControlledFuses",
          "type": "uint16"
        },
        {
          "internalType": "bytes",
          "name": "signature",
          "type": "bytes"
        }
      ],
      "name": "registerPoh",
      "outputs": [],
      "stateMutability": "nonpayable",
      "type": "function"
    },
    {
      "inputs": [
        {
          "internalType": "string",
          "name": "name",
          "type": "string"
        },
        {
          "internalType": "uint256",
          "name": "duration",
          "type": "uint256"
        }
      ],
      "name": "renew",
      "outputs": [],
      "stateMutability": "payable",
      "type": "function"
    },
    {
      "inputs": [
        {
          "internalType": "string",
          "name": "name",
          "type": "string"
        },
        {
          "internalType": "bytes",
          "name": "signature",
          "type": "bytes"
        }
      ],
      "name": "renewPoh",
      "outputs": [],
      "stateMutability": "nonpayable",
      "type": "function"
    },
    {
      "inputs": [],
      "name": "renounceOwnership",
      "outputs": [],
      "stateMutability": "nonpayable",
      "type": "function"
    },
    {
      "inputs": [
        {
          "internalType": "string",
          "name": "name",
          "type": "string"
        },
        {
          "internalType": "uint256",
          "name": "duration",
          "type": "uint256"
        }
      ],
      "name": "rentPrice",
      "outputs": [
        {
          "components": [
            {
              "internalType": "uint256",
              "name": "base",
              "type": "uint256"
            },
            {
              "internalType": "uint256",
              "name": "premium",
              "type": "uint256"
            }
          ],
          "internalType": "struct IPriceOracle.Price",
          "name": "price",
          "type": "tuple"
        }
      ],
      "stateMutability": "view",
      "type": "function"
    },
    {
      "inputs": [],
      "name": "reverseRegistrar",
      "outputs": [
        {
          "internalType": "contract ReverseRegistrar",
          "name": "",
          "type": "address"
        }
      ],
      "stateMutability": "view",
      "type": "function"
    },
    {
      "inputs": [
        {
          "internalType": "bytes4",
          "name": "interfaceID",
          "type": "bytes4"
        }
      ],
      "name": "supportsInterface",
      "outputs": [
        {
          "internalType": "bool",
          "name": "",
          "type": "bool"
        }
      ],
      "stateMutability": "pure",
      "type": "function"
    },
    {
      "inputs": [
        {
          "internalType": "address",
          "name": "newOwner",
          "type": "address"
        }
      ],
      "name": "transferOwnership",
      "outputs": [],
      "stateMutability": "nonpayable",
      "type": "function"
    },
    {
      "inputs": [
        {
          "internalType": "string",
          "name": "name",
          "type": "string"
        }
      ],
      "name": "valid",
      "outputs": [
        {
          "internalType": "bool",
          "name": "",
          "type": "bool"
        }
      ],
      "stateMutability": "pure",
      "type": "function"
    },
    {
      "inputs": [],
      "name": "withdraw",
      "outputs": [],
      "stateMutability": "nonpayable",
      "type": "function"
    }
  ],
  "transactionHash": "0xde63ad14df0551f552da18f84c71b1b8d9ad462ab4db95b339abd8c168da76cc",
  "args": [
    "0x6e84390dCc5195414eC91A8c56A5c91021B95704",
    "0x8F93FF76eD8CE41e47a90FF4E3544783DB795610",
    60,
    86400,
    "0x08D3fF6E65f680844fd2465393ff6f0d742b67D5",
    "0xA53cca02F98D590819141Aa85C891e2Af713C223",
    "0x50130b669B28C339991d8676FA73CF122a121267",
    "0xBf14cFAFD7B83f6de881ae6dc10796ddD7220831",
    "0xE5fC544002067dFD69ADF8854D026217bE67BbB3",
    "0x527aac89ac1d1de5dd84cff89ec92c69b028ce9ce3fa3d654882474ab4402ec3",
    ".linea.eth"
  ],
  "numDeployments": 1,
  "solcInputHash": "ecf9ee221e9a3f6a0d5de2e6d402ddd7",
  "bytecode": "0x6101a06040523480156200001257600080fd5b5060405162003b7a38038062003b7a83398101604081905262000035916200092f565b843362000042816200039b565b6040516302571be360e01b81527f91d1777781884d03a6757a803996e38de2a42967fb37eeaca72729271025a9e260048201526000906001600160a01b038416906302571be390602401602060405180830381865afa158015620000aa573d6000803e3d6000fd5b505050506040513d601f19601f82011682018060405250810190620000d0919062000a19565b604051630f41a04d60e11b81526001600160a01b03848116600483015291925090821690631e83409a906024016020604051808303816000875af11580156200011d573d6000803e3d6000fd5b505050506040513d601f19601f8201168201806040525081019062000143919062000a40565b50869250506001600160a01b038216905062000172576040516342bcdf7f60e11b815260040160405180910390fd5b836001600160a01b0381166200019b576040516342bcdf7f60e11b815260040160405180910390fd5b828051600003620001bf576040516302260d9d60e11b815260040160405180910390fd5b8b8b11620001e0576040516307cb550760e31b815260040160405180910390fd5b428b11156200020257604051630b4319e560e21b815260040160405180910390fd5b8415806200022f57507f93cdeb708b7545dc668eb9280176169d1c33cfd8ed6f04690a0bcc88a93fc4ae85145b156200024e576040516370dada4560e01b815260040160405180910390fd5b6000620002976200028660016200027088620003eb60201b620016ef1760201c565b886200050760201b6200187e179092919060201c565b620005e560201b6200194b1760201c565b915050858114620002bb576040516302536ead60e31b815260040160405180910390fd5b8e6001600160a01b03166080816001600160a01b0316815250508d6001600160a01b031660a0816001600160a01b0316815250508c60c081815250508b60e081815250508a6001600160a01b0316610100816001600160a01b031681525050896001600160a01b0316610120816001600160a01b031681525050876001600160a01b0316610140816001600160a01b031681525050866001600160a01b0316610160816001600160a01b031681525050856101808181525050846002908162000385919062000ae9565b5050505050505050505050505050505062000c2f565b600080546001600160a01b038381166001600160a01b0319831681178455604051919092169283917f8be0079c531659141344cd1fd0a4f28419497f9722a3daafe3b4186f6b6457e09190a35050565b8051600090819081905b80821015620004fe57600085838151811062000415576200041562000bb5565b01602001516001600160f81b0319169050600160ff1b81101562000448576200044060018462000be1565b9250620004e8565b600760fd1b6001600160f81b0319821610156200046c576200044060028462000be1565b600f60fc1b6001600160f81b03198216101562000490576200044060038462000be1565b601f60fb1b6001600160f81b031982161015620004b4576200044060048462000be1565b603f60fa1b6001600160f81b031982161015620004d8576200044060058462000be1565b620004e560068462000be1565b92505b5082620004f58162000bfd565b935050620003f5565b50909392505050565b606083600062000518858562000c19565b6001600160401b038111156200053257620005326200086a565b6040519080825280601f01601f1916602001820160405280156200055d576020820181803683370190505b509050845b84811015620005db5782818151811062000580576200058062000bb5565b01602001516001600160f81b031916826200059c888462000c19565b81518110620005af57620005af62000bb5565b60200101906001600160f81b031916908160001a90535080620005d28162000bfd565b91505062000562565b5095945050505050565b805160609060009081908490620005fe81600262000be1565b6001600160401b038111156200061857620006186200086a565b6040519080825280601f01601f19166020018201604052801562000643576020820181803683370190505b509450600093508084036200068c57600060f81b856000815181106200066d576200066d62000bb5565b60200101906001600160f81b031916908160001a905350505050915091565b60001981015b828181518110620006a757620006a762000bb5565b01602001516001600160f81b031916601760f91b036200074b578360f81b868260010181518110620006dd57620006dd62000bb5565b60200101906001600160f81b031916908160001a9053508462000717826001018660ff16866200081860201b62001b5c179092919060201c565b60408051602081019390935282015260600160405160208183030381529060405280519060200120945060009350620007a1565b60018401935082818151811062000766576200076662000bb5565b602001015160f81c60f81b86826001018151811062000789576200078962000bb5565b60200101906001600160f81b031916908160001a9053505b8015620007b2576000190162000692565b5083620007d460008560ff16856200081860201b62001b5c179092919060201c565b6040805160208101939093528201526060016040516020818303038152906040528051906020012093508260f81b856000815181106200066d576200066d62000bb5565b825160009062000829838562000be1565b11156200083557600080fd5b5091016020012090565b6001600160a01b03811681146200085557600080fd5b50565b805162000865816200083f565b919050565b634e487b7160e01b600052604160045260246000fd5b600082601f8301126200089257600080fd5b81516001600160401b0380821115620008af57620008af6200086a565b604051601f8301601f19908116603f01168101908282118183101715620008da57620008da6200086a565b81604052838152602092508683858801011115620008f757600080fd5b600091505b838210156200091b5785820183015181830184015290820190620008fc565b600093810190920192909252949350505050565b60008060008060008060008060008060006101608c8e0312156200095257600080fd5b8b516200095f816200083f565b60208d0151909b5062000972816200083f565b60408d015160608e0151919b50995097506200099160808d0162000858565b9650620009a160a08d0162000858565b9550620009b160c08d0162000858565b9450620009c160e08d0162000858565b9350620009d26101008d0162000858565b6101208d01516101408e015191945092506001600160401b03811115620009f857600080fd5b62000a068e828f0162000880565b9150509295989b509295989b9093969950565b60006020828403121562000a2c57600080fd5b815162000a39816200083f565b9392505050565b60006020828403121562000a5357600080fd5b5051919050565b600181811c9082168062000a6f57607f821691505b60208210810362000a9057634e487b7160e01b600052602260045260246000fd5b50919050565b601f82111562000ae457600081815260208120601f850160051c8101602086101562000abf5750805b601f850160051c820191505b8181101562000ae05782815560010162000acb565b5050505b505050565b81516001600160401b0381111562000b055762000b056200086a565b62000b1d8162000b16845462000a5a565b8462000a96565b602080601f83116001811462000b55576000841562000b3c5750858301515b600019600386901b1c1916600185901b17855562000ae0565b600085815260208120601f198616915b8281101562000b865788860151825594840194600190910190840162000b65565b508582101562000ba55787850151600019600388901b60f8161c191681555b5050505050600190811b01905550565b634e487b7160e01b600052603260045260246000fd5b634e487b7160e01b600052601160045260246000fd5b8082018082111562000bf75762000bf762000bcb565b92915050565b60006001820162000c125762000c1262000bcb565b5060010190565b8181038181111562000bf75762000bf762000bcb565b60805160a05160c05160e0516101005161012051610140516101605161018051612e6362000d17600039600081816105eb015281816108580152611f7b0152600081816102be015281816110980152611301015260008181610219015281816109a20152610fc0015260008181610505015281816108d401528181610b49015281816114120152611c880152600081816103a0015261205a015260008181610583015281816115f00152611ec10152600081816104730152611e4a0152600081816105b701526111a8015260008181610a5d015281816111dd015261155f0152612e636000f3fe6080604052600436106101cd5760003560e01c806383e7f6ff116100f7578063acf1a84111610095578063d3419bf311610064578063d3419bf3146105a5578063ddf7fcb0146105d9578063f14fcbc81461060d578063f2fde38b1461062d57600080fd5b8063acf1a84114610527578063aeb8ce9b1461053a578063c1a287e21461055a578063ce1e09c01461057157600080fd5b80638da5cb5b116100d15780638da5cb5b146104955780639791c097146104b35780639f4568ef146104d3578063a8e5fbc0146104f357600080fd5b806383e7f6ff1461040f5780638a95b09f1461044a5780638d839ffe1461046157600080fd5b80635d3590d51161016f5780637cdcceff1161013e5780637cdcceff14610376578063808698531461038e57806382cdbacf146103c2578063839df945146103e257600080fd5b80635d3590d51461030057806365a69dcf14610320578063715018a61461034e57806374694a2b1461036357600080fd5b806348136c97116101ab57806348136c971461026a5780634aa7dad51461028c57806350bebad4146102ac5780635604d995146102e057600080fd5b806301ffc9a7146101d2578063070bdbef146102075780633ccfd60b14610253575b600080fd5b3480156101de57600080fd5b506101f26101ed36600461210f565b61064d565b60405190151581526020015b60405180910390f35b34801561021357600080fd5b5061023b7f000000000000000000000000000000000000000000000000000000000000000081565b6040516001600160a01b0390911681526020016101fe565b34801561025f57600080fd5b506102686106e6565b005b34801561027657600080fd5b5061027f610723565b6040516101fe91906121a1565b34801561029857600080fd5b506102686102a7366004612292565b6107b1565b3480156102b857600080fd5b5061023b7f000000000000000000000000000000000000000000000000000000000000000081565b3480156102ec57600080fd5b506102686102fb36600461241e565b61083a565b34801561030c57600080fd5b5061026861031b366004612487565b610c08565b34801561032c57600080fd5b5061034061033b3660046124c8565b610ca2565b6040519081526020016101fe565b34801561035a57600080fd5b50610268610d68565b610268610371366004612591565b610d7c565b34801561038257600080fd5b506103406305a39a8081565b34801561039a57600080fd5b5061023b7f000000000000000000000000000000000000000000000000000000000000000081565b3480156103ce57600080fd5b506102686103dd366004612660565b610ee4565b3480156103ee57600080fd5b506103406103fd36600461274d565b60016020526000908152604090205481565b34801561041b57600080fd5b5061042f61042a366004612766565b611177565b604080518251815260209283015192810192909252016101fe565b34801561045657600080fd5b506103406224ea0081565b34801561046d57600080fd5b506103407f000000000000000000000000000000000000000000000000000000000000000081565b3480156104a157600080fd5b506000546001600160a01b031661023b565b3480156104bf57600080fd5b506101f26104ce3660046127ab565b6112b1565b3480156104df57600080fd5b506101f26104ee3660046127e0565b6112c6565b3480156104ff57600080fd5b5061023b7f000000000000000000000000000000000000000000000000000000000000000081565b6102686105353660046127fd565b61136e565b34801561054657600080fd5b506101f26105553660046127ab565b611516565b34801561056657600080fd5b506103406276a70081565b34801561057d57600080fd5b506103407f000000000000000000000000000000000000000000000000000000000000000081565b3480156105b157600080fd5b5061023b7f000000000000000000000000000000000000000000000000000000000000000081565b3480156105e557600080fd5b506103407f000000000000000000000000000000000000000000000000000000000000000081565b34801561061957600080fd5b5061026861062836600461274d565b6115d9565b34801561063957600080fd5b506102686106483660046127e0565b611662565b60007fffffffff0000000000000000000000000000000000000000000000000000000082167f01ffc9a70000000000000000000000000000000000000000000000000000000014806106e057507fffffffff0000000000000000000000000000000000000000000000000000000082167fe3e336c600000000000000000000000000000000000000000000000000000000145b92915050565b600080546040516001600160a01b03909116914780156108fc02929091818181858888f19350505050158015610720573d6000803e3d6000fd5b50565b6002805461073090612849565b80601f016020809104026020016040519081016040528092919081815260200182805461075c90612849565b80156107a95780601f1061077e576101008083540402835291602001916107a9565b820191906000526020600020905b81548152906001019060200180831161078c57829003601f168201915b505050505081565b6107b9611b80565b60006107cf8a8a8a8a858b8b8b8a8c6001611bda565b9050876001600160a01b03168a8a6040516107eb929190612883565b60405180910390207f508f53f3c8e5a9fe2d20d2f7cf17580c2e3e9919909803d133196ea012e412bf8c8c85604051610826939291906128bc565b60405180910390a350505050505050505050565b6000838360405161084c929190612883565b604080519182900382207f00000000000000000000000000000000000000000000000000000000000000006020840152908201819052915060009060600160408051808303601f190181529082905280516020909101207f0178fe3f0000000000000000000000000000000000000000000000000000000082526004820181905291506000907f00000000000000000000000000000000000000000000000000000000000000006001600160a01b031690630178fe3f90602401606060405180830381865afa158015610923573d6000803e3d6000fd5b505050506040513d601f19601f8201168201806040525081019061094791906128e0565b5090915050336001600160a01b0382161461098b5760405163113b199f60e01b81526001600160a01b03821660048201523360248201526044015b60405180910390fd5b604051633d3ac1b560e01b81526001600160a01b037f00000000000000000000000000000000000000000000000000000000000000001690633d3ac1b5906109d99087908590600401612943565b602060405180830381865afa1580156109f6573d6000803e3d6000fd5b505050506040513d601f19601f82011682018060405250810190610a1a919061296e565b610a4257604051635199950b60e11b81526001600160a01b0382166004820152602401610982565b604051636b727d4360e11b81526004810184905283906000907f00000000000000000000000000000000000000000000000000000000000000006001600160a01b03169063d6e4fa8690602401602060405180830381865afa158015610aac573d6000803e3d6000fd5b505050506040513d601f19601f82011682018060405250810190610ad0919061298b565b90506000610ae16276a700836129ba565b905080421015610b26576040517f4d18339f00000000000000000000000000000000000000000000000000000000815242600482015260248101829052604401610982565b60405163c475abff60e01b8152600481018490526305a39a8060248201526000907f00000000000000000000000000000000000000000000000000000000000000006001600160a01b03169063c475abff906044016020604051808303816000875af1158015610b9a573d6000803e3d6000fd5b505050506040513d601f19601f82011682018060405250810190610bbe919061298b565b9050867f8c1769c9bb31bc3894133bf22a010cacd497583d40f32176b70d49ba0a53e4568b8b84604051610bf4939291906128bc565b60405180910390a250505050505050505050565b610c10611b80565b6040517fa9059cbb0000000000000000000000000000000000000000000000000000000081526001600160a01b0383811660048301526024820183905284169063a9059cbb906044016020604051808303816000875af1158015610c78573d6000803e3d6000fd5b505050506040513d601f19601f82011682018060405250810190610c9c919061296e565b50505050565b6000876224ea00811015610ccc57604051639a71997b60e01b815260048101829052602401610982565b8a5160208c01208515801590610ce957506001600160a01b038816155b15610d20576040517fd3f605c400000000000000000000000000000000000000000000000000000000815260040160405180910390fd5b808b8b8b8b8b8b8b8b604051602001610d4199989796959493929190612a5f565b60405160208183030381529060405280519060200120925050509998505050505050505050565b610d70611b80565b610d7a6000611da3565b565b6000610dbf8b8b8080601f0160208091040260200160405190810160405280939291908181526020018383808284376000920191909152508c9250611177915050565b60208101518151919250610dd291612ac1565b341015610df25760405163044044a560e21b815260040160405180910390fd5b6000610e088c8c8c8c8c8c8c8c8c8c6000611bda565b9050896001600160a01b03168c8c604051610e24929190612883565b60405180910390207f69e37f151eb98a09618ddaa80c8cfaf1ce5996867c489f45b555b412271ebf278e8e8660000151876020015187604051610e6b959493929190612ad4565b60405180910390a360208201518251610e849190612ac1565b341115610ed6576020820151825133916108fc91610ea29190612ac1565b610eac90346129ba565b6040518115909202916000818181858888f19350505050158015610ed4573d6000803e3d6000fd5b505b505050505050505050505050565b336001600160a01b038a1614610f1e5760405163113b199f60e01b81526001600160a01b038a166004820152336024820152604401610982565b6305a39a808814610f5e576040517fbac4faf100000000000000000000000000000000000000000000000000000000815260048101899052602401610982565b610f67896112c6565b15610fa9576040517f533d87dd0000000000000000000000000000000000000000000000000000000081526001600160a01b038a166004820152602401610982565b604051633d3ac1b560e01b81526001600160a01b037f00000000000000000000000000000000000000000000000000000000000000001690633d3ac1b590610ff79084908d90600401612943565b602060405180830381865afa158015611014573d6000803e3d6000fd5b505050506040513d601f19601f82011682018060405250810190611038919061296e565b61106057604051635199950b60e11b81526001600160a01b038a166004820152602401610982565b6040517f3682447e0000000000000000000000000000000000000000000000000000000081526001600160a01b038a811660048301527f00000000000000000000000000000000000000000000000000000000000000001690633682447e90602401600060405180830381600087803b1580156110dc57600080fd5b505af11580156110f0573d6000803e3d6000fd5b50505050600061110a8c8c8c8c8c8c8c8c8c8c6000611bda565b9050896001600160a01b03168c8c604051611126929190612883565b60405180910390207fc20d0170f1f4e2758fc10a41d3746bd99e421a29b0a75c445558d7119ff454e58e8e85604051611161939291906128bc565b60405180910390a3505050505050505050505050565b604080518082019091526000808252602082015282516020840120604051636b727d4360e11b8152600481018290527f00000000000000000000000000000000000000000000000000000000000000006001600160a01b03908116916350e9a7159187917f00000000000000000000000000000000000000000000000000000000000000009091169063d6e4fa8690602401602060405180830381865afa158015611226573d6000803e3d6000fd5b505050506040513d601f19601f8201168201806040525081019061124a919061298b565b866040518463ffffffff1660e01b815260040161126993929190612b05565b6040805180830381865afa158015611285573d6000803e3d6000fd5b505050506040513d601f19601f820116820180604052508101906112a99190612b2a565b949350505050565b600060036112be836116ef565b101592915050565b6040517fc3c5a5470000000000000000000000000000000000000000000000000000000081526001600160a01b0382811660048301526000917f00000000000000000000000000000000000000000000000000000000000000009091169063c3c5a54790602401602060405180830381865afa15801561134a573d6000803e3d6000fd5b505050506040513d601f19601f820116820180604052508101906106e0919061296e565b60008383604051611380929190612883565b604080519182900382206020601f8701819004810284018101909252858352925082916000916113cd91908890889081908401838280828437600092019190915250889250611177915050565b80519091503410156113f25760405163044044a560e21b815260040160405180910390fd5b60405163c475abff60e01b815260048101839052602481018590526000907f00000000000000000000000000000000000000000000000000000000000000006001600160a01b03169063c475abff906044016020604051808303816000875af1158015611463573d6000803e3d6000fd5b505050506040513d601f19601f82011682018060405250810190611487919061298b565b82519091503411156114cf57815133906108fc906114a590346129ba565b6040518115909202916000818181858888f193505050501580156114cd573d6000803e3d6000fd5b505b837f3da24c024582931cfaf8267d8ed24d13a82a8068d5bd337d30ec45cea4e506ae888834856040516115059493929190612b79565b60405180910390a250505050505050565b80516020820120600090611529836112b1565b80156115d257506040517f96e494e8000000000000000000000000000000000000000000000000000000008152600481018290527f00000000000000000000000000000000000000000000000000000000000000006001600160a01b0316906396e494e890602401602060405180830381865afa1580156115ae573d6000803e3d6000fd5b505050506040513d601f19601f820116820180604052508101906115d2919061296e565b9392505050565b6000818152600160205260409020544290611615907f000000000000000000000000000000000000000000000000000000000000000090612ac1565b1061164f576040517f0a059d7100000000000000000000000000000000000000000000000000000000815260048101829052602401610982565b6000908152600160205260409020429055565b61166a611b80565b6001600160a01b0381166116e65760405162461bcd60e51b815260206004820152602660248201527f4f776e61626c653a206e6577206f776e657220697320746865207a65726f206160448201527f64647265737300000000000000000000000000000000000000000000000000006064820152608401610982565b61072081611da3565b8051600090819081905b8082101561187557600085838151811061171557611715612ba0565b01602001516001600160f81b03191690507f800000000000000000000000000000000000000000000000000000000000000081101561176057611759600184612ac1565b9250611862565b7fe0000000000000000000000000000000000000000000000000000000000000006001600160f81b03198216101561179d57611759600284612ac1565b7ff0000000000000000000000000000000000000000000000000000000000000006001600160f81b0319821610156117da57611759600384612ac1565b7ff8000000000000000000000000000000000000000000000000000000000000006001600160f81b03198216101561181757611759600484612ac1565b7ffc000000000000000000000000000000000000000000000000000000000000006001600160f81b03198216101561185457611759600584612ac1565b61185f600684612ac1565b92505b508261186d81612bb6565b9350506116f9565b50909392505050565b606083600061188d85856129ba565b67ffffffffffffffff8111156118a5576118a5612359565b6040519080825280601f01601f1916602001820160405280156118cf576020820181803683370190505b509050845b84811015611941578281815181106118ee576118ee612ba0565b01602001516001600160f81b0319168261190888846129ba565b8151811061191857611918612ba0565b60200101906001600160f81b031916908160001a9053508061193981612bb6565b9150506118d4565b5095945050505050565b805160609060009081908490611962816002612ac1565b67ffffffffffffffff81111561197a5761197a612359565b6040519080825280601f01601f1916602001820160405280156119a4576020820181803683370190505b509450600093508084036119e957600060f81b856000815181106119ca576119ca612ba0565b60200101906001600160f81b031916908160001a905350505050915091565b60001981015b828181518110611a0157611a01612ba0565b01602001516001600160f81b0319167f2e0000000000000000000000000000000000000000000000000000000000000003611aab578360f81b868260010181518110611a4f57611a4f612ba0565b60200101906001600160f81b031916908160001a90535084611a78846001840160ff8816611b5c565b60408051602081019390935282015260600160405160208183030381529060405280519060200120945060009350611afb565b600184019350828181518110611ac357611ac3612ba0565b602001015160f81c60f81b868260010181518110611ae357611ae3612ba0565b60200101906001600160f81b031916908160001a9053505b8015611b0a57600019016119ef565b5083611b1b83600060ff8716611b5c565b6040805160208101939093528201526060016040516020818303038152906040528051906020012093508260f81b856000815181106119ca576119ca612ba0565b8251600090611b6b8385612ac1565b1115611b7657600080fd5b5091016020012090565b6000546001600160a01b03163314610d7a5760405162461bcd60e51b815260206004820181905260248201527f4f776e61626c653a2063616c6c6572206973206e6f7420746865206f776e65726044820152606401610982565b600081611c8457611c848c8c8080601f016020809104026020016040519081016040528093929190818152602001838380828437600081840152601f19601f820116905080830192505050505050508a611c7f8f8f8080601f016020809104026020016040519081016040528093929190818152602001838380828437600081840152601f19601f820116905080830192505050505050508e8e8e8e8e8e8e8e610ca2565b611e0b565b60007f00000000000000000000000000000000000000000000000000000000000000006001600160a01b031663f51c32f58e8e8e8e8d8a6040518763ffffffff1660e01b8152600401611cdc96959493929190612bcf565b6020604051808303816000875af1158015611cfb573d6000803e3d6000fd5b505050506040513d601f19601f82011682018060405250810190611d1f919061298b565b90508515611d4a57611d4a888e8e604051611d3b929190612883565b60405180910390208989611f75565b8415611d9357611d938d8d8080601f0160208091040260200160405190810160405280939291908181526020018383808284376000920191909152508c92503391506120589050565b9c9b505050505050505050505050565b600080546001600160a01b038381167fffffffffffffffffffffffff0000000000000000000000000000000000000000831681178455604051919092169283917f8be0079c531659141344cd1fd0a4f28419497f9722a3daafe3b4186f6b6457e09190a35050565b816224ea00811015611e3357604051639a71997b60e01b815260048101829052602401610982565b6000828152600160205260409020544290611e6f907f000000000000000000000000000000000000000000000000000000000000000090612ac1565b1115611eaa576040517f5320bcf900000000000000000000000000000000000000000000000000000000815260048101839052602401610982565b6000828152600160205260409020544290611ee6907f000000000000000000000000000000000000000000000000000000000000000090612ac1565b11611f20576040517fcb7690d700000000000000000000000000000000000000000000000000000000815260048101839052602401610982565b611f2984611516565b611f6157836040517f477707e800000000000000000000000000000000000000000000000000000000815260040161098291906121a1565b506000908152600160205260408120555050565b604080517f0000000000000000000000000000000000000000000000000000000000000000602080830191909152818301869052825180830384018152606083019384905280519101207fe32954eb0000000000000000000000000000000000000000000000000000000090925285906001600160a01b0382169063e32954eb9061200890859088908890606401612c19565b6000604051808303816000875af1158015612027573d6000803e3d6000fd5b505050506040513d6000823e601f3d908101601f1916820160405261204f9190810190612c3c565b50505050505050565b7f00000000000000000000000000000000000000000000000000000000000000006001600160a01b0316637a806d6b33838587600260405160200161209e929190612d3b565b6040516020818303038152906040526040518563ffffffff1660e01b81526004016120cc9493929190612def565b6020604051808303816000875af11580156120eb573d6000803e3d6000fd5b505050506040513d601f19601f82011682018060405250810190610c9c919061298b565b60006020828403121561212157600080fd5b81357fffffffff00000000000000000000000000000000000000000000000000000000811681146115d257600080fd5b60005b8381101561216c578181015183820152602001612154565b50506000910152565b6000815180845261218d816020860160208601612151565b601f01601f19169290920160200192915050565b6020815260006115d26020830184612175565b60008083601f8401126121c657600080fd5b50813567ffffffffffffffff8111156121de57600080fd5b6020830191508360208285010111156121f657600080fd5b9250929050565b6001600160a01b038116811461072057600080fd5b803561221d816121fd565b919050565b60008083601f84011261223457600080fd5b50813567ffffffffffffffff81111561224c57600080fd5b6020830191508360208260051b85010111156121f657600080fd5b803561ffff8116811461221d57600080fd5b801515811461072057600080fd5b803561221d81612279565b600080600080600080600080600060e08a8c0312156122b057600080fd5b893567ffffffffffffffff808211156122c857600080fd5b6122d48d838e016121b4565b909b50995060208c013591506122e9826121fd565b90975060408b0135965060608b013590612302826121fd565b90955060808b0135908082111561231857600080fd5b506123258c828d01612222565b9095509350612338905060a08b01612267565b915060c08a013561234881612279565b809150509295985092959850929598565b634e487b7160e01b600052604160045260246000fd5b604051601f8201601f1916810167ffffffffffffffff8111828210171561239857612398612359565b604052919050565b600067ffffffffffffffff8211156123ba576123ba612359565b50601f01601f191660200190565b600082601f8301126123d957600080fd5b81356123ec6123e7826123a0565b61236f565b81815284602083860101111561240157600080fd5b816020850160208301376000918101602001919091529392505050565b60008060006040848603121561243357600080fd5b833567ffffffffffffffff8082111561244b57600080fd5b612457878388016121b4565b9095509350602086013591508082111561247057600080fd5b5061247d868287016123c8565b9150509250925092565b60008060006060848603121561249c57600080fd5b83356124a7816121fd565b925060208401356124b7816121fd565b929592945050506040919091013590565b60008060008060008060008060006101008a8c0312156124e757600080fd5b893567ffffffffffffffff808211156124ff57600080fd5b61250b8d838e016123c8565b9a5060208c0135915061251d826121fd565b90985060408b0135975060608b0135965060808b01359061253d826121fd565b90955060a08b0135908082111561255357600080fd5b506125608c828d01612222565b90955093505060c08a013561257481612279565b915061258260e08b01612267565b90509295985092959850929598565b6000806000806000806000806000806101008b8d0312156125b157600080fd5b8a3567ffffffffffffffff808211156125c957600080fd5b6125d58e838f016121b4565b909c509a5060208d013591506125ea826121fd565b90985060408c0135975060608c0135965060808c01359061260a826121fd565b90955060a08c0135908082111561262057600080fd5b5061262d8d828e01612222565b90955093505060c08b013561264181612279565b915061264f60e08c01612267565b90509295989b9194979a5092959850565b60008060008060008060008060008060006101208c8e03121561268257600080fd5b67ffffffffffffffff808d35111561269957600080fd5b6126a68e8e358f016121b4565b909c509a506126b760208e01612212565b995060408d0135985060608d013597506126d360808e01612212565b96508060a08e013511156126e657600080fd5b6126f68e60a08f01358f01612222565b909650945061270760c08e01612287565b935061271560e08e01612267565b9250806101008e0135111561272957600080fd5b5061273b8d6101008e01358e016123c8565b90509295989b509295989b9093969950565b60006020828403121561275f57600080fd5b5035919050565b6000806040838503121561277957600080fd5b823567ffffffffffffffff81111561279057600080fd5b61279c858286016123c8565b95602094909401359450505050565b6000602082840312156127bd57600080fd5b813567ffffffffffffffff8111156127d457600080fd5b6112a9848285016123c8565b6000602082840312156127f257600080fd5b81356115d2816121fd565b60008060006040848603121561281257600080fd5b833567ffffffffffffffff81111561282957600080fd5b612835868287016121b4565b909790965060209590950135949350505050565b600181811c9082168061285d57607f821691505b60208210810361287d57634e487b7160e01b600052602260045260246000fd5b50919050565b8183823760009101908152919050565b81835281816020850137506000828201602090810191909152601f909101601f19169091010190565b6040815260006128d0604083018587612893565b9050826020830152949350505050565b6000806000606084860312156128f557600080fd5b8351612900816121fd565b602085015190935063ffffffff8116811461291a57600080fd5b604085015190925067ffffffffffffffff8116811461293857600080fd5b809150509250925092565b6040815260006129566040830185612175565b90506001600160a01b03831660208301529392505050565b60006020828403121561298057600080fd5b81516115d281612279565b60006020828403121561299d57600080fd5b5051919050565b634e487b7160e01b600052601160045260246000fd5b818103818111156106e0576106e06129a4565b81835260006020808501808196508560051b810191508460005b87811015612a525782840389528135601e19883603018112612a0857600080fd5b8701858101903567ffffffffffffffff811115612a2457600080fd5b803603821315612a3357600080fd5b612a3e868284612893565b9a87019a95505050908401906001016129e7565b5091979650505050505050565b60006101008b83526001600160a01b03808c1660208501528a60408501528960608501528089166080850152508060a0840152612a9f81840187896129cd565b94151560c0840152505061ffff9190911660e090910152979650505050505050565b808201808211156106e0576106e06129a4565b608081526000612ae8608083018789612893565b602083019590955250604081019290925260609091015292915050565b606081526000612b186060830186612175565b60208301949094525060400152919050565b600060408284031215612b3c57600080fd5b6040516040810181811067ffffffffffffffff82111715612b5f57612b5f612359565b604052825181526020928301519281019290925250919050565b606081526000612b8d606083018688612893565b6020830194909452506040015292915050565b634e487b7160e01b600052603260045260246000fd5b600060018201612bc857612bc86129a4565b5060010190565b60a081526000612be360a08301888a612893565b90506001600160a01b03808716602084015285604084015280851660608401525061ffff83166080830152979650505050505050565b838152604060208201526000612c336040830184866129cd565b95945050505050565b60006020808385031215612c4f57600080fd5b825167ffffffffffffffff80821115612c6757600080fd5b818501915085601f830112612c7b57600080fd5b815181811115612c8d57612c8d612359565b8060051b612c9c85820161236f565b9182528381018501918581019089841115612cb657600080fd5b86860192505b83831015612d2e57825185811115612cd45760008081fd5b8601603f81018b13612ce65760008081fd5b878101516040612cf86123e7836123a0565b8281528d82848601011115612d0d5760008081fd5b612d1c838c8301848701612151565b85525050509186019190860190612cbc565b9998505050505050505050565b600083516020612d4e8285838901612151565b845491840191600090600181811c9080831680612d6c57607f831692505b8583108103612d8957634e487b7160e01b85526022600452602485fd5b808015612d9d5760018114612db257612ddf565b60ff1985168852831515840288019550612ddf565b60008b81526020902060005b85811015612dd75781548a820152908401908801612dbe565b505083880195505b50939a9950505050505050505050565b60006001600160a01b038087168352808616602084015280851660408401525060806060830152612e236080830184612175565b969550505050505056fea2646970667358221220b5ad2f9ab025fc86e44fb8fc1f1d35c7007fb0fc9eceef8b949fb196b54a890264736f6c63430008110033",
  "devdoc": {
    "details": "A registrar controller for registering and renewing names at fixed cost.",
    "kind": "dev",
    "methods": {
      "constructor": {
        "params": {
          "_base": "Base registrar address.",
          "_baseDomain": "Base domain string.",
          "_baseNode": "Base node hash.",
          "_ens": "ENS registry address.",
          "_maxCommitmentAge": "Maximum commitment age.",
          "_minCommitmentAge": "Minimum commitment age.",
          "_nameWrapper": "Name wrapper address.",
          "_pohRegistrationManager": "POH registration manager address.",
          "_pohVerifier": "POH Verifier address.",
          "_prices": "Price oracle address.",
          "_reverseRegistrar": "Reverse registrar address."
        }
      },
      "owner()": {
        "details": "Returns the address of the current owner."
      },
      "ownerRegister(string,address,uint256,address,bytes[],uint16,bool)": {
        "details": "Allows a specified owner to register a name directly, with an option to bypass the commitment process.",
        "params": {
          "data": "An array of bytes, possibly representing records to be set for the domain.",
          "duration": "How long the registration is valid.",
          "name": "The domain name to be registered.",
          "owner": "The address that will own the registered domain.",
          "ownerControlledFuses": "A parameter likely related to permissions or security settings for the domain.",
          "resolver": "The address of the resolver contract for this domain.",
          "reverseRecord": "A boolean indicating whether a reverse record should be set."
        }
      },
      "recoverFunds(address,address,uint256)": {
        "details": "The contract is Ownable and only the owner can call the recover function.",
        "params": {
          "_amount": "The amount of tokens to recover.",
          "_to": "The address to send the tokens to.",
          "_token": "The address of the ERC20 token to recover"
        }
      },
      "redeemed(address)": {
        "params": {
          "_address": "to check"
        }
      },
      "register(string,address,uint256,bytes32,address,bytes[],bool,uint16)": {
        "details": "Most of the logic has been moved to the internal _register() to be used by registerPOH as wellOnly the price check and event are kept",
        "params": {
          "data": "the operations to apply to this domain after the registration (eg: setRecords)",
          "duration": "length of the registration",
          "name": "to register",
          "owner": "of the name",
          "ownerControlledFuses": "fuses",
          "resolver": "address to set for this domain(Default is public resolver address)",
          "reverseRecord": "boolean to activate the reverse record for this domain",
          "secret": "hash of the commitment made before the registration"
        }
      },
      "registerPoh(string,address,uint256,bytes32,address,bytes[],bool,uint16,bytes)": {
        "params": {
          "data": "the operations to apply to this domain after the registration (eg: setRecords)",
          "duration": "length of the registration",
          "name": "to register",
          "owner": "of the name",
          "ownerControlledFuses": "fuses",
          "resolver": "address to set for this domain(Default is public resolver address)",
          "reverseRecord": "boolean to activate the reverse record for this domain",
          "secret": "hash of the commitment made before the registration",
          "signature": "the POH signature crafted by the POH API to verify that the owner address has POH"
        }
      },
      "renewPoh(string,bytes)": {
        "details": "Can only renew 3 months before the expiry dateThe name stays locked for the user until 3 months after the expiry date, after that, someone else can registerThis gives the owner a safe period of 6 months(GRACE_PERIOD * 2) to renew his domain",
        "params": {
          "name": "to renew",
          "signature": "POH of the owner to renew"
        }
      },
      "renounceOwnership()": {
        "details": "Leaves the contract without owner. It will not be possible to call `onlyOwner` functions. Can only be called by the current owner. NOTE: Renouncing ownership will leave the contract without an owner, thereby disabling any functionality that is only available to the owner."
      },
      "transferOwnership(address)": {
        "details": "Transfers ownership of the contract to a new account (`newOwner`). Can only be called by the current owner."
      }
    },
    "stateVariables": {
      "POH_REGISTRATION_DURATION": {
        "details": "Registration through POH is fixed to a 3 years duration"
      },
      "baseDomain": {
        "details": "string of the base domain configured (eg: 'linea.eth')"
      },
      "baseNode": {
        "details": "node of the base domain configured (eg: namehash(linea.eth))"
      },
      "pohRegistrationManager": {
        "details": "PohRegistrationManager contract to keep track of the addresses that used their POH registration (One by address)"
      },
      "pohVerifier": {
        "details": "PohVerifier contract that is used to verify the POH signature"
      }
    },
    "version": 1
  },
  "userdoc": {
    "kind": "user",
    "methods": {
      "constructor": {
        "notice": "Create registrar for the base domain passed in parameter."
      },
      "recoverFunds(address,address,uint256)": {
        "notice": "Recover ERC20 tokens sent to the contract by mistake."
      },
      "redeemed(address)": {
        "notice": "Check if an address has already used its POH or not"
      },
      "register(string,address,uint256,bytes32,address,bytes[],bool,uint16)": {
        "notice": "Register a new domain using ENS standard registration"
      },
      "registerPoh(string,address,uint256,bytes32,address,bytes[],bool,uint16,bytes)": {
        "notice": "Register a new domain using POH for free, one address that has POH can register only one domain"
      },
      "renewPoh(string,bytes)": {
        "notice": "Same as renew method except that it uses the user's POH to renew for free"
      }
    },
    "version": 1
  },
  "storageLayout": {
    "storage": [
      {
        "astId": 444,
        "contract": "contracts/ethregistrar/ETHRegistrarController.sol:ETHRegistrarController",
        "label": "_owner",
        "offset": 0,
        "slot": "0",
        "type": "t_address"
      },
      {
        "astId": 14894,
        "contract": "contracts/ethregistrar/ETHRegistrarController.sol:ETHRegistrarController",
        "label": "commitments",
        "offset": 0,
        "slot": "1",
        "type": "t_mapping(t_bytes32,t_uint256)"
      },
      {
        "astId": 14897,
        "contract": "contracts/ethregistrar/ETHRegistrarController.sol:ETHRegistrarController",
        "label": "baseDomain",
        "offset": 0,
        "slot": "2",
        "type": "t_string_storage"
      }
    ],
    "types": {
      "t_address": {
        "encoding": "inplace",
        "label": "address",
        "numberOfBytes": "20"
      },
      "t_bytes32": {
        "encoding": "inplace",
        "label": "bytes32",
        "numberOfBytes": "32"
      },
      "t_mapping(t_bytes32,t_uint256)": {
        "encoding": "mapping",
        "key": "t_bytes32",
        "label": "mapping(bytes32 => uint256)",
        "numberOfBytes": "32",
        "value": "t_uint256"
      },
      "t_string_storage": {
        "encoding": "bytes",
        "label": "string",
        "numberOfBytes": "32"
      },
      "t_uint256": {
        "encoding": "inplace",
        "label": "uint256",
        "numberOfBytes": "32"
      }
    }
  }
}