{
  "address": "0xA53cca02F98D590819141Aa85C891e2Af713C223",
  "abi": [
    {
      "inputs": [
        {
          "internalType": "contract ENS",
          "name": "_ens",
          "type": "address"
        },
        {
          "internalType": "contract IBaseRegistrar",
          "name": "_registrar",
          "type": "address"
        },
        {
          "internalType": "contract IMetadataService",
          "name": "_metadataService",
          "type": "address"
        },
        {
          "internalType": "bytes32",
          "name": "_baseNode",
          "type": "bytes32"
        },
        {
          "internalType": "bytes",
          "name": "_baseNodeDnsEncoded",
          "type": "bytes"
        }
      ],
      "stateMutability": "nonpayable",
      "type": "constructor"
    },
    {
      "inputs": [],
      "name": "BaseNodeAsETHNodeOrROOTNodeNotAllowed",
      "type": "error"
    },
    {
      "inputs": [],
      "name": "CannotUpgrade",
      "type": "error"
    },
    {
      "inputs": [],
      "name": "DifferentBaseNodeBaseNodeDnsEncoded",
      "type": "error"
    },
    {
      "inputs": [],
      "name": "EmptyDataNotAllowed",
      "type": "error"
    },
    {
      "inputs": [],
      "name": "IncompatibleParent",
      "type": "error"
    },
    {
      "inputs": [
        {
          "internalType": "address",
          "name": "owner",
          "type": "address"
        }
      ],
      "name": "IncorrectTargetOwner",
      "type": "error"
    },
    {
      "inputs": [],
      "name": "IncorrectTokenType",
      "type": "error"
    },
    {
      "inputs": [
        {
          "internalType": "bytes32",
          "name": "labelHash",
          "type": "bytes32"
        },
        {
          "internalType": "bytes32",
          "name": "expectedLabelhash",
          "type": "bytes32"
        }
      ],
      "name": "LabelMismatch",
      "type": "error"
    },
    {
      "inputs": [
        {
          "internalType": "string",
          "name": "label",
          "type": "string"
        }
      ],
      "name": "LabelTooLong",
      "type": "error"
    },
    {
      "inputs": [],
      "name": "LabelTooShort",
      "type": "error"
    },
    {
      "inputs": [],
      "name": "NameIsNotWrapped",
      "type": "error"
    },
    {
      "inputs": [
        {
          "internalType": "bytes32",
          "name": "node",
          "type": "bytes32"
        }
      ],
      "name": "OperationProhibited",
      "type": "error"
    },
    {
      "inputs": [
        {
          "internalType": "bytes32",
          "name": "node",
          "type": "bytes32"
        },
        {
          "internalType": "address",
          "name": "addr",
          "type": "address"
        }
      ],
      "name": "Unauthorised",
      "type": "error"
    },
    {
      "anonymous": false,
      "inputs": [
        {
          "indexed": true,
          "internalType": "address",
          "name": "owner",
          "type": "address"
        },
        {
          "indexed": true,
          "internalType": "address",
          "name": "approved",
          "type": "address"
        },
        {
          "indexed": true,
          "internalType": "uint256",
          "name": "tokenId",
          "type": "uint256"
        }
      ],
      "name": "Approval",
      "type": "event"
    },
    {
      "anonymous": false,
      "inputs": [
        {
          "indexed": true,
          "internalType": "address",
          "name": "account",
          "type": "address"
        },
        {
          "indexed": true,
          "internalType": "address",
          "name": "operator",
          "type": "address"
        },
        {
          "indexed": false,
          "internalType": "bool",
          "name": "approved",
          "type": "bool"
        }
      ],
      "name": "ApprovalForAll",
      "type": "event"
    },
    {
      "anonymous": false,
      "inputs": [
        {
          "indexed": true,
          "internalType": "address",
          "name": "controller",
          "type": "address"
        },
        {
          "indexed": false,
          "internalType": "bool",
          "name": "active",
          "type": "bool"
        }
      ],
      "name": "ControllerChanged",
      "type": "event"
    },
    {
      "anonymous": false,
      "inputs": [
        {
          "indexed": true,
          "internalType": "bytes32",
          "name": "node",
          "type": "bytes32"
        },
        {
          "indexed": false,
          "internalType": "uint64",
          "name": "expiry",
          "type": "uint64"
        }
      ],
      "name": "ExpiryExtended",
      "type": "event"
    },
    {
      "anonymous": false,
      "inputs": [
        {
          "indexed": true,
          "internalType": "bytes32",
          "name": "node",
          "type": "bytes32"
        },
        {
          "indexed": false,
          "internalType": "uint32",
          "name": "fuses",
          "type": "uint32"
        }
      ],
      "name": "FusesSet",
      "type": "event"
    },
    {
      "anonymous": false,
      "inputs": [
        {
          "indexed": true,
          "internalType": "bytes32",
          "name": "node",
          "type": "bytes32"
        },
        {
          "indexed": false,
          "internalType": "address",
          "name": "owner",
          "type": "address"
        }
      ],
      "name": "NameUnwrapped",
      "type": "event"
    },
    {
      "anonymous": false,
      "inputs": [
        {
          "indexed": true,
          "internalType": "bytes32",
          "name": "node",
          "type": "bytes32"
        },
        {
          "indexed": false,
          "internalType": "bytes",
          "name": "name",
          "type": "bytes"
        },
        {
          "indexed": false,
          "internalType": "address",
          "name": "owner",
          "type": "address"
        },
        {
          "indexed": false,
          "internalType": "uint32",
          "name": "fuses",
          "type": "uint32"
        },
        {
          "indexed": false,
          "internalType": "uint64",
          "name": "expiry",
          "type": "uint64"
        }
      ],
      "name": "NameWrapped",
      "type": "event"
    },
    {
      "anonymous": false,
      "inputs": [
        {
          "indexed": true,
          "internalType": "address",
          "name": "previousOwner",
          "type": "address"
        },
        {
          "indexed": true,
          "internalType": "address",
          "name": "newOwner",
          "type": "address"
        }
      ],
      "name": "OwnershipTransferred",
      "type": "event"
    },
    {
      "anonymous": false,
      "inputs": [
        {
          "indexed": true,
          "internalType": "address",
          "name": "operator",
          "type": "address"
        },
        {
          "indexed": true,
          "internalType": "address",
          "name": "from",
          "type": "address"
        },
        {
          "indexed": true,
          "internalType": "address",
          "name": "to",
          "type": "address"
        },
        {
          "indexed": false,
          "internalType": "uint256[]",
          "name": "ids",
          "type": "uint256[]"
        },
        {
          "indexed": false,
          "internalType": "uint256[]",
          "name": "values",
          "type": "uint256[]"
        }
      ],
      "name": "TransferBatch",
      "type": "event"
    },
    {
      "anonymous": false,
      "inputs": [
        {
          "indexed": true,
          "internalType": "address",
          "name": "operator",
          "type": "address"
        },
        {
          "indexed": true,
          "internalType": "address",
          "name": "from",
          "type": "address"
        },
        {
          "indexed": true,
          "internalType": "address",
          "name": "to",
          "type": "address"
        },
        {
          "indexed": false,
          "internalType": "uint256",
          "name": "id",
          "type": "uint256"
        },
        {
          "indexed": false,
          "internalType": "uint256",
          "name": "value",
          "type": "uint256"
        }
      ],
      "name": "TransferSingle",
      "type": "event"
    },
    {
      "anonymous": false,
      "inputs": [
        {
          "indexed": false,
          "internalType": "string",
          "name": "value",
          "type": "string"
        },
        {
          "indexed": true,
          "internalType": "uint256",
          "name": "id",
          "type": "uint256"
        }
      ],
      "name": "URI",
      "type": "event"
    },
    {
      "inputs": [
        {
          "internalType": "uint256",
          "name": "",
          "type": "uint256"
        }
      ],
      "name": "_tokens",
      "outputs": [
        {
          "internalType": "uint256",
          "name": "",
          "type": "uint256"
        }
      ],
      "stateMutability": "view",
      "type": "function"
    },
    {
      "inputs": [
        {
          "internalType": "bytes32",
          "name": "node",
          "type": "bytes32"
        },
        {
          "internalType": "uint32",
          "name": "fuseMask",
          "type": "uint32"
        }
      ],
      "name": "allFusesBurned",
      "outputs": [
        {
          "internalType": "bool",
          "name": "",
          "type": "bool"
        }
      ],
      "stateMutability": "view",
      "type": "function"
    },
    {
      "inputs": [
        {
          "internalType": "address",
          "name": "to",
          "type": "address"
        },
        {
          "internalType": "uint256",
          "name": "tokenId",
          "type": "uint256"
        }
      ],
      "name": "approve",
      "outputs": [],
      "stateMutability": "nonpayable",
      "type": "function"
    },
    {
      "inputs": [
        {
          "internalType": "address",
          "name": "account",
          "type": "address"
        },
        {
          "internalType": "uint256",
          "name": "id",
          "type": "uint256"
        }
      ],
      "name": "balanceOf",
      "outputs": [
        {
          "internalType": "uint256",
          "name": "",
          "type": "uint256"
        }
      ],
      "stateMutability": "view",
      "type": "function"
    },
    {
      "inputs": [
        {
          "internalType": "address[]",
          "name": "accounts",
          "type": "address[]"
        },
        {
          "internalType": "uint256[]",
          "name": "ids",
          "type": "uint256[]"
        }
      ],
      "name": "balanceOfBatch",
      "outputs": [
        {
          "internalType": "uint256[]",
          "name": "",
          "type": "uint256[]"
        }
      ],
      "stateMutability": "view",
      "type": "function"
    },
    {
      "inputs": [],
      "name": "baseNode",
      "outputs": [
        {
          "internalType": "bytes32",
          "name": "",
          "type": "bytes32"
        }
      ],
      "stateMutability": "view",
      "type": "function"
    },
    {
      "inputs": [
        {
          "internalType": "bytes32",
          "name": "node",
          "type": "bytes32"
        },
        {
          "internalType": "address",
          "name": "addr",
          "type": "address"
        }
      ],
      "name": "canExtendSubnames",
      "outputs": [
        {
          "internalType": "bool",
          "name": "",
          "type": "bool"
        }
      ],
      "stateMutability": "view",
      "type": "function"
    },
    {
      "inputs": [
        {
          "internalType": "bytes32",
          "name": "node",
          "type": "bytes32"
        },
        {
          "internalType": "address",
          "name": "addr",
          "type": "address"
        }
      ],
      "name": "canModifyName",
      "outputs": [
        {
          "internalType": "bool",
          "name": "",
          "type": "bool"
        }
      ],
      "stateMutability": "view",
      "type": "function"
    },
    {
      "inputs": [
        {
          "internalType": "address",
          "name": "",
          "type": "address"
        }
      ],
      "name": "controllers",
      "outputs": [
        {
          "internalType": "bool",
          "name": "",
          "type": "bool"
        }
      ],
      "stateMutability": "view",
      "type": "function"
    },
    {
      "inputs": [],
      "name": "ens",
      "outputs": [
        {
          "internalType": "contract ENS",
          "name": "",
          "type": "address"
        }
      ],
      "stateMutability": "view",
      "type": "function"
    },
    {
      "inputs": [
        {
          "internalType": "bytes32",
          "name": "parentNode",
          "type": "bytes32"
        },
        {
          "internalType": "bytes32",
          "name": "labelhash",
          "type": "bytes32"
        },
        {
          "internalType": "uint64",
          "name": "expiry",
          "type": "uint64"
        }
      ],
      "name": "extendExpiry",
      "outputs": [
        {
          "internalType": "uint64",
          "name": "",
          "type": "uint64"
        }
      ],
      "stateMutability": "nonpayable",
      "type": "function"
    },
    {
      "inputs": [
        {
          "internalType": "uint256",
          "name": "id",
          "type": "uint256"
        }
      ],
      "name": "getApproved",
      "outputs": [
        {
          "internalType": "address",
          "name": "operator",
          "type": "address"
        }
      ],
      "stateMutability": "view",
      "type": "function"
    },
    {
      "inputs": [
        {
          "internalType": "uint256",
          "name": "id",
          "type": "uint256"
        }
      ],
      "name": "getData",
      "outputs": [
        {
          "internalType": "address",
          "name": "owner",
          "type": "address"
        },
        {
          "internalType": "uint32",
          "name": "fuses",
          "type": "uint32"
        },
        {
          "internalType": "uint64",
          "name": "expiry",
          "type": "uint64"
        }
      ],
      "stateMutability": "view",
      "type": "function"
    },
    {
      "inputs": [
        {
          "internalType": "address",
          "name": "account",
          "type": "address"
        },
        {
          "internalType": "address",
          "name": "operator",
          "type": "address"
        }
      ],
      "name": "isApprovedForAll",
      "outputs": [
        {
          "internalType": "bool",
          "name": "",
          "type": "bool"
        }
      ],
      "stateMutability": "view",
      "type": "function"
    },
    {
      "inputs": [
        {
          "internalType": "bytes32",
          "name": "parentNode",
          "type": "bytes32"
        },
        {
          "internalType": "bytes32",
          "name": "labelhash",
          "type": "bytes32"
        }
      ],
      "name": "isWrapped",
      "outputs": [
        {
          "internalType": "bool",
          "name": "",
          "type": "bool"
        }
      ],
      "stateMutability": "view",
      "type": "function"
    },
    {
      "inputs": [
        {
          "internalType": "bytes32",
          "name": "node",
          "type": "bytes32"
        }
      ],
      "name": "isWrapped",
      "outputs": [
        {
          "internalType": "bool",
          "name": "",
          "type": "bool"
        }
      ],
      "stateMutability": "view",
      "type": "function"
    },
    {
      "inputs": [],
      "name": "metadataService",
      "outputs": [
        {
          "internalType": "contract IMetadataService",
          "name": "",
          "type": "address"
        }
      ],
      "stateMutability": "view",
      "type": "function"
    },
    {
      "inputs": [],
      "name": "name",
      "outputs": [
        {
          "internalType": "string",
          "name": "",
          "type": "string"
        }
      ],
      "stateMutability": "view",
      "type": "function"
    },
    {
      "inputs": [
        {
          "internalType": "bytes32",
          "name": "",
          "type": "bytes32"
        }
      ],
      "name": "names",
      "outputs": [
        {
          "internalType": "bytes",
          "name": "",
          "type": "bytes"
        }
      ],
      "stateMutability": "view",
      "type": "function"
    },
    {
      "inputs": [
        {
          "internalType": "address",
          "name": "to",
          "type": "address"
        },
        {
          "internalType": "address",
          "name": "",
          "type": "address"
        },
        {
          "internalType": "uint256",
          "name": "tokenId",
          "type": "uint256"
        },
        {
          "internalType": "bytes",
          "name": "data",
          "type": "bytes"
        }
      ],
      "name": "onERC721Received",
      "outputs": [
        {
          "internalType": "bytes4",
          "name": "",
          "type": "bytes4"
        }
      ],
      "stateMutability": "nonpayable",
      "type": "function"
    },
    {
      "inputs": [],
      "name": "owner",
      "outputs": [
        {
          "internalType": "address",
          "name": "",
          "type": "address"
        }
      ],
      "stateMutability": "view",
      "type": "function"
    },
    {
      "inputs": [
        {
          "internalType": "uint256",
          "name": "id",
          "type": "uint256"
        }
      ],
      "name": "ownerOf",
      "outputs": [
        {
          "internalType": "address",
          "name": "owner",
          "type": "address"
        }
      ],
      "stateMutability": "view",
      "type": "function"
    },
    {
      "inputs": [
        {
          "internalType": "address",
          "name": "_token",
          "type": "address"
        },
        {
          "internalType": "address",
          "name": "_to",
          "type": "address"
        },
        {
          "internalType": "uint256",
          "name": "_amount",
          "type": "uint256"
        }
      ],
      "name": "recoverFunds",
      "outputs": [],
      "stateMutability": "nonpayable",
      "type": "function"
    },
    {
      "inputs": [
        {
          "internalType": "string",
          "name": "label",
          "type": "string"
        },
        {
          "internalType": "address",
          "name": "wrappedOwner",
          "type": "address"
        },
        {
          "internalType": "uint256",
          "name": "duration",
          "type": "uint256"
        },
        {
          "internalType": "address",
          "name": "resolver",
          "type": "address"
        },
        {
          "internalType": "uint16",
          "name": "ownerControlledFuses",
          "type": "uint16"
        }
      ],
      "name": "registerAndWrap",
      "outputs": [
        {
          "internalType": "uint256",
          "name": "registrarExpiry",
          "type": "uint256"
        }
      ],
      "stateMutability": "nonpayable",
      "type": "function"
    },
    {
      "inputs": [],
      "name": "registrar",
      "outputs": [
        {
          "internalType": "contract IBaseRegistrar",
          "name": "",
          "type": "address"
        }
      ],
      "stateMutability": "view",
      "type": "function"
    },
    {
      "inputs": [
        {
          "internalType": "uint256",
          "name": "tokenId",
          "type": "uint256"
        },
        {
          "internalType": "uint256",
          "name": "duration",
          "type": "uint256"
        }
      ],
      "name": "renew",
      "outputs": [
        {
          "internalType": "uint256",
          "name": "expires",
          "type": "uint256"
        }
      ],
      "stateMutability": "nonpayable",
      "type": "function"
    },
    {
      "inputs": [],
      "name": "renounceOwnership",
      "outputs": [],
      "stateMutability": "nonpayable",
      "type": "function"
    },
    {
      "inputs": [
        {
          "internalType": "address",
          "name": "from",
          "type": "address"
        },
        {
          "internalType": "address",
          "name": "to",
          "type": "address"
        },
        {
          "internalType": "uint256[]",
          "name": "ids",
          "type": "uint256[]"
        },
        {
          "internalType": "uint256[]",
          "name": "amounts",
          "type": "uint256[]"
        },
        {
          "internalType": "bytes",
          "name": "data",
          "type": "bytes"
        }
      ],
      "name": "safeBatchTransferFrom",
      "outputs": [],
      "stateMutability": "nonpayable",
      "type": "function"
    },
    {
      "inputs": [
        {
          "internalType": "address",
          "name": "from",
          "type": "address"
        },
        {
          "internalType": "address",
          "name": "to",
          "type": "address"
        },
        {
          "internalType": "uint256",
          "name": "id",
          "type": "uint256"
        },
        {
          "internalType": "uint256",
          "name": "amount",
          "type": "uint256"
        },
        {
          "internalType": "bytes",
          "name": "data",
          "type": "bytes"
        }
      ],
      "name": "safeTransferFrom",
      "outputs": [],
      "stateMutability": "nonpayable",
      "type": "function"
    },
    {
      "inputs": [
        {
          "internalType": "address",
          "name": "operator",
          "type": "address"
        },
        {
          "internalType": "bool",
          "name": "approved",
          "type": "bool"
        }
      ],
      "name": "setApprovalForAll",
      "outputs": [],
      "stateMutability": "nonpayable",
      "type": "function"
    },
    {
      "inputs": [
        {
          "internalType": "bytes32",
          "name": "parentNode",
          "type": "bytes32"
        },
        {
          "internalType": "bytes32",
          "name": "labelhash",
          "type": "bytes32"
        },
        {
          "internalType": "uint32",
          "name": "fuses",
          "type": "uint32"
        },
        {
          "internalType": "uint64",
          "name": "expiry",
          "type": "uint64"
        }
      ],
      "name": "setChildFuses",
      "outputs": [],
      "stateMutability": "nonpayable",
      "type": "function"
    },
    {
      "inputs": [
        {
          "internalType": "address",
          "name": "controller",
          "type": "address"
        },
        {
          "internalType": "bool",
          "name": "active",
          "type": "bool"
        }
      ],
      "name": "setController",
      "outputs": [],
      "stateMutability": "nonpayable",
      "type": "function"
    },
    {
      "inputs": [
        {
          "internalType": "bytes32",
          "name": "node",
          "type": "bytes32"
        },
        {
          "internalType": "uint16",
          "name": "ownerControlledFuses",
          "type": "uint16"
        }
      ],
      "name": "setFuses",
      "outputs": [
        {
          "internalType": "uint32",
          "name": "",
          "type": "uint32"
        }
      ],
      "stateMutability": "nonpayable",
      "type": "function"
    },
    {
      "inputs": [
        {
          "internalType": "contract IMetadataService",
          "name": "_metadataService",
          "type": "address"
        }
      ],
      "name": "setMetadataService",
      "outputs": [],
      "stateMutability": "nonpayable",
      "type": "function"
    },
    {
      "inputs": [
        {
          "internalType": "bytes32",
          "name": "node",
          "type": "bytes32"
        },
        {
          "internalType": "address",
          "name": "owner",
          "type": "address"
        },
        {
          "internalType": "address",
          "name": "resolver",
          "type": "address"
        },
        {
          "internalType": "uint64",
          "name": "ttl",
          "type": "uint64"
        }
      ],
      "name": "setRecord",
      "outputs": [],
      "stateMutability": "nonpayable",
      "type": "function"
    },
    {
      "inputs": [
        {
          "internalType": "bytes32",
          "name": "node",
          "type": "bytes32"
        },
        {
          "internalType": "address",
          "name": "resolver",
          "type": "address"
        }
      ],
      "name": "setResolver",
      "outputs": [],
      "stateMutability": "nonpayable",
      "type": "function"
    },
    {
      "inputs": [
        {
          "internalType": "bytes32",
          "name": "parentNode",
          "type": "bytes32"
        },
        {
          "internalType": "string",
          "name": "label",
          "type": "string"
        },
        {
          "internalType": "address",
          "name": "owner",
          "type": "address"
        },
        {
          "internalType": "uint32",
          "name": "fuses",
          "type": "uint32"
        },
        {
          "internalType": "uint64",
          "name": "expiry",
          "type": "uint64"
        }
      ],
      "name": "setSubnodeOwner",
      "outputs": [
        {
          "internalType": "bytes32",
          "name": "node",
          "type": "bytes32"
        }
      ],
      "stateMutability": "nonpayable",
      "type": "function"
    },
    {
      "inputs": [
        {
          "internalType": "bytes32",
          "name": "parentNode",
          "type": "bytes32"
        },
        {
          "internalType": "string",
          "name": "label",
          "type": "string"
        },
        {
          "internalType": "address",
          "name": "owner",
          "type": "address"
        },
        {
          "internalType": "address",
          "name": "resolver",
          "type": "address"
        },
        {
          "internalType": "uint64",
          "name": "ttl",
          "type": "uint64"
        },
        {
          "internalType": "uint32",
          "name": "fuses",
          "type": "uint32"
        },
        {
          "internalType": "uint64",
          "name": "expiry",
          "type": "uint64"
        }
      ],
      "name": "setSubnodeRecord",
      "outputs": [
        {
          "internalType": "bytes32",
          "name": "node",
          "type": "bytes32"
        }
      ],
      "stateMutability": "nonpayable",
      "type": "function"
    },
    {
      "inputs": [
        {
          "internalType": "bytes32",
          "name": "node",
          "type": "bytes32"
        },
        {
          "internalType": "uint64",
          "name": "ttl",
          "type": "uint64"
        }
      ],
      "name": "setTTL",
      "outputs": [],
      "stateMutability": "nonpayable",
      "type": "function"
    },
    {
      "inputs": [
        {
          "internalType": "contract INameWrapperUpgrade",
          "name": "_upgradeAddress",
          "type": "address"
        }
      ],
      "name": "setUpgradeContract",
      "outputs": [],
      "stateMutability": "nonpayable",
      "type": "function"
    },
    {
      "inputs": [
        {
          "internalType": "bytes4",
          "name": "interfaceId",
          "type": "bytes4"
        }
      ],
      "name": "supportsInterface",
      "outputs": [
        {
          "internalType": "bool",
          "name": "",
          "type": "bool"
        }
      ],
      "stateMutability": "view",
      "type": "function"
    },
    {
      "inputs": [
        {
          "internalType": "address",
          "name": "newOwner",
          "type": "address"
        }
      ],
      "name": "transferOwnership",
      "outputs": [],
      "stateMutability": "nonpayable",
      "type": "function"
    },
    {
      "inputs": [
        {
          "internalType": "bytes32",
          "name": "parentNode",
          "type": "bytes32"
        },
        {
          "internalType": "bytes32",
          "name": "labelhash",
          "type": "bytes32"
        },
        {
          "internalType": "address",
          "name": "controller",
          "type": "address"
        }
      ],
      "name": "unwrap",
      "outputs": [],
      "stateMutability": "nonpayable",
      "type": "function"
    },
    {
      "inputs": [
        {
          "internalType": "bytes32",
          "name": "labelhash",
          "type": "bytes32"
        },
        {
          "internalType": "address",
          "name": "registrant",
          "type": "address"
        },
        {
          "internalType": "address",
          "name": "controller",
          "type": "address"
        }
      ],
      "name": "unwrapAnyLD",
      "outputs": [],
      "stateMutability": "nonpayable",
      "type": "function"
    },
    {
      "inputs": [
        {
          "internalType": "bytes",
          "name": "name",
          "type": "bytes"
        },
        {
          "internalType": "bytes",
          "name": "extraData",
          "type": "bytes"
        }
      ],
      "name": "upgrade",
      "outputs": [],
      "stateMutability": "nonpayable",
      "type": "function"
    },
    {
      "inputs": [],
      "name": "upgradeContract",
      "outputs": [
        {
          "internalType": "contract INameWrapperUpgrade",
          "name": "",
          "type": "address"
        }
      ],
      "stateMutability": "view",
      "type": "function"
    },
    {
      "inputs": [
        {
          "internalType": "uint256",
          "name": "tokenId",
          "type": "uint256"
        }
      ],
      "name": "uri",
      "outputs": [
        {
          "internalType": "string",
          "name": "",
          "type": "string"
        }
      ],
      "stateMutability": "view",
      "type": "function"
    },
    {
      "inputs": [
        {
          "internalType": "bytes",
          "name": "name",
          "type": "bytes"
        },
        {
          "internalType": "address",
          "name": "wrappedOwner",
          "type": "address"
        },
        {
          "internalType": "address",
          "name": "resolver",
          "type": "address"
        }
      ],
      "name": "wrap",
      "outputs": [],
      "stateMutability": "nonpayable",
      "type": "function"
    },
    {
      "inputs": [
        {
          "internalType": "string",
          "name": "label",
          "type": "string"
        },
        {
          "internalType": "address",
          "name": "wrappedOwner",
          "type": "address"
        },
        {
          "internalType": "uint16",
          "name": "ownerControlledFuses",
          "type": "uint16"
        },
        {
          "internalType": "address",
          "name": "resolver",
          "type": "address"
        }
      ],
      "name": "wrapAnyLD",
      "outputs": [
        {
          "internalType": "uint64",
          "name": "expiry",
          "type": "uint64"
        }
      ],
      "stateMutability": "nonpayable",
      "type": "function"
    }
  ],
  "transactionHash": "0xd838ff40c5ca20053cd702b9b9881175e46605ac70c075cceb45c79ad8796124",
  "args": [
    "0x50130b669B28C339991d8676FA73CF122a121267",
    "0x6e84390dCc5195414eC91A8c56A5c91021B95704",
    "0x18703D0117121f6a7476221e2afC57Faf9866E4c",
    "0x527aac89ac1d1de5dd84cff89ec92c69b028ce9ce3fa3d654882474ab4402ec3",
    {
      "0": 5,
      "1": 108,
      "2": 105,
      "3": 110,
      "4": 101,
      "5": 97,
      "6": 3,
      "7": 101,
      "8": 116,
      "9": 104,
      "10": 0
    }
  ],
  "numDeployments": 1,
  "solcInputHash": "ecf9ee221e9a3f6a0d5de2e6d402ddd7",
  "bytecode": "0x60e06040523480156200001157600080fd5b50604051620069be380380620069be833981016040819052620000349162000583565b843362000041816200034a565b6040516302571be360e01b81527f91d1777781884d03a6757a803996e38de2a42967fb37eeaca72729271025a9e260048201526000906001600160a01b038416906302571be390602401602060405180830381865afa158015620000a9573d6000803e3d6000fd5b505050506040513d601f19601f82011682018060405250810190620000cf9190620006a3565b604051630f41a04d60e11b81526001600160a01b03848116600483015291925090821690631e83409a906024016020604051808303816000875af11580156200011c573d6000803e3d6000fd5b505050506040513d601f19601f82011682018060405250810190620001429190620006ca565b505050508080516000036200016a576040516311ed2be560e21b815260040160405180910390fd5b8215806200018657506000805160206200699e83398151915283145b15620001a5576040516370dada4560e01b815260040160405180910390fd5b82620001c16000846200039a60201b620036c91790919060201c565b14620001e057604051633b9b3abd60e21b815260040160405180910390fd5b6001600160a01b0386811660805285811660a052600580546001600160a01b03191691861691909117905560c08390526000838152600160208181526040808420600163fffeffff60a01b0319908190557fafa26c20e8b3d9a2853d642cfe1021dae26242ffedfac91c97aab212c1a4b93b8190557fa6eef7e35abe7026729641147f7915573c7e97b47efa546f5f6e3230263bcb4955805180820190915291825281810183905291805260069091527f54cdd369e4e8a8515e52ca72ec816c2101831ad1f18bf44102ed171459c9b4f890620002be908262000773565b506040805180820190915260058152626cae8d60e31b6020808301919091526000805160206200699e833981519152600052600690527ffb9e8e321b8a5ec48f12a7b41f22c6e595d761285c9eb19d8dda7c99edf1b54f9062000322908262000773565b5060008381526006602052604090206200033d838262000773565b5050505050505062000897565b600080546001600160a01b038381166001600160a01b0319831681178455604051919092169283917f8be0079c531659141344cd1fd0a4f28419497f9722a3daafe3b4186f6b6457e09190a35050565b60008080620003aa858562000467565b909250905081620004265760018551620003c5919062000855565b8414620004195760405162461bcd60e51b815260206004820152601d60248201527f6e616d65686173683a204a756e6b20617420656e64206f66206e616d6500000060448201526064015b60405180910390fd5b5060009150620004619050565b6200043285826200039a565b604080516020810192909252810183905260600160405160208183030381529060405280519060200120925050505b92915050565b60008083518310620004bc5760405162461bcd60e51b815260206004820152601e60248201527f726561644c6162656c3a20496e646578206f7574206f6620626f756e64730000604482015260640162000410565b6000848481518110620004d357620004d36200086b565b016020015160f81c905080156200050557620004fd85620004f686600162000881565b836200052d565b92506200050a565b600092505b62000516818562000881565b6200052390600162000881565b9150509250929050565b82516000906200053e838562000881565b11156200054a57600080fd5b5091016020012090565b6001600160a01b03811681146200056a57600080fd5b50565b634e487b7160e01b600052604160045260246000fd5b600080600080600060a086880312156200059c57600080fd5b8551620005a98162000554565b80955050602080870151620005be8162000554565b6040880151909550620005d18162000554565b6060880151608089015191955093506001600160401b0380821115620005f657600080fd5b818901915089601f8301126200060b57600080fd5b8151818111156200062057620006206200056d565b604051601f8201601f19908116603f011681019083821181831017156200064b576200064b6200056d565b816040528281528c868487010111156200066457600080fd5b600093505b8284101562000688578484018601518185018701529285019262000669565b60008684830101528096505050505050509295509295909350565b600060208284031215620006b657600080fd5b8151620006c38162000554565b9392505050565b600060208284031215620006dd57600080fd5b5051919050565b600181811c90821680620006f957607f821691505b6020821081036200071a57634e487b7160e01b600052602260045260246000fd5b50919050565b601f8211156200076e57600081815260208120601f850160051c81016020861015620007495750805b601f850160051c820191505b818110156200076a5782815560010162000755565b5050505b505050565b81516001600160401b038111156200078f576200078f6200056d565b620007a781620007a08454620006e4565b8462000720565b602080601f831160018114620007df5760008415620007c65750858301515b600019600386901b1c1916600185901b1785556200076a565b600085815260208120601f198616915b828110156200081057888601518255948401946001909101908401620007ef565b50858210156200082f5787850151600019600388901b60f8161c191681555b5050505050600190811b01905550565b634e487b7160e01b600052601160045260246000fd5b818103818111156200046157620004616200083f565b634e487b7160e01b600052603260045260246000fd5b808201808211156200046157620004616200083f565b60805160a05160c051615fb1620009ed6000396000818161075201528181611b6201528181611c1001528181611f6f0152818161249001528181612cac01528181612d9c01528181612fb401528181613a4e0152613aa801526000818161051101528181610c4701528181610d2101528181610d9001528181611ca401528181611e4901528181611ef7015281816120190152818161208f0152818161213501528181612204015281816123360152818161251b015281816125a101528181612de0015261351201526000818161055e01528181610bcd01528181610f15015281816110c90152818161117b0152818161159301528181612289015281816123bb0152818161264c0152818161284d01528181612b5b0152818161300b015281816130b901528181613182015281816131fb01528181613bc601528181613ce101528181613ec601526145060152615fb16000f3fe608060405234801561001057600080fd5b506004361061032a5760003560e01c80636352211e116101b2578063cf408823116100f9578063e985e9c5116100a2578063f242432a1161007c578063f242432a146107f6578063f2fde38b14610809578063f51c32f51461081c578063fd0cd0d91461082f57600080fd5b8063e985e9c514610787578063eb8ae530146107c3578063ed70554d146107d657600080fd5b8063da8c229e116100d3578063da8c229e1461072a578063ddf7fcb01461074d578063e0dba60f1461077457600080fd5b8063cf408823146106f1578063d8c9921a14610704578063d9a50c121461071757600080fd5b8063adf4960a1161015b578063c475abff11610135578063c475abff146106b8578063c658e086146106cb578063c93ab3fd146106de57600080fd5b8063adf4960a1461067f578063b3d8381014610692578063b6bcad26146106a557600080fd5b806383bb4d161161018c57806383bb4d16146106485780638da5cb5b1461065b578063a22cb4651461066c57600080fd5b80636352211e146106015780636e5d6ad214610614578063715018a61461064057600080fd5b80631f4e1504116102765780633f15457f1161021f5780634e1273f4116101f95780634e1273f4146105bb57806353095467146105db5780635d3590d5146105ee57600080fd5b80633f15457f14610559578063402906fc1461058057806341415eab146105a857600080fd5b80632b20e397116102505780632b20e3971461050c5780632eb2c2d61461053357806333c69ea91461054657600080fd5b80631f4e1504146104d357806320c38e2b146104e657806324c1af44146104f957600080fd5b80630e4cd725116102d8578063150b7a02116102b2578063150b7a02146104815780631534e177146104ad5780631896f70a146104c057600080fd5b80630e4cd725146104485780630e89341c1461045b57806314ab90381461046e57600080fd5b806306fdde031161030957806306fdde03146103bf578063081812fc14610408578063095ea7b31461043357600080fd5b8062fdd58e1461032f5780630178fe3f1461035557806301ffc9a71461039c575b600080fd5b61034261033d366004614de0565b610842565b6040519081526020015b60405180910390f35b610368610363366004614e0c565b610901565b604080516001600160a01b03909416845263ffffffff909216602084015267ffffffffffffffff169082015260600161034c565b6103af6103aa366004614e3b565b610931565b604051901515815260200161034c565b6103fb6040518060400160405280600b81526020017f4e616d655772617070657200000000000000000000000000000000000000000081525081565b60405161034c9190614ea8565b61041b610416366004614e0c565b61098a565b6040516001600160a01b03909116815260200161034c565b610446610441366004614de0565b6109cf565b005b6103af610456366004614ebb565b610a15565b6103fb610469366004614e0c565b610aaf565b61044661047c366004614f08565b610b21565b61049461048f366004614f7d565b610c3a565b6040516001600160e01b0319909116815260200161034c565b6104466104bb366004614ff0565b610e58565b6104466104ce366004614ebb565b610e82565b60075461041b906001600160a01b031681565b6103fb6104f4366004614e0c565b610f44565b6103426105073660046150e8565b610fde565b61041b7f000000000000000000000000000000000000000000000000000000000000000081565b610446610541366004615210565b6111f2565b6104466105543660046152be565b61151c565b61041b7f000000000000000000000000000000000000000000000000000000000000000081565b61059361058e366004615316565b611711565b60405163ffffffff909116815260200161034c565b6103af6105b6366004614ebb565b6117b3565b6105ce6105c9366004615339565b611810565b60405161034c9190615437565b60055461041b906001600160a01b031681565b6104466105fc36600461544a565b61194e565b61041b61060f366004614e0c565b6119e8565b61062761062236600461548b565b6119f3565b60405167ffffffffffffffff909116815260200161034c565b610446611b48565b6104466106563660046154c0565b611b5c565b6000546001600160a01b031661041b565b61044661067a366004615510565b611d06565b6103af61068d36600461553e565b611df0565b6106276106a0366004615561565b611e15565b6104466106b3366004614ff0565b6121c2565b6103426106c63660046155dc565b61241a565b6103426106d93660046155fe565b61271b565b6104466106ec36600461567d565b612928565b6104466106ff3660046156e9565b612a99565b610446610712366004615721565b612c52565b6103af6107253660046155dc565b612d62565b6103af610738366004614ff0565b60046020526000908152604090205460ff1681565b6103427f000000000000000000000000000000000000000000000000000000000000000081565b610446610782366004615510565b612e6f565b6103af61079536600461574f565b6001600160a01b03918216600090815260026020908152604080832093909416825291909152205460ff1690565b6104466107d136600461577d565b612ed7565b6103426107e4366004614e0c565b60016020526000908152604090205481565b6104466108043660046157e5565b6132a2565b610446610817366004614ff0565b6133bf565b61034261082a36600461584e565b61344c565b6103af61083d366004614e0c565b6135f1565b60006001600160a01b0383166108c55760405162461bcd60e51b815260206004820152602b60248201527f455243313135353a2062616c616e636520717565727920666f7220746865207a60448201527f65726f206164647265737300000000000000000000000000000000000000000060648201526084015b60405180910390fd5b60006108d0836119e8565b9050836001600160a01b0316816001600160a01b0316036108f55760019150506108fb565b60009150505b92915050565b60008181526001602052604090205460a081901c60c082901c610925838383613788565b90959094509092509050565b60006001600160e01b031982167fbee702c200000000000000000000000000000000000000000000000000000000148061097b57506001600160e01b03198216630a85bd0160e11b145b806108fb57506108fb826137bf565b600080610996836119e8565b90506001600160a01b0381166109af5750600092915050565b6000838152600360205260409020546001600160a01b03165b9392505050565b60006109da82610901565b50915050603f196040821601610a065760405163a2a7201360e01b8152600481018390526024016108bc565b610a108383613841565b505050565b6000808080610a2386610901565b925092509250846001600160a01b0316836001600160a01b03161480610a6e57506001600160a01b0380841660009081526002602090815260408083209389168352929052205460ff165b80610a9257506001600160a01b038516610a878761098a565b6001600160a01b0316145b8015610aa55750610aa3828261398b565b155b9695505050505050565b6005546040516303a24d0760e21b8152600481018390526060916001600160a01b031690630e89341c90602401600060405180830381865afa158015610af9573d6000803e3d6000fd5b505050506040513d6000823e601f3d908101601f191682016040526108fb91908101906158c3565b81610b2c81336117b3565b610b525760405163168ab55d60e31b8152600481018290523360248201526044016108bc565b8260106000610b6083610901565b5091505063ffffffff8282161615610b8e5760405163a2a7201360e01b8152600481018490526024016108bc565b6040517f14ab90380000000000000000000000000000000000000000000000000000000081526004810187905267ffffffffffffffff861660248201527f00000000000000000000000000000000000000000000000000000000000000006001600160a01b0316906314ab9038906044015b600060405180830381600087803b158015610c1a57600080fd5b505af1158015610c2e573d6000803e3d6000fd5b50505050505050505050565b6000336001600160a01b037f00000000000000000000000000000000000000000000000000000000000000001614610c9e576040517f1931a53800000000000000000000000000000000000000000000000000000000815260040160405180910390fd5b6000808080610caf8688018861593b565b83516020850120939750919550935091508890808214610d05576040517fc65c3ccc00000000000000000000000000000000000000000000000000000000815260048101829052602481018390526044016108bc565b604051630a3b53db60e21b8152600481018390523060248201527f00000000000000000000000000000000000000000000000000000000000000006001600160a01b0316906328ed4f6c90604401600060405180830381600087803b158015610d6d57600080fd5b505af1158015610d81573d6000803e3d6000fd5b5050505060006276a700610e227f00000000000000000000000000000000000000000000000000000000000000006001600160a01b031663d6e4fa868e6040518263ffffffff1660e01b8152600401610ddc91815260200190565b602060405180830381865afa158015610df9573d6000803e3d6000fd5b505050506040513d601f19601f82011682018060405250810190610e1d91906159a3565b6139bc565b610e2c91906159d2565b9050610e3f87878761ffff168488613a40565b50630a85bd0160e11b9c9b505050505050505050505050565b610e60613c2c565b600580546001600160a01b0319166001600160a01b0392909216919091179055565b81610e8d81336117b3565b610eb35760405163168ab55d60e31b8152600481018290523360248201526044016108bc565b8260086000610ec183610901565b5091505063ffffffff8282161615610eef5760405163a2a7201360e01b8152600481018490526024016108bc565b604051630c4b7b8560e11b8152600481018790526001600160a01b0386811660248301527f00000000000000000000000000000000000000000000000000000000000000001690631896f70a90604401610c00565b60066020526000908152604090208054610f5d906159fa565b80601f0160208091040260200160405190810160405280929190818152602001828054610f89906159fa565b8015610fd65780601f10610fab57610100808354040283529160200191610fd6565b820191906000526020600020905b815481529060010190602001808311610fb957829003601f168201915b505050505081565b600087610feb81336117b3565b6110115760405163168ab55d60e31b8152600481018290523360248201526044016108bc565b875160208901206110498a82604080516020808201949094528082019290925280518083038201815260609092019052805191012090565b92506110558a84613c86565b61105f8386613dc5565b61106a8a848b613df8565b506110778a848787613e42565b935061108283613e88565b611138576040516305ef2c7f60e41b8152600481018b9052602481018290523060448201526001600160a01b03888116606483015267ffffffffffffffff881660848301527f00000000000000000000000000000000000000000000000000000000000000001690635ef2c7f09060a401600060405180830381600087803b15801561110d57600080fd5b505af1158015611121573d6000803e3d6000fd5b505050506111338a848b8b8989613f41565b6111e5565b6040516305ef2c7f60e41b8152600481018b9052602481018290523060448201526001600160a01b03888116606483015267ffffffffffffffff881660848301527f00000000000000000000000000000000000000000000000000000000000000001690635ef2c7f09060a401600060405180830381600087803b1580156111bf57600080fd5b505af11580156111d3573d6000803e3d6000fd5b505050506111e58a848b8b8989613f78565b5050979650505050505050565b81518351146112695760405162461bcd60e51b815260206004820152602860248201527f455243313135353a2069647320616e6420616d6f756e7473206c656e6774682060448201527f6d69736d6174636800000000000000000000000000000000000000000000000060648201526084016108bc565b6001600160a01b0384166112cd5760405162461bcd60e51b815260206004820152602560248201527f455243313135353a207472616e7366657220746f20746865207a65726f206164604482015264647265737360d81b60648201526084016108bc565b6001600160a01b03851633148061130757506001600160a01b038516600090815260026020908152604080832033845290915290205460ff165b6113795760405162461bcd60e51b815260206004820152603260248201527f455243313135353a207472616e736665722063616c6c6572206973206e6f742060448201527f6f776e6572206e6f7220617070726f766564000000000000000000000000000060648201526084016108bc565b60005b83518110156114af57600084828151811061139957611399615a34565b6020026020010151905060008483815181106113b7576113b7615a34565b6020026020010151905060008060006113cf85610901565b9250925092506113e085838361403c565b83600114801561140157508a6001600160a01b0316836001600160a01b0316145b6114605760405162461bcd60e51b815260206004820152602a60248201527f455243313135353a20696e73756666696369656e742062616c616e636520666f60448201526939103a3930b739b332b960b11b60648201526084016108bc565b60008581526001602052604090206001600160a01b038b1663ffffffff60a01b60a085901b16176001600160c01b031960c084901b161790555050505050806114a890615a4a565b905061137c565b50836001600160a01b0316856001600160a01b0316336001600160a01b03167f4a39dc06d4c0dbc64b70af90fd698a233a518aa5d07e595d983b8c0526c8f7fb86866040516114ff929190615a63565b60405180910390a4611515338686868686614129565b5050505050565b6040805160208082018790528183018690528251808303840181526060909201909252805191012061154e8184613dc5565b6000808061155b84610901565b919450925090506001600160a01b038316158061160a57506040516302571be360e01b81526004810185905230906001600160a01b037f000000000000000000000000000000000000000000000000000000000000000016906302571be390602401602060405180830381865afa1580156115da573d6000803e3d6000fd5b505050506040513d601f19601f820116820180604052508101906115fe9190615a91565b6001600160a01b031614155b1561162857604051635374b59960e01b815260040160405180910390fd5b6000806116348a610901565b90935091508a90506116755761164a86336117b3565b6116705760405163168ab55d60e31b8152600481018790523360248201526044016108bc565b6116a5565b61167f8a336117b3565b6116a55760405163168ab55d60e31b8152600481018b90523360248201526044016108bc565b6116b08689846142ce565b6116bb878483614309565b9650620100008416158015906116df57508363ffffffff1688851763ffffffff1614155b156117005760405163a2a7201360e01b8152600481018790526024016108bc565b96831796610c2e86868a868b614353565b60008261171e81336117b3565b6117445760405163168ab55d60e31b8152600481018290523360248201526044016108bc565b836002600061175283610901565b5091505063ffffffff82821616156117805760405163a2a7201360e01b8152600481018490526024016108bc565b6000808061178d8a610901565b9250925092506117a68a84848c61ffff16178485614353565b5098975050505050505050565b60008080806117c186610901565b925092509250846001600160a01b0316836001600160a01b03161480610a9257506001600160a01b0380841660009081526002602090815260408083209389168352929052205460ff16610a92565b606081518351146118895760405162461bcd60e51b815260206004820152602960248201527f455243313135353a206163636f756e747320616e6420696473206c656e67746860448201527f206d69736d61746368000000000000000000000000000000000000000000000060648201526084016108bc565b6000835167ffffffffffffffff8111156118a5576118a561500d565b6040519080825280602002602001820160405280156118ce578160200160208202803683370190505b50905060005b8451811015611946576119198582815181106118f2576118f2615a34565b602002602001015185838151811061190c5761190c615a34565b6020026020010151610842565b82828151811061192b5761192b615a34565b602090810291909101015261193f81615a4a565b90506118d4565b509392505050565b611956613c2c565b6040517fa9059cbb0000000000000000000000000000000000000000000000000000000081526001600160a01b0383811660048301526024820183905284169063a9059cbb906044016020604051808303816000875af11580156119be573d6000803e3d6000fd5b505050506040513d601f19601f820116820180604052508101906119e29190615aae565b50505050565b60006108fb826143fd565b60408051602080820186905281830185905282518083038401815260609092019092528051910120600090611a2781613e88565b611a4457604051635374b59960e01b815260040160405180910390fd5b6000611a508633610a15565b905080158015611a675750611a6582336117b3565b155b15611a8e5760405163168ab55d60e31b8152600481018390523360248201526044016108bc565b60008080611a9b85610901565b92509250925083158015611ab25750620400008216155b15611ad35760405163a2a7201360e01b8152600481018690526024016108bc565b6000611ade8a610901565b92505050611aed888383614309565b9750611afb8685858b614413565b60405167ffffffffffffffff8916815286907ff675815a0817338f93a7da433f6bd5f5542f1029b11b455191ac96c7f6a9b1329060200160405180910390a2509598975050505050505050565b611b50613c2c565b611b5a600061445b565b565b604080517f000000000000000000000000000000000000000000000000000000000000000060208083019190915281830186905282518083038401815260609092019092528051910120611bb081336117b3565b611bd65760405163168ab55d60e31b8152600481018290523360248201526044016108bc565b306001600160a01b03841603611c0a57604051632ca49b0d60e11b81526001600160a01b03841660048201526024016108bc565b604080517f000000000000000000000000000000000000000000000000000000000000000060208083019190915281830187905282518083038401815260609092019092528051910120611c5f905b836144ab565b6040517f42842e0e0000000000000000000000000000000000000000000000000000000081523060048201526001600160a01b038481166024830152604482018690527f000000000000000000000000000000000000000000000000000000000000000016906342842e0e90606401600060405180830381600087803b158015611ce857600080fd5b505af1158015611cfc573d6000803e3d6000fd5b5050505050505050565b6001600160a01b0382163303611d845760405162461bcd60e51b815260206004820152602960248201527f455243313135353a2073657474696e6720617070726f76616c2073746174757360448201527f20666f722073656c66000000000000000000000000000000000000000000000060648201526084016108bc565b3360008181526002602090815260408083206001600160a01b03871680855290835292819020805460ff191686151590811790915590519081529192917f17307eab39ab6107e8899845ad3d59bd9653f200f220920489ca2b5937696c31910160405180910390a35050565b600080611dfc84610901565b50841663ffffffff908116908516149250505092915050565b6000808686604051611e28929190615acb565b6040519081900381206331a9108f60e11b82526004820181905291506000907f00000000000000000000000000000000000000000000000000000000000000006001600160a01b031690636352211e90602401602060405180830381865afa158015611e98573d6000803e3d6000fd5b505050506040513d601f19601f82011682018060405250810190611ebc9190615a91565b90506001600160a01b0381163314801590611f64575060405163e985e9c560e01b81526001600160a01b0382811660048301523360248301527f0000000000000000000000000000000000000000000000000000000000000000169063e985e9c590604401602060405180830381865afa158015611f3e573d6000803e3d6000fd5b505050506040513d601f19601f82011682018060405250810190611f629190615aae565b155b15611fd457604080517f00000000000000000000000000000000000000000000000000000000000000006020808301919091528183018590528251808303840181526060830193849052805191012063168ab55d60e31b909252606481019190915233608482015260a4016108bc565b6040517f23b872dd0000000000000000000000000000000000000000000000000000000081526001600160a01b038281166004830152306024830152604482018490527f000000000000000000000000000000000000000000000000000000000000000016906323b872dd90606401600060405180830381600087803b15801561205d57600080fd5b505af1158015612071573d6000803e3d6000fd5b5050604051630a3b53db60e21b8152600481018590523060248201527f00000000000000000000000000000000000000000000000000000000000000006001600160a01b031692506328ed4f6c9150604401600060405180830381600087803b1580156120dd57600080fd5b505af11580156120f1573d6000803e3d6000fd5b50506040517fd6e4fa86000000000000000000000000000000000000000000000000000000008152600481018590526276a700925061216491506001600160a01b037f0000000000000000000000000000000000000000000000000000000000000000169063d6e4fa8690602401610ddc565b61216e91906159d2565b92506121b788888080601f0160208091040260200160405190810160405280939291908181526020018383808284376000920191909152508a9250505061ffff88168688613a40565b505095945050505050565b6121ca613c2c565b6007546001600160a01b0316156122ea5760075460405163a22cb46560e01b81526001600160a01b039182166004820152600060248201527f00000000000000000000000000000000000000000000000000000000000000009091169063a22cb46590604401600060405180830381600087803b15801561224a57600080fd5b505af115801561225e573d6000803e3d6000fd5b505060075460405163a22cb46560e01b81526001600160a01b039182166004820152600060248201527f0000000000000000000000000000000000000000000000000000000000000000909116925063a22cb4659150604401600060405180830381600087803b1580156122d157600080fd5b505af11580156122e5573d6000803e3d6000fd5b505050505b600780546001600160a01b0319166001600160a01b038316908117909155156124175760075460405163a22cb46560e01b81526001600160a01b039182166004820152600160248201527f00000000000000000000000000000000000000000000000000000000000000009091169063a22cb46590604401600060405180830381600087803b15801561237c57600080fd5b505af1158015612390573d6000803e3d6000fd5b505060075460405163a22cb46560e01b81526001600160a01b039182166004820152600160248201527f0000000000000000000000000000000000000000000000000000000000000000909116925063a22cb4659150604401600060405180830381600087803b15801561240357600080fd5b505af1158015611515573d6000803e3d6000fd5b50565b3360009081526004602052604081205460ff1661248a5760405162461bcd60e51b815260206004820152602860248201527f436f6e74726f6c6c61626c653a2043616c6c6572206973206e6f74206120636f604482015267373a3937b63632b960c11b60648201526084016108bc565b604080517f0000000000000000000000000000000000000000000000000000000000000000602080830191909152818301869052825180830384018152606090920190925280519101206000906040517fc475abff00000000000000000000000000000000000000000000000000000000815260048101869052602481018590529091506000906001600160a01b037f0000000000000000000000000000000000000000000000000000000000000000169063c475abff906044016020604051808303816000875af1158015612564573d6000803e3d6000fd5b505050506040513d601f19601f8201168201806040525081019061258891906159a3565b6040516331a9108f60e11b8152600481018790529091507f00000000000000000000000000000000000000000000000000000000000000006001600160a01b031690636352211e90602401602060405180830381865afa92505050801561260c575060408051601f3d908101601f1916820190925261260991810190615a91565b60015b6126195791506108fb9050565b6001600160a01b038116301415806126c357506040516302571be360e01b81526004810184905230906001600160a01b037f000000000000000000000000000000000000000000000000000000000000000016906302571be390602401602060405180830381865afa158015612693573d6000803e3d6000fd5b505050506040513d601f19601f820116820180604052508101906126b79190615a91565b6001600160a01b031614155b156126d2575091506108fb9050565b5060006276a7006126e2836139bc565b6126ec91906159d2565b60008481526001602052604090205490915060a081901c61270f85838386614413565b50919695505050505050565b60008661272881336117b3565b61274e5760405163168ab55d60e31b8152600481018290523360248201526044016108bc565b60008787604051612760929190615acb565b6040518091039020905061279b8982604080516020808201949094528082019290925280518083038201815260609092019052805191012090565b92506127a78984613c86565b6127b18386613dc5565b60006127f48a858b8b8080601f016020809104026020016040519081016040528093929190818152602001838380828437600092019190915250613df892505050565b90506128028a858888613e42565b945061280d84613e88565b6128d5576040517f06ab5923000000000000000000000000000000000000000000000000000000008152600481018b9052602481018390523060448201527f00000000000000000000000000000000000000000000000000000000000000006001600160a01b0316906306ab5923906064016020604051808303816000875af115801561289e573d6000803e3d6000fd5b505050506040513d601f19601f820116820180604052508101906128c291906159a3565b506128d0848289898961459d565b61291b565b61291b8a858b8b8080601f0160208091040260200160405190810160405280939291908181526020018383808284376000920191909152508d92508c91508b9050613f78565b5050509695505050505050565b600061296e600086868080601f01602080910402602001604051908101604052809392919081815260200183838082843760009201919091525092939250506136c99050565b6007549091506001600160a01b03166129b3576040517f24c1d6d400000000000000000000000000000000000000000000000000000000815260040160405180910390fd5b6129bd81336117b3565b6129e35760405163168ab55d60e31b8152600481018290523360248201526044016108bc565b600080806129f084610901565b919450925090506000612a028561098a565b9050612a0d856145df565b600760009054906101000a90046001600160a01b03166001600160a01b0316639198c2768a8a878787878e8e6040518963ffffffff1660e01b8152600401612a5c989796959493929190615b04565b600060405180830381600087803b158015612a7657600080fd5b505af1158015612a8a573d6000803e3d6000fd5b50505050505050505050505050565b83612aa481336117b3565b612aca5760405163168ab55d60e31b8152600481018290523360248201526044016108bc565b84601c6000612ad883610901565b5091505063ffffffff8282161615612b065760405163a2a7201360e01b8152600481018490526024016108bc565b6040517fcf408823000000000000000000000000000000000000000000000000000000008152600481018990523060248201526001600160a01b03878116604483015267ffffffffffffffff871660648301527f0000000000000000000000000000000000000000000000000000000000000000169063cf40882390608401600060405180830381600087803b158015612b9f57600080fd5b505af1158015612bb3573d6000803e3d6000fd5b5050506001600160a01b0388169050612c1a576000612bd189610901565b509150506201ffff1962020000821601612c0957604051632ca49b0d60e11b81526001600160a01b03891660048201526024016108bc565b612c148960006144ab565b50611cfc565b6000612c25896119e8565b9050612c4781898b60001c6001604051806020016040528060008152506146a1565b505050505050505050565b60408051602080820186905281830185905282518083038401815260609092019092528051910120612c8481336117b3565b612caa5760405163168ab55d60e31b8152600481018290523360248201526044016108bc565b7f00000000000000000000000000000000000000000000000000000000000000008403612cea5760405163615a470360e01b815260040160405180910390fd5b6001600160a01b0382161580612d0857506001600160a01b03821630145b15612d3157604051632ca49b0d60e11b81526001600160a01b03831660048201526024016108bc565b604080516020808201879052818301869052825180830384018152606090920190925280519101206119e290611c59565b604080516020808201859052818301849052825180830384018152606090920190925280519101206000906000612d9882613e88565b90507f00000000000000000000000000000000000000000000000000000000000000008514612dca5791506108fb9050565b6040516331a9108f60e11b8152600481018590527f00000000000000000000000000000000000000000000000000000000000000006001600160a01b031690636352211e90602401602060405180830381865afa925050508015612e4b575060408051601f3d908101601f19168201909252612e4891810190615a91565b60015b612e5a576000925050506108fb565b6001600160a01b0316301492506108fb915050565b612e77613c2c565b6001600160a01b038216600081815260046020908152604091829020805460ff191685151590811790915591519182527f4c97694570a07277810af7e5669ffd5f6a2d6b74b6e9a274b8b870fd5114cf8791015b60405180910390a25050565b600080612f1e600087878080601f01602080910402602001604051908101604052809392919081815260200183838082843760009201919091525092939250506147f39050565b915091506000612f678288888080601f01602080910402602001604051908101604052809392919081815260200183838082843760009201919091525092939250506136c99050565b604080516020808201849052818301879052825180830384018152606090920190925280519101209091506000906000818152600660205260409020909150612fb1888a83615bb3565b507f00000000000000000000000000000000000000000000000000000000000000008203612ff25760405163615a470360e01b815260040160405180910390fd5b6040516302571be360e01b8152600481018290526000907f00000000000000000000000000000000000000000000000000000000000000006001600160a01b0316906302571be390602401602060405180830381865afa15801561305a573d6000803e3d6000fd5b505050506040513d601f19601f8201168201806040525081019061307e9190615a91565b90506001600160a01b0381163314801590613126575060405163e985e9c560e01b81526001600160a01b0382811660048301523360248301527f0000000000000000000000000000000000000000000000000000000000000000169063e985e9c590604401602060405180830381865afa158015613100573d6000803e3d6000fd5b505050506040513d601f19601f820116820180604052508101906131249190615aae565b155b1561314d5760405163168ab55d60e31b8152600481018390523360248201526044016108bc565b6001600160a01b038616156131df57604051630c4b7b8560e11b8152600481018390526001600160a01b0387811660248301527f00000000000000000000000000000000000000000000000000000000000000001690631896f70a90604401600060405180830381600087803b1580156131c657600080fd5b505af11580156131da573d6000803e3d6000fd5b505050505b604051635b0fc9c360e01b8152600481018390523060248201527f00000000000000000000000000000000000000000000000000000000000000006001600160a01b031690635b0fc9c390604401600060405180830381600087803b15801561324757600080fd5b505af115801561325b573d6000803e3d6000fd5b50505050612c47828a8a8080601f01602080910402602001604051908101604052809392919081815260200183838082843760009201829052508d9350915081905061459d565b6001600160a01b0384166133065760405162461bcd60e51b815260206004820152602560248201527f455243313135353a207472616e7366657220746f20746865207a65726f206164604482015264647265737360d81b60648201526084016108bc565b6001600160a01b03851633148061334057506001600160a01b038516600090815260026020908152604080832033845290915290205460ff165b6133b25760405162461bcd60e51b815260206004820152602960248201527f455243313135353a2063616c6c6572206973206e6f74206f776e6572206e6f7260448201527f20617070726f766564000000000000000000000000000000000000000000000060648201526084016108bc565b61151585858585856146a1565b6133c7613c2c565b6001600160a01b0381166134435760405162461bcd60e51b815260206004820152602660248201527f4f776e61626c653a206e6577206f776e657220697320746865207a65726f206160448201527f646472657373000000000000000000000000000000000000000000000000000060648201526084016108bc565b6124178161445b565b3360009081526004602052604081205460ff166134bc5760405162461bcd60e51b815260206004820152602860248201527f436f6e74726f6c6c61626c653a2043616c6c6572206973206e6f74206120636f604482015267373a3937b63632b960c11b60648201526084016108bc565b600087876040516134ce929190615acb565b6040519081900381207ffca247ac000000000000000000000000000000000000000000000000000000008252600482018190523060248301526044820187905291507f00000000000000000000000000000000000000000000000000000000000000006001600160a01b03169063fca247ac906064016020604051808303816000875af1158015613563573d6000803e3d6000fd5b505050506040513d601f19601f8201168201806040525081019061358791906159a3565b91506135e688888080601f0160208091040260200160405190810160405280939291908181526020018383808284376000920191909152508a9250505061ffff86166276a7006135d6876139bc565b6135e091906159d2565b88613a40565b509695505050505050565b6000818152600660205260408120805482919061360d906159fa565b80601f0160208091040260200160405190810160405280929190818152602001828054613639906159fa565b80156136865780601f1061365b57610100808354040283529160200191613686565b820191906000526020600020905b81548152906001019060200180831161366957829003601f168201915b50505050509050805160000361369f5750600092915050565b6000806136ac83826147f3565b909250905060006136bd84836136c9565b9050610aa58184612d62565b60008060006136d885856147f3565b90925090508161374a57600185516136f09190615c73565b841461373e5760405162461bcd60e51b815260206004820152601d60248201527f6e616d65686173683a204a756e6b20617420656e64206f66206e616d6500000060448201526064016108bc565b50600091506108fb9050565b61375485826136c9565b6040805160208101929092528101839052606001604051602081830303815290604052805190602001209250505092915050565b600080428367ffffffffffffffff1610156137b65761ffff19620100008516016137b157600094505b600093505b50929391925050565b60006001600160e01b031982167fd9b67a2600000000000000000000000000000000000000000000000000000000148061380957506001600160e01b031982166303a24d0760e21b145b806108fb57507f01ffc9a7000000000000000000000000000000000000000000000000000000006001600160e01b03198316146108fb565b600061384c826119e8565b9050806001600160a01b0316836001600160a01b0316036138d55760405162461bcd60e51b815260206004820152602160248201527f4552433732313a20617070726f76616c20746f2063757272656e74206f776e6560448201527f720000000000000000000000000000000000000000000000000000000000000060648201526084016108bc565b336001600160a01b038216148061390f57506001600160a01b038116600090815260026020908152604080832033845290915290205460ff165b6139815760405162461bcd60e51b815260206004820152603d60248201527f4552433732313a20617070726f76652063616c6c6572206973206e6f7420746f60448201527f6b656e206f776e6572206f7220617070726f76656420666f7220616c6c00000060648201526084016108bc565b610a1083836148aa565b6000620200008381161480156109c85750426139aa6276a70084615c86565b67ffffffffffffffff16109392505050565b600067ffffffffffffffff821115613a3c5760405162461bcd60e51b815260206004820152602660248201527f53616665436173743a2076616c756520646f65736e27742066697420696e203660448201527f342062697473000000000000000000000000000000000000000000000000000060648201526084016108bc565b5090565b845160208601206000613a9a7f000000000000000000000000000000000000000000000000000000000000000083604080516020808201949094528082019290925280518083038201815260609092019052805191012090565b90506000613b6388600660007f000000000000000000000000000000000000000000000000000000000000000081526020019081526020016000208054613ae0906159fa565b80601f0160208091040260200160405190810160405280929190818152602001828054613b0c906159fa565b8015613b595780601f10613b2e57610100808354040283529160200191613b59565b820191906000526020600020905b815481529060010190602001808311613b3c57829003601f168201915b5050505050614918565b6000838152600660205260409020909150613b7e8282615ca7565b50613b91828289620300008a178961459d565b6001600160a01b03841615611cfc57604051630c4b7b8560e11b8152600481018390526001600160a01b0385811660248301527f00000000000000000000000000000000000000000000000000000000000000001690631896f70a90604401600060405180830381600087803b158015613c0a57600080fd5b505af1158015613c1e573d6000803e3d6000fd5b505050505050505050505050565b6000546001600160a01b03163314611b5a5760405162461bcd60e51b815260206004820181905260248201527f4f776e61626c653a2063616c6c6572206973206e6f7420746865206f776e657260448201526064016108bc565b60008080613c9384610901565b919450925090504267ffffffffffffffff821610808015613d5757506001600160a01b0384161580613d5757506040516302571be360e01b8152600481018690526000906001600160a01b037f000000000000000000000000000000000000000000000000000000000000000016906302571be390602401602060405180830381865afa158015613d28573d6000803e3d6000fd5b505050506040513d601f19601f82011682018060405250810190613d4c9190615a91565b6001600160a01b0316145b15613d96576000613d6787610901565b509150506020811615613d905760405163a2a7201360e01b8152600481018790526024016108bc565b50613dbd565b62010000831615613dbd5760405163a2a7201360e01b8152600481018690526024016108bc565b505050505050565b63fffdffff81811763ffffffff1614613df45760405163a2a7201360e01b8152600481018390526024016108bc565b5050565b60606000613e1e83600660008881526020019081526020016000208054613ae0906159fa565b6000858152600660205260409020909150613e398282615ca7565b50949350505050565b600080613e4e85610901565b92505050600080613e618860001c610901565b9250925050613e718787846142ce565b613e7c858483614309565b98975050505050505050565b600080613e94836119e8565b6001600160a01b0316141580156108fb57506040516302571be360e01b81526004810183905230906001600160a01b037f000000000000000000000000000000000000000000000000000000000000000016906302571be390602401602060405180830381865afa158015613f0d573d6000803e3d6000fd5b505050506040513d601f19601f82011682018060405250810190613f319190615a91565b6001600160a01b03161492915050565b60008681526006602052604081208054613f60918791613ae0906159fa565b9050613f6f868286868661459d565b50505050505050565b60008080613f8588610901565b9250925092506000613faf88600660008d81526020019081526020016000208054613ae0906159fa565b60008a8152600660205260409020805491925090613fcc906159fa565b9050600003613fef576000898152600660205260409020613fed8282615ca7565b505b613ffe89858886178589614353565b6001600160a01b03871661401c576140178960006144ab565b610c2e565b610c2e84888b60001c6001604051806020016040528060008152506146a1565b6201ffff196202000083160161405c576140596276a70082615c86565b90505b428167ffffffffffffffff1610156140d957620100008216156140d45760405162461bcd60e51b815260206004820152602a60248201527f455243313135353a20696e73756666696369656e742062616c616e636520666f60448201526939103a3930b739b332b960b11b60648201526084016108bc565b6140fe565b60048216156140fe5760405163a2a7201360e01b8152600481018490526024016108bc565b60408216600003610a10575050600090815260036020526040902080546001600160a01b0319169055565b6001600160a01b0384163b15613dbd5760405163bc197c8160e01b81526001600160a01b0385169063bc197c819061416d9089908990889088908890600401615d67565b6020604051808303816000875af19250505080156141a8575060408051601f3d908101601f191682019092526141a591810190615db9565b60015b61425d576141b4615dd6565b806308c379a0036141ed57506141c8615df2565b806141d357506141ef565b8060405162461bcd60e51b81526004016108bc9190614ea8565b505b60405162461bcd60e51b815260206004820152603460248201527f455243313135353a207472616e7366657220746f206e6f6e204552433131353560448201527f526563656976657220696d706c656d656e74657200000000000000000000000060648201526084016108bc565b6001600160e01b0319811663bc197c8160e01b14613f6f5760405162461bcd60e51b815260206004820152602860248201527f455243313135353a204552433131353552656365697665722072656a656374656044820152676420746f6b656e7360c01b60648201526084016108bc565b63ffff000082161580159060018316159082906142e85750805b156115155760405163a2a7201360e01b8152600481018690526024016108bc565b60008167ffffffffffffffff168467ffffffffffffffff16111561432b578193505b8267ffffffffffffffff168467ffffffffffffffff16101561434b578293505b509192915050565b61435f85858584614413565b60405163ffffffff8416815285907f39873f00c80f4f94b7bd1594aebcf650f003545b74824d57ddf4939e3ff3a34b9060200160405180910390a28167ffffffffffffffff168167ffffffffffffffff1611156115155760405167ffffffffffffffff8216815285907ff675815a0817338f93a7da433f6bd5f5542f1029b11b455191ac96c7f6a9b132906020015b60405180910390a25050505050565b60008061440983610901565b5090949350505050565b61441d84836149c1565b60008481526001602052604090206001600160a01b03841663ffffffff60a01b60a085901b16176001600160c01b031960c084901b161790556119e2565b600080546001600160a01b038381166001600160a01b0319831681178455604051919092169283917f8be0079c531659141344cd1fd0a4f28419497f9722a3daafe3b4186f6b6457e09190a35050565b6144b6826001611df0565b156144d75760405163a2a7201360e01b8152600481018390526024016108bc565b6144e0826145df565b604051635b0fc9c360e01b8152600481018390526001600160a01b0382811660248301527f00000000000000000000000000000000000000000000000000000000000000001690635b0fc9c390604401600060405180830381600087803b15801561454a57600080fd5b505af115801561455e573d6000803e3d6000fd5b50506040516001600160a01b03841681528492507fee2ba1195c65bcf218a83d874335c6bf9d9067b4c672f3c3bf16cf40de7586c49150602001612ecb565b6145a9858484846149fa565b847f8ce7013e8abebc55c3890a68f5a27c67c3f7efa64e584de5fb22363c606fd340858585856040516143ee9493929190615e7c565b60008181526001602052604090205460a081901c60c082901c614603838383613788565b600086815260036020908152604080832080546001600160a01b03191690556001909152902063ffffffff60a01b60a083901b166001600160c01b031960c086901b1617905592506146529050565b60408051858152600160208201526000916001600160a01b0386169133917fc3d58168c5ae7397731d063d5bbf3d657854427343f4c083240f7aacaa2d0f62910160405180910390a450505050565b60008060006146af86610901565b9250925092506146c086838361403c565b8460011480156146e15750876001600160a01b0316836001600160a01b0316145b6147405760405162461bcd60e51b815260206004820152602a60248201527f455243313135353a20696e73756666696369656e742062616c616e636520666f60448201526939103a3930b739b332b960b11b60648201526084016108bc565b866001600160a01b0316836001600160a01b03160361476157505050611515565b60008681526001602052604090206001600160a01b03881663ffffffff60a01b60a085901b16176001600160c01b031960c084901b1617905560408051878152602081018790526001600160a01b03808a1692908b169133917fc3d58168c5ae7397731d063d5bbf3d657854427343f4c083240f7aacaa2d0f62910160405180910390a4611cfc338989898989614a6e565b600080835183106148465760405162461bcd60e51b815260206004820152601e60248201527f726561644c6162656c3a20496e646578206f7574206f6620626f756e6473000060448201526064016108bc565b600084848151811061485a5761485a615a34565b016020015160f81c905080156148865761487f85614879866001615ec4565b83614b6a565b925061488b565b600092505b6148958185615ec4565b6148a0906001615ec4565b9150509250929050565b600081815260036020526040902080546001600160a01b0319166001600160a01b03841690811790915581906148df826119e8565b6001600160a01b03167f8c5be1e5ebec7d5bd14f71427d1e84f3dd0314c0f7b2291e5b200ac8c7c3b92560405160405180910390a45050565b6060600183511015614956576040517f280dacb600000000000000000000000000000000000000000000000000000000815260040160405180910390fd5b60ff8351111561499457826040517fe3ba295f0000000000000000000000000000000000000000000000000000000081526004016108bc9190614ea8565b825183836040516020016149aa93929190615ed7565b604051602081830303815290604052905092915050565b61ffff8116158015906149d957506201000181811614155b15613df45760405163a2a7201360e01b8152600481018390526024016108bc565b614a0484836149c1565b6000848152600160205260409020546001600160a01b03811615614a6257614a2b856145df565b6040516000815285907fee2ba1195c65bcf218a83d874335c6bf9d9067b4c672f3c3bf16cf40de7586c49060200160405180910390a25b61151585858585614b8e565b6001600160a01b0384163b15613dbd5760405163f23a6e6160e01b81526001600160a01b0385169063f23a6e6190614ab29089908990889088908890600401615f38565b6020604051808303816000875af1925050508015614aed575060408051601f3d908101601f19168201909252614aea91810190615db9565b60015b614af9576141b4615dd6565b6001600160e01b0319811663f23a6e6160e01b14613f6f5760405162461bcd60e51b815260206004820152602860248201527f455243313135353a204552433131353552656365697665722072656a656374656044820152676420746f6b656e7360c01b60648201526084016108bc565b8251600090614b798385615ec4565b1115614b8457600080fd5b5091016020012090565b8360008080614b9c84610901565b9194509250905063ffff0000821667ffffffffffffffff8087169083161115614bc3578195505b428267ffffffffffffffff1610614bd957958617955b6001600160a01b03841615614c305760405162461bcd60e51b815260206004820152601f60248201527f455243313135353a206d696e74206f66206578697374696e6720746f6b656e0060448201526064016108bc565b6001600160a01b038816614cac5760405162461bcd60e51b815260206004820152602160248201527f455243313135353a206d696e7420746f20746865207a65726f2061646472657360448201527f730000000000000000000000000000000000000000000000000000000000000060648201526084016108bc565b306001600160a01b03891603614d2a5760405162461bcd60e51b815260206004820152603460248201527f455243313135353a206e65774f776e65722063616e6e6f74206265207468652060448201527f4e616d655772617070657220636f6e747261637400000000000000000000000060648201526084016108bc565b60008581526001602052604090206001600160a01b03891663ffffffff60a01b60a08a901b16176001600160c01b031960c089901b1617905560408051868152600160208201526001600160a01b038a169160009133917fc3d58168c5ae7397731d063d5bbf3d657854427343f4c083240f7aacaa2d0f62910160405180910390a4612c473360008a88600160405180602001604052806000815250614a6e565b6001600160a01b038116811461241757600080fd5b60008060408385031215614df357600080fd5b8235614dfe81614dcb565b946020939093013593505050565b600060208284031215614e1e57600080fd5b5035919050565b6001600160e01b03198116811461241757600080fd5b600060208284031215614e4d57600080fd5b81356109c881614e25565b60005b83811015614e73578181015183820152602001614e5b565b50506000910152565b60008151808452614e94816020860160208601614e58565b601f01601f19169290920160200192915050565b6020815260006109c86020830184614e7c565b60008060408385031215614ece57600080fd5b823591506020830135614ee081614dcb565b809150509250929050565b803567ffffffffffffffff81168114614f0357600080fd5b919050565b60008060408385031215614f1b57600080fd5b82359150614f2b60208401614eeb565b90509250929050565b60008083601f840112614f4657600080fd5b50813567ffffffffffffffff811115614f5e57600080fd5b602083019150836020828501011115614f7657600080fd5b9250929050565b600080600080600060808688031215614f9557600080fd5b8535614fa081614dcb565b94506020860135614fb081614dcb565b935060408601359250606086013567ffffffffffffffff811115614fd357600080fd5b614fdf88828901614f34565b969995985093965092949392505050565b60006020828403121561500257600080fd5b81356109c881614dcb565b634e487b7160e01b600052604160045260246000fd5b601f8201601f1916810167ffffffffffffffff811182821017156150495761504961500d565b6040525050565b600067ffffffffffffffff82111561506a5761506a61500d565b50601f01601f191660200190565b600082601f83011261508957600080fd5b813561509481615050565b6040516150a18282615023565b8281528560208487010111156150b657600080fd5b82602086016020830137600092810160200192909252509392505050565b803563ffffffff81168114614f0357600080fd5b600080600080600080600060e0888a03121561510357600080fd5b87359650602088013567ffffffffffffffff81111561512157600080fd5b61512d8a828b01615078565b965050604088013561513e81614dcb565b9450606088013561514e81614dcb565b935061515c60808901614eeb565b925061516a60a089016150d4565b915061517860c08901614eeb565b905092959891949750929550565b600067ffffffffffffffff8211156151a0576151a061500d565b5060051b60200190565b600082601f8301126151bb57600080fd5b813560206151c882615186565b6040516151d58282615023565b83815260059390931b85018201928281019150868411156151f557600080fd5b8286015b848110156135e657803583529183019183016151f9565b600080600080600060a0868803121561522857600080fd5b853561523381614dcb565b9450602086013561524381614dcb565b9350604086013567ffffffffffffffff8082111561526057600080fd5b61526c89838a016151aa565b9450606088013591508082111561528257600080fd5b61528e89838a016151aa565b935060808801359150808211156152a457600080fd5b506152b188828901615078565b9150509295509295909350565b600080600080608085870312156152d457600080fd5b84359350602085013592506152eb604086016150d4565b91506152f960608601614eeb565b905092959194509250565b803561ffff81168114614f0357600080fd5b6000806040838503121561532957600080fd5b82359150614f2b60208401615304565b6000806040838503121561534c57600080fd5b823567ffffffffffffffff8082111561536457600080fd5b818501915085601f83011261537857600080fd5b8135602061538582615186565b6040516153928282615023565b83815260059390931b85018201928281019150898411156153b257600080fd5b948201945b838610156153d95785356153ca81614dcb565b825294820194908201906153b7565b965050860135925050808211156153ef57600080fd5b506148a0858286016151aa565b600081518084526020808501945080840160005b8381101561542c57815187529582019590820190600101615410565b509495945050505050565b6020815260006109c860208301846153fc565b60008060006060848603121561545f57600080fd5b833561546a81614dcb565b9250602084013561547a81614dcb565b929592945050506040919091013590565b6000806000606084860312156154a057600080fd5b83359250602084013591506154b760408501614eeb565b90509250925092565b6000806000606084860312156154d557600080fd5b8335925060208401356154e781614dcb565b915060408401356154f781614dcb565b809150509250925092565b801515811461241757600080fd5b6000806040838503121561552357600080fd5b823561552e81614dcb565b91506020830135614ee081615502565b6000806040838503121561555157600080fd5b82359150614f2b602084016150d4565b60008060008060006080868803121561557957600080fd5b853567ffffffffffffffff81111561559057600080fd5b61559c88828901614f34565b90965094505060208601356155b081614dcb565b92506155be60408701615304565b915060608601356155ce81614dcb565b809150509295509295909350565b600080604083850312156155ef57600080fd5b50508035926020909101359150565b60008060008060008060a0878903121561561757600080fd5b86359550602087013567ffffffffffffffff81111561563557600080fd5b61564189828a01614f34565b909650945050604087013561565581614dcb565b9250615663606088016150d4565b915061567160808801614eeb565b90509295509295509295565b6000806000806040858703121561569357600080fd5b843567ffffffffffffffff808211156156ab57600080fd5b6156b788838901614f34565b909650945060208701359150808211156156d057600080fd5b506156dd87828801614f34565b95989497509550505050565b600080600080608085870312156156ff57600080fd5b84359350602085013561571181614dcb565b925060408501356152eb81614dcb565b60008060006060848603121561573657600080fd5b833592506020840135915060408401356154f781614dcb565b6000806040838503121561576257600080fd5b823561576d81614dcb565b91506020830135614ee081614dcb565b6000806000806060858703121561579357600080fd5b843567ffffffffffffffff8111156157aa57600080fd5b6157b687828801614f34565b90955093505060208501356157ca81614dcb565b915060408501356157da81614dcb565b939692955090935050565b600080600080600060a086880312156157fd57600080fd5b853561580881614dcb565b9450602086013561581881614dcb565b93506040860135925060608601359150608086013567ffffffffffffffff81111561584257600080fd5b6152b188828901615078565b60008060008060008060a0878903121561586757600080fd5b863567ffffffffffffffff81111561587e57600080fd5b61588a89828a01614f34565b909750955050602087013561589e81614dcb565b93506040870135925060608701356158b581614dcb565b915061567160808801615304565b6000602082840312156158d557600080fd5b815167ffffffffffffffff8111156158ec57600080fd5b8201601f810184136158fd57600080fd5b805161590881615050565b6040516159158282615023565b82815286602084860101111561592a57600080fd5b610aa5836020830160208701614e58565b6000806000806080858703121561595157600080fd5b843567ffffffffffffffff81111561596857600080fd5b61597487828801615078565b945050602085013561598581614dcb565b925061599360408601615304565b915060608501356157da81614dcb565b6000602082840312156159b557600080fd5b5051919050565b634e487b7160e01b600052601160045260246000fd5b67ffffffffffffffff8181168382160190808211156159f3576159f36159bc565b5092915050565b600181811c90821680615a0e57607f821691505b602082108103615a2e57634e487b7160e01b600052602260045260246000fd5b50919050565b634e487b7160e01b600052603260045260246000fd5b600060018201615a5c57615a5c6159bc565b5060010190565b604081526000615a7660408301856153fc565b8281036020840152615a8881856153fc565b95945050505050565b600060208284031215615aa357600080fd5b81516109c881614dcb565b600060208284031215615ac057600080fd5b81516109c881615502565b8183823760009101908152919050565b81835281816020850137506000828201602090810191909152601f909101601f19169091010190565b60c081526000615b1860c083018a8c615adb565b6001600160a01b03898116602085015263ffffffff8916604085015267ffffffffffffffff881660608501528616608084015282810360a0840152615b5e818587615adb565b9b9a5050505050505050505050565b601f821115610a1057600081815260208120601f850160051c81016020861015615b945750805b601f850160051c820191505b81811015613dbd57828155600101615ba0565b67ffffffffffffffff831115615bcb57615bcb61500d565b615bdf83615bd983546159fa565b83615b6d565b6000601f841160018114615c135760008515615bfb5750838201355b600019600387901b1c1916600186901b178355611515565b600083815260209020601f19861690835b82811015615c445786850135825560209485019460019092019101615c24565b5086821015615c615760001960f88860031b161c19848701351681555b505060018560011b0183555050505050565b818103818111156108fb576108fb6159bc565b67ffffffffffffffff8281168282160390808211156159f3576159f36159bc565b815167ffffffffffffffff811115615cc157615cc161500d565b615cd581615ccf84546159fa565b84615b6d565b602080601f831160018114615d0a5760008415615cf25750858301515b600019600386901b1c1916600185901b178555613dbd565b600085815260208120601f198616915b82811015615d3957888601518255948401946001909101908401615d1a565b5085821015615d575787850151600019600388901b60f8161c191681555b5050505050600190811b01905550565b60006001600160a01b03808816835280871660208401525060a06040830152615d9360a08301866153fc565b8281036060840152615da581866153fc565b90508281036080840152613e7c8185614e7c565b600060208284031215615dcb57600080fd5b81516109c881614e25565b600060033d1115615def5760046000803e5060005160e01c5b90565b600060443d1015615e005790565b6040516003193d81016004833e81513d67ffffffffffffffff8160248401118184111715615e3057505050505090565b8285019150815181811115615e485750505050505090565b843d8701016020828501011115615e625750505050505090565b615e7160208286010187615023565b509095945050505050565b608081526000615e8f6080830187614e7c565b6001600160a01b039590951660208301525063ffffffff92909216604083015267ffffffffffffffff16606090910152919050565b808201808211156108fb576108fb6159bc565b7fff000000000000000000000000000000000000000000000000000000000000008460f81b16815260008351615f14816001850160208801614e58565b835190830190615f2b816001840160208801614e58565b0160010195945050505050565b60006001600160a01b03808816835280871660208401525084604083015283606083015260a06080830152615f7060a0830184614e7c565b97965050505050505056fea2646970667358221220c54cce3232904c0f4eb427c22ca8c89b2e99c3192dce47919093aa16f322360164736f6c6343000811003393cdeb708b7545dc668eb9280176169d1c33cfd8ed6f04690a0bcc88a93fc4ae",
  "devdoc": {
    "author": "ConsenSys Software Inc.",
    "kind": "dev",
    "methods": {
      "allFusesBurned(bytes32,uint32)": {
        "params": {
          "fuseMask": "The fuses you want to check",
          "node": "Namehash of the name"
        },
        "returns": {
          "_0": "Boolean of whether or not all the selected fuses are burned"
        }
      },
      "approve(address,uint256)": {
        "params": {
          "to": "address to approve",
          "tokenId": "name to approve"
        }
      },
      "balanceOf(address,uint256)": {
        "details": "See {IERC1155-balanceOf}. Requirements: - `account` cannot be the zero address."
      },
      "balanceOfBatch(address[],uint256[])": {
        "details": "See {IERC1155-balanceOfBatch}. Requirements: - `accounts` and `ids` must have the same length."
      },
      "canExtendSubnames(bytes32,address)": {
        "params": {
          "addr": "which address to check permissions for",
          "node": "namehash of the name to check"
        },
        "returns": {
          "_0": "whether or not is owner/operator or approved"
        }
      },
      "canModifyName(bytes32,address)": {
        "params": {
          "addr": "which address to check permissions for",
          "node": "namehash of the name to check"
        },
        "returns": {
          "_0": "whether or not is owner or operator"
        }
      },
      "extendExpiry(bytes32,bytes32,uint64)": {
        "params": {
          "expiry": "When the name will expire in seconds since the Unix epoch",
          "labelhash": "Labelhash of the name, e.g. vitalik.xyz would be keccak256('vitalik')",
          "parentNode": "Parent namehash of the name e.g. vitalik.xyz would be namehash('xyz')"
        },
        "returns": {
          "_0": "New expiry"
        }
      },
      "getApproved(uint256)": {
        "params": {
          "id": "Namehash of the name"
        },
        "returns": {
          "operator": "Approved operator of a name"
        }
      },
      "getData(uint256)": {
        "params": {
          "id": "Namehash of the name"
        },
        "returns": {
          "expiry": "Expiry of the name",
          "fuses": "Fuses of the name",
          "owner": "Owner of the name"
        }
      },
      "isApprovedForAll(address,address)": {
        "details": "See {IERC1155-isApprovedForAll}."
      },
      "isWrapped(bytes32)": {
        "params": {
          "node": "Namehash of the name"
        },
        "returns": {
          "_0": "Boolean of whether or not the name is wrapped"
        }
      },
      "isWrapped(bytes32,bytes32)": {
        "params": {
          "labelhash": "Namehash of the name",
          "parentNode": "Namehash of the name"
        },
        "returns": {
          "_0": "Boolean of whether or not the name is wrapped"
        }
      },
      "owner()": {
        "details": "Returns the address of the current owner."
      },
      "ownerOf(uint256)": {
        "params": {
          "id": "Label as a string of the domain to wrap"
        },
        "returns": {
          "owner": "The owner of the name"
        }
      },
      "recoverFunds(address,address,uint256)": {
        "details": "The contract is Ownable and only the owner can call the recover function.",
        "params": {
          "_amount": "The amount of tokens to recover.",
          "_to": "The address to send the tokens to.",
          "_token": "The address of the ERC20 token to recover"
        }
      },
      "registerAndWrap(string,address,uint256,address,uint16)": {
        "details": "Registers a new domain and wraps it.      Only callable by authorised controllers.",
        "params": {
          "duration": "The duration, in seconds, to register the name for.",
          "label": "The label to register (Eg, 'foo' for 'foo.linea.eth').",
          "ownerControlledFuses": "Initial owner-controlled fuses to set",
          "resolver": "The resolver address to set on the ENS registry (optional).",
          "wrappedOwner": "The owner of the wrapped name."
        },
        "returns": {
          "registrarExpiry": "The expiry date of the new name on the registrar, in seconds since the Unix epoch."
        }
      },
      "renew(uint256,uint256)": {
        "details": "Only callable by authorised controllers.",
        "params": {
          "duration": "The number of seconds to renew the name for.",
          "tokenId": "The hash of the label to register (eg, `keccak256('foo')`, for 'foo.linea.eth')."
        },
        "returns": {
          "expires": "The expiry date of the name on the registrar, in seconds since the Unix epoch."
        }
      },
      "renounceOwnership()": {
        "details": "Leaves the contract without owner. It will not be possible to call `onlyOwner` functions. Can only be called by the current owner. NOTE: Renouncing ownership will leave the contract without an owner, thereby disabling any functionality that is only available to the owner."
      },
      "safeBatchTransferFrom(address,address,uint256[],uint256[],bytes)": {
        "details": "See {IERC1155-safeBatchTransferFrom}."
      },
      "safeTransferFrom(address,address,uint256,uint256,bytes)": {
        "details": "See {IERC1155-safeTransferFrom}."
      },
      "setApprovalForAll(address,bool)": {
        "details": "See {IERC1155-setApprovalForAll}."
      },
      "setChildFuses(bytes32,bytes32,uint32,uint64)": {
        "params": {
          "expiry": "When the name will expire in seconds since the Unix epoch",
          "fuses": "Fuses to burn",
          "labelhash": "Labelhash of the name, e.g. vitalik.xyz would be keccak256('vitalik')",
          "parentNode": "Parent namehash of the name e.g. vitalik.xyz would be namehash('xyz')"
        }
      },
      "setFuses(bytes32,uint16)": {
        "params": {
          "node": "Namehash of the name",
          "ownerControlledFuses": "Owner-controlled fuses to burn"
        },
        "returns": {
          "_0": "Old fuses"
        }
      },
      "setMetadataService(address)": {
        "params": {
          "_metadataService": "The new metadata service"
        }
      },
      "setRecord(bytes32,address,address,uint64)": {
        "params": {
          "node": "Namehash of the name to set a record for",
          "owner": "New owner in the registry",
          "resolver": "Resolver contract",
          "ttl": "Time to live in the registry"
        }
      },
      "setResolver(bytes32,address)": {
        "params": {
          "node": "namehash of the name",
          "resolver": "the resolver contract"
        }
      },
      "setSubnodeOwner(bytes32,string,address,uint32,uint64)": {
        "params": {
          "expiry": "When the name will expire in seconds since the Unix epoch",
          "fuses": "Initial fuses for the wrapped subdomain",
          "label": "Label of the subdomain as a string",
          "owner": "New owner in the wrapper",
          "parentNode": "Parent namehash of the subdomain"
        },
        "returns": {
          "node": "Namehash of the subdomain"
        }
      },
      "setSubnodeRecord(bytes32,string,address,address,uint64,uint32,uint64)": {
        "params": {
          "expiry": "When the name will expire in seconds since the Unix epoch",
          "fuses": "initial fuses for the wrapped subdomain",
          "label": "label of the subdomain as a string",
          "owner": "new owner in the wrapper",
          "parentNode": "parent namehash of the subdomain",
          "resolver": "resolver contract in the registry",
          "ttl": "ttl in the registry"
        },
        "returns": {
          "node": "Namehash of the subdomain"
        }
      },
      "setTTL(bytes32,uint64)": {
        "params": {
          "node": "Namehash of the name",
          "ttl": "TTL in the registry"
        }
      },
      "setUpgradeContract(address)": {
        "details": "The default value of upgradeContract is the 0 address. Use the 0 address at any time to make the contract not upgradable.",
        "params": {
          "_upgradeAddress": "address of an upgraded contract"
        }
      },
      "transferOwnership(address)": {
        "details": "Transfers ownership of the contract to a new account (`newOwner`). Can only be called by the current owner."
      },
      "unwrap(bytes32,bytes32,address)": {
        "details": "Can be called by the owner in the wrapper or an authorised caller in the wrapper",
        "params": {
          "controller": "Sets the owner in the registry to this address",
          "labelhash": "Labelhash of the name, e.g. vitalik.xyz would be keccak256('vitalik')",
          "parentNode": "Parent namehash of the name e.g. vitalik.xyz would be namehash('xyz')"
        }
      },
      "unwrapAnyLD(bytes32,address,address)": {
        "details": "Can be called by the owner in the wrapper or an authorised caller in the wrapper",
        "params": {
          "controller": "Sets the owner in the registry to this address",
          "labelhash": "Labelhash of the domain",
          "registrant": "Sets the owner in the registrar to this address"
        }
      },
      "upgrade(bytes,bytes)": {
        "details": "Can be called by the owner or an authorised caller",
        "params": {
          "extraData": "Extra data to pass to the upgrade contract",
          "name": "The name to upgrade, in DNS format"
        }
      },
      "uri(uint256)": {
        "params": {
          "tokenId": "The id of the token"
        },
        "returns": {
          "_0": "string uri of the metadata service"
        }
      },
      "wrap(bytes,address,address)": {
        "details": "Can be called by the owner in the registry or an authorised caller in the registry",
        "params": {
          "name": "The name to wrap, in DNS format",
          "resolver": "Resolver contract",
          "wrappedOwner": "Owner of the name in this contract"
        }
      },
      "wrapAnyLD(string,address,uint16,address)": {
        "details": "Can be called by the owner of the name on the registrar or an authorised caller on the registrar",
        "params": {
          "label": "Label as a string of the domain to wrap",
          "ownerControlledFuses": "Initial owner-controlled fuses to set",
          "resolver": "Resolver contract address",
          "wrappedOwner": "Owner of the name in this contract"
        }
      }
    },
    "stateVariables": {
      "baseNode": {
        "details": "Base node handled to register a domain, replaces .eth node"
      }
    },
    "title": "Contract based on ENS's NameWrapper contract to handle any level domain registration instead of only 2 levels domain .eth domains.",
    "version": 1
  },
  "userdoc": {
    "kind": "user",
    "methods": {
      "allFusesBurned(bytes32,uint32)": {
        "notice": "Checks all Fuses in the mask are burned for the node"
      },
      "approve(address,uint256)": {
        "notice": "Approves an address for a name"
      },
      "canExtendSubnames(bytes32,address)": {
        "notice": "Checks if owner/operator or approved by owner"
      },
      "canModifyName(bytes32,address)": {
        "notice": "Checks if owner or operator of the owner"
      },
      "extendExpiry(bytes32,bytes32,uint64)": {
        "notice": "Extends expiry for a name"
      },
      "getApproved(uint256)": {
        "notice": "Gets the owner of a name"
      },
      "getData(uint256)": {
        "notice": "Gets the data for a name"
      },
      "isWrapped(bytes32)": {
        "notice": "Checks if a name is wrapped"
      },
      "isWrapped(bytes32,bytes32)": {
        "notice": "Checks if a name is wrapped in a more gas efficient way"
      },
      "ownerOf(uint256)": {
        "notice": "Gets the owner of a name"
      },
      "recoverFunds(address,address,uint256)": {
        "notice": "Recover ERC20 tokens sent to the contract by mistake."
      },
      "renew(uint256,uint256)": {
        "notice": "Renews a domain."
      },
      "setChildFuses(bytes32,bytes32,uint32,uint64)": {
        "notice": "Sets fuses of a name that you own the parent of"
      },
      "setFuses(bytes32,uint16)": {
        "notice": "Sets fuses of a name"
      },
      "setMetadataService(address)": {
        "notice": "Set the metadata service. Only the owner can do this"
      },
      "setRecord(bytes32,address,address,uint64)": {
        "notice": "Sets records for the name in the ENS Registry"
      },
      "setResolver(bytes32,address)": {
        "notice": "Sets resolver contract in the registry"
      },
      "setSubnodeOwner(bytes32,string,address,uint32,uint64)": {
        "notice": "Sets the subdomain owner in the registry and then wraps the subdomain"
      },
      "setSubnodeRecord(bytes32,string,address,address,uint64,uint32,uint64)": {
        "notice": "Sets the subdomain owner in the registry with records and then wraps the subdomain"
      },
      "setTTL(bytes32,uint64)": {
        "notice": "Sets TTL in the registry"
      },
      "setUpgradeContract(address)": {
        "notice": "Set the address of the upgradeContract of the contract. only admin can do this"
      },
      "unwrap(bytes32,bytes32,address)": {
        "notice": "Unwraps a domain not based on baseNode, of any kind. Could be a DNSSEC name vitalik.xyz or a subdomain"
      },
      "unwrapAnyLD(bytes32,address,address)": {
        "notice": "Unwraps a domain based on baseNode. e.g. vitalik.linea.eth"
      },
      "upgrade(bytes,bytes)": {
        "notice": "Upgrades a domain of any kind. Could be a .eth name vitalik.eth, a DNSSEC name vitalik.xyz, or a subdomain"
      },
      "uri(uint256)": {
        "notice": "Get the metadata uri"
      },
      "wrap(bytes,address,address)": {
        "notice": "Wraps a domain not based on baseNode. Could be a DNSSEC name vitalik.xyz or a subdomain"
      },
      "wrapAnyLD(string,address,uint16,address)": {
        "notice": "Wraps a domain based on the baseNode, creating a new token and sending the original ERC721 token to this contract"
      }
    },
    "version": 1
  },
  "storageLayout": {
    "storage": [
      {
        "astId": 444,
        "contract": "contracts/wrapper/NameWrapper.sol:NameWrapper",
        "label": "_owner",
        "offset": 0,
        "slot": "0",
        "type": "t_address"
      },
      {
        "astId": 24596,
        "contract": "contracts/wrapper/NameWrapper.sol:NameWrapper",
        "label": "_tokens",
        "offset": 0,
        "slot": "1",
        "type": "t_mapping(t_uint256,t_uint256)"
      },
      {
        "astId": 24602,
        "contract": "contracts/wrapper/NameWrapper.sol:NameWrapper",
        "label": "_operatorApprovals",
        "offset": 0,
        "slot": "2",
        "type": "t_mapping(t_address,t_mapping(t_address,t_bool))"
      },
      {
        "astId": 24606,
        "contract": "contracts/wrapper/NameWrapper.sol:NameWrapper",
        "label": "_tokenApprovals",
        "offset": 0,
        "slot": "3",
        "type": "t_mapping(t_uint256,t_address)"
      },
      {
        "astId": 24527,
        "contract": "contracts/wrapper/NameWrapper.sol:NameWrapper",
        "label": "controllers",
        "offset": 0,
        "slot": "4",
        "type": "t_mapping(t_address,t_bool)"
      },
      {
        "astId": 26075,
        "contract": "contracts/wrapper/NameWrapper.sol:NameWrapper",
        "label": "metadataService",
        "offset": 0,
        "slot": "5",
        "type": "t_contract(IMetadataService)25570"
      },
      {
        "astId": 26079,
        "contract": "contracts/wrapper/NameWrapper.sol:NameWrapper",
        "label": "names",
        "offset": 0,
        "slot": "6",
        "type": "t_mapping(t_bytes32,t_bytes_storage)"
      },
      {
        "astId": 26097,
        "contract": "contracts/wrapper/NameWrapper.sol:NameWrapper",
        "label": "upgradeContract",
        "offset": 0,
        "slot": "7",
        "type": "t_contract(INameWrapperUpgrade)25962"
      }
    ],
    "types": {
      "t_address": {
        "encoding": "inplace",
        "label": "address",
        "numberOfBytes": "20"
      },
      "t_bool": {
        "encoding": "inplace",
        "label": "bool",
        "numberOfBytes": "1"
      },
      "t_bytes32": {
        "encoding": "inplace",
        "label": "bytes32",
        "numberOfBytes": "32"
      },
      "t_bytes_storage": {
        "encoding": "bytes",
        "label": "bytes",
        "numberOfBytes": "32"
      },
      "t_contract(IMetadataService)25570": {
        "encoding": "inplace",
        "label": "contract IMetadataService",
        "numberOfBytes": "20"
      },
      "t_contract(INameWrapperUpgrade)25962": {
        "encoding": "inplace",
        "label": "contract INameWrapperUpgrade",
        "numberOfBytes": "20"
      },
      "t_mapping(t_address,t_bool)": {
        "encoding": "mapping",
        "key": "t_address",
        "label": "mapping(address => bool)",
        "numberOfBytes": "32",
        "value": "t_bool"
      },
      "t_mapping(t_address,t_mapping(t_address,t_bool))": {
        "encoding": "mapping",
        "key": "t_address",
        "label": "mapping(address => mapping(address => bool))",
        "numberOfBytes": "32",
        "value": "t_mapping(t_address,t_bool)"
      },
      "t_mapping(t_bytes32,t_bytes_storage)": {
        "encoding": "mapping",
        "key": "t_bytes32",
        "label": "mapping(bytes32 => bytes)",
        "numberOfBytes": "32",
        "value": "t_bytes_storage"
      },
      "t_mapping(t_uint256,t_address)": {
        "encoding": "mapping",
        "key": "t_uint256",
        "label": "mapping(uint256 => address)",
        "numberOfBytes": "32",
        "value": "t_address"
      },
      "t_mapping(t_uint256,t_uint256)": {
        "encoding": "mapping",
        "key": "t_uint256",
        "label": "mapping(uint256 => uint256)",
        "numberOfBytes": "32",
        "value": "t_uint256"
      },
      "t_uint256": {
        "encoding": "inplace",
        "label": "uint256",
        "numberOfBytes": "32"
      }
    }
  }
}