{
  "address": "0x44411C605eb7e009cad03f3847cfbbFCF8895130",
  "abi": [
    {
      "inputs": [
        {
          "internalType": "contract BaseRegistrarImplementation",
          "name": "_base",
          "type": "address"
        },
        {
          "internalType": "contract IPriceOracle",
          "name": "_prices",
          "type": "address"
        },
        {
          "internalType": "uint256",
          "name": "_minCommitmentAge",
          "type": "uint256"
        },
        {
          "internalType": "uint256",
          "name": "_maxCommitmentAge",
          "type": "uint256"
        },
        {
          "internalType": "contract ReverseRegistrar",
          "name": "_reverseRegistrar",
          "type": "address"
        },
        {
          "internalType": "contract INameWrapper",
          "name": "_nameWrapper",
          "type": "address"
        },
        {
          "internalType": "contract ENS",
          "name": "_ens",
          "type": "address"
        },
        {
          "internalType": "contract PohVerifier",
          "name": "_pohVerifier",
          "type": "address"
        }
      ],
      "stateMutability": "nonpayable",
      "type": "constructor"
    },
    {
      "inputs": [
        {
          "internalType": "bytes32",
          "name": "commitment",
          "type": "bytes32"
        }
      ],
      "name": "CommitmentTooNew",
      "type": "error"
    },
    {
      "inputs": [
        {
          "internalType": "bytes32",
          "name": "commitment",
          "type": "bytes32"
        }
      ],
      "name": "CommitmentTooOld",
      "type": "error"
    },
    {
      "inputs": [
        {
          "internalType": "uint256",
          "name": "duration",
          "type": "uint256"
        }
      ],
      "name": "DurationTooShort",
      "type": "error"
    },
    {
      "inputs": [],
      "name": "InsufficientValue",
      "type": "error"
    },
    {
      "inputs": [],
      "name": "MaxCommitmentAgeTooHigh",
      "type": "error"
    },
    {
      "inputs": [],
      "name": "MaxCommitmentAgeTooLow",
      "type": "error"
    },
    {
      "inputs": [
        {
          "internalType": "string",
          "name": "name",
          "type": "string"
        }
      ],
      "name": "NameNotAvailable",
      "type": "error"
    },
    {
      "inputs": [],
      "name": "ResolverRequiredWhenDataSupplied",
      "type": "error"
    },
    {
      "inputs": [
        {
          "internalType": "bytes32",
          "name": "commitment",
          "type": "bytes32"
        }
      ],
      "name": "UnexpiredCommitmentExists",
      "type": "error"
    },
    {
      "anonymous": false,
      "inputs": [
        {
          "indexed": false,
          "internalType": "string",
          "name": "name",
          "type": "string"
        },
        {
          "indexed": true,
          "internalType": "bytes32",
          "name": "label",
          "type": "bytes32"
        },
        {
          "indexed": true,
          "internalType": "address",
          "name": "owner",
          "type": "address"
        },
        {
          "indexed": false,
          "internalType": "uint256",
          "name": "baseCost",
          "type": "uint256"
        },
        {
          "indexed": false,
          "internalType": "uint256",
          "name": "premium",
          "type": "uint256"
        },
        {
          "indexed": false,
          "internalType": "uint256",
          "name": "expires",
          "type": "uint256"
        }
      ],
      "name": "NameRegistered",
      "type": "event"
    },
    {
      "anonymous": false,
      "inputs": [
        {
          "indexed": false,
          "internalType": "string",
          "name": "name",
          "type": "string"
        },
        {
          "indexed": true,
          "internalType": "bytes32",
          "name": "label",
          "type": "bytes32"
        },
        {
          "indexed": false,
          "internalType": "uint256",
          "name": "cost",
          "type": "uint256"
        },
        {
          "indexed": false,
          "internalType": "uint256",
          "name": "expires",
          "type": "uint256"
        }
      ],
      "name": "NameRenewed",
      "type": "event"
    },
    {
      "anonymous": false,
      "inputs": [
        {
          "indexed": true,
          "internalType": "address",
          "name": "previousOwner",
          "type": "address"
        },
        {
          "indexed": true,
          "internalType": "address",
          "name": "newOwner",
          "type": "address"
        }
      ],
      "name": "OwnershipTransferred",
      "type": "event"
    },
    {
      "inputs": [],
      "name": "MIN_REGISTRATION_DURATION",
      "outputs": [
        {
          "internalType": "uint256",
          "name": "",
          "type": "uint256"
        }
      ],
      "stateMutability": "view",
      "type": "function"
    },
    {
      "inputs": [
        {
          "internalType": "string",
          "name": "name",
          "type": "string"
        }
      ],
      "name": "available",
      "outputs": [
        {
          "internalType": "bool",
          "name": "",
          "type": "bool"
        }
      ],
      "stateMutability": "view",
      "type": "function"
    },
    {
      "inputs": [
        {
          "internalType": "bytes32",
          "name": "commitment",
          "type": "bytes32"
        }
      ],
      "name": "commit",
      "outputs": [],
      "stateMutability": "nonpayable",
      "type": "function"
    },
    {
      "inputs": [
        {
          "internalType": "bytes32",
          "name": "",
          "type": "bytes32"
        }
      ],
      "name": "commitments",
      "outputs": [
        {
          "internalType": "uint256",
          "name": "",
          "type": "uint256"
        }
      ],
      "stateMutability": "view",
      "type": "function"
    },
    {
      "inputs": [
        {
          "internalType": "address",
          "name": "",
          "type": "address"
        }
      ],
      "name": "hasRegisteredPoh",
      "outputs": [
        {
          "internalType": "bool",
          "name": "",
          "type": "bool"
        }
      ],
      "stateMutability": "view",
      "type": "function"
    },
    {
      "inputs": [
        {
          "internalType": "string",
          "name": "name",
          "type": "string"
        },
        {
          "internalType": "address",
          "name": "owner",
          "type": "address"
        },
        {
          "internalType": "uint256",
          "name": "duration",
          "type": "uint256"
        },
        {
          "internalType": "bytes32",
          "name": "secret",
          "type": "bytes32"
        },
        {
          "internalType": "address",
          "name": "resolver",
          "type": "address"
        },
        {
          "internalType": "bytes[]",
          "name": "data",
          "type": "bytes[]"
        },
        {
          "internalType": "bool",
          "name": "reverseRecord",
          "type": "bool"
        },
        {
          "internalType": "uint16",
          "name": "ownerControlledFuses",
          "type": "uint16"
        }
      ],
      "name": "makeCommitment",
      "outputs": [
        {
          "internalType": "bytes32",
          "name": "",
          "type": "bytes32"
        }
      ],
      "stateMutability": "pure",
      "type": "function"
    },
    {
      "inputs": [],
      "name": "maxCommitmentAge",
      "outputs": [
        {
          "internalType": "uint256",
          "name": "",
          "type": "uint256"
        }
      ],
      "stateMutability": "view",
      "type": "function"
    },
    {
      "inputs": [],
      "name": "minCommitmentAge",
      "outputs": [
        {
          "internalType": "uint256",
          "name": "",
          "type": "uint256"
        }
      ],
      "stateMutability": "view",
      "type": "function"
    },
    {
      "inputs": [],
      "name": "nameWrapper",
      "outputs": [
        {
          "internalType": "contract INameWrapper",
          "name": "",
          "type": "address"
        }
      ],
      "stateMutability": "view",
      "type": "function"
    },
    {
      "inputs": [],
      "name": "owner",
      "outputs": [
        {
          "internalType": "address",
          "name": "",
          "type": "address"
        }
      ],
      "stateMutability": "view",
      "type": "function"
    },
    {
      "inputs": [],
      "name": "pohVerifier",
      "outputs": [
        {
          "internalType": "contract PohVerifier",
          "name": "",
          "type": "address"
        }
      ],
      "stateMutability": "view",
      "type": "function"
    },
    {
      "inputs": [],
      "name": "prices",
      "outputs": [
        {
          "internalType": "contract IPriceOracle",
          "name": "",
          "type": "address"
        }
      ],
      "stateMutability": "view",
      "type": "function"
    },
    {
      "inputs": [
        {
          "internalType": "address",
          "name": "_token",
          "type": "address"
        },
        {
          "internalType": "address",
          "name": "_to",
          "type": "address"
        },
        {
          "internalType": "uint256",
          "name": "_amount",
          "type": "uint256"
        }
      ],
      "name": "recoverFunds",
      "outputs": [],
      "stateMutability": "nonpayable",
      "type": "function"
    },
    {
      "inputs": [
        {
          "internalType": "address",
          "name": "_address",
          "type": "address"
        }
      ],
      "name": "redeemed",
      "outputs": [
        {
          "internalType": "bool",
          "name": "",
          "type": "bool"
        }
      ],
      "stateMutability": "view",
      "type": "function"
    },
    {
      "inputs": [
        {
          "internalType": "string",
          "name": "name",
          "type": "string"
        },
        {
          "internalType": "address",
          "name": "owner",
          "type": "address"
        },
        {
          "internalType": "uint256",
          "name": "duration",
          "type": "uint256"
        },
        {
          "internalType": "bytes32",
          "name": "secret",
          "type": "bytes32"
        },
        {
          "internalType": "address",
          "name": "resolver",
          "type": "address"
        },
        {
          "internalType": "bytes[]",
          "name": "data",
          "type": "bytes[]"
        },
        {
          "internalType": "bool",
          "name": "reverseRecord",
          "type": "bool"
        },
        {
          "internalType": "uint16",
          "name": "ownerControlledFuses",
          "type": "uint16"
        }
      ],
      "name": "register",
      "outputs": [],
      "stateMutability": "payable",
      "type": "function"
    },
    {
      "inputs": [
        {
          "internalType": "string",
          "name": "name",
          "type": "string"
        },
        {
          "internalType": "address",
          "name": "owner",
          "type": "address"
        },
        {
          "internalType": "uint256",
          "name": "duration",
          "type": "uint256"
        },
        {
          "internalType": "bytes32",
          "name": "secret",
          "type": "bytes32"
        },
        {
          "internalType": "address",
          "name": "resolver",
          "type": "address"
        },
        {
          "internalType": "bytes[]",
          "name": "data",
          "type": "bytes[]"
        },
        {
          "internalType": "bool",
          "name": "reverseRecord",
          "type": "bool"
        },
        {
          "internalType": "uint16",
          "name": "ownerControlledFuses",
          "type": "uint16"
        },
        {
          "internalType": "bytes",
          "name": "signature",
          "type": "bytes"
        },
        {
          "internalType": "address",
          "name": "human",
          "type": "address"
        }
      ],
      "name": "registerPoh",
      "outputs": [],
      "stateMutability": "payable",
      "type": "function"
    },
    {
      "inputs": [
        {
          "internalType": "string",
          "name": "name",
          "type": "string"
        },
        {
          "internalType": "uint256",
          "name": "duration",
          "type": "uint256"
        }
      ],
      "name": "renew",
      "outputs": [],
      "stateMutability": "payable",
      "type": "function"
    },
    {
      "inputs": [],
      "name": "renounceOwnership",
      "outputs": [],
      "stateMutability": "nonpayable",
      "type": "function"
    },
    {
      "inputs": [
        {
          "internalType": "string",
          "name": "name",
          "type": "string"
        },
        {
          "internalType": "uint256",
          "name": "duration",
          "type": "uint256"
        }
      ],
      "name": "rentPrice",
      "outputs": [
        {
          "components": [
            {
              "internalType": "uint256",
              "name": "base",
              "type": "uint256"
            },
            {
              "internalType": "uint256",
              "name": "premium",
              "type": "uint256"
            }
          ],
          "internalType": "struct IPriceOracle.Price",
          "name": "price",
          "type": "tuple"
        }
      ],
      "stateMutability": "view",
      "type": "function"
    },
    {
      "inputs": [],
      "name": "reverseRegistrar",
      "outputs": [
        {
          "internalType": "contract ReverseRegistrar",
          "name": "",
          "type": "address"
        }
      ],
      "stateMutability": "view",
      "type": "function"
    },
    {
      "inputs": [
        {
          "internalType": "bytes4",
          "name": "interfaceID",
          "type": "bytes4"
        }
      ],
      "name": "supportsInterface",
      "outputs": [
        {
          "internalType": "bool",
          "name": "",
          "type": "bool"
        }
      ],
      "stateMutability": "pure",
      "type": "function"
    },
    {
      "inputs": [
        {
          "internalType": "address",
          "name": "newOwner",
          "type": "address"
        }
      ],
      "name": "transferOwnership",
      "outputs": [],
      "stateMutability": "nonpayable",
      "type": "function"
    },
    {
      "inputs": [
        {
          "internalType": "string",
          "name": "name",
          "type": "string"
        }
      ],
      "name": "valid",
      "outputs": [
        {
          "internalType": "bool",
          "name": "",
          "type": "bool"
        }
      ],
      "stateMutability": "pure",
      "type": "function"
    },
    {
      "inputs": [],
      "name": "withdraw",
      "outputs": [],
      "stateMutability": "nonpayable",
      "type": "function"
    }
  ],
  "transactionHash": "0x9b612d55cab685f543e0d44880874da1bc9c38920e1bd40322e560975dbce29a",
  "args": [
    "0x62174a3d52fE325e9eEDbADa06190843835Ac229",
    "0x1cAF2D66b288cE25d537A2E434AB621edC5B7a73",
    60,
    86400,
    "0x2b5E02975bD875ca4ED565E69B19a96d8C0f0E23",
    "0xf629e307dC59d82AE1C8e30fAa65E9486cFADD96",
    "0x0A3aa096eCf8A240e4086d67056cAf2B810701CB",
    "0x079f68Fa440A0F04d741a5Aba7DA8fE9DfB0AA8B"
  ],
  "numDeployments": 1,
  "solcInputHash": "7175abecb1f004de0856aecd8063c465",
  "bytecode": "0x6101406040523480156200001257600080fd5b50604051620025943803806200259483398101604081905262000035916200023b565b81336200004281620001d2565b6040516302571be360e01b81527f91d1777781884d03a6757a803996e38de2a42967fb37eeaca72729271025a9e260048201526000906001600160a01b038416906302571be390602401602060405180830381865afa158015620000aa573d6000803e3d6000fd5b505050506040513d601f19601f82011682018060405250810190620000d09190620002e5565b604051630f41a04d60e11b81526001600160a01b03848116600483015291925090821690631e83409a906024016020604051808303816000875af11580156200011d573d6000803e3d6000fd5b505050506040513d601f19601f820116820180604052508101906200014391906200030c565b5050505085851162000168576040516307cb550760e31b815260040160405180910390fd5b428511156200018a57604051630b4319e560e21b815260040160405180910390fd5b6001600160a01b0397881660805295871660a0525060c09390935260e091909152831661010052821661012052600380546001600160a01b0319169190921617905562000326565b600080546001600160a01b038381166001600160a01b0319831681178455604051919092169283917f8be0079c531659141344cd1fd0a4f28419497f9722a3daafe3b4186f6b6457e09190a35050565b6001600160a01b03811681146200023857600080fd5b50565b600080600080600080600080610100898b0312156200025957600080fd5b8851620002668162000222565b60208a0151909850620002798162000222565b80975050604089015195506060890151945060808901516200029b8162000222565b60a08a0151909450620002ae8162000222565b60c08a0151909350620002c18162000222565b60e08a0151909250620002d48162000222565b809150509295985092959890939650565b600060208284031215620002f857600080fd5b8151620003058162000222565b9392505050565b6000602082840312156200031f57600080fd5b5051919050565b60805160a05160c05160e05161010051610120516121e6620003ae6000396000818161043d01528181610c2601526110e001526000818161029c01526116430152600081816104a401528181610e04015261146a01526000818161034f01526113f30152600081816104d8015261089e0152600081816108d30152610d7301526121e66000f3fe60806040526004361061018b5760003560e01c80638da5cb5b116100d6578063acf1a8411161007f578063d3419bf311610059578063d3419bf3146104c6578063f14fcbc8146104fa578063f2fde38b1461051a57600080fd5b8063acf1a8411461045f578063aeb8ce9b14610472578063ce1e09c01461049257600080fd5b80639f4568ef116100b05780639f4568ef146103df578063a0594df814610418578063a8e5fbc01461042b57600080fd5b80638da5cb5b146103715780639241f0851461038f5780639791c097146103bf57600080fd5b806374694a2b1161013857806383e7f6ff1161011257806383e7f6ff146102eb5780638a95b09f146103265780638d839ffe1461033d57600080fd5b806374694a2b14610277578063808698531461028a578063839df945146102be57600080fd5b80635d3590d5116101695780635d3590d51461021457806365a69dcf14610234578063715018a61461026257600080fd5b806301ffc9a714610190578063070bdbef146101c55780633ccfd60b146101fd575b600080fd5b34801561019c57600080fd5b506101b06101ab3660046116f5565b61053a565b60405190151581526020015b60405180910390f35b3480156101d157600080fd5b506003546101e5906001600160a01b031681565b6040516001600160a01b0390911681526020016101bc565b34801561020957600080fd5b506102126105d3565b005b34801561022057600080fd5b5061021261022f366004611753565b610610565b34801561024057600080fd5b5061025461024f3660046118cb565b6106aa565b6040519081526020016101bc565b34801561026e57600080fd5b50610212610748565b6102126102853660046119ce565b61075c565b34801561029657600080fd5b506101e57f000000000000000000000000000000000000000000000000000000000000000081565b3480156102ca57600080fd5b506102546102d9366004611a98565b60016020526000908152604090205481565b3480156102f757600080fd5b5061030b610306366004611ab1565b610854565b604080518251815260209283015192810192909252016101bc565b34801561033257600080fd5b506102546224ea0081565b34801561034957600080fd5b506102547f000000000000000000000000000000000000000000000000000000000000000081565b34801561037d57600080fd5b506000546001600160a01b03166101e5565b34801561039b57600080fd5b506101b06103aa366004611af6565b60026020526000908152604090205460ff1681565b3480156103cb57600080fd5b506101b06103da366004611b11565b6109a7565b3480156103eb57600080fd5b506101b06103fa366004611af6565b6001600160a01b031660009081526002602052604090205460ff1690565b610212610426366004611b46565b6109bc565b34801561043757600080fd5b506101e57f000000000000000000000000000000000000000000000000000000000000000081565b61021261046d366004611c51565b610b69565b34801561047e57600080fd5b506101b061048d366004611b11565b610d2a565b34801561049e57600080fd5b506102547f000000000000000000000000000000000000000000000000000000000000000081565b3480156104d257600080fd5b506101e57f000000000000000000000000000000000000000000000000000000000000000081565b34801561050657600080fd5b50610212610515366004611a98565b610ded565b34801561052657600080fd5b50610212610535366004611af6565b610e76565b60007fffffffff0000000000000000000000000000000000000000000000000000000082167f01ffc9a70000000000000000000000000000000000000000000000000000000014806105cd57507fffffffff0000000000000000000000000000000000000000000000000000000082167f612e8c0900000000000000000000000000000000000000000000000000000000145b92915050565b600080546040516001600160a01b03909116914780156108fc02929091818181858888f1935050505015801561060d573d6000803e3d6000fd5b50565b610618610f03565b6040517fa9059cbb0000000000000000000000000000000000000000000000000000000081526001600160a01b0383811660048301526024820183905284169063a9059cbb906044016020604051808303816000875af1158015610680573d6000803e3d6000fd5b505050506040513d601f19601f820116820180604052508101906106a49190611c9d565b50505050565b885160208a012060009084158015906106ca57506001600160a01b038716155b15610701576040517fd3f605c400000000000000000000000000000000000000000000000000000000815260040160405180910390fd5b808a8a8a8a8a8a8a8a60405160200161072299989796959493929190611d75565b604051602081830303815290604052805190602001209150509998505050505050505050565b610750610f03565b61075a6000610f5d565b565b600061079f8b8b8080601f0160208091040260200160405190810160405280939291908181526020018383808284376000920191909152508c9250610854915050565b602081015181519192506107b291611ded565b3410156107d25760405163044044a560e21b815260040160405180910390fd5b6107e48b8b8b8b8b8b8b8b8b8b610fc5565b602081015181516107f59190611ded565b341115610847576020810151815133916108fc916108139190611ded565b61081d9034611e00565b6040518115909202916000818181858888f19350505050158015610845573d6000803e3d6000fd5b505b5050505050505050505050565b6040805180820190915260008082526020820152825160208401206040517fd6e4fa86000000000000000000000000000000000000000000000000000000008152600481018290527f00000000000000000000000000000000000000000000000000000000000000006001600160a01b03908116916350e9a7159187917f00000000000000000000000000000000000000000000000000000000000000009091169063d6e4fa8690602401602060405180830381865afa15801561091c573d6000803e3d6000fd5b505050506040513d601f19601f820116820180604052508101906109409190611e13565b866040518463ffffffff1660e01b815260040161095f93929190611e7c565b6040805180830381865afa15801561097b573d6000803e3d6000fd5b505050506040513d601f19601f8201168201806040525081019061099f9190611ea1565b949350505050565b600060036109b48361124d565b101592915050565b6001600160a01b03811660009081526002602052604090205460ff1615610a505760405162461bcd60e51b815260206004820152602860248201527f416464726573732068617320616c72656164792072656769737465726564207560448201527f73696e6720506f4800000000000000000000000000000000000000000000000060648201526084015b60405180910390fd5b6003546040517f3d3ac1b50000000000000000000000000000000000000000000000000000000081526001600160a01b0390911690633d3ac1b590610a9b9085908590600401611ef0565b602060405180830381865afa158015610ab8573d6000803e3d6000fd5b505050506040513d601f19601f82011682018060405250810190610adc9190611c9d565b610b285760405162461bcd60e51b815260206004820152601760248201527f504f4820766572696669636174696f6e206661696c65640000000000000000006044820152606401610a47565b610b3a8c8c8c8c8c8c8c8c8c8c610fc5565b6001600160a01b03166000908152600260205260409020805460ff191660011790555050505050505050505050565b60008383604051610b7b929190611f1b565b604080519182900382206020601f870181900481028401810190925285835292508291600091610bc891908890889081908401838280828437600092019190915250889250610854915050565b8051909150341015610bed5760405163044044a560e21b815260040160405180910390fd5b6040517fc475abff00000000000000000000000000000000000000000000000000000000815260048101839052602481018590526000907f00000000000000000000000000000000000000000000000000000000000000006001600160a01b03169063c475abff906044016020604051808303816000875af1158015610c77573d6000803e3d6000fd5b505050506040513d601f19601f82011682018060405250810190610c9b9190611e13565b8251909150341115610ce357815133906108fc90610cb99034611e00565b6040518115909202916000818181858888f19350505050158015610ce1573d6000803e3d6000fd5b505b837f3da24c024582931cfaf8267d8ed24d13a82a8068d5bd337d30ec45cea4e506ae88883485604051610d199493929190611f2b565b60405180910390a250505050505050565b80516020820120600090610d3d836109a7565b8015610de657506040517f96e494e8000000000000000000000000000000000000000000000000000000008152600481018290527f00000000000000000000000000000000000000000000000000000000000000006001600160a01b0316906396e494e890602401602060405180830381865afa158015610dc2573d6000803e3d6000fd5b505050506040513d601f19601f82011682018060405250810190610de69190611c9d565b9392505050565b6000818152600160205260409020544290610e29907f000000000000000000000000000000000000000000000000000000000000000090611ded565b10610e63576040517f0a059d7100000000000000000000000000000000000000000000000000000000815260048101829052602401610a47565b6000908152600160205260409020429055565b610e7e610f03565b6001600160a01b038116610efa5760405162461bcd60e51b815260206004820152602660248201527f4f776e61626c653a206e6577206f776e657220697320746865207a65726f206160448201527f64647265737300000000000000000000000000000000000000000000000000006064820152608401610a47565b61060d81610f5d565b6000546001600160a01b0316331461075a5760405162461bcd60e51b815260206004820181905260248201527f4f776e61626c653a2063616c6c6572206973206e6f7420746865206f776e65726044820152606401610a47565b600080546001600160a01b038381167fffffffffffffffffffffffff0000000000000000000000000000000000000000831681178455604051919092169283917f8be0079c531659141344cd1fd0a4f28419497f9722a3daafe3b4186f6b6457e09190a35050565b60006110088b8b8080601f0160208091040260200160405190810160405280939291908181526020018383808284376000920191909152508c9250610854915050565b90506110ad8b8b8080601f016020809104026020016040519081016040528093929190818152602001838380828437600081840152601f19601f82011690508083019250505050505050896110a88e8e8080601f016020809104026020016040519081016040528093929190818152602001838380828437600081840152601f19601f820116905080830192505050505050508d8d8d8d8d8d8d8d6106aa565b6113dc565b6040517fa40149820000000000000000000000000000000000000000000000000000000081526000906001600160a01b037f0000000000000000000000000000000000000000000000000000000000000000169063a40149829061111f908f908f908f908f908e908b90600401611f52565b6020604051808303816000875af115801561113e573d6000803e3d6000fd5b505050506040513d601f19601f820116820180604052508101906111629190611e13565b9050841561118d5761118d878d8d60405161117e929190611f1b565b6040518091039020888861155e565b83156111d6576111d68c8c8080601f0160208091040260200160405190810160405280939291908181526020018383808284376000920191909152508b92503391506116419050565b896001600160a01b03168c8c6040516111f0929190611f1b565b60405180910390207f69e37f151eb98a09618ddaa80c8cfaf1ce5996867c489f45b555b412271ebf278e8e8660000151876020015187604051611237959493929190611f9c565b60405180910390a3505050505050505050505050565b8051600090819081905b808210156113d357600085838151811061127357611273611fcd565b01602001516001600160f81b03191690507f80000000000000000000000000000000000000000000000000000000000000008110156112be576112b7600184611ded565b92506113c0565b7fe0000000000000000000000000000000000000000000000000000000000000006001600160f81b0319821610156112fb576112b7600284611ded565b7ff0000000000000000000000000000000000000000000000000000000000000006001600160f81b031982161015611338576112b7600384611ded565b7ff8000000000000000000000000000000000000000000000000000000000000006001600160f81b031982161015611375576112b7600484611ded565b7ffc000000000000000000000000000000000000000000000000000000000000006001600160f81b0319821610156113b2576112b7600584611ded565b6113bd600684611ded565b92505b50826113cb81611fe3565b935050611257565b50909392505050565b6000818152600160205260409020544290611418907f000000000000000000000000000000000000000000000000000000000000000090611ded565b1115611453576040517f5320bcf900000000000000000000000000000000000000000000000000000000815260048101829052602401610a47565b600081815260016020526040902054429061148f907f000000000000000000000000000000000000000000000000000000000000000090611ded565b116114c9576040517fcb7690d700000000000000000000000000000000000000000000000000000000815260048101829052602401610a47565b6114d283610d2a565b61150a57826040517f477707e8000000000000000000000000000000000000000000000000000000008152600401610a479190611ffc565b6000818152600160205260408120556224ea00821015611559576040517f9a71997b00000000000000000000000000000000000000000000000000000000815260048101839052602401610a47565b505050565b604080517f93cdeb708b7545dc668eb9280176169d1c33cfd8ed6f04690a0bcc88a93fc4ae602080830191909152818301869052825180830384018152606083019384905280519101207fe32954eb0000000000000000000000000000000000000000000000000000000090925285906001600160a01b0382169063e32954eb906115f19085908890889060640161200f565b6000604051808303816000875af1158015611610573d6000803e3d6000fd5b505050506040513d6000823e601f3d908101601f191682016040526116389190810190612032565b50505050505050565b7f00000000000000000000000000000000000000000000000000000000000000006001600160a01b0316637a806d6b338385876040516020016116849190612131565b6040516020818303038152906040526040518563ffffffff1660e01b81526004016116b29493929190612172565b6020604051808303816000875af11580156116d1573d6000803e3d6000fd5b505050506040513d601f19601f820116820180604052508101906106a49190611e13565b60006020828403121561170757600080fd5b81357fffffffff0000000000000000000000000000000000000000000000000000000081168114610de657600080fd5b80356001600160a01b038116811461174e57600080fd5b919050565b60008060006060848603121561176857600080fd5b61177184611737565b925061177f60208501611737565b9150604084013590509250925092565b634e487b7160e01b600052604160045260246000fd5b604051601f8201601f1916810167ffffffffffffffff811182821017156117ce576117ce61178f565b604052919050565b600067ffffffffffffffff8211156117f0576117f061178f565b50601f01601f191660200190565b600082601f83011261180f57600080fd5b813561182261181d826117d6565b6117a5565b81815284602083860101111561183757600080fd5b816020850160208301376000918101602001919091529392505050565b60008083601f84011261186657600080fd5b50813567ffffffffffffffff81111561187e57600080fd5b6020830191508360208260051b850101111561189957600080fd5b9250929050565b801515811461060d57600080fd5b803561174e816118a0565b803561ffff8116811461174e57600080fd5b60008060008060008060008060006101008a8c0312156118ea57600080fd5b893567ffffffffffffffff8082111561190257600080fd5b61190e8d838e016117fe565b9a5061191c60208d01611737565b995060408c0135985060608c0135975061193860808d01611737565b965060a08c013591508082111561194e57600080fd5b5061195b8c828d01611854565b90955093505060c08a013561196f816118a0565b915061197d60e08b016118b9565b90509295985092959850929598565b60008083601f84011261199e57600080fd5b50813567ffffffffffffffff8111156119b657600080fd5b60208301915083602082850101111561189957600080fd5b6000806000806000806000806000806101008b8d0312156119ee57600080fd5b8a3567ffffffffffffffff80821115611a0657600080fd5b611a128e838f0161198c565b909c509a508a9150611a2660208e01611737565b995060408d0135985060608d01359750611a4260808e01611737565b965060a08d0135915080821115611a5857600080fd5b50611a658d828e01611854565b90955093505060c08b0135611a79816118a0565b9150611a8760e08c016118b9565b90509295989b9194979a5092959850565b600060208284031215611aaa57600080fd5b5035919050565b60008060408385031215611ac457600080fd5b823567ffffffffffffffff811115611adb57600080fd5b611ae7858286016117fe565b95602094909401359450505050565b600060208284031215611b0857600080fd5b610de682611737565b600060208284031215611b2357600080fd5b813567ffffffffffffffff811115611b3a57600080fd5b61099f848285016117fe565b6000806000806000806000806000806000806101408d8f031215611b6957600080fd5b67ffffffffffffffff8d351115611b7f57600080fd5b611b8c8e8e358f0161198c565b909c509a50611b9d60208e01611737565b995060408d0135985060608d01359750611bb960808e01611737565b965067ffffffffffffffff60a08e01351115611bd457600080fd5b611be48e60a08f01358f01611854565b9096509450611bf560c08e016118ae565b9350611c0360e08e016118b9565b925067ffffffffffffffff6101008e01351115611c1f57600080fd5b611c308e6101008f01358f016117fe565b9150611c3f6101208e01611737565b90509295989b509295989b509295989b565b600080600060408486031215611c6657600080fd5b833567ffffffffffffffff811115611c7d57600080fd5b611c898682870161198c565b909790965060209590950135949350505050565b600060208284031215611caf57600080fd5b8151610de6816118a0565b81835281816020850137506000828201602090810191909152601f909101601f19169091010190565b81835260006020808501808196508560051b810191508460005b87811015611d685782840389528135601e19883603018112611d1e57600080fd5b8701858101903567ffffffffffffffff811115611d3a57600080fd5b803603821315611d4957600080fd5b611d54868284611cba565b9a87019a9550505090840190600101611cfd565b5091979650505050505050565b60006101008b83526001600160a01b03808c1660208501528a60408501528960608501528089166080850152508060a0840152611db58184018789611ce3565b94151560c0840152505061ffff9190911660e090910152979650505050505050565b634e487b7160e01b600052601160045260246000fd5b808201808211156105cd576105cd611dd7565b818103818111156105cd576105cd611dd7565b600060208284031215611e2557600080fd5b5051919050565b60005b83811015611e47578181015183820152602001611e2f565b50506000910152565b60008151808452611e68816020860160208601611e2c565b601f01601f19169290920160200192915050565b606081526000611e8f6060830186611e50565b60208301949094525060400152919050565b600060408284031215611eb357600080fd5b6040516040810181811067ffffffffffffffff82111715611ed657611ed661178f565b604052825181526020928301519281019290925250919050565b604081526000611f036040830185611e50565b90506001600160a01b03831660208301529392505050565b8183823760009101908152919050565b606081526000611f3f606083018688611cba565b6020830194909452506040015292915050565b60a081526000611f6660a08301888a611cba565b90506001600160a01b03808716602084015285604084015280851660608401525061ffff83166080830152979650505050505050565b608081526000611fb0608083018789611cba565b602083019590955250604081019290925260609091015292915050565b634e487b7160e01b600052603260045260246000fd5b600060018201611ff557611ff5611dd7565b5060010190565b602081526000610de66020830184611e50565b838152604060208201526000612029604083018486611ce3565b95945050505050565b6000602080838503121561204557600080fd5b825167ffffffffffffffff8082111561205d57600080fd5b818501915085601f83011261207157600080fd5b8151818111156120835761208361178f565b8060051b6120928582016117a5565b91825283810185019185810190898411156120ac57600080fd5b86860192505b83831015612124578251858111156120ca5760008081fd5b8601603f81018b136120dc5760008081fd5b8781015160406120ee61181d836117d6565b8281528d828486010111156121035760008081fd5b612112838c8301848701611e2c565b855250505091860191908601906120b2565b9998505050505050505050565b60008251612143818460208701611e2c565b7f2e65746800000000000000000000000000000000000000000000000000000000920191825250600401919050565b60006001600160a01b0380871683528086166020840152808516604084015250608060608301526121a66080830184611e50565b969550505050505056fea264697066735822122086ca2a9f1348cb412db0c064ebe64b81056ba61f89718d1f9f642c10d9e798c664736f6c63430008110033",
  "devdoc": {
    "details": "A registrar controller for registering and renewing names at fixed cost.",
    "kind": "dev",
    "methods": {
      "owner()": {
        "details": "Returns the address of the current owner."
      },
      "recoverFunds(address,address,uint256)": {
        "details": "The contract is Ownable and only the owner can call the recover function.",
        "params": {
          "_amount": "The amount of tokens to recover.",
          "_to": "The address to send the tokens to.",
          "_token": "The address of the ERC20 token to recover"
        }
      },
      "renounceOwnership()": {
        "details": "Leaves the contract without owner. It will not be possible to call `onlyOwner` functions anymore. Can only be called by the current owner. NOTE: Renouncing ownership will leave the contract without an owner, thereby removing any functionality that is only available to the owner."
      },
      "transferOwnership(address)": {
        "details": "Transfers ownership of the contract to a new account (`newOwner`). Can only be called by the current owner."
      }
    },
    "version": 1
  },
  "userdoc": {
    "kind": "user",
    "methods": {
      "recoverFunds(address,address,uint256)": {
        "notice": "Recover ERC20 tokens sent to the contract by mistake."
      }
    },
    "version": 1
  },
  "storageLayout": {
    "storage": [
      {
        "astId": 444,
        "contract": "contracts/ethregistrar/ETHRegistrarController.sol:ETHRegistrarController",
        "label": "_owner",
        "offset": 0,
        "slot": "0",
        "type": "t_address"
      },
      {
        "astId": 12649,
        "contract": "contracts/ethregistrar/ETHRegistrarController.sol:ETHRegistrarController",
        "label": "commitments",
        "offset": 0,
        "slot": "1",
        "type": "t_mapping(t_bytes32,t_uint256)"
      },
      {
        "astId": 12653,
        "contract": "contracts/ethregistrar/ETHRegistrarController.sol:ETHRegistrarController",
        "label": "hasRegisteredPoh",
        "offset": 0,
        "slot": "2",
        "type": "t_mapping(t_address,t_bool)"
      },
      {
        "astId": 12680,
        "contract": "contracts/ethregistrar/ETHRegistrarController.sol:ETHRegistrarController",
        "label": "pohVerifier",
        "offset": 0,
        "slot": "3",
        "type": "t_contract(PohVerifier)14471"
      }
    ],
    "types": {
      "t_address": {
        "encoding": "inplace",
        "label": "address",
        "numberOfBytes": "20"
      },
      "t_bool": {
        "encoding": "inplace",
        "label": "bool",
        "numberOfBytes": "1"
      },
      "t_bytes32": {
        "encoding": "inplace",
        "label": "bytes32",
        "numberOfBytes": "32"
      },
      "t_contract(PohVerifier)14471": {
        "encoding": "inplace",
        "label": "contract PohVerifier",
        "numberOfBytes": "20"
      },
      "t_mapping(t_address,t_bool)": {
        "encoding": "mapping",
        "key": "t_address",
        "label": "mapping(address => bool)",
        "numberOfBytes": "32",
        "value": "t_bool"
      },
      "t_mapping(t_bytes32,t_uint256)": {
        "encoding": "mapping",
        "key": "t_bytes32",
        "label": "mapping(bytes32 => uint256)",
        "numberOfBytes": "32",
        "value": "t_uint256"
      },
      "t_uint256": {
        "encoding": "inplace",
        "label": "uint256",
        "numberOfBytes": "32"
      }
    }
  }
}