{
  "address": "0xfa623e28De6F08C2E651CC8c5ba8C6eEDd54AFBb",
  "abi": [
    {
      "inputs": [],
      "name": "FIXED_PRICE_USD",
      "outputs": [
        {
          "internalType": "uint256",
          "name": "",
          "type": "uint256"
        }
      ],
      "stateMutability": "view",
      "type": "function"
    },
    {
      "inputs": [
        {
          "internalType": "string",
          "name": "",
          "type": "string"
        },
        {
          "internalType": "uint256",
          "name": "",
          "type": "uint256"
        },
        {
          "internalType": "uint256",
          "name": "",
          "type": "uint256"
        }
      ],
      "name": "price",
      "outputs": [
        {
          "components": [
            {
              "internalType": "uint256",
              "name": "base",
              "type": "uint256"
            },
            {
              "internalType": "uint256",
              "name": "premium",
              "type": "uint256"
            }
          ],
          "internalType": "struct IPriceOracle.Price",
          "name": "",
          "type": "tuple"
        }
      ],
      "stateMutability": "pure",
      "type": "function"
    }
  ],
  "transactionHash": "0x0b429037bd27105f39364ca047fc0c9ba9f34e27b627ae0bcdc25bc64f7b5174",
  "args": [],
  "numDeployments": 1,
  "solcInputHash": "e1aa9cbc1adf558d3d1527c682b8ef46",
  "bytecode": "0x608060405234801561001057600080fd5b50610174806100206000396000f3fe608060405234801561001057600080fd5b50600436106100365760003560e01c806350e9a7151461003b578063849a41de146100a0575b600080fd5b6100806100493660046100bf565b505060408051808201825260008082526020918201819052825180840190935269d3c21bcecceda100000083529082015292915050565b604080518251815260209283015192810192909252015b60405180910390f35b6100b169d3c21bcecceda100000081565b604051908152602001610097565b600080600080606085870312156100d557600080fd5b843567ffffffffffffffff808211156100ed57600080fd5b818701915087601f83011261010157600080fd5b81358181111561011057600080fd5b88602082850101111561012257600080fd5b602092830199909850918701359660400135955090935050505056fea26469706673582212208b492a0d9cc2d5a2eabe045c4eb8a62dcbf13fdd3f637d18df7736184fbde4ec64736f6c63430008110033",
  "devdoc": {
    "kind": "dev",
    "methods": {},
    "version": 1
  },
  "userdoc": {
    "kind": "user",
    "methods": {},
    "version": 1
  },
  "storageLayout": {
    "storage": [],
    "types": null
  }
}