{
  "address": "0x2B0F8261475f5c423faaD78d36329B5748fDCcdF",
  "abi": [
    {
      "inputs": [],
      "stateMutability": "nonpayable",
      "type": "constructor"
    },
    {
      "anonymous": false,
      "inputs": [
        {
          "indexed": true,
          "internalType": "address",
          "name": "previousOwner",
          "type": "address"
        },
        {
          "indexed": true,
          "internalType": "address",
          "name": "newOwner",
          "type": "address"
        }
      ],
      "name": "OwnershipTransferred",
      "type": "event"
    },
    {
      "anonymous": false,
      "inputs": [
        {
          "indexed": true,
          "internalType": "address",
          "name": "newSigner",
          "type": "address"
        }
      ],
      "name": "SignerUpdated",
      "type": "event"
    },
    {
      "anonymous": false,
      "inputs": [
        {
          "indexed": false,
          "internalType": "uint256",
          "name": "amount",
          "type": "uint256"
        },
        {
          "indexed": false,
          "internalType": "uint256",
          "name": "when",
          "type": "uint256"
        }
      ],
      "name": "Withdrawal",
      "type": "event"
    },
    {
      "inputs": [],
      "name": "owner",
      "outputs": [
        {
          "internalType": "address",
          "name": "",
          "type": "address"
        }
      ],
      "stateMutability": "view",
      "type": "function"
    },
    {
      "inputs": [],
      "name": "renounceOwnership",
      "outputs": [],
      "stateMutability": "nonpayable",
      "type": "function"
    },
    {
      "inputs": [
        {
          "internalType": "address",
          "name": "_signer",
          "type": "address"
        }
      ],
      "name": "setSigner",
      "outputs": [],
      "stateMutability": "nonpayable",
      "type": "function"
    },
    {
      "inputs": [],
      "name": "signer",
      "outputs": [
        {
          "internalType": "address payable",
          "name": "",
          "type": "address"
        }
      ],
      "stateMutability": "view",
      "type": "function"
    },
    {
      "inputs": [
        {
          "internalType": "address",
          "name": "newOwner",
          "type": "address"
        }
      ],
      "name": "transferOwnership",
      "outputs": [],
      "stateMutability": "nonpayable",
      "type": "function"
    },
    {
      "inputs": [
        {
          "internalType": "bytes",
          "name": "signature",
          "type": "bytes"
        },
        {
          "internalType": "address",
          "name": "human",
          "type": "address"
        }
      ],
      "name": "verify",
      "outputs": [
        {
          "internalType": "bool",
          "name": "",
          "type": "bool"
        }
      ],
      "stateMutability": "view",
      "type": "function"
    }
  ],
  "transactionHash": "0x64d99d58a93d7129a545de2dd489a9aa81f0fdd38d112c0604578dee96d06622",
  "args": [],
  "numDeployments": 1,
  "solcInputHash": "3bb3c8c8e9b51129edd29d968a2a6491",
  "bytecode": "0x61014060405234801561001157600080fd5b5060408051808201825260098152680accae4d2ccf2a0ded60bb1b6020808301918252835180850190945260018452603160f81b908401528151902060e08190527fc89efdaa54c0f20c7adf612882df0950f5a951637e0307cdcb4c672f298b8bc66101008190524660a0529192917f8b73c3c69bb8fe3d512ecc4cf759cc79239f7b179b0ffacaa9a75d522b39400f6100f08184846040805160208101859052908101839052606081018290524660808201523060a082015260009060c0016040516020818303038152906040528051906020012090509392505050565b6080523060c0526101205250610110925061010b9150503390565b610171565b600180546001600160a01b0319163317905560408051808201909152601481527f436f6e7472616374204465706c6f79656420303100000000000000000000000060208083019190915261016c91906102f76101c1821b17901c565b61027a565b600080546001600160a01b038381166001600160a01b0319831681178455604051919092169283917f8be0079c531659141344cd1fd0a4f28419497f9722a3daafe3b4186f6b6457e09190a35050565b610208816040516024016101d5919061022c565b60408051601f198184030181529190526020810180516001600160e01b0390811663104c13eb60e21b1790915261020b16565b50565b80516a636f6e736f6c652e6c6f67602083016000808483855afa5050505050565b600060208083528351808285015260005b818110156102595785810183015185820160400152820161023d565b506000604082860101526040601f19601f8301168501019250505092915050565b60805160a05160c05160e0516101005161012051610a186102c9600039600061055d015260006105ac01526000610587015260006104e00152600061050a015260006105340152610a186000f3fe608060405234801561001057600080fd5b50600436106100725760003560e01c8063715018a611610050578063715018a6146100df5780638da5cb5b146100e7578063f2fde38b146100f857600080fd5b8063238ac933146100775780633d3ac1b5146100a75780636c19e783146100ca575b600080fd5b60015461008a906001600160a01b031681565b6040516001600160a01b0390911681526020015b60405180910390f35b6100ba6100b536600461089a565b61010b565b604051901515815260200161009e565b6100dd6100d836600461095c565b610199565b005b6100dd610253565b6000546001600160a01b031661008a565b6100dd61010636600461095c565b610267565b6000806101717f21d8840bd8c10509aa539d8c2345dc09c5f0a0a03df8655015adbef3491cc7dd846040516020016101569291909182526001600160a01b0316602082015260400190565b60405160208183030381529060405280519060200120610368565b9050600061017f82866103d7565b6001546001600160a01b0390811691161495945050505050565b6101a16103fb565b6001600160a01b0381166101fc5760405162461bcd60e51b815260206004820152600f60248201527f496e76616c69642061646472657373000000000000000000000000000000000060448201526064015b60405180910390fd5b6001805473ffffffffffffffffffffffffffffffffffffffff19166001600160a01b0383169081179091556040517f5553331329228fbd4123164423717a4a7539f6dfa1c3279a923b98fd681a6c7390600090a250565b61025b6103fb565b6102656000610455565b565b61026f6103fb565b6001600160a01b0381166102eb5760405162461bcd60e51b815260206004820152602660248201527f4f776e61626c653a206e6577206f776e657220697320746865207a65726f206160448201527f646472657373000000000000000000000000000000000000000000000000000060648201526084016101f3565b6102f481610455565b50565b6102f48160405160240161030b919061097e565b60408051601f198184030181529190526020810180517bffffffffffffffffffffffffffffffffffffffffffffffffffffffff167f41304fac000000000000000000000000000000000000000000000000000000001790526104b2565b60006103d16103756104d3565b836040517f19010000000000000000000000000000000000000000000000000000000000006020820152602281018390526042810182905260009060620160405160208183030381529060405280519060200120905092915050565b92915050565b60008060006103e685856105fa565b915091506103f38161063f565b509392505050565b6000546001600160a01b031633146102655760405162461bcd60e51b815260206004820181905260248201527f4f776e61626c653a2063616c6c6572206973206e6f7420746865206f776e657260448201526064016101f3565b600080546001600160a01b0383811673ffffffffffffffffffffffffffffffffffffffff19831681178455604051919092169283917f8be0079c531659141344cd1fd0a4f28419497f9722a3daafe3b4186f6b6457e09190a35050565b80516a636f6e736f6c652e6c6f67602083016000808483855afa5050505050565b6000306001600160a01b037f00000000000000000000000000000000000000000000000000000000000000001614801561052c57507f000000000000000000000000000000000000000000000000000000000000000046145b1561055657507f000000000000000000000000000000000000000000000000000000000000000090565b50604080517f00000000000000000000000000000000000000000000000000000000000000006020808301919091527f0000000000000000000000000000000000000000000000000000000000000000828401527f000000000000000000000000000000000000000000000000000000000000000060608301524660808301523060a0808401919091528351808403909101815260c0909201909252805191012090565b60008082516041036106305760208301516040840151606085015160001a610624878285856107a4565b94509450505050610638565b506000905060025b9250929050565b6000816004811115610653576106536109cc565b0361065b5750565b600181600481111561066f5761066f6109cc565b036106bc5760405162461bcd60e51b815260206004820152601860248201527f45434453413a20696e76616c6964207369676e6174757265000000000000000060448201526064016101f3565b60028160048111156106d0576106d06109cc565b0361071d5760405162461bcd60e51b815260206004820152601f60248201527f45434453413a20696e76616c6964207369676e6174757265206c656e6774680060448201526064016101f3565b6003816004811115610731576107316109cc565b036102f45760405162461bcd60e51b815260206004820152602260248201527f45434453413a20696e76616c6964207369676e6174757265202773272076616c60448201527f756500000000000000000000000000000000000000000000000000000000000060648201526084016101f3565b6000807f7fffffffffffffffffffffffffffffff5d576e7357a4501ddfe92f46681b20a08311156107db575060009050600361085f565b6040805160008082526020820180845289905260ff881692820192909252606081018690526080810185905260019060a0016020604051602081039080840390855afa15801561082f573d6000803e3d6000fd5b5050604051601f1901519150506001600160a01b0381166108585760006001925092505061085f565b9150600090505b94509492505050565b634e487b7160e01b600052604160045260246000fd5b80356001600160a01b038116811461089557600080fd5b919050565b600080604083850312156108ad57600080fd5b823567ffffffffffffffff808211156108c557600080fd5b818501915085601f8301126108d957600080fd5b8135818111156108eb576108eb610868565b604051601f8201601f19908116603f0116810190838211818310171561091357610913610868565b8160405282815288602084870101111561092c57600080fd5b8260208601602083013760006020848301015280965050505050506109536020840161087e565b90509250929050565b60006020828403121561096e57600080fd5b6109778261087e565b9392505050565b600060208083528351808285015260005b818110156109ab5785810183015185820160400152820161098f565b506000604082860101526040601f19601f8301168501019250505092915050565b634e487b7160e01b600052602160045260246000fdfea2646970667358221220e4b2830a95388a4a908911da8549323da9301ab16f0e7f8ccd9381011983640a64736f6c63430008110033",
  "devdoc": {
    "kind": "dev",
    "methods": {
      "owner()": {
        "details": "Returns the address of the current owner."
      },
      "renounceOwnership()": {
        "details": "Leaves the contract without owner. It will not be possible to call `onlyOwner` functions anymore. Can only be called by the current owner. NOTE: Renouncing ownership will leave the contract without an owner, thereby removing any functionality that is only available to the owner."
      },
      "transferOwnership(address)": {
        "details": "Transfers ownership of the contract to a new account (`newOwner`). Can only be called by the current owner."
      }
    },
    "version": 1
  },
  "userdoc": {
    "kind": "user",
    "methods": {},
    "version": 1
  },
  "storageLayout": {
    "storage": [
      {
        "astId": 444,
        "contract": "contracts/ethregistrar/PohVerifier.sol:PohVerifier",
        "label": "_owner",
        "offset": 0,
        "slot": "0",
        "type": "t_address"
      },
      {
        "astId": 14365,
        "contract": "contracts/ethregistrar/PohVerifier.sol:PohVerifier",
        "label": "signer",
        "offset": 0,
        "slot": "1",
        "type": "t_address_payable"
      }
    ],
    "types": {
      "t_address": {
        "encoding": "inplace",
        "label": "address",
        "numberOfBytes": "20"
      },
      "t_address_payable": {
        "encoding": "inplace",
        "label": "address payable",
        "numberOfBytes": "20"
      }
    }
  }
}