{
  "address": "0xE0Ceb5D0C15E6d4369696A2cb1e2133904299270",
  "abi": [
    {
      "inputs": [
        {
          "internalType": "contract ENS",
          "name": "_ens",
          "type": "address"
        },
        {
          "internalType": "contract IBaseRegistrar",
          "name": "_registrar",
          "type": "address"
        },
        {
          "internalType": "contract IMetadataService",
          "name": "_metadataService",
          "type": "address"
        },
        {
          "internalType": "bytes32",
          "name": "_baseNode",
          "type": "bytes32"
        },
        {
          "internalType": "bytes",
          "name": "_baseNodeDnsEncoded",
          "type": "bytes"
        }
      ],
      "stateMutability": "nonpayable",
      "type": "constructor"
    },
    {
      "inputs": [],
      "name": "CannotUpgrade",
      "type": "error"
    },
    {
      "inputs": [],
      "name": "IncompatibleParent",
      "type": "error"
    },
    {
      "inputs": [
        {
          "internalType": "address",
          "name": "owner",
          "type": "address"
        }
      ],
      "name": "IncorrectTargetOwner",
      "type": "error"
    },
    {
      "inputs": [],
      "name": "IncorrectTokenType",
      "type": "error"
    },
    {
      "inputs": [
        {
          "internalType": "bytes32",
          "name": "labelHash",
          "type": "bytes32"
        },
        {
          "internalType": "bytes32",
          "name": "expectedLabelhash",
          "type": "bytes32"
        }
      ],
      "name": "LabelMismatch",
      "type": "error"
    },
    {
      "inputs": [
        {
          "internalType": "string",
          "name": "label",
          "type": "string"
        }
      ],
      "name": "LabelTooLong",
      "type": "error"
    },
    {
      "inputs": [],
      "name": "LabelTooShort",
      "type": "error"
    },
    {
      "inputs": [],
      "name": "NameIsNotWrapped",
      "type": "error"
    },
    {
      "inputs": [
        {
          "internalType": "bytes32",
          "name": "node",
          "type": "bytes32"
        }
      ],
      "name": "OperationProhibited",
      "type": "error"
    },
    {
      "inputs": [
        {
          "internalType": "bytes32",
          "name": "node",
          "type": "bytes32"
        },
        {
          "internalType": "address",
          "name": "addr",
          "type": "address"
        }
      ],
      "name": "Unauthorised",
      "type": "error"
    },
    {
      "anonymous": false,
      "inputs": [
        {
          "indexed": true,
          "internalType": "address",
          "name": "owner",
          "type": "address"
        },
        {
          "indexed": true,
          "internalType": "address",
          "name": "approved",
          "type": "address"
        },
        {
          "indexed": true,
          "internalType": "uint256",
          "name": "tokenId",
          "type": "uint256"
        }
      ],
      "name": "Approval",
      "type": "event"
    },
    {
      "anonymous": false,
      "inputs": [
        {
          "indexed": true,
          "internalType": "address",
          "name": "account",
          "type": "address"
        },
        {
          "indexed": true,
          "internalType": "address",
          "name": "operator",
          "type": "address"
        },
        {
          "indexed": false,
          "internalType": "bool",
          "name": "approved",
          "type": "bool"
        }
      ],
      "name": "ApprovalForAll",
      "type": "event"
    },
    {
      "anonymous": false,
      "inputs": [
        {
          "indexed": true,
          "internalType": "address",
          "name": "controller",
          "type": "address"
        },
        {
          "indexed": false,
          "internalType": "bool",
          "name": "active",
          "type": "bool"
        }
      ],
      "name": "ControllerChanged",
      "type": "event"
    },
    {
      "anonymous": false,
      "inputs": [
        {
          "indexed": true,
          "internalType": "bytes32",
          "name": "node",
          "type": "bytes32"
        },
        {
          "indexed": false,
          "internalType": "uint64",
          "name": "expiry",
          "type": "uint64"
        }
      ],
      "name": "ExpiryExtended",
      "type": "event"
    },
    {
      "anonymous": false,
      "inputs": [
        {
          "indexed": true,
          "internalType": "bytes32",
          "name": "node",
          "type": "bytes32"
        },
        {
          "indexed": false,
          "internalType": "uint32",
          "name": "fuses",
          "type": "uint32"
        }
      ],
      "name": "FusesSet",
      "type": "event"
    },
    {
      "anonymous": false,
      "inputs": [
        {
          "indexed": true,
          "internalType": "bytes32",
          "name": "node",
          "type": "bytes32"
        },
        {
          "indexed": false,
          "internalType": "address",
          "name": "owner",
          "type": "address"
        }
      ],
      "name": "NameUnwrapped",
      "type": "event"
    },
    {
      "anonymous": false,
      "inputs": [
        {
          "indexed": true,
          "internalType": "bytes32",
          "name": "node",
          "type": "bytes32"
        },
        {
          "indexed": false,
          "internalType": "bytes",
          "name": "name",
          "type": "bytes"
        },
        {
          "indexed": false,
          "internalType": "address",
          "name": "owner",
          "type": "address"
        },
        {
          "indexed": false,
          "internalType": "uint32",
          "name": "fuses",
          "type": "uint32"
        },
        {
          "indexed": false,
          "internalType": "uint64",
          "name": "expiry",
          "type": "uint64"
        }
      ],
      "name": "NameWrapped",
      "type": "event"
    },
    {
      "anonymous": false,
      "inputs": [
        {
          "indexed": true,
          "internalType": "address",
          "name": "previousOwner",
          "type": "address"
        },
        {
          "indexed": true,
          "internalType": "address",
          "name": "newOwner",
          "type": "address"
        }
      ],
      "name": "OwnershipTransferred",
      "type": "event"
    },
    {
      "anonymous": false,
      "inputs": [
        {
          "indexed": true,
          "internalType": "address",
          "name": "operator",
          "type": "address"
        },
        {
          "indexed": true,
          "internalType": "address",
          "name": "from",
          "type": "address"
        },
        {
          "indexed": true,
          "internalType": "address",
          "name": "to",
          "type": "address"
        },
        {
          "indexed": false,
          "internalType": "uint256[]",
          "name": "ids",
          "type": "uint256[]"
        },
        {
          "indexed": false,
          "internalType": "uint256[]",
          "name": "values",
          "type": "uint256[]"
        }
      ],
      "name": "TransferBatch",
      "type": "event"
    },
    {
      "anonymous": false,
      "inputs": [
        {
          "indexed": true,
          "internalType": "address",
          "name": "operator",
          "type": "address"
        },
        {
          "indexed": true,
          "internalType": "address",
          "name": "from",
          "type": "address"
        },
        {
          "indexed": true,
          "internalType": "address",
          "name": "to",
          "type": "address"
        },
        {
          "indexed": false,
          "internalType": "uint256",
          "name": "id",
          "type": "uint256"
        },
        {
          "indexed": false,
          "internalType": "uint256",
          "name": "value",
          "type": "uint256"
        }
      ],
      "name": "TransferSingle",
      "type": "event"
    },
    {
      "anonymous": false,
      "inputs": [
        {
          "indexed": false,
          "internalType": "string",
          "name": "value",
          "type": "string"
        },
        {
          "indexed": true,
          "internalType": "uint256",
          "name": "id",
          "type": "uint256"
        }
      ],
      "name": "URI",
      "type": "event"
    },
    {
      "inputs": [
        {
          "internalType": "uint256",
          "name": "",
          "type": "uint256"
        }
      ],
      "name": "_tokens",
      "outputs": [
        {
          "internalType": "uint256",
          "name": "",
          "type": "uint256"
        }
      ],
      "stateMutability": "view",
      "type": "function"
    },
    {
      "inputs": [
        {
          "internalType": "bytes32",
          "name": "node",
          "type": "bytes32"
        },
        {
          "internalType": "uint32",
          "name": "fuseMask",
          "type": "uint32"
        }
      ],
      "name": "allFusesBurned",
      "outputs": [
        {
          "internalType": "bool",
          "name": "",
          "type": "bool"
        }
      ],
      "stateMutability": "view",
      "type": "function"
    },
    {
      "inputs": [
        {
          "internalType": "address",
          "name": "to",
          "type": "address"
        },
        {
          "internalType": "uint256",
          "name": "tokenId",
          "type": "uint256"
        }
      ],
      "name": "approve",
      "outputs": [],
      "stateMutability": "nonpayable",
      "type": "function"
    },
    {
      "inputs": [
        {
          "internalType": "address",
          "name": "account",
          "type": "address"
        },
        {
          "internalType": "uint256",
          "name": "id",
          "type": "uint256"
        }
      ],
      "name": "balanceOf",
      "outputs": [
        {
          "internalType": "uint256",
          "name": "",
          "type": "uint256"
        }
      ],
      "stateMutability": "view",
      "type": "function"
    },
    {
      "inputs": [
        {
          "internalType": "address[]",
          "name": "accounts",
          "type": "address[]"
        },
        {
          "internalType": "uint256[]",
          "name": "ids",
          "type": "uint256[]"
        }
      ],
      "name": "balanceOfBatch",
      "outputs": [
        {
          "internalType": "uint256[]",
          "name": "",
          "type": "uint256[]"
        }
      ],
      "stateMutability": "view",
      "type": "function"
    },
    {
      "inputs": [],
      "name": "baseNode",
      "outputs": [
        {
          "internalType": "bytes32",
          "name": "",
          "type": "bytes32"
        }
      ],
      "stateMutability": "view",
      "type": "function"
    },
    {
      "inputs": [
        {
          "internalType": "bytes32",
          "name": "node",
          "type": "bytes32"
        },
        {
          "internalType": "address",
          "name": "addr",
          "type": "address"
        }
      ],
      "name": "canExtendSubnames",
      "outputs": [
        {
          "internalType": "bool",
          "name": "",
          "type": "bool"
        }
      ],
      "stateMutability": "view",
      "type": "function"
    },
    {
      "inputs": [
        {
          "internalType": "bytes32",
          "name": "node",
          "type": "bytes32"
        },
        {
          "internalType": "address",
          "name": "addr",
          "type": "address"
        }
      ],
      "name": "canModifyName",
      "outputs": [
        {
          "internalType": "bool",
          "name": "",
          "type": "bool"
        }
      ],
      "stateMutability": "view",
      "type": "function"
    },
    {
      "inputs": [
        {
          "internalType": "address",
          "name": "",
          "type": "address"
        }
      ],
      "name": "controllers",
      "outputs": [
        {
          "internalType": "bool",
          "name": "",
          "type": "bool"
        }
      ],
      "stateMutability": "view",
      "type": "function"
    },
    {
      "inputs": [],
      "name": "ens",
      "outputs": [
        {
          "internalType": "contract ENS",
          "name": "",
          "type": "address"
        }
      ],
      "stateMutability": "view",
      "type": "function"
    },
    {
      "inputs": [
        {
          "internalType": "bytes32",
          "name": "parentNode",
          "type": "bytes32"
        },
        {
          "internalType": "bytes32",
          "name": "labelhash",
          "type": "bytes32"
        },
        {
          "internalType": "uint64",
          "name": "expiry",
          "type": "uint64"
        }
      ],
      "name": "extendExpiry",
      "outputs": [
        {
          "internalType": "uint64",
          "name": "",
          "type": "uint64"
        }
      ],
      "stateMutability": "nonpayable",
      "type": "function"
    },
    {
      "inputs": [
        {
          "internalType": "uint256",
          "name": "id",
          "type": "uint256"
        }
      ],
      "name": "getApproved",
      "outputs": [
        {
          "internalType": "address",
          "name": "operator",
          "type": "address"
        }
      ],
      "stateMutability": "view",
      "type": "function"
    },
    {
      "inputs": [
        {
          "internalType": "uint256",
          "name": "id",
          "type": "uint256"
        }
      ],
      "name": "getData",
      "outputs": [
        {
          "internalType": "address",
          "name": "owner",
          "type": "address"
        },
        {
          "internalType": "uint32",
          "name": "fuses",
          "type": "uint32"
        },
        {
          "internalType": "uint64",
          "name": "expiry",
          "type": "uint64"
        }
      ],
      "stateMutability": "view",
      "type": "function"
    },
    {
      "inputs": [
        {
          "internalType": "address",
          "name": "account",
          "type": "address"
        },
        {
          "internalType": "address",
          "name": "operator",
          "type": "address"
        }
      ],
      "name": "isApprovedForAll",
      "outputs": [
        {
          "internalType": "bool",
          "name": "",
          "type": "bool"
        }
      ],
      "stateMutability": "view",
      "type": "function"
    },
    {
      "inputs": [
        {
          "internalType": "bytes32",
          "name": "parentNode",
          "type": "bytes32"
        },
        {
          "internalType": "bytes32",
          "name": "labelhash",
          "type": "bytes32"
        }
      ],
      "name": "isWrapped",
      "outputs": [
        {
          "internalType": "bool",
          "name": "",
          "type": "bool"
        }
      ],
      "stateMutability": "view",
      "type": "function"
    },
    {
      "inputs": [
        {
          "internalType": "bytes32",
          "name": "node",
          "type": "bytes32"
        }
      ],
      "name": "isWrapped",
      "outputs": [
        {
          "internalType": "bool",
          "name": "",
          "type": "bool"
        }
      ],
      "stateMutability": "view",
      "type": "function"
    },
    {
      "inputs": [],
      "name": "metadataService",
      "outputs": [
        {
          "internalType": "contract IMetadataService",
          "name": "",
          "type": "address"
        }
      ],
      "stateMutability": "view",
      "type": "function"
    },
    {
      "inputs": [],
      "name": "name",
      "outputs": [
        {
          "internalType": "string",
          "name": "",
          "type": "string"
        }
      ],
      "stateMutability": "view",
      "type": "function"
    },
    {
      "inputs": [
        {
          "internalType": "bytes32",
          "name": "",
          "type": "bytes32"
        }
      ],
      "name": "names",
      "outputs": [
        {
          "internalType": "bytes",
          "name": "",
          "type": "bytes"
        }
      ],
      "stateMutability": "view",
      "type": "function"
    },
    {
      "inputs": [
        {
          "internalType": "address",
          "name": "to",
          "type": "address"
        },
        {
          "internalType": "address",
          "name": "",
          "type": "address"
        },
        {
          "internalType": "uint256",
          "name": "tokenId",
          "type": "uint256"
        },
        {
          "internalType": "bytes",
          "name": "data",
          "type": "bytes"
        }
      ],
      "name": "onERC721Received",
      "outputs": [
        {
          "internalType": "bytes4",
          "name": "",
          "type": "bytes4"
        }
      ],
      "stateMutability": "nonpayable",
      "type": "function"
    },
    {
      "inputs": [],
      "name": "owner",
      "outputs": [
        {
          "internalType": "address",
          "name": "",
          "type": "address"
        }
      ],
      "stateMutability": "view",
      "type": "function"
    },
    {
      "inputs": [
        {
          "internalType": "uint256",
          "name": "id",
          "type": "uint256"
        }
      ],
      "name": "ownerOf",
      "outputs": [
        {
          "internalType": "address",
          "name": "owner",
          "type": "address"
        }
      ],
      "stateMutability": "view",
      "type": "function"
    },
    {
      "inputs": [
        {
          "internalType": "address",
          "name": "_token",
          "type": "address"
        },
        {
          "internalType": "address",
          "name": "_to",
          "type": "address"
        },
        {
          "internalType": "uint256",
          "name": "_amount",
          "type": "uint256"
        }
      ],
      "name": "recoverFunds",
      "outputs": [],
      "stateMutability": "nonpayable",
      "type": "function"
    },
    {
      "inputs": [
        {
          "internalType": "string",
          "name": "label",
          "type": "string"
        },
        {
          "internalType": "address",
          "name": "wrappedOwner",
          "type": "address"
        },
        {
          "internalType": "uint256",
          "name": "duration",
          "type": "uint256"
        },
        {
          "internalType": "address",
          "name": "resolver",
          "type": "address"
        },
        {
          "internalType": "uint16",
          "name": "ownerControlledFuses",
          "type": "uint16"
        }
      ],
      "name": "registerAndWrap",
      "outputs": [
        {
          "internalType": "uint256",
          "name": "registrarExpiry",
          "type": "uint256"
        }
      ],
      "stateMutability": "nonpayable",
      "type": "function"
    },
    {
      "inputs": [],
      "name": "registrar",
      "outputs": [
        {
          "internalType": "contract IBaseRegistrar",
          "name": "",
          "type": "address"
        }
      ],
      "stateMutability": "view",
      "type": "function"
    },
    {
      "inputs": [
        {
          "internalType": "uint256",
          "name": "tokenId",
          "type": "uint256"
        },
        {
          "internalType": "uint256",
          "name": "duration",
          "type": "uint256"
        }
      ],
      "name": "renew",
      "outputs": [
        {
          "internalType": "uint256",
          "name": "expires",
          "type": "uint256"
        }
      ],
      "stateMutability": "nonpayable",
      "type": "function"
    },
    {
      "inputs": [],
      "name": "renounceOwnership",
      "outputs": [],
      "stateMutability": "nonpayable",
      "type": "function"
    },
    {
      "inputs": [
        {
          "internalType": "address",
          "name": "from",
          "type": "address"
        },
        {
          "internalType": "address",
          "name": "to",
          "type": "address"
        },
        {
          "internalType": "uint256[]",
          "name": "ids",
          "type": "uint256[]"
        },
        {
          "internalType": "uint256[]",
          "name": "amounts",
          "type": "uint256[]"
        },
        {
          "internalType": "bytes",
          "name": "data",
          "type": "bytes"
        }
      ],
      "name": "safeBatchTransferFrom",
      "outputs": [],
      "stateMutability": "nonpayable",
      "type": "function"
    },
    {
      "inputs": [
        {
          "internalType": "address",
          "name": "from",
          "type": "address"
        },
        {
          "internalType": "address",
          "name": "to",
          "type": "address"
        },
        {
          "internalType": "uint256",
          "name": "id",
          "type": "uint256"
        },
        {
          "internalType": "uint256",
          "name": "amount",
          "type": "uint256"
        },
        {
          "internalType": "bytes",
          "name": "data",
          "type": "bytes"
        }
      ],
      "name": "safeTransferFrom",
      "outputs": [],
      "stateMutability": "nonpayable",
      "type": "function"
    },
    {
      "inputs": [
        {
          "internalType": "address",
          "name": "operator",
          "type": "address"
        },
        {
          "internalType": "bool",
          "name": "approved",
          "type": "bool"
        }
      ],
      "name": "setApprovalForAll",
      "outputs": [],
      "stateMutability": "nonpayable",
      "type": "function"
    },
    {
      "inputs": [
        {
          "internalType": "bytes32",
          "name": "parentNode",
          "type": "bytes32"
        },
        {
          "internalType": "bytes32",
          "name": "labelhash",
          "type": "bytes32"
        },
        {
          "internalType": "uint32",
          "name": "fuses",
          "type": "uint32"
        },
        {
          "internalType": "uint64",
          "name": "expiry",
          "type": "uint64"
        }
      ],
      "name": "setChildFuses",
      "outputs": [],
      "stateMutability": "nonpayable",
      "type": "function"
    },
    {
      "inputs": [
        {
          "internalType": "address",
          "name": "controller",
          "type": "address"
        },
        {
          "internalType": "bool",
          "name": "active",
          "type": "bool"
        }
      ],
      "name": "setController",
      "outputs": [],
      "stateMutability": "nonpayable",
      "type": "function"
    },
    {
      "inputs": [
        {
          "internalType": "bytes32",
          "name": "node",
          "type": "bytes32"
        },
        {
          "internalType": "uint16",
          "name": "ownerControlledFuses",
          "type": "uint16"
        }
      ],
      "name": "setFuses",
      "outputs": [
        {
          "internalType": "uint32",
          "name": "",
          "type": "uint32"
        }
      ],
      "stateMutability": "nonpayable",
      "type": "function"
    },
    {
      "inputs": [
        {
          "internalType": "contract IMetadataService",
          "name": "_metadataService",
          "type": "address"
        }
      ],
      "name": "setMetadataService",
      "outputs": [],
      "stateMutability": "nonpayable",
      "type": "function"
    },
    {
      "inputs": [
        {
          "internalType": "bytes32",
          "name": "node",
          "type": "bytes32"
        },
        {
          "internalType": "address",
          "name": "owner",
          "type": "address"
        },
        {
          "internalType": "address",
          "name": "resolver",
          "type": "address"
        },
        {
          "internalType": "uint64",
          "name": "ttl",
          "type": "uint64"
        }
      ],
      "name": "setRecord",
      "outputs": [],
      "stateMutability": "nonpayable",
      "type": "function"
    },
    {
      "inputs": [
        {
          "internalType": "bytes32",
          "name": "node",
          "type": "bytes32"
        },
        {
          "internalType": "address",
          "name": "resolver",
          "type": "address"
        }
      ],
      "name": "setResolver",
      "outputs": [],
      "stateMutability": "nonpayable",
      "type": "function"
    },
    {
      "inputs": [
        {
          "internalType": "bytes32",
          "name": "parentNode",
          "type": "bytes32"
        },
        {
          "internalType": "string",
          "name": "label",
          "type": "string"
        },
        {
          "internalType": "address",
          "name": "owner",
          "type": "address"
        },
        {
          "internalType": "uint32",
          "name": "fuses",
          "type": "uint32"
        },
        {
          "internalType": "uint64",
          "name": "expiry",
          "type": "uint64"
        }
      ],
      "name": "setSubnodeOwner",
      "outputs": [
        {
          "internalType": "bytes32",
          "name": "node",
          "type": "bytes32"
        }
      ],
      "stateMutability": "nonpayable",
      "type": "function"
    },
    {
      "inputs": [
        {
          "internalType": "bytes32",
          "name": "parentNode",
          "type": "bytes32"
        },
        {
          "internalType": "string",
          "name": "label",
          "type": "string"
        },
        {
          "internalType": "address",
          "name": "owner",
          "type": "address"
        },
        {
          "internalType": "address",
          "name": "resolver",
          "type": "address"
        },
        {
          "internalType": "uint64",
          "name": "ttl",
          "type": "uint64"
        },
        {
          "internalType": "uint32",
          "name": "fuses",
          "type": "uint32"
        },
        {
          "internalType": "uint64",
          "name": "expiry",
          "type": "uint64"
        }
      ],
      "name": "setSubnodeRecord",
      "outputs": [
        {
          "internalType": "bytes32",
          "name": "node",
          "type": "bytes32"
        }
      ],
      "stateMutability": "nonpayable",
      "type": "function"
    },
    {
      "inputs": [
        {
          "internalType": "bytes32",
          "name": "node",
          "type": "bytes32"
        },
        {
          "internalType": "uint64",
          "name": "ttl",
          "type": "uint64"
        }
      ],
      "name": "setTTL",
      "outputs": [],
      "stateMutability": "nonpayable",
      "type": "function"
    },
    {
      "inputs": [
        {
          "internalType": "contract INameWrapperUpgrade",
          "name": "_upgradeAddress",
          "type": "address"
        }
      ],
      "name": "setUpgradeContract",
      "outputs": [],
      "stateMutability": "nonpayable",
      "type": "function"
    },
    {
      "inputs": [
        {
          "internalType": "bytes4",
          "name": "interfaceId",
          "type": "bytes4"
        }
      ],
      "name": "supportsInterface",
      "outputs": [
        {
          "internalType": "bool",
          "name": "",
          "type": "bool"
        }
      ],
      "stateMutability": "view",
      "type": "function"
    },
    {
      "inputs": [
        {
          "internalType": "address",
          "name": "newOwner",
          "type": "address"
        }
      ],
      "name": "transferOwnership",
      "outputs": [],
      "stateMutability": "nonpayable",
      "type": "function"
    },
    {
      "inputs": [
        {
          "internalType": "bytes32",
          "name": "parentNode",
          "type": "bytes32"
        },
        {
          "internalType": "bytes32",
          "name": "labelhash",
          "type": "bytes32"
        },
        {
          "internalType": "address",
          "name": "controller",
          "type": "address"
        }
      ],
      "name": "unwrap",
      "outputs": [],
      "stateMutability": "nonpayable",
      "type": "function"
    },
    {
      "inputs": [
        {
          "internalType": "bytes32",
          "name": "labelhash",
          "type": "bytes32"
        },
        {
          "internalType": "address",
          "name": "registrant",
          "type": "address"
        },
        {
          "internalType": "address",
          "name": "controller",
          "type": "address"
        }
      ],
      "name": "unwrapAnyLD",
      "outputs": [],
      "stateMutability": "nonpayable",
      "type": "function"
    },
    {
      "inputs": [
        {
          "internalType": "bytes",
          "name": "name",
          "type": "bytes"
        },
        {
          "internalType": "bytes",
          "name": "extraData",
          "type": "bytes"
        }
      ],
      "name": "upgrade",
      "outputs": [],
      "stateMutability": "nonpayable",
      "type": "function"
    },
    {
      "inputs": [],
      "name": "upgradeContract",
      "outputs": [
        {
          "internalType": "contract INameWrapperUpgrade",
          "name": "",
          "type": "address"
        }
      ],
      "stateMutability": "view",
      "type": "function"
    },
    {
      "inputs": [
        {
          "internalType": "uint256",
          "name": "tokenId",
          "type": "uint256"
        }
      ],
      "name": "uri",
      "outputs": [
        {
          "internalType": "string",
          "name": "",
          "type": "string"
        }
      ],
      "stateMutability": "view",
      "type": "function"
    },
    {
      "inputs": [
        {
          "internalType": "bytes",
          "name": "name",
          "type": "bytes"
        },
        {
          "internalType": "address",
          "name": "wrappedOwner",
          "type": "address"
        },
        {
          "internalType": "address",
          "name": "resolver",
          "type": "address"
        }
      ],
      "name": "wrap",
      "outputs": [],
      "stateMutability": "nonpayable",
      "type": "function"
    },
    {
      "inputs": [
        {
          "internalType": "string",
          "name": "label",
          "type": "string"
        },
        {
          "internalType": "address",
          "name": "wrappedOwner",
          "type": "address"
        },
        {
          "internalType": "uint16",
          "name": "ownerControlledFuses",
          "type": "uint16"
        },
        {
          "internalType": "address",
          "name": "resolver",
          "type": "address"
        }
      ],
      "name": "wrapAnyLD",
      "outputs": [
        {
          "internalType": "uint64",
          "name": "expiry",
          "type": "uint64"
        }
      ],
      "stateMutability": "nonpayable",
      "type": "function"
    }
  ],
  "transactionHash": "0x21de2bf853a19cf80e47cf534b9382db2dc6521a3a2d478bf27449725af10e4c",
  "args": [
    "0x778412cf5F9f1492EACC5794D8b75141FF4655d3",
    "0x0Dc86D89d9ac503a97162aF33B7B31D574e4c4af",
    "0x2E4733b98b8E1b9D84bAc30D4922c708F17Add59",
    "0x1944d8f922dbda424d5bb8181be5344d513cd0210312d2dcccd37d54c11a17de",
    {
      "0": 13,
      "1": 108,
      "2": 105,
      "3": 110,
      "4": 101,
      "5": 97,
      "6": 45,
      "7": 115,
      "8": 101,
      "9": 112,
      "10": 111,
      "11": 108,
      "12": 105,
      "13": 97,
      "14": 3,
      "15": 101,
      "16": 116,
      "17": 104,
      "18": 0
    }
  ],
  "numDeployments": 1,
  "solcInputHash": "9e312ca37aa8e6213da83c8731f0403e",
  "bytecode": "0x60e06040523480156200001157600080fd5b506040516200667d3803806200667d83398101604081905262000034916200033f565b84336200004181620002c0565b6040516302571be360e01b81527f91d1777781884d03a6757a803996e38de2a42967fb37eeaca72729271025a9e260048201526000906001600160a01b038416906302571be390602401602060405180830381865afa158015620000a9573d6000803e3d6000fd5b505050506040513d601f19601f82011682018060405250810190620000cf91906200045f565b604051630f41a04d60e11b81526001600160a01b03848116600483015291925090821690631e83409a906024016020604051808303816000875af11580156200011c573d6000803e3d6000fd5b505050506040513d601f19601f8201168201806040525081019062000142919062000486565b505050506001600160a01b0385811660805284811660a052600580546001600160a01b03191691851691909117905560c08290526000828152600160208181526040808420600163fffeffff60a01b0319908190557fafa26c20e8b3d9a2853d642cfe1021dae26242ffedfac91c97aab212c1a4b93b8190557fa6eef7e35abe7026729641147f7915573c7e97b47efa546f5f6e3230263bcb4955805180820190915291825281810183905291805260069091527f54cdd369e4e8a8515e52ca72ec816c2101831ad1f18bf44102ed171459c9b4f8906200022490826200052f565b506040805180820190915260058152626cae8d60e31b6020808301919091527f93cdeb708b7545dc668eb9280176169d1c33cfd8ed6f04690a0bcc88a93fc4ae600052600690527ffb9e8e321b8a5ec48f12a7b41f22c6e595d761285c9eb19d8dda7c99edf1b54f906200029990826200052f565b506000828152600660205260409020620002b482826200052f565b505050505050620005fb565b600080546001600160a01b038381166001600160a01b0319831681178455604051919092169283917f8be0079c531659141344cd1fd0a4f28419497f9722a3daafe3b4186f6b6457e09190a35050565b6001600160a01b03811681146200032657600080fd5b50565b634e487b7160e01b600052604160045260246000fd5b600080600080600060a086880312156200035857600080fd5b8551620003658162000310565b809550506020808701516200037a8162000310565b60408801519095506200038d8162000310565b6060880151608089015191955093506001600160401b0380821115620003b257600080fd5b818901915089601f830112620003c757600080fd5b815181811115620003dc57620003dc62000329565b604051601f8201601f19908116603f0116810190838211818310171562000407576200040762000329565b816040528281528c868487010111156200042057600080fd5b600093505b8284101562000444578484018601518185018701529285019262000425565b60008684830101528096505050505050509295509295909350565b6000602082840312156200047257600080fd5b81516200047f8162000310565b9392505050565b6000602082840312156200049957600080fd5b5051919050565b600181811c90821680620004b557607f821691505b602082108103620004d657634e487b7160e01b600052602260045260246000fd5b50919050565b601f8211156200052a57600081815260208120601f850160051c81016020861015620005055750805b601f850160051c820191505b81811015620005265782815560010162000511565b5050505b505050565b81516001600160401b038111156200054b576200054b62000329565b62000563816200055c8454620004a0565b84620004dc565b602080601f8311600181146200059b5760008415620005825750858301515b600019600386901b1c1916600185901b17855562000526565b600085815260208120601f198616915b82811015620005cc57888601518255948401946001909101908401620005ab565b5085821015620005eb5787850151600019600388901b60f8161c191681555b5050505050600190811b01905550565b60805160a05160c051615f2c620007516000396000818161075201528181611b5601528181611c0401528181611f63015281816124a301528181612cb501528181612da501528181612fbd0152818161390a015261396401526000818161051101528181610c4701528181610d2101528181610dab01528181611c9801528181611e3d01528181611eeb0152818161200d015281816120830152818161210301528181612217015281816123490152818161252e015281816125b401528181612de9015261351b01526000818161055e01528181610bcd01528181610f09015281816110bd0152818161116f015281816115870152818161229c015281816123ce0152818161265f0152818161285601528181612b6401528181613014015281816130c20152818161318b0152818161320401528181613a8201528181613b9d01528181613d8201526143c20152615f2c6000f3fe608060405234801561001057600080fd5b506004361061032a5760003560e01c80636352211e116101b2578063cf408823116100f9578063e985e9c5116100a2578063f242432a1161007c578063f242432a146107f6578063f2fde38b14610809578063f51c32f51461081c578063fd0cd0d91461082f57600080fd5b8063e985e9c514610787578063eb8ae530146107c3578063ed70554d146107d657600080fd5b8063da8c229e116100d3578063da8c229e1461072a578063ddf7fcb01461074d578063e0dba60f1461077457600080fd5b8063cf408823146106f1578063d8c9921a14610704578063d9a50c121461071757600080fd5b8063adf4960a1161015b578063c475abff11610135578063c475abff146106b8578063c658e086146106cb578063c93ab3fd146106de57600080fd5b8063adf4960a1461067f578063b3d8381014610692578063b6bcad26146106a557600080fd5b806383bb4d161161018c57806383bb4d16146106485780638da5cb5b1461065b578063a22cb4651461066c57600080fd5b80636352211e146106015780636e5d6ad214610614578063715018a61461064057600080fd5b80631f4e1504116102765780633f15457f1161021f5780634e1273f4116101f95780634e1273f4146105bb57806353095467146105db5780635d3590d5146105ee57600080fd5b80633f15457f14610559578063402906fc1461058057806341415eab146105a857600080fd5b80632b20e397116102505780632b20e3971461050c5780632eb2c2d61461053357806333c69ea91461054657600080fd5b80631f4e1504146104d357806320c38e2b146104e657806324c1af44146104f957600080fd5b80630e4cd725116102d8578063150b7a02116102b2578063150b7a02146104815780631534e177146104ad5780631896f70a146104c057600080fd5b80630e4cd725146104485780630e89341c1461045b57806314ab90381461046e57600080fd5b806306fdde031161030957806306fdde03146103bf578063081812fc14610408578063095ea7b31461043357600080fd5b8062fdd58e1461032f5780630178fe3f1461035557806301ffc9a71461039c575b600080fd5b61034261033d366004614d5b565b610842565b6040519081526020015b60405180910390f35b610368610363366004614d87565b610901565b604080516001600160a01b03909416845263ffffffff909216602084015267ffffffffffffffff169082015260600161034c565b6103af6103aa366004614db6565b610931565b604051901515815260200161034c565b6103fb6040518060400160405280600b81526020017f4e616d655772617070657200000000000000000000000000000000000000000081525081565b60405161034c9190614e23565b61041b610416366004614d87565b61098a565b6040516001600160a01b03909116815260200161034c565b610446610441366004614d5b565b6109cf565b005b6103af610456366004614e36565b610a15565b6103fb610469366004614d87565b610aaf565b61044661047c366004614e83565b610b21565b61049461048f366004614ef8565b610c3a565b6040516001600160e01b0319909116815260200161034c565b6104466104bb366004614f6b565b610e4c565b6104466104ce366004614e36565b610e76565b60075461041b906001600160a01b031681565b6103fb6104f4366004614d87565b610f38565b610342610507366004615063565b610fd2565b61041b7f000000000000000000000000000000000000000000000000000000000000000081565b61044661054136600461518b565b6111e6565b610446610554366004615239565b611510565b61041b7f000000000000000000000000000000000000000000000000000000000000000081565b61059361058e366004615291565b611705565b60405163ffffffff909116815260200161034c565b6103af6105b6366004614e36565b6117a7565b6105ce6105c93660046152b4565b611804565b60405161034c91906153b2565b60055461041b906001600160a01b031681565b6104466105fc3660046153c5565b611942565b61041b61060f366004614d87565b6119dc565b610627610622366004615406565b6119e7565b60405167ffffffffffffffff909116815260200161034c565b610446611b3c565b61044661065636600461543b565b611b50565b6000546001600160a01b031661041b565b61044661067a36600461548b565b611cfa565b6103af61068d3660046154b9565b611de4565b6106276106a03660046154dc565b611e09565b6104466106b3366004614f6b565b6121d5565b6103426106c6366004615557565b61242d565b6103426106d9366004615579565b612724565b6104466106ec3660046155f8565b612931565b6104466106ff366004615664565b612aa2565b61044661071236600461569c565b612c5b565b6103af610725366004615557565b612d6b565b6103af610738366004614f6b565b60046020526000908152604090205460ff1681565b6103427f000000000000000000000000000000000000000000000000000000000000000081565b61044661078236600461548b565b612e78565b6103af6107953660046156ca565b6001600160a01b03918216600090815260026020908152604080832093909416825291909152205460ff1690565b6104466107d13660046156f8565b612ee0565b6103426107e4366004614d87565b60016020526000908152604090205481565b610446610804366004615760565b6132ab565b610446610817366004614f6b565b6133c8565b61034261082a3660046157c9565b613455565b6103af61083d366004614d87565b6135f0565b60006001600160a01b0383166108c55760405162461bcd60e51b815260206004820152602b60248201527f455243313135353a2062616c616e636520717565727920666f7220746865207a60448201527f65726f206164647265737300000000000000000000000000000000000000000060648201526084015b60405180910390fd5b60006108d0836119dc565b9050836001600160a01b0316816001600160a01b0316036108f55760019150506108fb565b60009150505b92915050565b60008181526001602052604090205460a081901c60c082901c6109258383836136c8565b90959094509092509050565b60006001600160e01b031982167fbee702c200000000000000000000000000000000000000000000000000000000148061097b57506001600160e01b03198216630a85bd0160e11b145b806108fb57506108fb826136ff565b600080610996836119dc565b90506001600160a01b0381166109af5750600092915050565b6000838152600360205260409020546001600160a01b03165b9392505050565b60006109da82610901565b50915050603f196040821601610a065760405163a2a7201360e01b8152600481018390526024016108bc565b610a108383613781565b505050565b6000808080610a2386610901565b925092509250846001600160a01b0316836001600160a01b03161480610a6e57506001600160a01b0380841660009081526002602090815260408083209389168352929052205460ff165b80610a9257506001600160a01b038516610a878761098a565b6001600160a01b0316145b8015610aa55750610aa382826138cb565b155b9695505050505050565b6005546040516303a24d0760e21b8152600481018390526060916001600160a01b031690630e89341c90602401600060405180830381865afa158015610af9573d6000803e3d6000fd5b505050506040513d6000823e601f3d908101601f191682016040526108fb919081019061583e565b81610b2c81336117a7565b610b525760405163168ab55d60e31b8152600481018290523360248201526044016108bc565b8260106000610b6083610901565b5091505063ffffffff8282161615610b8e5760405163a2a7201360e01b8152600481018490526024016108bc565b6040517f14ab90380000000000000000000000000000000000000000000000000000000081526004810187905267ffffffffffffffff861660248201527f00000000000000000000000000000000000000000000000000000000000000006001600160a01b0316906314ab9038906044015b600060405180830381600087803b158015610c1a57600080fd5b505af1158015610c2e573d6000803e3d6000fd5b50505050505050505050565b6000336001600160a01b037f00000000000000000000000000000000000000000000000000000000000000001614610c9e576040517f1931a53800000000000000000000000000000000000000000000000000000000815260040160405180910390fd5b6000808080610caf868801886158b6565b83516020850120939750919550935091508890808214610d05576040517fc65c3ccc00000000000000000000000000000000000000000000000000000000815260048101829052602481018390526044016108bc565b604051630a3b53db60e21b8152600481018390523060248201527f00000000000000000000000000000000000000000000000000000000000000006001600160a01b0316906328ed4f6c90604401600060405180830381600087803b158015610d6d57600080fd5b505af1158015610d81573d6000803e3d6000fd5b5050604051636b727d4360e11b8152600481018d9052600092506276a70091506001600160a01b037f0000000000000000000000000000000000000000000000000000000000000000169063d6e4fa8690602401602060405180830381865afa158015610df2573d6000803e3d6000fd5b505050506040513d601f19601f82011682018060405250810190610e16919061591e565b610e20919061594d565b9050610e3387878761ffff1684886138fc565b50630a85bd0160e11b9c9b505050505050505050505050565b610e54613ae8565b600580546001600160a01b0319166001600160a01b0392909216919091179055565b81610e8181336117a7565b610ea75760405163168ab55d60e31b8152600481018290523360248201526044016108bc565b8260086000610eb583610901565b5091505063ffffffff8282161615610ee35760405163a2a7201360e01b8152600481018490526024016108bc565b604051630c4b7b8560e11b8152600481018790526001600160a01b0386811660248301527f00000000000000000000000000000000000000000000000000000000000000001690631896f70a90604401610c00565b60066020526000908152604090208054610f5190615975565b80601f0160208091040260200160405190810160405280929190818152602001828054610f7d90615975565b8015610fca5780601f10610f9f57610100808354040283529160200191610fca565b820191906000526020600020905b815481529060010190602001808311610fad57829003601f168201915b505050505081565b600087610fdf81336117a7565b6110055760405163168ab55d60e31b8152600481018290523360248201526044016108bc565b8751602089012061103d8a82604080516020808201949094528082019290925280518083038201815260609092019052805191012090565b92506110498a84613b42565b6110538386613c81565b61105e8a848b613cb4565b5061106b8a848787613cfe565b935061107683613d44565b61112c576040516305ef2c7f60e41b8152600481018b9052602481018290523060448201526001600160a01b03888116606483015267ffffffffffffffff881660848301527f00000000000000000000000000000000000000000000000000000000000000001690635ef2c7f09060a401600060405180830381600087803b15801561110157600080fd5b505af1158015611115573d6000803e3d6000fd5b505050506111278a848b8b8989613dfd565b6111d9565b6040516305ef2c7f60e41b8152600481018b9052602481018290523060448201526001600160a01b03888116606483015267ffffffffffffffff881660848301527f00000000000000000000000000000000000000000000000000000000000000001690635ef2c7f09060a401600060405180830381600087803b1580156111b357600080fd5b505af11580156111c7573d6000803e3d6000fd5b505050506111d98a848b8b8989613e34565b5050979650505050505050565b815183511461125d5760405162461bcd60e51b815260206004820152602860248201527f455243313135353a2069647320616e6420616d6f756e7473206c656e6774682060448201527f6d69736d6174636800000000000000000000000000000000000000000000000060648201526084016108bc565b6001600160a01b0384166112c15760405162461bcd60e51b815260206004820152602560248201527f455243313135353a207472616e7366657220746f20746865207a65726f206164604482015264647265737360d81b60648201526084016108bc565b6001600160a01b0385163314806112fb57506001600160a01b038516600090815260026020908152604080832033845290915290205460ff165b61136d5760405162461bcd60e51b815260206004820152603260248201527f455243313135353a207472616e736665722063616c6c6572206973206e6f742060448201527f6f776e6572206e6f7220617070726f766564000000000000000000000000000060648201526084016108bc565b60005b83518110156114a357600084828151811061138d5761138d6159af565b6020026020010151905060008483815181106113ab576113ab6159af565b6020026020010151905060008060006113c385610901565b9250925092506113d4858383613ef8565b8360011480156113f557508a6001600160a01b0316836001600160a01b0316145b6114545760405162461bcd60e51b815260206004820152602a60248201527f455243313135353a20696e73756666696369656e742062616c616e636520666f60448201526939103a3930b739b332b960b11b60648201526084016108bc565b60008581526001602052604090206001600160a01b038b1663ffffffff60a01b60a085901b16176001600160c01b031960c084901b1617905550505050508061149c906159c5565b9050611370565b50836001600160a01b0316856001600160a01b0316336001600160a01b03167f4a39dc06d4c0dbc64b70af90fd698a233a518aa5d07e595d983b8c0526c8f7fb86866040516114f39291906159de565b60405180910390a4611509338686868686613fe5565b5050505050565b604080516020808201879052818301869052825180830384018152606090920190925280519101206115428184613c81565b6000808061154f84610901565b919450925090506001600160a01b03831615806115fe57506040516302571be360e01b81526004810185905230906001600160a01b037f000000000000000000000000000000000000000000000000000000000000000016906302571be390602401602060405180830381865afa1580156115ce573d6000803e3d6000fd5b505050506040513d601f19601f820116820180604052508101906115f29190615a0c565b6001600160a01b031614155b1561161c57604051635374b59960e01b815260040160405180910390fd5b6000806116288a610901565b90935091508a90506116695761163e86336117a7565b6116645760405163168ab55d60e31b8152600481018790523360248201526044016108bc565b611699565b6116738a336117a7565b6116995760405163168ab55d60e31b8152600481018b90523360248201526044016108bc565b6116a486898461418a565b6116af8784836141c5565b9650620100008416158015906116d357508363ffffffff1688851763ffffffff1614155b156116f45760405163a2a7201360e01b8152600481018790526024016108bc565b96831796610c2e86868a868b61420f565b60008261171281336117a7565b6117385760405163168ab55d60e31b8152600481018290523360248201526044016108bc565b836002600061174683610901565b5091505063ffffffff82821616156117745760405163a2a7201360e01b8152600481018490526024016108bc565b600080806117818a610901565b92509250925061179a8a84848c61ffff1617848561420f565b5098975050505050505050565b60008080806117b586610901565b925092509250846001600160a01b0316836001600160a01b03161480610a9257506001600160a01b0380841660009081526002602090815260408083209389168352929052205460ff16610a92565b6060815183511461187d5760405162461bcd60e51b815260206004820152602960248201527f455243313135353a206163636f756e747320616e6420696473206c656e67746860448201527f206d69736d61746368000000000000000000000000000000000000000000000060648201526084016108bc565b6000835167ffffffffffffffff81111561189957611899614f88565b6040519080825280602002602001820160405280156118c2578160200160208202803683370190505b50905060005b845181101561193a5761190d8582815181106118e6576118e66159af565b6020026020010151858381518110611900576119006159af565b6020026020010151610842565b82828151811061191f5761191f6159af565b6020908102919091010152611933816159c5565b90506118c8565b509392505050565b61194a613ae8565b6040517fa9059cbb0000000000000000000000000000000000000000000000000000000081526001600160a01b0383811660048301526024820183905284169063a9059cbb906044016020604051808303816000875af11580156119b2573d6000803e3d6000fd5b505050506040513d601f19601f820116820180604052508101906119d69190615a29565b50505050565b60006108fb826142b9565b60408051602080820186905281830185905282518083038401815260609092019092528051910120600090611a1b81613d44565b611a3857604051635374b59960e01b815260040160405180910390fd5b6000611a448633610a15565b905080158015611a5b5750611a5982336117a7565b155b15611a825760405163168ab55d60e31b8152600481018390523360248201526044016108bc565b60008080611a8f85610901565b92509250925083158015611aa65750620400008216155b15611ac75760405163a2a7201360e01b8152600481018690526024016108bc565b6000611ad28a610901565b92505050611ae18883836141c5565b9750611aef8685858b6142cf565b60405167ffffffffffffffff8916815286907ff675815a0817338f93a7da433f6bd5f5542f1029b11b455191ac96c7f6a9b1329060200160405180910390a2509598975050505050505050565b611b44613ae8565b611b4e6000614317565b565b604080517f000000000000000000000000000000000000000000000000000000000000000060208083019190915281830186905282518083038401815260609092019092528051910120611ba481336117a7565b611bca5760405163168ab55d60e31b8152600481018290523360248201526044016108bc565b306001600160a01b03841603611bfe57604051632ca49b0d60e11b81526001600160a01b03841660048201526024016108bc565b604080517f000000000000000000000000000000000000000000000000000000000000000060208083019190915281830187905282518083038401815260609092019092528051910120611c53905b83614367565b6040517f42842e0e0000000000000000000000000000000000000000000000000000000081523060048201526001600160a01b038481166024830152604482018690527f000000000000000000000000000000000000000000000000000000000000000016906342842e0e90606401600060405180830381600087803b158015611cdc57600080fd5b505af1158015611cf0573d6000803e3d6000fd5b5050505050505050565b6001600160a01b0382163303611d785760405162461bcd60e51b815260206004820152602960248201527f455243313135353a2073657474696e6720617070726f76616c2073746174757360448201527f20666f722073656c66000000000000000000000000000000000000000000000060648201526084016108bc565b3360008181526002602090815260408083206001600160a01b03871680855290835292819020805460ff191686151590811790915590519081529192917f17307eab39ab6107e8899845ad3d59bd9653f200f220920489ca2b5937696c31910160405180910390a35050565b600080611df084610901565b50841663ffffffff908116908516149250505092915050565b6000808686604051611e1c929190615a46565b6040519081900381206331a9108f60e11b82526004820181905291506000907f00000000000000000000000000000000000000000000000000000000000000006001600160a01b031690636352211e90602401602060405180830381865afa158015611e8c573d6000803e3d6000fd5b505050506040513d601f19601f82011682018060405250810190611eb09190615a0c565b90506001600160a01b0381163314801590611f58575060405163e985e9c560e01b81526001600160a01b0382811660048301523360248301527f0000000000000000000000000000000000000000000000000000000000000000169063e985e9c590604401602060405180830381865afa158015611f32573d6000803e3d6000fd5b505050506040513d601f19601f82011682018060405250810190611f569190615a29565b155b15611fc857604080517f00000000000000000000000000000000000000000000000000000000000000006020808301919091528183018590528251808303840181526060830193849052805191012063168ab55d60e31b909252606481019190915233608482015260a4016108bc565b6040517f23b872dd0000000000000000000000000000000000000000000000000000000081526001600160a01b038281166004830152306024830152604482018490527f000000000000000000000000000000000000000000000000000000000000000016906323b872dd90606401600060405180830381600087803b15801561205157600080fd5b505af1158015612065573d6000803e3d6000fd5b5050604051630a3b53db60e21b8152600481018590523060248201527f00000000000000000000000000000000000000000000000000000000000000006001600160a01b031692506328ed4f6c9150604401600060405180830381600087803b1580156120d157600080fd5b505af11580156120e5573d6000803e3d6000fd5b5050604051636b727d4360e11b8152600481018590526276a70092507f00000000000000000000000000000000000000000000000000000000000000006001600160a01b0316915063d6e4fa8690602401602060405180830381865afa158015612153573d6000803e3d6000fd5b505050506040513d601f19601f82011682018060405250810190612177919061591e565b612181919061594d565b92506121ca88888080601f0160208091040260200160405190810160405280939291908181526020018383808284376000920191909152508a9250505061ffff881686886138fc565b505095945050505050565b6121dd613ae8565b6007546001600160a01b0316156122fd5760075460405163a22cb46560e01b81526001600160a01b039182166004820152600060248201527f00000000000000000000000000000000000000000000000000000000000000009091169063a22cb46590604401600060405180830381600087803b15801561225d57600080fd5b505af1158015612271573d6000803e3d6000fd5b505060075460405163a22cb46560e01b81526001600160a01b039182166004820152600060248201527f0000000000000000000000000000000000000000000000000000000000000000909116925063a22cb4659150604401600060405180830381600087803b1580156122e457600080fd5b505af11580156122f8573d6000803e3d6000fd5b505050505b600780546001600160a01b0319166001600160a01b0383169081179091551561242a5760075460405163a22cb46560e01b81526001600160a01b039182166004820152600160248201527f00000000000000000000000000000000000000000000000000000000000000009091169063a22cb46590604401600060405180830381600087803b15801561238f57600080fd5b505af11580156123a3573d6000803e3d6000fd5b505060075460405163a22cb46560e01b81526001600160a01b039182166004820152600160248201527f0000000000000000000000000000000000000000000000000000000000000000909116925063a22cb4659150604401600060405180830381600087803b15801561241657600080fd5b505af1158015611509573d6000803e3d6000fd5b50565b3360009081526004602052604081205460ff1661249d5760405162461bcd60e51b815260206004820152602860248201527f436f6e74726f6c6c61626c653a2043616c6c6572206973206e6f74206120636f604482015267373a3937b63632b960c11b60648201526084016108bc565b604080517f0000000000000000000000000000000000000000000000000000000000000000602080830191909152818301869052825180830384018152606090920190925280519101206000906040517fc475abff00000000000000000000000000000000000000000000000000000000815260048101869052602481018590529091506000906001600160a01b037f0000000000000000000000000000000000000000000000000000000000000000169063c475abff906044016020604051808303816000875af1158015612577573d6000803e3d6000fd5b505050506040513d601f19601f8201168201806040525081019061259b919061591e565b6040516331a9108f60e11b8152600481018790529091507f00000000000000000000000000000000000000000000000000000000000000006001600160a01b031690636352211e90602401602060405180830381865afa92505050801561261f575060408051601f3d908101601f1916820190925261261c91810190615a0c565b60015b61262c5791506108fb9050565b6001600160a01b038116301415806126d657506040516302571be360e01b81526004810184905230906001600160a01b037f000000000000000000000000000000000000000000000000000000000000000016906302571be390602401602060405180830381865afa1580156126a6573d6000803e3d6000fd5b505050506040513d601f19601f820116820180604052508101906126ca9190615a0c565b6001600160a01b031614155b156126e5575091506108fb9050565b5060006126f56276a7008361594d565b60008481526001602052604090205490915060a081901c612718858383866142cf565b50919695505050505050565b60008661273181336117a7565b6127575760405163168ab55d60e31b8152600481018290523360248201526044016108bc565b60008787604051612769929190615a46565b604051809103902090506127a48982604080516020808201949094528082019290925280518083038201815260609092019052805191012090565b92506127b08984613b42565b6127ba8386613c81565b60006127fd8a858b8b8080601f016020809104026020016040519081016040528093929190818152602001838380828437600092019190915250613cb492505050565b905061280b8a858888613cfe565b945061281684613d44565b6128de576040517f06ab5923000000000000000000000000000000000000000000000000000000008152600481018b9052602481018390523060448201527f00000000000000000000000000000000000000000000000000000000000000006001600160a01b0316906306ab5923906064016020604051808303816000875af11580156128a7573d6000803e3d6000fd5b505050506040513d601f19601f820116820180604052508101906128cb919061591e565b506128d98482898989614459565b612924565b6129248a858b8b8080601f0160208091040260200160405190810160405280939291908181526020018383808284376000920191909152508d92508c91508b9050613e34565b5050509695505050505050565b6000612977600086868080601f016020809104026020016040519081016040528093929190818152602001838380828437600092019190915250929392505061449b9050565b6007549091506001600160a01b03166129bc576040517f24c1d6d400000000000000000000000000000000000000000000000000000000815260040160405180910390fd5b6129c681336117a7565b6129ec5760405163168ab55d60e31b8152600481018290523360248201526044016108bc565b600080806129f984610901565b919450925090506000612a0b8561098a565b9050612a168561455a565b600760009054906101000a90046001600160a01b03166001600160a01b0316639198c2768a8a878787878e8e6040518963ffffffff1660e01b8152600401612a65989796959493929190615a7f565b600060405180830381600087803b158015612a7f57600080fd5b505af1158015612a93573d6000803e3d6000fd5b50505050505050505050505050565b83612aad81336117a7565b612ad35760405163168ab55d60e31b8152600481018290523360248201526044016108bc565b84601c6000612ae183610901565b5091505063ffffffff8282161615612b0f5760405163a2a7201360e01b8152600481018490526024016108bc565b6040517fcf408823000000000000000000000000000000000000000000000000000000008152600481018990523060248201526001600160a01b03878116604483015267ffffffffffffffff871660648301527f0000000000000000000000000000000000000000000000000000000000000000169063cf40882390608401600060405180830381600087803b158015612ba857600080fd5b505af1158015612bbc573d6000803e3d6000fd5b5050506001600160a01b0388169050612c23576000612bda89610901565b509150506201ffff1962020000821601612c1257604051632ca49b0d60e11b81526001600160a01b03891660048201526024016108bc565b612c1d896000614367565b50611cf0565b6000612c2e896119dc565b9050612c5081898b60001c60016040518060200160405280600081525061461c565b505050505050505050565b60408051602080820186905281830185905282518083038401815260609092019092528051910120612c8d81336117a7565b612cb35760405163168ab55d60e31b8152600481018290523360248201526044016108bc565b7f00000000000000000000000000000000000000000000000000000000000000008403612cf35760405163615a470360e01b815260040160405180910390fd5b6001600160a01b0382161580612d1157506001600160a01b03821630145b15612d3a57604051632ca49b0d60e11b81526001600160a01b03831660048201526024016108bc565b604080516020808201879052818301869052825180830384018152606090920190925280519101206119d690611c4d565b604080516020808201859052818301849052825180830384018152606090920190925280519101206000906000612da182613d44565b90507f00000000000000000000000000000000000000000000000000000000000000008514612dd35791506108fb9050565b6040516331a9108f60e11b8152600481018590527f00000000000000000000000000000000000000000000000000000000000000006001600160a01b031690636352211e90602401602060405180830381865afa925050508015612e54575060408051601f3d908101601f19168201909252612e5191810190615a0c565b60015b612e63576000925050506108fb565b6001600160a01b0316301492506108fb915050565b612e80613ae8565b6001600160a01b038216600081815260046020908152604091829020805460ff191685151590811790915591519182527f4c97694570a07277810af7e5669ffd5f6a2d6b74b6e9a274b8b870fd5114cf8791015b60405180910390a25050565b600080612f27600087878080601f016020809104026020016040519081016040528093929190818152602001838380828437600092019190915250929392505061476e9050565b915091506000612f708288888080601f016020809104026020016040519081016040528093929190818152602001838380828437600092019190915250929392505061449b9050565b604080516020808201849052818301879052825180830384018152606090920190925280519101209091506000906000818152600660205260409020909150612fba888a83615b2e565b507f00000000000000000000000000000000000000000000000000000000000000008203612ffb5760405163615a470360e01b815260040160405180910390fd5b6040516302571be360e01b8152600481018290526000907f00000000000000000000000000000000000000000000000000000000000000006001600160a01b0316906302571be390602401602060405180830381865afa158015613063573d6000803e3d6000fd5b505050506040513d601f19601f820116820180604052508101906130879190615a0c565b90506001600160a01b038116331480159061312f575060405163e985e9c560e01b81526001600160a01b0382811660048301523360248301527f0000000000000000000000000000000000000000000000000000000000000000169063e985e9c590604401602060405180830381865afa158015613109573d6000803e3d6000fd5b505050506040513d601f19601f8201168201806040525081019061312d9190615a29565b155b156131565760405163168ab55d60e31b8152600481018390523360248201526044016108bc565b6001600160a01b038616156131e857604051630c4b7b8560e11b8152600481018390526001600160a01b0387811660248301527f00000000000000000000000000000000000000000000000000000000000000001690631896f70a90604401600060405180830381600087803b1580156131cf57600080fd5b505af11580156131e3573d6000803e3d6000fd5b505050505b604051635b0fc9c360e01b8152600481018390523060248201527f00000000000000000000000000000000000000000000000000000000000000006001600160a01b031690635b0fc9c390604401600060405180830381600087803b15801561325057600080fd5b505af1158015613264573d6000803e3d6000fd5b50505050612c50828a8a8080601f01602080910402602001604051908101604052809392919081815260200183838082843760009201829052508d93509150819050614459565b6001600160a01b03841661330f5760405162461bcd60e51b815260206004820152602560248201527f455243313135353a207472616e7366657220746f20746865207a65726f206164604482015264647265737360d81b60648201526084016108bc565b6001600160a01b03851633148061334957506001600160a01b038516600090815260026020908152604080832033845290915290205460ff165b6133bb5760405162461bcd60e51b815260206004820152602960248201527f455243313135353a2063616c6c6572206973206e6f74206f776e6572206e6f7260448201527f20617070726f766564000000000000000000000000000000000000000000000060648201526084016108bc565b611509858585858561461c565b6133d0613ae8565b6001600160a01b03811661344c5760405162461bcd60e51b815260206004820152602660248201527f4f776e61626c653a206e6577206f776e657220697320746865207a65726f206160448201527f646472657373000000000000000000000000000000000000000000000000000060648201526084016108bc565b61242a81614317565b3360009081526004602052604081205460ff166134c55760405162461bcd60e51b815260206004820152602860248201527f436f6e74726f6c6c61626c653a2043616c6c6572206973206e6f74206120636f604482015267373a3937b63632b960c11b60648201526084016108bc565b600087876040516134d7929190615a46565b6040519081900381207ffca247ac000000000000000000000000000000000000000000000000000000008252600482018190523060248301526044820187905291507f00000000000000000000000000000000000000000000000000000000000000006001600160a01b03169063fca247ac906064016020604051808303816000875af115801561356c573d6000803e3d6000fd5b505050506040513d601f19601f82011682018060405250810190613590919061591e565b91506135e588888080601f0160208091040260200160405190810160405280939291908181526020018383808284376000920191909152508a9250505061ffff86166135df6276a7008761594d565b886138fc565b509695505050505050565b6000818152600660205260408120805482919061360c90615975565b80601f016020809104026020016040519081016040528092919081815260200182805461363890615975565b80156136855780601f1061365a57610100808354040283529160200191613685565b820191906000526020600020905b81548152906001019060200180831161366857829003601f168201915b50505050509050805160000361369e5750600092915050565b6000806136ab838261476e565b909250905060006136bc848361449b565b9050610aa58184612d6b565b600080428367ffffffffffffffff1610156136f65761ffff19620100008516016136f157600094505b600093505b50929391925050565b60006001600160e01b031982167fd9b67a2600000000000000000000000000000000000000000000000000000000148061374957506001600160e01b031982166303a24d0760e21b145b806108fb57507f01ffc9a7000000000000000000000000000000000000000000000000000000006001600160e01b03198316146108fb565b600061378c826119dc565b9050806001600160a01b0316836001600160a01b0316036138155760405162461bcd60e51b815260206004820152602160248201527f4552433732313a20617070726f76616c20746f2063757272656e74206f776e6560448201527f720000000000000000000000000000000000000000000000000000000000000060648201526084016108bc565b336001600160a01b038216148061384f57506001600160a01b038116600090815260026020908152604080832033845290915290205460ff165b6138c15760405162461bcd60e51b815260206004820152603d60248201527f4552433732313a20617070726f76652063616c6c6572206973206e6f7420746f60448201527f6b656e206f776e6572206f7220617070726f76656420666f7220616c6c00000060648201526084016108bc565b610a108383614825565b6000620200008381161480156109c85750426138ea6276a70084615bee565b67ffffffffffffffff16109392505050565b8451602086012060006139567f000000000000000000000000000000000000000000000000000000000000000083604080516020808201949094528082019290925280518083038201815260609092019052805191012090565b90506000613a1f88600660007f00000000000000000000000000000000000000000000000000000000000000008152602001908152602001600020805461399c90615975565b80601f01602080910402602001604051908101604052809291908181526020018280546139c890615975565b8015613a155780601f106139ea57610100808354040283529160200191613a15565b820191906000526020600020905b8154815290600101906020018083116139f857829003601f168201915b5050505050614893565b6000838152600660205260409020909150613a3a8282615c0f565b50613a4d828289620300008a1789614459565b6001600160a01b03841615611cf057604051630c4b7b8560e11b8152600481018390526001600160a01b0385811660248301527f00000000000000000000000000000000000000000000000000000000000000001690631896f70a90604401600060405180830381600087803b158015613ac657600080fd5b505af1158015613ada573d6000803e3d6000fd5b505050505050505050505050565b6000546001600160a01b03163314611b4e5760405162461bcd60e51b815260206004820181905260248201527f4f776e61626c653a2063616c6c6572206973206e6f7420746865206f776e657260448201526064016108bc565b60008080613b4f84610901565b919450925090504267ffffffffffffffff821610808015613c1357506001600160a01b0384161580613c1357506040516302571be360e01b8152600481018690526000906001600160a01b037f000000000000000000000000000000000000000000000000000000000000000016906302571be390602401602060405180830381865afa158015613be4573d6000803e3d6000fd5b505050506040513d601f19601f82011682018060405250810190613c089190615a0c565b6001600160a01b0316145b15613c52576000613c2387610901565b509150506020811615613c4c5760405163a2a7201360e01b8152600481018790526024016108bc565b50613c79565b62010000831615613c795760405163a2a7201360e01b8152600481018690526024016108bc565b505050505050565b63fffdffff81811763ffffffff1614613cb05760405163a2a7201360e01b8152600481018390526024016108bc565b5050565b60606000613cda8360066000888152602001908152602001600020805461399c90615975565b6000858152600660205260409020909150613cf58282615c0f565b50949350505050565b600080613d0a85610901565b92505050600080613d1d8860001c610901565b9250925050613d2d87878461418a565b613d388584836141c5565b98975050505050505050565b600080613d50836119dc565b6001600160a01b0316141580156108fb57506040516302571be360e01b81526004810183905230906001600160a01b037f000000000000000000000000000000000000000000000000000000000000000016906302571be390602401602060405180830381865afa158015613dc9573d6000803e3d6000fd5b505050506040513d601f19601f82011682018060405250810190613ded9190615a0c565b6001600160a01b03161492915050565b60008681526006602052604081208054613e1c91879161399c90615975565b9050613e2b8682868686614459565b50505050505050565b60008080613e4188610901565b9250925092506000613e6b88600660008d8152602001908152602001600020805461399c90615975565b60008a8152600660205260409020805491925090613e8890615975565b9050600003613eab576000898152600660205260409020613ea98282615c0f565b505b613eba8985888617858961420f565b6001600160a01b038716613ed857613ed3896000614367565b610c2e565b610c2e84888b60001c60016040518060200160405280600081525061461c565b6201ffff1962020000831601613f1857613f156276a70082615bee565b90505b428167ffffffffffffffff161015613f955762010000821615613f905760405162461bcd60e51b815260206004820152602a60248201527f455243313135353a20696e73756666696369656e742062616c616e636520666f60448201526939103a3930b739b332b960b11b60648201526084016108bc565b613fba565b6004821615613fba5760405163a2a7201360e01b8152600481018490526024016108bc565b60408216600003610a10575050600090815260036020526040902080546001600160a01b0319169055565b6001600160a01b0384163b15613c795760405163bc197c8160e01b81526001600160a01b0385169063bc197c81906140299089908990889088908890600401615ccf565b6020604051808303816000875af1925050508015614064575060408051601f3d908101601f1916820190925261406191810190615d21565b60015b61411957614070615d3e565b806308c379a0036140a95750614084615d5a565b8061408f57506140ab565b8060405162461bcd60e51b81526004016108bc9190614e23565b505b60405162461bcd60e51b815260206004820152603460248201527f455243313135353a207472616e7366657220746f206e6f6e204552433131353560448201527f526563656976657220696d706c656d656e74657200000000000000000000000060648201526084016108bc565b6001600160e01b0319811663bc197c8160e01b14613e2b5760405162461bcd60e51b815260206004820152602860248201527f455243313135353a204552433131353552656365697665722072656a656374656044820152676420746f6b656e7360c01b60648201526084016108bc565b63ffff000082161580159060018316159082906141a45750805b156115095760405163a2a7201360e01b8152600481018690526024016108bc565b60008167ffffffffffffffff168467ffffffffffffffff1611156141e7578193505b8267ffffffffffffffff168467ffffffffffffffff161015614207578293505b509192915050565b61421b858585846142cf565b60405163ffffffff8416815285907f39873f00c80f4f94b7bd1594aebcf650f003545b74824d57ddf4939e3ff3a34b9060200160405180910390a28167ffffffffffffffff168167ffffffffffffffff1611156115095760405167ffffffffffffffff8216815285907ff675815a0817338f93a7da433f6bd5f5542f1029b11b455191ac96c7f6a9b132906020015b60405180910390a25050505050565b6000806142c583610901565b5090949350505050565b6142d9848361493c565b60008481526001602052604090206001600160a01b03841663ffffffff60a01b60a085901b16176001600160c01b031960c084901b161790556119d6565b600080546001600160a01b038381166001600160a01b0319831681178455604051919092169283917f8be0079c531659141344cd1fd0a4f28419497f9722a3daafe3b4186f6b6457e09190a35050565b614372826001611de4565b156143935760405163a2a7201360e01b8152600481018390526024016108bc565b61439c8261455a565b604051635b0fc9c360e01b8152600481018390526001600160a01b0382811660248301527f00000000000000000000000000000000000000000000000000000000000000001690635b0fc9c390604401600060405180830381600087803b15801561440657600080fd5b505af115801561441a573d6000803e3d6000fd5b50506040516001600160a01b03841681528492507fee2ba1195c65bcf218a83d874335c6bf9d9067b4c672f3c3bf16cf40de7586c49150602001612ed4565b61446585848484614975565b847f8ce7013e8abebc55c3890a68f5a27c67c3f7efa64e584de5fb22363c606fd340858585856040516142aa9493929190615de4565b60008060006144aa858561476e565b90925090508161451c57600185516144c29190615e2c565b84146145105760405162461bcd60e51b815260206004820152601d60248201527f6e616d65686173683a204a756e6b20617420656e64206f66206e616d6500000060448201526064016108bc565b50600091506108fb9050565b614526858261449b565b6040805160208101929092528101839052606001604051602081830303815290604052805190602001209250505092915050565b60008181526001602052604090205460a081901c60c082901c61457e8383836136c8565b600086815260036020908152604080832080546001600160a01b03191690556001909152902063ffffffff60a01b60a083901b166001600160c01b031960c086901b1617905592506145cd9050565b60408051858152600160208201526000916001600160a01b0386169133917fc3d58168c5ae7397731d063d5bbf3d657854427343f4c083240f7aacaa2d0f62910160405180910390a450505050565b600080600061462a86610901565b92509250925061463b868383613ef8565b84600114801561465c5750876001600160a01b0316836001600160a01b0316145b6146bb5760405162461bcd60e51b815260206004820152602a60248201527f455243313135353a20696e73756666696369656e742062616c616e636520666f60448201526939103a3930b739b332b960b11b60648201526084016108bc565b866001600160a01b0316836001600160a01b0316036146dc57505050611509565b60008681526001602052604090206001600160a01b03881663ffffffff60a01b60a085901b16176001600160c01b031960c084901b1617905560408051878152602081018790526001600160a01b03808a1692908b169133917fc3d58168c5ae7397731d063d5bbf3d657854427343f4c083240f7aacaa2d0f62910160405180910390a4611cf03389898989896149e9565b600080835183106147c15760405162461bcd60e51b815260206004820152601e60248201527f726561644c6162656c3a20496e646578206f7574206f6620626f756e6473000060448201526064016108bc565b60008484815181106147d5576147d56159af565b016020015160f81c90508015614801576147fa856147f4866001615e3f565b83614ae5565b9250614806565b600092505b6148108185615e3f565b61481b906001615e3f565b9150509250929050565b600081815260036020526040902080546001600160a01b0319166001600160a01b038416908117909155819061485a826119dc565b6001600160a01b03167f8c5be1e5ebec7d5bd14f71427d1e84f3dd0314c0f7b2291e5b200ac8c7c3b92560405160405180910390a45050565b60606001835110156148d1576040517f280dacb600000000000000000000000000000000000000000000000000000000815260040160405180910390fd5b60ff8351111561490f57826040517fe3ba295f0000000000000000000000000000000000000000000000000000000081526004016108bc9190614e23565b8251838360405160200161492593929190615e52565b604051602081830303815290604052905092915050565b61ffff81161580159061495457506201000181811614155b15613cb05760405163a2a7201360e01b8152600481018390526024016108bc565b61497f848361493c565b6000848152600160205260409020546001600160a01b038116156149dd576149a68561455a565b6040516000815285907fee2ba1195c65bcf218a83d874335c6bf9d9067b4c672f3c3bf16cf40de7586c49060200160405180910390a25b61150985858585614b09565b6001600160a01b0384163b15613c795760405163f23a6e6160e01b81526001600160a01b0385169063f23a6e6190614a2d9089908990889088908890600401615eb3565b6020604051808303816000875af1925050508015614a68575060408051601f3d908101601f19168201909252614a6591810190615d21565b60015b614a7457614070615d3e565b6001600160e01b0319811663f23a6e6160e01b14613e2b5760405162461bcd60e51b815260206004820152602860248201527f455243313135353a204552433131353552656365697665722072656a656374656044820152676420746f6b656e7360c01b60648201526084016108bc565b8251600090614af48385615e3f565b1115614aff57600080fd5b5091016020012090565b8360008080614b1784610901565b9194509250905063ffff0000821667ffffffffffffffff8087169083161115614b3e578195505b428267ffffffffffffffff1610614b5457958617955b6001600160a01b03841615614bab5760405162461bcd60e51b815260206004820152601f60248201527f455243313135353a206d696e74206f66206578697374696e6720746f6b656e0060448201526064016108bc565b6001600160a01b038816614c275760405162461bcd60e51b815260206004820152602160248201527f455243313135353a206d696e7420746f20746865207a65726f2061646472657360448201527f730000000000000000000000000000000000000000000000000000000000000060648201526084016108bc565b306001600160a01b03891603614ca55760405162461bcd60e51b815260206004820152603460248201527f455243313135353a206e65774f776e65722063616e6e6f74206265207468652060448201527f4e616d655772617070657220636f6e747261637400000000000000000000000060648201526084016108bc565b60008581526001602052604090206001600160a01b03891663ffffffff60a01b60a08a901b16176001600160c01b031960c089901b1617905560408051868152600160208201526001600160a01b038a169160009133917fc3d58168c5ae7397731d063d5bbf3d657854427343f4c083240f7aacaa2d0f62910160405180910390a4612c503360008a886001604051806020016040528060008152506149e9565b6001600160a01b038116811461242a57600080fd5b60008060408385031215614d6e57600080fd5b8235614d7981614d46565b946020939093013593505050565b600060208284031215614d9957600080fd5b5035919050565b6001600160e01b03198116811461242a57600080fd5b600060208284031215614dc857600080fd5b81356109c881614da0565b60005b83811015614dee578181015183820152602001614dd6565b50506000910152565b60008151808452614e0f816020860160208601614dd3565b601f01601f19169290920160200192915050565b6020815260006109c86020830184614df7565b60008060408385031215614e4957600080fd5b823591506020830135614e5b81614d46565b809150509250929050565b803567ffffffffffffffff81168114614e7e57600080fd5b919050565b60008060408385031215614e9657600080fd5b82359150614ea660208401614e66565b90509250929050565b60008083601f840112614ec157600080fd5b50813567ffffffffffffffff811115614ed957600080fd5b602083019150836020828501011115614ef157600080fd5b9250929050565b600080600080600060808688031215614f1057600080fd5b8535614f1b81614d46565b94506020860135614f2b81614d46565b935060408601359250606086013567ffffffffffffffff811115614f4e57600080fd5b614f5a88828901614eaf565b969995985093965092949392505050565b600060208284031215614f7d57600080fd5b81356109c881614d46565b634e487b7160e01b600052604160045260246000fd5b601f8201601f1916810167ffffffffffffffff81118282101715614fc457614fc4614f88565b6040525050565b600067ffffffffffffffff821115614fe557614fe5614f88565b50601f01601f191660200190565b600082601f83011261500457600080fd5b813561500f81614fcb565b60405161501c8282614f9e565b82815285602084870101111561503157600080fd5b82602086016020830137600092810160200192909252509392505050565b803563ffffffff81168114614e7e57600080fd5b600080600080600080600060e0888a03121561507e57600080fd5b87359650602088013567ffffffffffffffff81111561509c57600080fd5b6150a88a828b01614ff3565b96505060408801356150b981614d46565b945060608801356150c981614d46565b93506150d760808901614e66565b92506150e560a0890161504f565b91506150f360c08901614e66565b905092959891949750929550565b600067ffffffffffffffff82111561511b5761511b614f88565b5060051b60200190565b600082601f83011261513657600080fd5b8135602061514382615101565b6040516151508282614f9e565b83815260059390931b850182019282810191508684111561517057600080fd5b8286015b848110156135e55780358352918301918301615174565b600080600080600060a086880312156151a357600080fd5b85356151ae81614d46565b945060208601356151be81614d46565b9350604086013567ffffffffffffffff808211156151db57600080fd5b6151e789838a01615125565b945060608801359150808211156151fd57600080fd5b61520989838a01615125565b9350608088013591508082111561521f57600080fd5b5061522c88828901614ff3565b9150509295509295909350565b6000806000806080858703121561524f57600080fd5b84359350602085013592506152666040860161504f565b915061527460608601614e66565b905092959194509250565b803561ffff81168114614e7e57600080fd5b600080604083850312156152a457600080fd5b82359150614ea66020840161527f565b600080604083850312156152c757600080fd5b823567ffffffffffffffff808211156152df57600080fd5b818501915085601f8301126152f357600080fd5b8135602061530082615101565b60405161530d8282614f9e565b83815260059390931b850182019282810191508984111561532d57600080fd5b948201945b8386101561535457853561534581614d46565b82529482019490820190615332565b9650508601359250508082111561536a57600080fd5b5061481b85828601615125565b600081518084526020808501945080840160005b838110156153a75781518752958201959082019060010161538b565b509495945050505050565b6020815260006109c86020830184615377565b6000806000606084860312156153da57600080fd5b83356153e581614d46565b925060208401356153f581614d46565b929592945050506040919091013590565b60008060006060848603121561541b57600080fd5b833592506020840135915061543260408501614e66565b90509250925092565b60008060006060848603121561545057600080fd5b83359250602084013561546281614d46565b9150604084013561547281614d46565b809150509250925092565b801515811461242a57600080fd5b6000806040838503121561549e57600080fd5b82356154a981614d46565b91506020830135614e5b8161547d565b600080604083850312156154cc57600080fd5b82359150614ea66020840161504f565b6000806000806000608086880312156154f457600080fd5b853567ffffffffffffffff81111561550b57600080fd5b61551788828901614eaf565b909650945050602086013561552b81614d46565b92506155396040870161527f565b9150606086013561554981614d46565b809150509295509295909350565b6000806040838503121561556a57600080fd5b50508035926020909101359150565b60008060008060008060a0878903121561559257600080fd5b86359550602087013567ffffffffffffffff8111156155b057600080fd5b6155bc89828a01614eaf565b90965094505060408701356155d081614d46565b92506155de6060880161504f565b91506155ec60808801614e66565b90509295509295509295565b6000806000806040858703121561560e57600080fd5b843567ffffffffffffffff8082111561562657600080fd5b61563288838901614eaf565b9096509450602087013591508082111561564b57600080fd5b5061565887828801614eaf565b95989497509550505050565b6000806000806080858703121561567a57600080fd5b84359350602085013561568c81614d46565b9250604085013561526681614d46565b6000806000606084860312156156b157600080fd5b8335925060208401359150604084013561547281614d46565b600080604083850312156156dd57600080fd5b82356156e881614d46565b91506020830135614e5b81614d46565b6000806000806060858703121561570e57600080fd5b843567ffffffffffffffff81111561572557600080fd5b61573187828801614eaf565b909550935050602085013561574581614d46565b9150604085013561575581614d46565b939692955090935050565b600080600080600060a0868803121561577857600080fd5b853561578381614d46565b9450602086013561579381614d46565b93506040860135925060608601359150608086013567ffffffffffffffff8111156157bd57600080fd5b61522c88828901614ff3565b60008060008060008060a087890312156157e257600080fd5b863567ffffffffffffffff8111156157f957600080fd5b61580589828a01614eaf565b909750955050602087013561581981614d46565b935060408701359250606087013561583081614d46565b91506155ec6080880161527f565b60006020828403121561585057600080fd5b815167ffffffffffffffff81111561586757600080fd5b8201601f8101841361587857600080fd5b805161588381614fcb565b6040516158908282614f9e565b8281528660208486010111156158a557600080fd5b610aa5836020830160208701614dd3565b600080600080608085870312156158cc57600080fd5b843567ffffffffffffffff8111156158e357600080fd5b6158ef87828801614ff3565b945050602085013561590081614d46565b925061590e6040860161527f565b9150606085013561575581614d46565b60006020828403121561593057600080fd5b5051919050565b634e487b7160e01b600052601160045260246000fd5b67ffffffffffffffff81811683821601908082111561596e5761596e615937565b5092915050565b600181811c9082168061598957607f821691505b6020821081036159a957634e487b7160e01b600052602260045260246000fd5b50919050565b634e487b7160e01b600052603260045260246000fd5b6000600182016159d7576159d7615937565b5060010190565b6040815260006159f16040830185615377565b8281036020840152615a038185615377565b95945050505050565b600060208284031215615a1e57600080fd5b81516109c881614d46565b600060208284031215615a3b57600080fd5b81516109c88161547d565b8183823760009101908152919050565b81835281816020850137506000828201602090810191909152601f909101601f19169091010190565b60c081526000615a9360c083018a8c615a56565b6001600160a01b03898116602085015263ffffffff8916604085015267ffffffffffffffff881660608501528616608084015282810360a0840152615ad9818587615a56565b9b9a5050505050505050505050565b601f821115610a1057600081815260208120601f850160051c81016020861015615b0f5750805b601f850160051c820191505b81811015613c7957828155600101615b1b565b67ffffffffffffffff831115615b4657615b46614f88565b615b5a83615b548354615975565b83615ae8565b6000601f841160018114615b8e5760008515615b765750838201355b600019600387901b1c1916600186901b178355611509565b600083815260209020601f19861690835b82811015615bbf5786850135825560209485019460019092019101615b9f565b5086821015615bdc5760001960f88860031b161c19848701351681555b505060018560011b0183555050505050565b67ffffffffffffffff82811682821603908082111561596e5761596e615937565b815167ffffffffffffffff811115615c2957615c29614f88565b615c3d81615c378454615975565b84615ae8565b602080601f831160018114615c725760008415615c5a5750858301515b600019600386901b1c1916600185901b178555613c79565b600085815260208120601f198616915b82811015615ca157888601518255948401946001909101908401615c82565b5085821015615cbf5787850151600019600388901b60f8161c191681555b5050505050600190811b01905550565b60006001600160a01b03808816835280871660208401525060a06040830152615cfb60a0830186615377565b8281036060840152615d0d8186615377565b90508281036080840152613d388185614df7565b600060208284031215615d3357600080fd5b81516109c881614da0565b600060033d1115615d575760046000803e5060005160e01c5b90565b600060443d1015615d685790565b6040516003193d81016004833e81513d67ffffffffffffffff8160248401118184111715615d9857505050505090565b8285019150815181811115615db05750505050505090565b843d8701016020828501011115615dca5750505050505090565b615dd960208286010187614f9e565b509095945050505050565b608081526000615df76080830187614df7565b6001600160a01b039590951660208301525063ffffffff92909216604083015267ffffffffffffffff16606090910152919050565b818103818111156108fb576108fb615937565b808201808211156108fb576108fb615937565b7fff000000000000000000000000000000000000000000000000000000000000008460f81b16815260008351615e8f816001850160208801614dd3565b835190830190615ea6816001840160208801614dd3565b0160010195945050505050565b60006001600160a01b03808816835280871660208401525084604083015283606083015260a06080830152615eeb60a0830184614df7565b97965050505050505056fea264697066735822122058e07e4f23b642915e726c74e02db8500cf6e08af18901cc6a841c19da5c792e64736f6c63430008110033",
  "devdoc": {
    "author": "ConsenSys Software Inc.",
    "kind": "dev",
    "methods": {
      "allFusesBurned(bytes32,uint32)": {
        "params": {
          "fuseMask": "The fuses you want to check",
          "node": "Namehash of the name"
        },
        "returns": {
          "_0": "Boolean of whether or not all the selected fuses are burned"
        }
      },
      "approve(address,uint256)": {
        "params": {
          "to": "address to approve",
          "tokenId": "name to approve"
        }
      },
      "balanceOf(address,uint256)": {
        "details": "See {IERC1155-balanceOf}. Requirements: - `account` cannot be the zero address."
      },
      "balanceOfBatch(address[],uint256[])": {
        "details": "See {IERC1155-balanceOfBatch}. Requirements: - `accounts` and `ids` must have the same length."
      },
      "canExtendSubnames(bytes32,address)": {
        "params": {
          "addr": "which address to check permissions for",
          "node": "namehash of the name to check"
        },
        "returns": {
          "_0": "whether or not is owner/operator or approved"
        }
      },
      "canModifyName(bytes32,address)": {
        "params": {
          "addr": "which address to check permissions for",
          "node": "namehash of the name to check"
        },
        "returns": {
          "_0": "whether or not is owner or operator"
        }
      },
      "extendExpiry(bytes32,bytes32,uint64)": {
        "params": {
          "expiry": "When the name will expire in seconds since the Unix epoch",
          "labelhash": "Labelhash of the name, e.g. vitalik.xyz would be keccak256('vitalik')",
          "parentNode": "Parent namehash of the name e.g. vitalik.xyz would be namehash('xyz')"
        },
        "returns": {
          "_0": "New expiry"
        }
      },
      "getApproved(uint256)": {
        "params": {
          "id": "Namehash of the name"
        },
        "returns": {
          "operator": "Approved operator of a name"
        }
      },
      "getData(uint256)": {
        "params": {
          "id": "Namehash of the name"
        },
        "returns": {
          "expiry": "Expiry of the name",
          "fuses": "Fuses of the name",
          "owner": "Owner of the name"
        }
      },
      "isApprovedForAll(address,address)": {
        "details": "See {IERC1155-isApprovedForAll}."
      },
      "isWrapped(bytes32)": {
        "params": {
          "node": "Namehash of the name"
        },
        "returns": {
          "_0": "Boolean of whether or not the name is wrapped"
        }
      },
      "isWrapped(bytes32,bytes32)": {
        "params": {
          "labelhash": "Namehash of the name",
          "parentNode": "Namehash of the name"
        },
        "returns": {
          "_0": "Boolean of whether or not the name is wrapped"
        }
      },
      "owner()": {
        "details": "Returns the address of the current owner."
      },
      "ownerOf(uint256)": {
        "params": {
          "id": "Label as a string of the domain to wrap"
        },
        "returns": {
          "owner": "The owner of the name"
        }
      },
      "recoverFunds(address,address,uint256)": {
        "details": "The contract is Ownable and only the owner can call the recover function.",
        "params": {
          "_amount": "The amount of tokens to recover.",
          "_to": "The address to send the tokens to.",
          "_token": "The address of the ERC20 token to recover"
        }
      },
      "registerAndWrap(string,address,uint256,address,uint16)": {
        "details": "Registers a new domain and wraps it.      Only callable by authorised controllers.",
        "params": {
          "duration": "The duration, in seconds, to register the name for.",
          "label": "The label to register (Eg, 'foo' for 'foo.linea.eth').",
          "ownerControlledFuses": "Initial owner-controlled fuses to set",
          "resolver": "The resolver address to set on the ENS registry (optional).",
          "wrappedOwner": "The owner of the wrapped name."
        },
        "returns": {
          "registrarExpiry": "The expiry date of the new name on the registrar, in seconds since the Unix epoch."
        }
      },
      "renew(uint256,uint256)": {
        "details": "Only callable by authorised controllers.",
        "params": {
          "duration": "The number of seconds to renew the name for.",
          "tokenId": "The hash of the label to register (eg, `keccak256('foo')`, for 'foo.linea.eth')."
        },
        "returns": {
          "expires": "The expiry date of the name on the registrar, in seconds since the Unix epoch."
        }
      },
      "renounceOwnership()": {
        "details": "Leaves the contract without owner. It will not be possible to call `onlyOwner` functions. Can only be called by the current owner. NOTE: Renouncing ownership will leave the contract without an owner, thereby disabling any functionality that is only available to the owner."
      },
      "safeBatchTransferFrom(address,address,uint256[],uint256[],bytes)": {
        "details": "See {IERC1155-safeBatchTransferFrom}."
      },
      "safeTransferFrom(address,address,uint256,uint256,bytes)": {
        "details": "See {IERC1155-safeTransferFrom}."
      },
      "setApprovalForAll(address,bool)": {
        "details": "See {IERC1155-setApprovalForAll}."
      },
      "setChildFuses(bytes32,bytes32,uint32,uint64)": {
        "params": {
          "expiry": "When the name will expire in seconds since the Unix epoch",
          "fuses": "Fuses to burn",
          "labelhash": "Labelhash of the name, e.g. vitalik.xyz would be keccak256('vitalik')",
          "parentNode": "Parent namehash of the name e.g. vitalik.xyz would be namehash('xyz')"
        }
      },
      "setFuses(bytes32,uint16)": {
        "params": {
          "node": "Namehash of the name",
          "ownerControlledFuses": "Owner-controlled fuses to burn"
        },
        "returns": {
          "_0": "Old fuses"
        }
      },
      "setMetadataService(address)": {
        "params": {
          "_metadataService": "The new metadata service"
        }
      },
      "setRecord(bytes32,address,address,uint64)": {
        "params": {
          "node": "Namehash of the name to set a record for",
          "owner": "New owner in the registry",
          "resolver": "Resolver contract",
          "ttl": "Time to live in the registry"
        }
      },
      "setResolver(bytes32,address)": {
        "params": {
          "node": "namehash of the name",
          "resolver": "the resolver contract"
        }
      },
      "setSubnodeOwner(bytes32,string,address,uint32,uint64)": {
        "params": {
          "expiry": "When the name will expire in seconds since the Unix epoch",
          "fuses": "Initial fuses for the wrapped subdomain",
          "label": "Label of the subdomain as a string",
          "owner": "New owner in the wrapper",
          "parentNode": "Parent namehash of the subdomain"
        },
        "returns": {
          "node": "Namehash of the subdomain"
        }
      },
      "setSubnodeRecord(bytes32,string,address,address,uint64,uint32,uint64)": {
        "params": {
          "expiry": "When the name will expire in seconds since the Unix epoch",
          "fuses": "initial fuses for the wrapped subdomain",
          "label": "label of the subdomain as a string",
          "owner": "new owner in the wrapper",
          "parentNode": "parent namehash of the subdomain",
          "resolver": "resolver contract in the registry",
          "ttl": "ttl in the registry"
        },
        "returns": {
          "node": "Namehash of the subdomain"
        }
      },
      "setTTL(bytes32,uint64)": {
        "params": {
          "node": "Namehash of the name",
          "ttl": "TTL in the registry"
        }
      },
      "setUpgradeContract(address)": {
        "details": "The default value of upgradeContract is the 0 address. Use the 0 address at any time to make the contract not upgradable.",
        "params": {
          "_upgradeAddress": "address of an upgraded contract"
        }
      },
      "transferOwnership(address)": {
        "details": "Transfers ownership of the contract to a new account (`newOwner`). Can only be called by the current owner."
      },
      "unwrap(bytes32,bytes32,address)": {
        "details": "Can be called by the owner in the wrapper or an authorised caller in the wrapper",
        "params": {
          "controller": "Sets the owner in the registry to this address",
          "labelhash": "Labelhash of the name, e.g. vitalik.xyz would be keccak256('vitalik')",
          "parentNode": "Parent namehash of the name e.g. vitalik.xyz would be namehash('xyz')"
        }
      },
      "unwrapAnyLD(bytes32,address,address)": {
        "details": "Can be called by the owner in the wrapper or an authorised caller in the wrapper",
        "params": {
          "controller": "Sets the owner in the registry to this address",
          "labelhash": "Labelhash of the domain",
          "registrant": "Sets the owner in the registrar to this address"
        }
      },
      "upgrade(bytes,bytes)": {
        "details": "Can be called by the owner or an authorised caller",
        "params": {
          "extraData": "Extra data to pass to the upgrade contract",
          "name": "The name to upgrade, in DNS format"
        }
      },
      "uri(uint256)": {
        "params": {
          "tokenId": "The id of the token"
        },
        "returns": {
          "_0": "string uri of the metadata service"
        }
      },
      "wrap(bytes,address,address)": {
        "details": "Can be called by the owner in the registry or an authorised caller in the registry",
        "params": {
          "name": "The name to wrap, in DNS format",
          "resolver": "Resolver contract",
          "wrappedOwner": "Owner of the name in this contract"
        }
      },
      "wrapAnyLD(string,address,uint16,address)": {
        "details": "Can be called by the owner of the name on the registrar or an authorised caller on the registrar",
        "params": {
          "label": "Label as a string of the domain to wrap",
          "ownerControlledFuses": "Initial owner-controlled fuses to set",
          "resolver": "Resolver contract address",
          "wrappedOwner": "Owner of the name in this contract"
        }
      }
    },
    "stateVariables": {
      "baseNode": {
        "details": "Base node handled to register a domain, replaces .eth node"
      }
    },
    "title": "Contract based on ENS's NameWrapper contract to handle any level domain registration instead of only 2 levels domain .eth domains.",
    "version": 1
  },
  "userdoc": {
    "kind": "user",
    "methods": {
      "allFusesBurned(bytes32,uint32)": {
        "notice": "Checks all Fuses in the mask are burned for the node"
      },
      "approve(address,uint256)": {
        "notice": "Approves an address for a name"
      },
      "canExtendSubnames(bytes32,address)": {
        "notice": "Checks if owner/operator or approved by owner"
      },
      "canModifyName(bytes32,address)": {
        "notice": "Checks if owner or operator of the owner"
      },
      "extendExpiry(bytes32,bytes32,uint64)": {
        "notice": "Extends expiry for a name"
      },
      "getApproved(uint256)": {
        "notice": "Gets the owner of a name"
      },
      "getData(uint256)": {
        "notice": "Gets the data for a name"
      },
      "isWrapped(bytes32)": {
        "notice": "Checks if a name is wrapped"
      },
      "isWrapped(bytes32,bytes32)": {
        "notice": "Checks if a name is wrapped in a more gas efficient way"
      },
      "ownerOf(uint256)": {
        "notice": "Gets the owner of a name"
      },
      "recoverFunds(address,address,uint256)": {
        "notice": "Recover ERC20 tokens sent to the contract by mistake."
      },
      "renew(uint256,uint256)": {
        "notice": "Renews a domain."
      },
      "setChildFuses(bytes32,bytes32,uint32,uint64)": {
        "notice": "Sets fuses of a name that you own the parent of"
      },
      "setFuses(bytes32,uint16)": {
        "notice": "Sets fuses of a name"
      },
      "setMetadataService(address)": {
        "notice": "Set the metadata service. Only the owner can do this"
      },
      "setRecord(bytes32,address,address,uint64)": {
        "notice": "Sets records for the name in the ENS Registry"
      },
      "setResolver(bytes32,address)": {
        "notice": "Sets resolver contract in the registry"
      },
      "setSubnodeOwner(bytes32,string,address,uint32,uint64)": {
        "notice": "Sets the subdomain owner in the registry and then wraps the subdomain"
      },
      "setSubnodeRecord(bytes32,string,address,address,uint64,uint32,uint64)": {
        "notice": "Sets the subdomain owner in the registry with records and then wraps the subdomain"
      },
      "setTTL(bytes32,uint64)": {
        "notice": "Sets TTL in the registry"
      },
      "setUpgradeContract(address)": {
        "notice": "Set the address of the upgradeContract of the contract. only admin can do this"
      },
      "unwrap(bytes32,bytes32,address)": {
        "notice": "Unwraps a domain not based on baseNode, of any kind. Could be a DNSSEC name vitalik.xyz or a subdomain"
      },
      "unwrapAnyLD(bytes32,address,address)": {
        "notice": "Unwraps a domain based on baseNode. e.g. vitalik.linea.eth"
      },
      "upgrade(bytes,bytes)": {
        "notice": "Upgrades a domain of any kind. Could be a .eth name vitalik.eth, a DNSSEC name vitalik.xyz, or a subdomain"
      },
      "uri(uint256)": {
        "notice": "Get the metadata uri"
      },
      "wrap(bytes,address,address)": {
        "notice": "Wraps a domain not based on baseNode. Could be a DNSSEC name vitalik.xyz or a subdomain"
      },
      "wrapAnyLD(string,address,uint16,address)": {
        "notice": "Wraps a domain based on the baseNode, creating a new token and sending the original ERC721 token to this contract"
      }
    },
    "version": 1
  },
  "storageLayout": {
    "storage": [
      {
        "astId": 444,
        "contract": "contracts/wrapper/NameWrapper.sol:NameWrapper",
        "label": "_owner",
        "offset": 0,
        "slot": "0",
        "type": "t_address"
      },
      {
        "astId": 22802,
        "contract": "contracts/wrapper/NameWrapper.sol:NameWrapper",
        "label": "_tokens",
        "offset": 0,
        "slot": "1",
        "type": "t_mapping(t_uint256,t_uint256)"
      },
      {
        "astId": 22808,
        "contract": "contracts/wrapper/NameWrapper.sol:NameWrapper",
        "label": "_operatorApprovals",
        "offset": 0,
        "slot": "2",
        "type": "t_mapping(t_address,t_mapping(t_address,t_bool))"
      },
      {
        "astId": 22812,
        "contract": "contracts/wrapper/NameWrapper.sol:NameWrapper",
        "label": "_tokenApprovals",
        "offset": 0,
        "slot": "3",
        "type": "t_mapping(t_uint256,t_address)"
      },
      {
        "astId": 22733,
        "contract": "contracts/wrapper/NameWrapper.sol:NameWrapper",
        "label": "controllers",
        "offset": 0,
        "slot": "4",
        "type": "t_mapping(t_address,t_bool)"
      },
      {
        "astId": 24275,
        "contract": "contracts/wrapper/NameWrapper.sol:NameWrapper",
        "label": "metadataService",
        "offset": 0,
        "slot": "5",
        "type": "t_contract(IMetadataService)23776"
      },
      {
        "astId": 24279,
        "contract": "contracts/wrapper/NameWrapper.sol:NameWrapper",
        "label": "names",
        "offset": 0,
        "slot": "6",
        "type": "t_mapping(t_bytes32,t_bytes_storage)"
      },
      {
        "astId": 24297,
        "contract": "contracts/wrapper/NameWrapper.sol:NameWrapper",
        "label": "upgradeContract",
        "offset": 0,
        "slot": "7",
        "type": "t_contract(INameWrapperUpgrade)24168"
      }
    ],
    "types": {
      "t_address": {
        "encoding": "inplace",
        "label": "address",
        "numberOfBytes": "20"
      },
      "t_bool": {
        "encoding": "inplace",
        "label": "bool",
        "numberOfBytes": "1"
      },
      "t_bytes32": {
        "encoding": "inplace",
        "label": "bytes32",
        "numberOfBytes": "32"
      },
      "t_bytes_storage": {
        "encoding": "bytes",
        "label": "bytes",
        "numberOfBytes": "32"
      },
      "t_contract(IMetadataService)23776": {
        "encoding": "inplace",
        "label": "contract IMetadataService",
        "numberOfBytes": "20"
      },
      "t_contract(INameWrapperUpgrade)24168": {
        "encoding": "inplace",
        "label": "contract INameWrapperUpgrade",
        "numberOfBytes": "20"
      },
      "t_mapping(t_address,t_bool)": {
        "encoding": "mapping",
        "key": "t_address",
        "label": "mapping(address => bool)",
        "numberOfBytes": "32",
        "value": "t_bool"
      },
      "t_mapping(t_address,t_mapping(t_address,t_bool))": {
        "encoding": "mapping",
        "key": "t_address",
        "label": "mapping(address => mapping(address => bool))",
        "numberOfBytes": "32",
        "value": "t_mapping(t_address,t_bool)"
      },
      "t_mapping(t_bytes32,t_bytes_storage)": {
        "encoding": "mapping",
        "key": "t_bytes32",
        "label": "mapping(bytes32 => bytes)",
        "numberOfBytes": "32",
        "value": "t_bytes_storage"
      },
      "t_mapping(t_uint256,t_address)": {
        "encoding": "mapping",
        "key": "t_uint256",
        "label": "mapping(uint256 => address)",
        "numberOfBytes": "32",
        "value": "t_address"
      },
      "t_mapping(t_uint256,t_uint256)": {
        "encoding": "mapping",
        "key": "t_uint256",
        "label": "mapping(uint256 => uint256)",
        "numberOfBytes": "32",
        "value": "t_uint256"
      },
      "t_uint256": {
        "encoding": "inplace",
        "label": "uint256",
        "numberOfBytes": "32"
      }
    }
  }
}