{
  "address": "0x01EED785e5433D8bef9bf07968fBC507313195b8",
  "abi": [
    {
      "anonymous": false,
      "inputs": [
        {
          "indexed": true,
          "internalType": "address",
          "name": "previousOwner",
          "type": "address"
        },
        {
          "indexed": true,
          "internalType": "address",
          "name": "newOwner",
          "type": "address"
        }
      ],
      "name": "OwnershipTransferStarted",
      "type": "event"
    },
    {
      "anonymous": false,
      "inputs": [
        {
          "indexed": true,
          "internalType": "address",
          "name": "previousOwner",
          "type": "address"
        },
        {
          "indexed": true,
          "internalType": "address",
          "name": "newOwner",
          "type": "address"
        }
      ],
      "name": "OwnershipTransferred",
      "type": "event"
    },
    {
      "inputs": [],
      "name": "acceptOwnership",
      "outputs": [],
      "stateMutability": "nonpayable",
      "type": "function"
    },
    {
      "inputs": [
        {
          "internalType": "address",
          "name": "",
          "type": "address"
        }
      ],
      "name": "hasRegisteredPoh",
      "outputs": [
        {
          "internalType": "bool",
          "name": "",
          "type": "bool"
        }
      ],
      "stateMutability": "view",
      "type": "function"
    },
    {
      "inputs": [
        {
          "internalType": "address",
          "name": "_address",
          "type": "address"
        }
      ],
      "name": "isRegistered",
      "outputs": [
        {
          "internalType": "bool",
          "name": "",
          "type": "bool"
        }
      ],
      "stateMutability": "view",
      "type": "function"
    },
    {
      "inputs": [
        {
          "internalType": "address",
          "name": "",
          "type": "address"
        }
      ],
      "name": "managers",
      "outputs": [
        {
          "internalType": "bool",
          "name": "",
          "type": "bool"
        }
      ],
      "stateMutability": "view",
      "type": "function"
    },
    {
      "inputs": [
        {
          "internalType": "address",
          "name": "_address",
          "type": "address"
        }
      ],
      "name": "markAsRegistered",
      "outputs": [],
      "stateMutability": "nonpayable",
      "type": "function"
    },
    {
      "inputs": [],
      "name": "owner",
      "outputs": [
        {
          "internalType": "address",
          "name": "",
          "type": "address"
        }
      ],
      "stateMutability": "view",
      "type": "function"
    },
    {
      "inputs": [],
      "name": "pendingOwner",
      "outputs": [
        {
          "internalType": "address",
          "name": "",
          "type": "address"
        }
      ],
      "stateMutability": "view",
      "type": "function"
    },
    {
      "inputs": [],
      "name": "renounceOwnership",
      "outputs": [],
      "stateMutability": "nonpayable",
      "type": "function"
    },
    {
      "inputs": [
        {
          "internalType": "address",
          "name": "_manager",
          "type": "address"
        },
        {
          "internalType": "bool",
          "name": "isManager",
          "type": "bool"
        }
      ],
      "name": "setManager",
      "outputs": [],
      "stateMutability": "nonpayable",
      "type": "function"
    },
    {
      "inputs": [
        {
          "internalType": "address",
          "name": "newOwner",
          "type": "address"
        }
      ],
      "name": "transferOwnership",
      "outputs": [],
      "stateMutability": "nonpayable",
      "type": "function"
    }
  ],
  "transactionHash": "0xa5645499cd3e45caf62935228eaa944e5751f85f78ffc5bec65b9cc8bb9bcd9d",
  "args": [],
  "numDeployments": 1,
  "solcInputHash": "ecf9ee221e9a3f6a0d5de2e6d402ddd7",
  "bytecode": "0x608060405234801561001057600080fd5b5061001a3361001f565b610096565b600180546001600160a01b031916905561004381610046602090811b61036317901c565b50565b600080546001600160a01b038381166001600160a01b0319831681178455604051919092169283917f8be0079c531659141344cd1fd0a4f28419497f9722a3daafe3b4186f6b6457e09190a35050565b6104f0806100a56000396000f3fe608060405234801561001057600080fd5b50600436106100be5760003560e01c8063a5e90eee11610076578063e30c39781161005b578063e30c397814610184578063f2fde38b14610195578063fdff9b4d146101a857600080fd5b8063a5e90eee14610145578063c3c5a5471461015857600080fd5b806379ba5097116100a757806379ba5097146100e05780638da5cb5b146100e85780639241f0851461011257600080fd5b80633682447e146100c3578063715018a6146100d8575b600080fd5b6100d66100d136600461045c565b6101cb565b005b6100d661020b565b6100d661021f565b6000546001600160a01b03165b6040516001600160a01b0390911681526020015b60405180910390f35b61013561012036600461045c565b60026020526000908152604090205460ff1681565b6040519015158152602001610109565b6100d661015336600461047e565b6102b2565b61013561016636600461045c565b6001600160a01b031660009081526002602052604090205460ff1690565b6001546001600160a01b03166100f5565b6100d66101a336600461045c565b6102e5565b6101356101b636600461045c565b60036020526000908152604090205460ff1681565b3360009081526003602052604090205460ff166101e757600080fd5b6001600160a01b03166000908152600260205260409020805460ff19166001179055565b6102136103c0565b61021d600061041a565b565b60015433906001600160a01b031681146102a65760405162461bcd60e51b815260206004820152602960248201527f4f776e61626c6532537465703a2063616c6c6572206973206e6f74207468652060448201527f6e6577206f776e6572000000000000000000000000000000000000000000000060648201526084015b60405180910390fd5b6102af8161041a565b50565b6102ba6103c0565b6001600160a01b03919091166000908152600360205260409020805460ff1916911515919091179055565b6102ed6103c0565b600180546001600160a01b03831673ffffffffffffffffffffffffffffffffffffffff19909116811790915561032b6000546001600160a01b031690565b6001600160a01b03167f38d16b8cac22d99fc7c124b9cd0de2d3fa1faef420bfe791d8c362d765e2270060405160405180910390a350565b600080546001600160a01b0383811673ffffffffffffffffffffffffffffffffffffffff19831681178455604051919092169283917f8be0079c531659141344cd1fd0a4f28419497f9722a3daafe3b4186f6b6457e09190a35050565b6000546001600160a01b0316331461021d5760405162461bcd60e51b815260206004820181905260248201527f4f776e61626c653a2063616c6c6572206973206e6f7420746865206f776e6572604482015260640161029d565b6001805473ffffffffffffffffffffffffffffffffffffffff191690556102af81610363565b80356001600160a01b038116811461045757600080fd5b919050565b60006020828403121561046e57600080fd5b61047782610440565b9392505050565b6000806040838503121561049157600080fd5b61049a83610440565b9150602083013580151581146104af57600080fd5b80915050925092905056fea2646970667358221220b10ab274e56acac6e6ce708a414eea9d2d254db36a6f25424faa12243fe0a12764736f6c63430008110033",
  "devdoc": {
    "details": "Contract to manage the registration status of addresses using Proof of Humanity (PoH).",
    "kind": "dev",
    "methods": {
      "acceptOwnership()": {
        "details": "The new owner accepts the ownership transfer."
      },
      "isRegistered(address)": {
        "details": "Checks if an address has successfully registered using PoH.",
        "params": {
          "_address": "The address to check."
        },
        "returns": {
          "_0": "bool True if the address has registered, false otherwise."
        }
      },
      "markAsRegistered(address)": {
        "details": "Marks an address as having successfully registered using PoH.",
        "params": {
          "_address": "The address to mark as registered."
        }
      },
      "owner()": {
        "details": "Returns the address of the current owner."
      },
      "pendingOwner()": {
        "details": "Returns the address of the pending owner."
      },
      "renounceOwnership()": {
        "details": "Leaves the contract without owner. It will not be possible to call `onlyOwner` functions. Can only be called by the current owner. NOTE: Renouncing ownership will leave the contract without an owner, thereby disabling any functionality that is only available to the owner."
      },
      "setManager(address,bool)": {
        "details": "Sets or revokes the manager role for an address. Allows the contract owner to designate certain addresses as managers, who are then authorized to mark addresses as having successfully registered using PoH. This function can also be used to revoke the manager role by setting `isManager` to false.",
        "params": {
          "_manager": "The address to be set as a manager or to have its manager role revoked.",
          "isManager": "A boolean indicating whether the address should be set as a manager (true) or have its manager role revoked (false)."
        }
      },
      "transferOwnership(address)": {
        "details": "Starts the ownership transfer of the contract to a new account. Replaces the pending transfer if there is one. Can only be called by the current owner."
      }
    },
    "title": "PohRegistrationManager",
    "version": 1
  },
  "userdoc": {
    "kind": "user",
    "methods": {},
    "version": 1
  },
  "storageLayout": {
    "storage": [
      {
        "astId": 444,
        "contract": "contracts/ethregistrar/PohRegistrationManager.sol:PohRegistrationManager",
        "label": "_owner",
        "offset": 0,
        "slot": "0",
        "type": "t_address"
      },
      {
        "astId": 557,
        "contract": "contracts/ethregistrar/PohRegistrationManager.sol:PohRegistrationManager",
        "label": "_pendingOwner",
        "offset": 0,
        "slot": "1",
        "type": "t_address"
      },
      {
        "astId": 17012,
        "contract": "contracts/ethregistrar/PohRegistrationManager.sol:PohRegistrationManager",
        "label": "hasRegisteredPoh",
        "offset": 0,
        "slot": "2",
        "type": "t_mapping(t_address,t_bool)"
      },
      {
        "astId": 17016,
        "contract": "contracts/ethregistrar/PohRegistrationManager.sol:PohRegistrationManager",
        "label": "managers",
        "offset": 0,
        "slot": "3",
        "type": "t_mapping(t_address,t_bool)"
      }
    ],
    "types": {
      "t_address": {
        "encoding": "inplace",
        "label": "address",
        "numberOfBytes": "20"
      },
      "t_bool": {
        "encoding": "inplace",
        "label": "bool",
        "numberOfBytes": "1"
      },
      "t_mapping(t_address,t_bool)": {
        "encoding": "mapping",
        "key": "t_address",
        "label": "mapping(address => bool)",
        "numberOfBytes": "32",
        "value": "t_bool"
      }
    }
  }
}