{
  "address": "0x576754D133C02B2E229F2630Baa2F06110cE9a9A",
  "abi": [
    {
      "inputs": [],
      "stateMutability": "nonpayable",
      "type": "constructor"
    },
    {
      "inputs": [],
      "name": "InvalidShortString",
      "type": "error"
    },
    {
      "inputs": [
        {
          "internalType": "string",
          "name": "str",
          "type": "string"
        }
      ],
      "name": "StringTooLong",
      "type": "error"
    },
    {
      "anonymous": false,
      "inputs": [],
      "name": "EIP712DomainChanged",
      "type": "event"
    },
    {
      "anonymous": false,
      "inputs": [
        {
          "indexed": true,
          "internalType": "address",
          "name": "previousOwner",
          "type": "address"
        },
        {
          "indexed": true,
          "internalType": "address",
          "name": "newOwner",
          "type": "address"
        }
      ],
      "name": "OwnershipTransferred",
      "type": "event"
    },
    {
      "anonymous": false,
      "inputs": [
        {
          "indexed": true,
          "internalType": "address",
          "name": "newSigner",
          "type": "address"
        }
      ],
      "name": "SignerUpdated",
      "type": "event"
    },
    {
      "inputs": [],
      "name": "eip712Domain",
      "outputs": [
        {
          "internalType": "bytes1",
          "name": "fields",
          "type": "bytes1"
        },
        {
          "internalType": "string",
          "name": "name",
          "type": "string"
        },
        {
          "internalType": "string",
          "name": "version",
          "type": "string"
        },
        {
          "internalType": "uint256",
          "name": "chainId",
          "type": "uint256"
        },
        {
          "internalType": "address",
          "name": "verifyingContract",
          "type": "address"
        },
        {
          "internalType": "bytes32",
          "name": "salt",
          "type": "bytes32"
        },
        {
          "internalType": "uint256[]",
          "name": "extensions",
          "type": "uint256[]"
        }
      ],
      "stateMutability": "view",
      "type": "function"
    },
    {
      "inputs": [],
      "name": "getSigner",
      "outputs": [
        {
          "internalType": "address",
          "name": "",
          "type": "address"
        }
      ],
      "stateMutability": "view",
      "type": "function"
    },
    {
      "inputs": [],
      "name": "owner",
      "outputs": [
        {
          "internalType": "address",
          "name": "",
          "type": "address"
        }
      ],
      "stateMutability": "view",
      "type": "function"
    },
    {
      "inputs": [],
      "name": "renounceOwnership",
      "outputs": [],
      "stateMutability": "nonpayable",
      "type": "function"
    },
    {
      "inputs": [
        {
          "internalType": "address",
          "name": "_signer",
          "type": "address"
        }
      ],
      "name": "setSigner",
      "outputs": [],
      "stateMutability": "nonpayable",
      "type": "function"
    },
    {
      "inputs": [],
      "name": "signer",
      "outputs": [
        {
          "internalType": "address",
          "name": "",
          "type": "address"
        }
      ],
      "stateMutability": "view",
      "type": "function"
    },
    {
      "inputs": [
        {
          "internalType": "address",
          "name": "newOwner",
          "type": "address"
        }
      ],
      "name": "transferOwnership",
      "outputs": [],
      "stateMutability": "nonpayable",
      "type": "function"
    },
    {
      "inputs": [
        {
          "internalType": "bytes",
          "name": "signature",
          "type": "bytes"
        },
        {
          "internalType": "address",
          "name": "human",
          "type": "address"
        }
      ],
      "name": "verify",
      "outputs": [
        {
          "internalType": "bool",
          "name": "",
          "type": "bool"
        }
      ],
      "stateMutability": "view",
      "type": "function"
    }
  ],
  "transactionHash": "0x55921b3a043a0787515c6a9f2a82bbf96cca43c3cd11c51b0aea832f27a40e0a",
  "args": [],
  "numDeployments": 1,
  "solcInputHash": "ecf9ee221e9a3f6a0d5de2e6d402ddd7",
  "bytecode": "0x6101606040523480156200001257600080fd5b50604051806040016040528060098152602001680accae4d2ccf2a0ded60bb1b815250604051806040016040528060018152602001603160f81b8152506200006a6000836200016d60201b620003df1790919060201c565b61012052620000878160016200016d602090811b620003df17901c565b61014052815160208084019190912060e052815190820120610100524660a0526200011560e05161010051604080517f8b73c3c69bb8fe3d512ecc4cf759cc79239f7b179b0ffacaa9a75d522b39400f60208201529081019290925260608201524660808201523060a082015260009060c00160405160208183030381529060405280519060200120905090565b60805250503060c0526200012933620001bd565b600380546001600160a01b031916339081179091556040517f5553331329228fbd4123164423717a4a7539f6dfa1c3279a923b98fd681a6c7390600090a262000444565b60006020835110156200018d5762000185836200020f565b9050620001b7565b82620001a4836200025b60201b620004101760201c565b90620001b1908262000303565b5060ff90505b92915050565b600280546001600160a01b038381166001600160a01b0319831681179093556040519116919082907f8be0079c531659141344cd1fd0a4f28419497f9722a3daafe3b4186f6b6457e090600090a35050565b600080829050601f8151111562000246578260405163305a27a960e01b81526004016200023d9190620003cf565b60405180910390fd5b805162000253826200041f565b179392505050565b90565b634e487b7160e01b600052604160045260246000fd5b600181811c908216806200028957607f821691505b602082108103620002aa57634e487b7160e01b600052602260045260246000fd5b50919050565b601f821115620002fe57600081815260208120601f850160051c81016020861015620002d95750805b601f850160051c820191505b81811015620002fa57828155600101620002e5565b5050505b505050565b81516001600160401b038111156200031f576200031f6200025e565b620003378162000330845462000274565b84620002b0565b602080601f8311600181146200036f5760008415620003565750858301515b600019600386901b1c1916600185901b178555620002fa565b600085815260208120601f198616915b82811015620003a0578886015182559484019460019091019084016200037f565b5085821015620003bf5787850151600019600388901b60f8161c191681555b5050505050600190811b01905550565b600060208083528351808285015260005b81811015620003fe57858101830151858201604001528201620003e0565b506000604082860101526040601f19601f8301168501019250505092915050565b80516020808301519190811015620002aa5760001960209190910360031b1b16919050565b60805160a05160c05160e051610100516101205161014051610e2b6200049f60003960006102e3015260006102b90152600061070d015260006106e5015260006106400152600061066a015260006106940152610e2b6000f3fe608060405234801561001057600080fd5b50600436106100885760003560e01c80637ac3c02f1161005b5780637ac3c02f146100fd57806384b0196e1461010e5780638da5cb5b14610129578063f2fde38b1461013a57600080fd5b8063238ac9331461008d5780633d3ac1b5146100bd5780636c19e783146100e0578063715018a6146100f5575b600080fd5b6003546100a0906001600160a01b031681565b6040516001600160a01b0390911681526020015b60405180910390f35b6100d06100cb366004610a83565b61014d565b60405190151581526020016100b4565b6100f36100ee366004610b45565b6101dd565b005b6100f3610297565b6003546001600160a01b03166100a0565b6101166102ab565b6040516100b49796959493929190610bad565b6002546001600160a01b03166100a0565b6100f3610148366004610b45565b61034f565b6000806101b37f21d8840bd8c10509aa539d8c2345dc09c5f0a0a03df8655015adbef3491cc7dd846040516020016101989291909182526001600160a01b0316602082015260400190565b60405160208183030381529060405280519060200120610413565b905060006101c1828661045b565b6003546001600160a01b03918216911614925050505b92915050565b6101e561047f565b6001600160a01b0381166102405760405162461bcd60e51b815260206004820152600f60248201527f496e76616c69642061646472657373000000000000000000000000000000000060448201526064015b60405180910390fd5b6003805473ffffffffffffffffffffffffffffffffffffffff19166001600160a01b0383169081179091556040517f5553331329228fbd4123164423717a4a7539f6dfa1c3279a923b98fd681a6c7390600090a250565b61029f61047f565b6102a960006104d9565b565b6000606080828080836102de7f000000000000000000000000000000000000000000000000000000000000000083610538565b6103097f00000000000000000000000000000000000000000000000000000000000000006001610538565b604080516000808252602082019092527f0f000000000000000000000000000000000000000000000000000000000000009b939a50919850469750309650945092509050565b61035761047f565b6001600160a01b0381166103d35760405162461bcd60e51b815260206004820152602660248201527f4f776e61626c653a206e6577206f776e657220697320746865207a65726f206160448201527f64647265737300000000000000000000000000000000000000000000000000006064820152608401610237565b6103dc816104d9565b50565b60006020835110156103fb576103f4836105dc565b90506101d7565b816104068482610ce8565b5060ff90506101d7565b90565b60006101d7610420610633565b836040517f19010000000000000000000000000000000000000000000000000000000000008152600281019290925260228201526042902090565b600080600061046a8585610763565b91509150610477816107a8565b509392505050565b6002546001600160a01b031633146102a95760405162461bcd60e51b815260206004820181905260248201527f4f776e61626c653a2063616c6c6572206973206e6f7420746865206f776e65726044820152606401610237565b600280546001600160a01b0383811673ffffffffffffffffffffffffffffffffffffffff19831681179093556040519116919082907f8be0079c531659141344cd1fd0a4f28419497f9722a3daafe3b4186f6b6457e090600090a35050565b606060ff831461054b576103f48361090d565b81805461055790610c5f565b80601f016020809104026020016040519081016040528092919081815260200182805461058390610c5f565b80156105d05780601f106105a5576101008083540402835291602001916105d0565b820191906000526020600020905b8154815290600101906020018083116105b357829003601f168201915b505050505090506101d7565b600080829050601f8151111561062057826040517f305a27a90000000000000000000000000000000000000000000000000000000081526004016102379190610da8565b805161062b82610dbb565b179392505050565b6000306001600160a01b037f00000000000000000000000000000000000000000000000000000000000000001614801561068c57507f000000000000000000000000000000000000000000000000000000000000000046145b156106b657507f000000000000000000000000000000000000000000000000000000000000000090565b61075e604080517f8b73c3c69bb8fe3d512ecc4cf759cc79239f7b179b0ffacaa9a75d522b39400f60208201527f0000000000000000000000000000000000000000000000000000000000000000918101919091527f000000000000000000000000000000000000000000000000000000000000000060608201524660808201523060a082015260009060c00160405160208183030381529060405280519060200120905090565b905090565b60008082516041036107995760208301516040840151606085015160001a61078d8782858561094c565b945094505050506107a1565b506000905060025b9250929050565b60008160048111156107bc576107bc610ddf565b036107c45750565b60018160048111156107d8576107d8610ddf565b036108255760405162461bcd60e51b815260206004820152601860248201527f45434453413a20696e76616c6964207369676e617475726500000000000000006044820152606401610237565b600281600481111561083957610839610ddf565b036108865760405162461bcd60e51b815260206004820152601f60248201527f45434453413a20696e76616c6964207369676e6174757265206c656e677468006044820152606401610237565b600381600481111561089a5761089a610ddf565b036103dc5760405162461bcd60e51b815260206004820152602260248201527f45434453413a20696e76616c6964207369676e6174757265202773272076616c60448201527f75650000000000000000000000000000000000000000000000000000000000006064820152608401610237565b6060600061091a83610a10565b604080516020808252818301909252919250600091906020820181803683375050509182525060208101929092525090565b6000807f7fffffffffffffffffffffffffffffff5d576e7357a4501ddfe92f46681b20a08311156109835750600090506003610a07565b6040805160008082526020820180845289905260ff881692820192909252606081018690526080810185905260019060a0016020604051602081039080840390855afa1580156109d7573d6000803e3d6000fd5b5050604051601f1901519150506001600160a01b038116610a0057600060019250925050610a07565b9150600090505b94509492505050565b600060ff8216601f8111156101d7576040517fb3512b0c00000000000000000000000000000000000000000000000000000000815260040160405180910390fd5b634e487b7160e01b600052604160045260246000fd5b80356001600160a01b0381168114610a7e57600080fd5b919050565b60008060408385031215610a9657600080fd5b823567ffffffffffffffff80821115610aae57600080fd5b818501915085601f830112610ac257600080fd5b813581811115610ad457610ad4610a51565b604051601f8201601f19908116603f01168101908382118183101715610afc57610afc610a51565b81604052828152886020848701011115610b1557600080fd5b826020860160208301376000602084830101528096505050505050610b3c60208401610a67565b90509250929050565b600060208284031215610b5757600080fd5b610b6082610a67565b9392505050565b6000815180845260005b81811015610b8d57602081850181015186830182015201610b71565b506000602082860101526020601f19601f83011685010191505092915050565b7fff00000000000000000000000000000000000000000000000000000000000000881681526000602060e081840152610be960e084018a610b67565b8381036040850152610bfb818a610b67565b606085018990526001600160a01b038816608086015260a0850187905284810360c0860152855180825283870192509083019060005b81811015610c4d57835183529284019291840191600101610c31565b50909c9b505050505050505050505050565b600181811c90821680610c7357607f821691505b602082108103610c9357634e487b7160e01b600052602260045260246000fd5b50919050565b601f821115610ce357600081815260208120601f850160051c81016020861015610cc05750805b601f850160051c820191505b81811015610cdf57828155600101610ccc565b5050505b505050565b815167ffffffffffffffff811115610d0257610d02610a51565b610d1681610d108454610c5f565b84610c99565b602080601f831160018114610d4b5760008415610d335750858301515b600019600386901b1c1916600185901b178555610cdf565b600085815260208120601f198616915b82811015610d7a57888601518255948401946001909101908401610d5b565b5085821015610d985787850151600019600388901b60f8161c191681555b5050505050600190811b01905550565b602081526000610b606020830184610b67565b80516020808301519190811015610c935760001960209190910360031b1b16919050565b634e487b7160e01b600052602160045260246000fdfea2646970667358221220fb9c0be9eba7f64a61776783dadbe90f376b54e5ea7fb87fce222763ea4cd0d364736f6c63430008110033",
  "devdoc": {
    "author": "ConsenSys Software Inc.",
    "kind": "dev",
    "methods": {
      "eip712Domain()": {
        "details": "See {EIP-5267}. _Available since v4.9._"
      },
      "owner()": {
        "details": "Returns the address of the current owner."
      },
      "renounceOwnership()": {
        "details": "Leaves the contract without owner. It will not be possible to call `onlyOwner` functions. Can only be called by the current owner. NOTE: Renouncing ownership will leave the contract without an owner, thereby disabling any functionality that is only available to the owner."
      },
      "setSigner(address)": {
        "details": "Signer's address has to be the same address as the POH API signer",
        "params": {
          "_signer": "The new signer's address"
        }
      },
      "transferOwnership(address)": {
        "details": "Transfers ownership of the contract to a new account (`newOwner`). Can only be called by the current owner."
      },
      "verify(bytes,address)": {
        "details": "human is supposed to be a POH address, this is what is being signed by the POH API",
        "params": {
          "human": "the address for which the signature has been crafted",
          "signature": "The signature to check"
        },
        "returns": {
          "_0": "True if the signature was made by signer, false otherwise"
        }
      }
    },
    "stateVariables": {
      "signer": {
        "details": "POH Signature's signer address"
      }
    },
    "title": "Contract to check the signature crafted by the POH API.",
    "version": 1
  },
  "userdoc": {
    "kind": "user",
    "methods": {
      "constructor": {
        "notice": "Contract created with the sender as owner and signer"
      },
      "getSigner()": {
        "notice": "Returns the signer's address"
      },
      "setSigner(address)": {
        "notice": "Set a new signer"
      },
      "verify(bytes,address)": {
        "notice": "Check if the provided signature has been signed by signer"
      }
    },
    "version": 1
  },
  "storageLayout": {
    "storage": [
      {
        "astId": 3927,
        "contract": "contracts/ethregistrar/PohVerifier.sol:PohVerifier",
        "label": "_nameFallback",
        "offset": 0,
        "slot": "0",
        "type": "t_string_storage"
      },
      {
        "astId": 3929,
        "contract": "contracts/ethregistrar/PohVerifier.sol:PohVerifier",
        "label": "_versionFallback",
        "offset": 0,
        "slot": "1",
        "type": "t_string_storage"
      },
      {
        "astId": 444,
        "contract": "contracts/ethregistrar/PohVerifier.sol:PohVerifier",
        "label": "_owner",
        "offset": 0,
        "slot": "2",
        "type": "t_address"
      },
      {
        "astId": 17092,
        "contract": "contracts/ethregistrar/PohVerifier.sol:PohVerifier",
        "label": "signer",
        "offset": 0,
        "slot": "3",
        "type": "t_address"
      }
    ],
    "types": {
      "t_address": {
        "encoding": "inplace",
        "label": "address",
        "numberOfBytes": "20"
      },
      "t_string_storage": {
        "encoding": "bytes",
        "label": "string",
        "numberOfBytes": "32"
      }
    }
  }
}