{
  "address": "0xeB87C7A4C5Ee41b20c98C1bBe60c0BAB2eBcE849",
  "abi": [
    {
      "inputs": [
        {
          "internalType": "contract BaseRegistrarImplementation",
          "name": "_base",
          "type": "address"
        },
        {
          "internalType": "contract IPriceOracle",
          "name": "_prices",
          "type": "address"
        },
        {
          "internalType": "uint256",
          "name": "_minCommitmentAge",
          "type": "uint256"
        },
        {
          "internalType": "uint256",
          "name": "_maxCommitmentAge",
          "type": "uint256"
        },
        {
          "internalType": "contract ReverseRegistrar",
          "name": "_reverseRegistrar",
          "type": "address"
        },
        {
          "internalType": "contract INameWrapper",
          "name": "_nameWrapper",
          "type": "address"
        },
        {
          "internalType": "contract ENS",
          "name": "_ens",
          "type": "address"
        },
        {
          "internalType": "contract PohVerifier",
          "name": "_pohVerifier",
          "type": "address"
        }
      ],
      "stateMutability": "nonpayable",
      "type": "constructor"
    },
    {
      "inputs": [
        {
          "internalType": "bytes32",
          "name": "commitment",
          "type": "bytes32"
        }
      ],
      "name": "CommitmentTooNew",
      "type": "error"
    },
    {
      "inputs": [
        {
          "internalType": "bytes32",
          "name": "commitment",
          "type": "bytes32"
        }
      ],
      "name": "CommitmentTooOld",
      "type": "error"
    },
    {
      "inputs": [
        {
          "internalType": "uint256",
          "name": "duration",
          "type": "uint256"
        }
      ],
      "name": "DurationTooShort",
      "type": "error"
    },
    {
      "inputs": [],
      "name": "InsufficientValue",
      "type": "error"
    },
    {
      "inputs": [],
      "name": "MaxCommitmentAgeTooHigh",
      "type": "error"
    },
    {
      "inputs": [],
      "name": "MaxCommitmentAgeTooLow",
      "type": "error"
    },
    {
      "inputs": [
        {
          "internalType": "string",
          "name": "name",
          "type": "string"
        }
      ],
      "name": "NameNotAvailable",
      "type": "error"
    },
    {
      "inputs": [],
      "name": "ResolverRequiredWhenDataSupplied",
      "type": "error"
    },
    {
      "inputs": [
        {
          "internalType": "bytes32",
          "name": "commitment",
          "type": "bytes32"
        }
      ],
      "name": "UnexpiredCommitmentExists",
      "type": "error"
    },
    {
      "anonymous": false,
      "inputs": [
        {
          "indexed": false,
          "internalType": "string",
          "name": "name",
          "type": "string"
        },
        {
          "indexed": true,
          "internalType": "bytes32",
          "name": "label",
          "type": "bytes32"
        },
        {
          "indexed": true,
          "internalType": "address",
          "name": "owner",
          "type": "address"
        },
        {
          "indexed": false,
          "internalType": "uint256",
          "name": "baseCost",
          "type": "uint256"
        },
        {
          "indexed": false,
          "internalType": "uint256",
          "name": "premium",
          "type": "uint256"
        },
        {
          "indexed": false,
          "internalType": "uint256",
          "name": "expires",
          "type": "uint256"
        }
      ],
      "name": "NameRegistered",
      "type": "event"
    },
    {
      "anonymous": false,
      "inputs": [
        {
          "indexed": false,
          "internalType": "string",
          "name": "name",
          "type": "string"
        },
        {
          "indexed": true,
          "internalType": "bytes32",
          "name": "label",
          "type": "bytes32"
        },
        {
          "indexed": false,
          "internalType": "uint256",
          "name": "cost",
          "type": "uint256"
        },
        {
          "indexed": false,
          "internalType": "uint256",
          "name": "expires",
          "type": "uint256"
        }
      ],
      "name": "NameRenewed",
      "type": "event"
    },
    {
      "anonymous": false,
      "inputs": [
        {
          "indexed": true,
          "internalType": "address",
          "name": "previousOwner",
          "type": "address"
        },
        {
          "indexed": true,
          "internalType": "address",
          "name": "newOwner",
          "type": "address"
        }
      ],
      "name": "OwnershipTransferred",
      "type": "event"
    },
    {
      "inputs": [],
      "name": "BASE_DOMAIN",
      "outputs": [
        {
          "internalType": "string",
          "name": "",
          "type": "string"
        }
      ],
      "stateMutability": "view",
      "type": "function"
    },
    {
      "inputs": [],
      "name": "MIN_REGISTRATION_DURATION",
      "outputs": [
        {
          "internalType": "uint256",
          "name": "",
          "type": "uint256"
        }
      ],
      "stateMutability": "view",
      "type": "function"
    },
    {
      "inputs": [
        {
          "internalType": "string",
          "name": "name",
          "type": "string"
        }
      ],
      "name": "available",
      "outputs": [
        {
          "internalType": "bool",
          "name": "",
          "type": "bool"
        }
      ],
      "stateMutability": "view",
      "type": "function"
    },
    {
      "inputs": [
        {
          "internalType": "bytes32",
          "name": "commitment",
          "type": "bytes32"
        }
      ],
      "name": "commit",
      "outputs": [],
      "stateMutability": "nonpayable",
      "type": "function"
    },
    {
      "inputs": [
        {
          "internalType": "bytes32",
          "name": "",
          "type": "bytes32"
        }
      ],
      "name": "commitments",
      "outputs": [
        {
          "internalType": "uint256",
          "name": "",
          "type": "uint256"
        }
      ],
      "stateMutability": "view",
      "type": "function"
    },
    {
      "inputs": [
        {
          "internalType": "address",
          "name": "",
          "type": "address"
        }
      ],
      "name": "hasRegisteredPoh",
      "outputs": [
        {
          "internalType": "bool",
          "name": "",
          "type": "bool"
        }
      ],
      "stateMutability": "view",
      "type": "function"
    },
    {
      "inputs": [
        {
          "internalType": "string",
          "name": "name",
          "type": "string"
        },
        {
          "internalType": "address",
          "name": "owner",
          "type": "address"
        },
        {
          "internalType": "uint256",
          "name": "duration",
          "type": "uint256"
        },
        {
          "internalType": "bytes32",
          "name": "secret",
          "type": "bytes32"
        },
        {
          "internalType": "address",
          "name": "resolver",
          "type": "address"
        },
        {
          "internalType": "bytes[]",
          "name": "data",
          "type": "bytes[]"
        },
        {
          "internalType": "bool",
          "name": "reverseRecord",
          "type": "bool"
        },
        {
          "internalType": "uint16",
          "name": "ownerControlledFuses",
          "type": "uint16"
        }
      ],
      "name": "makeCommitment",
      "outputs": [
        {
          "internalType": "bytes32",
          "name": "",
          "type": "bytes32"
        }
      ],
      "stateMutability": "pure",
      "type": "function"
    },
    {
      "inputs": [],
      "name": "maxCommitmentAge",
      "outputs": [
        {
          "internalType": "uint256",
          "name": "",
          "type": "uint256"
        }
      ],
      "stateMutability": "view",
      "type": "function"
    },
    {
      "inputs": [],
      "name": "minCommitmentAge",
      "outputs": [
        {
          "internalType": "uint256",
          "name": "",
          "type": "uint256"
        }
      ],
      "stateMutability": "view",
      "type": "function"
    },
    {
      "inputs": [],
      "name": "nameWrapper",
      "outputs": [
        {
          "internalType": "contract INameWrapper",
          "name": "",
          "type": "address"
        }
      ],
      "stateMutability": "view",
      "type": "function"
    },
    {
      "inputs": [],
      "name": "owner",
      "outputs": [
        {
          "internalType": "address",
          "name": "",
          "type": "address"
        }
      ],
      "stateMutability": "view",
      "type": "function"
    },
    {
      "inputs": [],
      "name": "pohVerifier",
      "outputs": [
        {
          "internalType": "contract PohVerifier",
          "name": "",
          "type": "address"
        }
      ],
      "stateMutability": "view",
      "type": "function"
    },
    {
      "inputs": [],
      "name": "prices",
      "outputs": [
        {
          "internalType": "contract IPriceOracle",
          "name": "",
          "type": "address"
        }
      ],
      "stateMutability": "view",
      "type": "function"
    },
    {
      "inputs": [
        {
          "internalType": "address",
          "name": "_token",
          "type": "address"
        },
        {
          "internalType": "address",
          "name": "_to",
          "type": "address"
        },
        {
          "internalType": "uint256",
          "name": "_amount",
          "type": "uint256"
        }
      ],
      "name": "recoverFunds",
      "outputs": [],
      "stateMutability": "nonpayable",
      "type": "function"
    },
    {
      "inputs": [
        {
          "internalType": "address",
          "name": "_address",
          "type": "address"
        }
      ],
      "name": "redeemed",
      "outputs": [
        {
          "internalType": "bool",
          "name": "",
          "type": "bool"
        }
      ],
      "stateMutability": "view",
      "type": "function"
    },
    {
      "inputs": [
        {
          "internalType": "string",
          "name": "name",
          "type": "string"
        },
        {
          "internalType": "address",
          "name": "owner",
          "type": "address"
        },
        {
          "internalType": "uint256",
          "name": "duration",
          "type": "uint256"
        },
        {
          "internalType": "bytes32",
          "name": "secret",
          "type": "bytes32"
        },
        {
          "internalType": "address",
          "name": "resolver",
          "type": "address"
        },
        {
          "internalType": "bytes[]",
          "name": "data",
          "type": "bytes[]"
        },
        {
          "internalType": "bool",
          "name": "reverseRecord",
          "type": "bool"
        },
        {
          "internalType": "uint16",
          "name": "ownerControlledFuses",
          "type": "uint16"
        }
      ],
      "name": "register",
      "outputs": [],
      "stateMutability": "payable",
      "type": "function"
    },
    {
      "inputs": [
        {
          "internalType": "string",
          "name": "name",
          "type": "string"
        },
        {
          "internalType": "address",
          "name": "owner",
          "type": "address"
        },
        {
          "internalType": "uint256",
          "name": "duration",
          "type": "uint256"
        },
        {
          "internalType": "bytes32",
          "name": "secret",
          "type": "bytes32"
        },
        {
          "internalType": "address",
          "name": "resolver",
          "type": "address"
        },
        {
          "internalType": "bytes[]",
          "name": "data",
          "type": "bytes[]"
        },
        {
          "internalType": "bool",
          "name": "reverseRecord",
          "type": "bool"
        },
        {
          "internalType": "uint16",
          "name": "ownerControlledFuses",
          "type": "uint16"
        },
        {
          "internalType": "bytes",
          "name": "signature",
          "type": "bytes"
        },
        {
          "internalType": "address",
          "name": "human",
          "type": "address"
        }
      ],
      "name": "registerPoh",
      "outputs": [],
      "stateMutability": "payable",
      "type": "function"
    },
    {
      "inputs": [
        {
          "internalType": "string",
          "name": "name",
          "type": "string"
        },
        {
          "internalType": "uint256",
          "name": "duration",
          "type": "uint256"
        }
      ],
      "name": "renew",
      "outputs": [],
      "stateMutability": "payable",
      "type": "function"
    },
    {
      "inputs": [],
      "name": "renounceOwnership",
      "outputs": [],
      "stateMutability": "nonpayable",
      "type": "function"
    },
    {
      "inputs": [
        {
          "internalType": "string",
          "name": "name",
          "type": "string"
        },
        {
          "internalType": "uint256",
          "name": "duration",
          "type": "uint256"
        }
      ],
      "name": "rentPrice",
      "outputs": [
        {
          "components": [
            {
              "internalType": "uint256",
              "name": "base",
              "type": "uint256"
            },
            {
              "internalType": "uint256",
              "name": "premium",
              "type": "uint256"
            }
          ],
          "internalType": "struct IPriceOracle.Price",
          "name": "price",
          "type": "tuple"
        }
      ],
      "stateMutability": "view",
      "type": "function"
    },
    {
      "inputs": [],
      "name": "reverseRegistrar",
      "outputs": [
        {
          "internalType": "contract ReverseRegistrar",
          "name": "",
          "type": "address"
        }
      ],
      "stateMutability": "view",
      "type": "function"
    },
    {
      "inputs": [
        {
          "internalType": "bytes4",
          "name": "interfaceID",
          "type": "bytes4"
        }
      ],
      "name": "supportsInterface",
      "outputs": [
        {
          "internalType": "bool",
          "name": "",
          "type": "bool"
        }
      ],
      "stateMutability": "pure",
      "type": "function"
    },
    {
      "inputs": [
        {
          "internalType": "address",
          "name": "newOwner",
          "type": "address"
        }
      ],
      "name": "transferOwnership",
      "outputs": [],
      "stateMutability": "nonpayable",
      "type": "function"
    },
    {
      "inputs": [
        {
          "internalType": "string",
          "name": "name",
          "type": "string"
        }
      ],
      "name": "valid",
      "outputs": [
        {
          "internalType": "bool",
          "name": "",
          "type": "bool"
        }
      ],
      "stateMutability": "pure",
      "type": "function"
    },
    {
      "inputs": [],
      "name": "withdraw",
      "outputs": [],
      "stateMutability": "nonpayable",
      "type": "function"
    }
  ],
  "transactionHash": "0x1d17a3a0e37a38a2ae9d2f459443d0baf8689ff0bfef86142f19e9e8a3a8d96f",
  "args": [
    "0xdE00A2F377248647F3f78B64565dafD4C6334eFf",
    "0xC971F51c8a78098fB6A8Bed333235C9dB2869c58",
    60,
    86400,
    "0xC60E6F5D79897A01b7A2fDE2781277A0b4E364Ab",
    "0x400b8E88B856F541DaFfdf4d1686FcaC7685ABA9",
    "0x4ea03c31836cF28a883A7C86415Fd81E32519f7E",
    "0x8467414Ff218b007a91f7C38685117DCc73be73F"
  ],
  "numDeployments": 1,
  "solcInputHash": "fcf401086ef5ff8dbc1cad462c5d7221",
  "bytecode": "0x6101406040523480156200001257600080fd5b506040516200289c3803806200289c83398101604081905262000035916200023b565b81336200004281620001d2565b6040516302571be360e01b81527f91d1777781884d03a6757a803996e38de2a42967fb37eeaca72729271025a9e260048201526000906001600160a01b038416906302571be390602401602060405180830381865afa158015620000aa573d6000803e3d6000fd5b505050506040513d601f19601f82011682018060405250810190620000d09190620002e5565b604051630f41a04d60e11b81526001600160a01b03848116600483015291925090821690631e83409a906024016020604051808303816000875af11580156200011d573d6000803e3d6000fd5b505050506040513d601f19601f820116820180604052508101906200014391906200030c565b5050505085851162000168576040516307cb550760e31b815260040160405180910390fd5b428511156200018a57604051630b4319e560e21b815260040160405180910390fd5b6001600160a01b0397881660805295871660a0525060c09390935260e091909152831661010052821661012052600380546001600160a01b0319169190921617905562000326565b600080546001600160a01b038381166001600160a01b0319831681178455604051919092169283917f8be0079c531659141344cd1fd0a4f28419497f9722a3daafe3b4186f6b6457e09190a35050565b6001600160a01b03811681146200023857600080fd5b50565b600080600080600080600080610100898b0312156200025957600080fd5b8851620002668162000222565b60208a0151909850620002798162000222565b80975050604089015195506060890151945060808901516200029b8162000222565b60a08a0151909450620002ae8162000222565b60c08a0151909350620002c18162000222565b60e08a0151909250620002d48162000222565b809150509295985092959890939650565b600060208284031215620002f857600080fd5b8151620003058162000222565b9392505050565b6000602082840312156200031f57600080fd5b5051919050565b60805160a05160c05160e05161010051610120516124ee620003ae6000396000818161048b01528181610c74015261112e0152600081816102ea01526116bc0152600081816104f201528181610e5201526114d901526000818161039d015261146201526000818161052601526108ec0152600081816109210152610dc101526124ee6000f3fe6080604052600436106101965760003560e01c80638d839ffe116100e1578063a8e5fbc01161008a578063ce1e09c011610064578063ce1e09c0146104e0578063d3419bf314610514578063f14fcbc814610548578063f2fde38b1461056857600080fd5b8063a8e5fbc014610479578063acf1a841146104ad578063aeb8ce9b146104c057600080fd5b80639791c097116100bb5780639791c0971461040d5780639f4568ef1461042d578063a0594df81461046657600080fd5b80638d839ffe1461038b5780638da5cb5b146103bf5780639241f085146103dd57600080fd5b8063715018a611610143578063839df9451161011d578063839df9451461030c57806383e7f6ff146103395780638a95b09f1461037457600080fd5b8063715018a6146102b057806374694a2b146102c557806380869853146102d857600080fd5b80635d3590d5116101745780635d3590d51461021f57806365a69dcf1461023f5780636fbdca251461026d57600080fd5b806301ffc9a71461019b578063070bdbef146101d05780633ccfd60b14610208575b600080fd5b3480156101a757600080fd5b506101bb6101b6366004611a0f565b610588565b60405190151581526020015b60405180910390f35b3480156101dc57600080fd5b506003546101f0906001600160a01b031681565b6040516001600160a01b0390911681526020016101c7565b34801561021457600080fd5b5061021d610621565b005b34801561022b57600080fd5b5061021d61023a366004611a6d565b61065e565b34801561024b57600080fd5b5061025f61025a366004611be5565b6106f8565b6040519081526020016101c7565b34801561027957600080fd5b506102a36040518060400160405280600a81526020016905cd8d2dccac25ccae8d60b31b81525081565b6040516101c79190611cf6565b3480156102bc57600080fd5b5061021d610796565b61021d6102d3366004611d4b565b6107aa565b3480156102e457600080fd5b506101f07f000000000000000000000000000000000000000000000000000000000000000081565b34801561031857600080fd5b5061025f610327366004611e15565b60016020526000908152604090205481565b34801561034557600080fd5b50610359610354366004611e2e565b6108a2565b604080518251815260209283015192810192909252016101c7565b34801561038057600080fd5b5061025f6224ea0081565b34801561039757600080fd5b5061025f7f000000000000000000000000000000000000000000000000000000000000000081565b3480156103cb57600080fd5b506000546001600160a01b03166101f0565b3480156103e957600080fd5b506101bb6103f8366004611e73565b60026020526000908152604090205460ff1681565b34801561041957600080fd5b506101bb610428366004611e8e565b6109f5565b34801561043957600080fd5b506101bb610448366004611e73565b6001600160a01b031660009081526002602052604090205460ff1690565b61021d610474366004611ec3565b610a0a565b34801561048557600080fd5b506101f07f000000000000000000000000000000000000000000000000000000000000000081565b61021d6104bb366004611fce565b610bb7565b3480156104cc57600080fd5b506101bb6104db366004611e8e565b610d78565b3480156104ec57600080fd5b5061025f7f000000000000000000000000000000000000000000000000000000000000000081565b34801561052057600080fd5b506101f07f000000000000000000000000000000000000000000000000000000000000000081565b34801561055457600080fd5b5061021d610563366004611e15565b610e3b565b34801561057457600080fd5b5061021d610583366004611e73565b610ec4565b60007fffffffff0000000000000000000000000000000000000000000000000000000082167f01ffc9a700000000000000000000000000000000000000000000000000000000148061061b57507fffffffff0000000000000000000000000000000000000000000000000000000082167f612e8c0900000000000000000000000000000000000000000000000000000000145b92915050565b600080546040516001600160a01b03909116914780156108fc02929091818181858888f1935050505015801561065b573d6000803e3d6000fd5b50565b610666610f51565b6040517fa9059cbb0000000000000000000000000000000000000000000000000000000081526001600160a01b0383811660048301526024820183905284169063a9059cbb906044016020604051808303816000875af11580156106ce573d6000803e3d6000fd5b505050506040513d601f19601f820116820180604052508101906106f2919061201a565b50505050565b885160208a0120600090841580159061071857506001600160a01b038716155b1561074f576040517fd3f605c400000000000000000000000000000000000000000000000000000000815260040160405180910390fd5b808a8a8a8a8a8a8a8a604051602001610770999897969594939291906120f2565b604051602081830303815290604052805190602001209150509998505050505050505050565b61079e610f51565b6107a86000610fab565b565b60006107ed8b8b8080601f0160208091040260200160405190810160405280939291908181526020018383808284376000920191909152508c92506108a2915050565b602081015181519192506108009161216a565b3410156108205760405163044044a560e21b815260040160405180910390fd5b6108328b8b8b8b8b8b8b8b8b8b611013565b60208101518151610843919061216a565b341115610895576020810151815133916108fc91610861919061216a565b61086b903461217d565b6040518115909202916000818181858888f19350505050158015610893573d6000803e3d6000fd5b505b5050505050505050505050565b6040805180820190915260008082526020820152825160208401206040517fd6e4fa86000000000000000000000000000000000000000000000000000000008152600481018290527f00000000000000000000000000000000000000000000000000000000000000006001600160a01b03908116916350e9a7159187917f00000000000000000000000000000000000000000000000000000000000000009091169063d6e4fa8690602401602060405180830381865afa15801561096a573d6000803e3d6000fd5b505050506040513d601f19601f8201168201806040525081019061098e9190612190565b866040518463ffffffff1660e01b81526004016109ad939291906121a9565b6040805180830381865afa1580156109c9573d6000803e3d6000fd5b505050506040513d601f19601f820116820180604052508101906109ed91906121ce565b949350505050565b60006003610a02836112bc565b101592915050565b6001600160a01b03811660009081526002602052604090205460ff1615610a9e5760405162461bcd60e51b815260206004820152602860248201527f416464726573732068617320616c72656164792072656769737465726564207560448201527f73696e6720506f4800000000000000000000000000000000000000000000000060648201526084015b60405180910390fd5b6003546040517f3d3ac1b50000000000000000000000000000000000000000000000000000000081526001600160a01b0390911690633d3ac1b590610ae9908590859060040161221d565b602060405180830381865afa158015610b06573d6000803e3d6000fd5b505050506040513d601f19601f82011682018060405250810190610b2a919061201a565b610b765760405162461bcd60e51b815260206004820152601760248201527f504f4820766572696669636174696f6e206661696c65640000000000000000006044820152606401610a95565b610b888c8c8c8c8c8c8c8c8c8c611013565b6001600160a01b03166000908152600260205260409020805460ff191660011790555050505050505050505050565b60008383604051610bc9929190612248565b604080519182900382206020601f870181900481028401810190925285835292508291600091610c16919088908890819084018382808284376000920191909152508892506108a2915050565b8051909150341015610c3b5760405163044044a560e21b815260040160405180910390fd5b6040517fc475abff00000000000000000000000000000000000000000000000000000000815260048101839052602481018590526000907f00000000000000000000000000000000000000000000000000000000000000006001600160a01b03169063c475abff906044016020604051808303816000875af1158015610cc5573d6000803e3d6000fd5b505050506040513d601f19601f82011682018060405250810190610ce99190612190565b8251909150341115610d3157815133906108fc90610d07903461217d565b6040518115909202916000818181858888f19350505050158015610d2f573d6000803e3d6000fd5b505b837f3da24c024582931cfaf8267d8ed24d13a82a8068d5bd337d30ec45cea4e506ae88883485604051610d679493929190612258565b60405180910390a250505050505050565b80516020820120600090610d8b836109f5565b8015610e3457506040517f96e494e8000000000000000000000000000000000000000000000000000000008152600481018290527f00000000000000000000000000000000000000000000000000000000000000006001600160a01b0316906396e494e890602401602060405180830381865afa158015610e10573d6000803e3d6000fd5b505050506040513d601f19601f82011682018060405250810190610e34919061201a565b9392505050565b6000818152600160205260409020544290610e77907f00000000000000000000000000000000000000000000000000000000000000009061216a565b10610eb1576040517f0a059d7100000000000000000000000000000000000000000000000000000000815260048101829052602401610a95565b6000908152600160205260409020429055565b610ecc610f51565b6001600160a01b038116610f485760405162461bcd60e51b815260206004820152602660248201527f4f776e61626c653a206e6577206f776e657220697320746865207a65726f206160448201527f64647265737300000000000000000000000000000000000000000000000000006064820152608401610a95565b61065b81610fab565b6000546001600160a01b031633146107a85760405162461bcd60e51b815260206004820181905260248201527f4f776e61626c653a2063616c6c6572206973206e6f7420746865206f776e65726044820152606401610a95565b600080546001600160a01b038381167fffffffffffffffffffffffff0000000000000000000000000000000000000000831681178455604051919092169283917f8be0079c531659141344cd1fd0a4f28419497f9722a3daafe3b4186f6b6457e09190a35050565b60006110568b8b8080601f0160208091040260200160405190810160405280939291908181526020018383808284376000920191909152508c92506108a2915050565b90506110fb8b8b8080601f016020809104026020016040519081016040528093929190818152602001838380828437600081840152601f19601f82011690508083019250505050505050896110f68e8e8080601f016020809104026020016040519081016040528093929190818152602001838380828437600081840152601f19601f820116905080830192505050505050508d8d8d8d8d8d8d8d6106f8565b61144b565b6040517f184167210000000000000000000000000000000000000000000000000000000081526000906001600160a01b037f0000000000000000000000000000000000000000000000000000000000000000169063184167219061116d908f908f908f908f908e908b9060040161227f565b6020604051808303816000875af115801561118c573d6000803e3d6000fd5b505050506040513d601f19601f820116820180604052508101906111b09190612190565b905084156111fc576111fc878d8d8080601f0160208091040260200160405190810160405280939291908181526020018383808284376000920191909152508b92508a91506115cd9050565b8315611245576112458c8c8080601f0160208091040260200160405190810160405280939291908181526020018383808284376000920191909152508b92503391506116ba9050565b896001600160a01b03168c8c60405161125f929190612248565b60405180910390207f69e37f151eb98a09618ddaa80c8cfaf1ce5996867c489f45b555b412271ebf278e8e86600001518760200151876040516112a69594939291906122c9565b60405180910390a3505050505050505050505050565b8051600090819081905b808210156114425760008583815181106112e2576112e26122fa565b01602001516001600160f81b03191690507f800000000000000000000000000000000000000000000000000000000000000081101561132d5761132660018461216a565b925061142f565b7fe0000000000000000000000000000000000000000000000000000000000000006001600160f81b03198216101561136a5761132660028461216a565b7ff0000000000000000000000000000000000000000000000000000000000000006001600160f81b0319821610156113a75761132660038461216a565b7ff8000000000000000000000000000000000000000000000000000000000000006001600160f81b0319821610156113e45761132660048461216a565b7ffc000000000000000000000000000000000000000000000000000000000000006001600160f81b0319821610156114215761132660058461216a565b61142c60068461216a565b92505b508261143a81612310565b9350506112c6565b50909392505050565b6000818152600160205260409020544290611487907f00000000000000000000000000000000000000000000000000000000000000009061216a565b11156114c2576040517f5320bcf900000000000000000000000000000000000000000000000000000000815260048101829052602401610a95565b60008181526001602052604090205442906114fe907f00000000000000000000000000000000000000000000000000000000000000009061216a565b11611538576040517fcb7690d700000000000000000000000000000000000000000000000000000000815260048101829052602401610a95565b61154183610d78565b61157957826040517f477707e8000000000000000000000000000000000000000000000000000000008152600401610a959190611cf6565b6000818152600160205260408120556224ea008210156115c8576040517f9a71997b00000000000000000000000000000000000000000000000000000000815260048101839052602401610a95565b505050565b600061161b846040518060400160405280600a81526020016905cd8d2dccac25ccae8d60b31b815250604051602001611607929190612329565b604051602081830303815290604052611792565b6040517fe32954eb0000000000000000000000000000000000000000000000000000000081529092508691506001600160a01b0382169063e32954eb9061166a90859088908890600401612358565b6000604051808303816000875af1158015611689573d6000803e3d6000fd5b505050506040513d6000823e601f3d908101601f191682016040526116b1919081019061237b565b50505050505050565b7f00000000000000000000000000000000000000000000000000000000000000006001600160a01b0316637a806d6b338385876040518060400160405280600a81526020016905cd8d2dccac25ccae8d60b31b815250604051602001611721929190612329565b6040516020818303038152906040526040518563ffffffff1660e01b815260040161174f949392919061247a565b6020604051808303816000875af115801561176e573d6000803e3d6000fd5b505050506040513d601f19601f820116820180604052508101906106f29190612190565b8051606090600090819084906117a981600261216a565b67ffffffffffffffff8111156117c1576117c1611aa9565b6040519080825280601f01601f1916602001820160405280156117eb576020820181803683370190505b5094506000935080840361184857600060f81b85600081518110611811576118116122fa565b60200101907effffffffffffffffffffffffffffffffffffffffffffffffffffffffffffff1916908160001a905350505050915091565b60001981015b828181518110611860576118606122fa565b01602001516001600160f81b0319167f2e0000000000000000000000000000000000000000000000000000000000000003611922578360f81b8682600101815181106118ae576118ae6122fa565b60200101907effffffffffffffffffffffffffffffffffffffffffffffffffffffffffffff1916908160001a905350846118ef846001840160ff88166119eb565b6040805160208101939093528201526060016040516020818303038152906040528051906020012094506000935061198a565b60018401935082818151811061193a5761193a6122fa565b602001015160f81c60f81b86826001018151811061195a5761195a6122fa565b60200101907effffffffffffffffffffffffffffffffffffffffffffffffffffffffffffff1916908160001a9053505b8015611999576000190161184e565b50836119aa83600060ff87166119eb565b6040805160208101939093528201526060016040516020818303038152906040528051906020012093508260f81b85600081518110611811576118116122fa565b82516000906119fa838561216a565b1115611a0557600080fd5b5091016020012090565b600060208284031215611a2157600080fd5b81357fffffffff0000000000000000000000000000000000000000000000000000000081168114610e3457600080fd5b80356001600160a01b0381168114611a6857600080fd5b919050565b600080600060608486031215611a8257600080fd5b611a8b84611a51565b9250611a9960208501611a51565b9150604084013590509250925092565b634e487b7160e01b600052604160045260246000fd5b604051601f8201601f1916810167ffffffffffffffff81118282101715611ae857611ae8611aa9565b604052919050565b600067ffffffffffffffff821115611b0a57611b0a611aa9565b50601f01601f191660200190565b600082601f830112611b2957600080fd5b8135611b3c611b3782611af0565b611abf565b818152846020838601011115611b5157600080fd5b816020850160208301376000918101602001919091529392505050565b60008083601f840112611b8057600080fd5b50813567ffffffffffffffff811115611b9857600080fd5b6020830191508360208260051b8501011115611bb357600080fd5b9250929050565b801515811461065b57600080fd5b8035611a6881611bba565b803561ffff81168114611a6857600080fd5b60008060008060008060008060006101008a8c031215611c0457600080fd5b893567ffffffffffffffff80821115611c1c57600080fd5b611c288d838e01611b18565b9a50611c3660208d01611a51565b995060408c0135985060608c01359750611c5260808d01611a51565b965060a08c0135915080821115611c6857600080fd5b50611c758c828d01611b6e565b90955093505060c08a0135611c8981611bba565b9150611c9760e08b01611bd3565b90509295985092959850929598565b60005b83811015611cc1578181015183820152602001611ca9565b50506000910152565b60008151808452611ce2816020860160208601611ca6565b601f01601f19169290920160200192915050565b602081526000610e346020830184611cca565b60008083601f840112611d1b57600080fd5b50813567ffffffffffffffff811115611d3357600080fd5b602083019150836020828501011115611bb357600080fd5b6000806000806000806000806000806101008b8d031215611d6b57600080fd5b8a3567ffffffffffffffff80821115611d8357600080fd5b611d8f8e838f01611d09565b909c509a508a9150611da360208e01611a51565b995060408d0135985060608d01359750611dbf60808e01611a51565b965060a08d0135915080821115611dd557600080fd5b50611de28d828e01611b6e565b90955093505060c08b0135611df681611bba565b9150611e0460e08c01611bd3565b90509295989b9194979a5092959850565b600060208284031215611e2757600080fd5b5035919050565b60008060408385031215611e4157600080fd5b823567ffffffffffffffff811115611e5857600080fd5b611e6485828601611b18565b95602094909401359450505050565b600060208284031215611e8557600080fd5b610e3482611a51565b600060208284031215611ea057600080fd5b813567ffffffffffffffff811115611eb757600080fd5b6109ed84828501611b18565b6000806000806000806000806000806000806101408d8f031215611ee657600080fd5b67ffffffffffffffff8d351115611efc57600080fd5b611f098e8e358f01611d09565b909c509a50611f1a60208e01611a51565b995060408d0135985060608d01359750611f3660808e01611a51565b965067ffffffffffffffff60a08e01351115611f5157600080fd5b611f618e60a08f01358f01611b6e565b9096509450611f7260c08e01611bc8565b9350611f8060e08e01611bd3565b925067ffffffffffffffff6101008e01351115611f9c57600080fd5b611fad8e6101008f01358f01611b18565b9150611fbc6101208e01611a51565b90509295989b509295989b509295989b565b600080600060408486031215611fe357600080fd5b833567ffffffffffffffff811115611ffa57600080fd5b61200686828701611d09565b909790965060209590950135949350505050565b60006020828403121561202c57600080fd5b8151610e3481611bba565b81835281816020850137506000828201602090810191909152601f909101601f19169091010190565b81835260006020808501808196508560051b810191508460005b878110156120e55782840389528135601e1988360301811261209b57600080fd5b8701858101903567ffffffffffffffff8111156120b757600080fd5b8036038213156120c657600080fd5b6120d1868284612037565b9a87019a955050509084019060010161207a565b5091979650505050505050565b60006101008b83526001600160a01b03808c1660208501528a60408501528960608501528089166080850152508060a08401526121328184018789612060565b94151560c0840152505061ffff9190911660e090910152979650505050505050565b634e487b7160e01b600052601160045260246000fd5b8082018082111561061b5761061b612154565b8181038181111561061b5761061b612154565b6000602082840312156121a257600080fd5b5051919050565b6060815260006121bc6060830186611cca565b60208301949094525060400152919050565b6000604082840312156121e057600080fd5b6040516040810181811067ffffffffffffffff8211171561220357612203611aa9565b604052825181526020928301519281019290925250919050565b6040815260006122306040830185611cca565b90506001600160a01b03831660208301529392505050565b8183823760009101908152919050565b60608152600061226c606083018688612037565b6020830194909452506040015292915050565b60a08152600061229360a08301888a612037565b90506001600160a01b03808716602084015285604084015280851660608401525061ffff83166080830152979650505050505050565b6080815260006122dd608083018789612037565b602083019590955250604081019290925260609091015292915050565b634e487b7160e01b600052603260045260246000fd5b60006001820161232257612322612154565b5060010190565b6000835161233b818460208801611ca6565b83519083019061234f818360208801611ca6565b01949350505050565b838152604060208201526000612372604083018486612060565b95945050505050565b6000602080838503121561238e57600080fd5b825167ffffffffffffffff808211156123a657600080fd5b818501915085601f8301126123ba57600080fd5b8151818111156123cc576123cc611aa9565b8060051b6123db858201611abf565b91825283810185019185810190898411156123f557600080fd5b86860192505b8383101561246d578251858111156124135760008081fd5b8601603f81018b136124255760008081fd5b878101516040612437611b3783611af0565b8281528d8284860101111561244c5760008081fd5b61245b838c8301848701611ca6565b855250505091860191908601906123fb565b9998505050505050505050565b60006001600160a01b0380871683528086166020840152808516604084015250608060608301526124ae6080830184611cca565b969550505050505056fea2646970667358221220ef9a6635f120e792c068ddcaf47c5b496a9dc51c2899b13ab7478574e341967864736f6c63430008110033",
  "devdoc": {
    "details": "A registrar controller for registering and renewing names at fixed cost.",
    "kind": "dev",
    "methods": {
      "owner()": {
        "details": "Returns the address of the current owner."
      },
      "recoverFunds(address,address,uint256)": {
        "details": "The contract is Ownable and only the owner can call the recover function.",
        "params": {
          "_amount": "The amount of tokens to recover.",
          "_to": "The address to send the tokens to.",
          "_token": "The address of the ERC20 token to recover"
        }
      },
      "renounceOwnership()": {
        "details": "Leaves the contract without owner. It will not be possible to call `onlyOwner` functions. Can only be called by the current owner. NOTE: Renouncing ownership will leave the contract without an owner, thereby disabling any functionality that is only available to the owner."
      },
      "transferOwnership(address)": {
        "details": "Transfers ownership of the contract to a new account (`newOwner`). Can only be called by the current owner."
      }
    },
    "version": 1
  },
  "userdoc": {
    "kind": "user",
    "methods": {
      "recoverFunds(address,address,uint256)": {
        "notice": "Recover ERC20 tokens sent to the contract by mistake."
      }
    },
    "version": 1
  },
  "storageLayout": {
    "storage": [
      {
        "astId": 428,
        "contract": "contracts/ethregistrar/ETHRegistrarController.sol:ETHRegistrarController",
        "label": "_owner",
        "offset": 0,
        "slot": "0",
        "type": "t_address"
      },
      {
        "astId": 7163,
        "contract": "contracts/ethregistrar/ETHRegistrarController.sol:ETHRegistrarController",
        "label": "commitments",
        "offset": 0,
        "slot": "1",
        "type": "t_mapping(t_bytes32,t_uint256)"
      },
      {
        "astId": 7167,
        "contract": "contracts/ethregistrar/ETHRegistrarController.sol:ETHRegistrarController",
        "label": "hasRegisteredPoh",
        "offset": 0,
        "slot": "2",
        "type": "t_mapping(t_address,t_bool)"
      },
      {
        "astId": 7170,
        "contract": "contracts/ethregistrar/ETHRegistrarController.sol:ETHRegistrarController",
        "label": "pohVerifier",
        "offset": 0,
        "slot": "3",
        "type": "t_contract(PohVerifier)8268"
      }
    ],
    "types": {
      "t_address": {
        "encoding": "inplace",
        "label": "address",
        "numberOfBytes": "20"
      },
      "t_bool": {
        "encoding": "inplace",
        "label": "bool",
        "numberOfBytes": "1"
      },
      "t_bytes32": {
        "encoding": "inplace",
        "label": "bytes32",
        "numberOfBytes": "32"
      },
      "t_contract(PohVerifier)8268": {
        "encoding": "inplace",
        "label": "contract PohVerifier",
        "numberOfBytes": "20"
      },
      "t_mapping(t_address,t_bool)": {
        "encoding": "mapping",
        "key": "t_address",
        "label": "mapping(address => bool)",
        "numberOfBytes": "32",
        "value": "t_bool"
      },
      "t_mapping(t_bytes32,t_uint256)": {
        "encoding": "mapping",
        "key": "t_bytes32",
        "label": "mapping(bytes32 => uint256)",
        "numberOfBytes": "32",
        "value": "t_uint256"
      },
      "t_uint256": {
        "encoding": "inplace",
        "label": "uint256",
        "numberOfBytes": "32"
      }
    }
  }
}