{
  "address": "0xD191AC7e52be4Eb585e1Eb55bc31a6D2395D0Da6",
  "abi": [
    {
      "inputs": [],
      "stateMutability": "nonpayable",
      "type": "constructor"
    },
    {
      "inputs": [],
      "name": "InvalidShortString",
      "type": "error"
    },
    {
      "inputs": [
        {
          "internalType": "string",
          "name": "str",
          "type": "string"
        }
      ],
      "name": "StringTooLong",
      "type": "error"
    },
    {
      "anonymous": false,
      "inputs": [],
      "name": "EIP712DomainChanged",
      "type": "event"
    },
    {
      "anonymous": false,
      "inputs": [
        {
          "indexed": true,
          "internalType": "address",
          "name": "previousOwner",
          "type": "address"
        },
        {
          "indexed": true,
          "internalType": "address",
          "name": "newOwner",
          "type": "address"
        }
      ],
      "name": "OwnershipTransferred",
      "type": "event"
    },
    {
      "anonymous": false,
      "inputs": [
        {
          "indexed": true,
          "internalType": "address",
          "name": "newSigner",
          "type": "address"
        }
      ],
      "name": "SignerUpdated",
      "type": "event"
    },
    {
      "anonymous": false,
      "inputs": [
        {
          "indexed": false,
          "internalType": "uint256",
          "name": "amount",
          "type": "uint256"
        },
        {
          "indexed": false,
          "internalType": "uint256",
          "name": "when",
          "type": "uint256"
        }
      ],
      "name": "Withdrawal",
      "type": "event"
    },
    {
      "inputs": [],
      "name": "eip712Domain",
      "outputs": [
        {
          "internalType": "bytes1",
          "name": "fields",
          "type": "bytes1"
        },
        {
          "internalType": "string",
          "name": "name",
          "type": "string"
        },
        {
          "internalType": "string",
          "name": "version",
          "type": "string"
        },
        {
          "internalType": "uint256",
          "name": "chainId",
          "type": "uint256"
        },
        {
          "internalType": "address",
          "name": "verifyingContract",
          "type": "address"
        },
        {
          "internalType": "bytes32",
          "name": "salt",
          "type": "bytes32"
        },
        {
          "internalType": "uint256[]",
          "name": "extensions",
          "type": "uint256[]"
        }
      ],
      "stateMutability": "view",
      "type": "function"
    },
    {
      "inputs": [],
      "name": "owner",
      "outputs": [
        {
          "internalType": "address",
          "name": "",
          "type": "address"
        }
      ],
      "stateMutability": "view",
      "type": "function"
    },
    {
      "inputs": [],
      "name": "renounceOwnership",
      "outputs": [],
      "stateMutability": "nonpayable",
      "type": "function"
    },
    {
      "inputs": [
        {
          "internalType": "address",
          "name": "_signer",
          "type": "address"
        }
      ],
      "name": "setSigner",
      "outputs": [],
      "stateMutability": "nonpayable",
      "type": "function"
    },
    {
      "inputs": [],
      "name": "signer",
      "outputs": [
        {
          "internalType": "address payable",
          "name": "",
          "type": "address"
        }
      ],
      "stateMutability": "view",
      "type": "function"
    },
    {
      "inputs": [
        {
          "internalType": "address",
          "name": "newOwner",
          "type": "address"
        }
      ],
      "name": "transferOwnership",
      "outputs": [],
      "stateMutability": "nonpayable",
      "type": "function"
    },
    {
      "inputs": [
        {
          "internalType": "bytes",
          "name": "signature",
          "type": "bytes"
        },
        {
          "internalType": "address",
          "name": "human",
          "type": "address"
        }
      ],
      "name": "verify",
      "outputs": [
        {
          "internalType": "bool",
          "name": "",
          "type": "bool"
        }
      ],
      "stateMutability": "view",
      "type": "function"
    }
  ],
  "transactionHash": "0x96bc6b904012c8fdda6dd4863bbf928e357b9e4a7a142afdbe94817a648cb5db",
  "args": [],
  "numDeployments": 1,
  "solcInputHash": "cbdec7366f2c5c6ac4dd172e5718dfe2",
  "bytecode": "0x6101606040523480156200001257600080fd5b50604051806040016040528060098152602001680accae4d2ccf2a0ded60bb1b815250604051806040016040528060018152602001603160f81b8152506200006a6000836200018e60201b620003c31790919060201c565b61012052620000878160016200018e602090811b620003c317901c565b61014052815160208084019190912060e052815190820120610100524660a0526200011560e05161010051604080517f8b73c3c69bb8fe3d512ecc4cf759cc79239f7b179b0ffacaa9a75d522b39400f60208201529081019290925260608201524660808201523060a082015260009060c00160405160208183030381529060405280519060200120905090565b60805250503060c0526200012933620001de565b600380546001600160a01b0319163317905560408051808201909152601481527f436f6e7472616374204465706c6f796564203031000000000000000000000000602080830191909152620001889190620003f462000230821b17901c565b620004d4565b6000602083511015620001ae57620001a6836200027e565b9050620001d8565b82620001c583620002ca60201b620004651760201c565b90620001d2908262000393565b5060ff90505b92915050565b600280546001600160a01b038381166001600160a01b0319831681179093556040519116919082907f8be0079c531659141344cd1fd0a4f28419497f9722a3daafe3b4186f6b6457e090600090a35050565b6200027b816040516024016200024791906200045f565b60408051601f198184030181529190526020810180516001600160e01b0390811663104c13eb60e21b17909152620002cd16565b50565b600080829050601f81511115620002b5578260405163305a27a960e01b8152600401620002ac91906200045f565b60405180910390fd5b8051620002c282620004af565b179392505050565b90565b80516a636f6e736f6c652e6c6f67602083016000808483855afa5050505050565b634e487b7160e01b600052604160045260246000fd5b600181811c908216806200031957607f821691505b6020821081036200033a57634e487b7160e01b600052602260045260246000fd5b50919050565b601f8211156200038e57600081815260208120601f850160051c81016020861015620003695750805b601f850160051c820191505b818110156200038a5782815560010162000375565b5050505b505050565b81516001600160401b03811115620003af57620003af620002ee565b620003c781620003c0845462000304565b8462000340565b602080601f831160018114620003ff5760008415620003e65750858301515b600019600386901b1c1916600185901b1785556200038a565b600085815260208120601f198616915b8281101562000430578886015182559484019460019091019084016200040f565b50858210156200044f5787850151600019600388901b60f8161c191681555b5050505050600190811b01905550565b600060208083528351808285015260005b818110156200048e5785810183015185820160400152820162000470565b506000604082860101526040601f19601f8301168501019250505092915050565b805160208083015191908110156200033a5760001960209190910360031b1b16919050565b60805160a05160c05160e051610100516101205161014051610ea16200052f60003960006102c70152600061029d015260006107830152600061075b015260006106b6015260006106e00152600061070a0152610ea16000f3fe608060405234801561001057600080fd5b506004361061007d5760003560e01c8063715018a61161005b578063715018a6146100ea57806384b0196e146100f25780638da5cb5b1461010d578063f2fde38b1461011e57600080fd5b8063238ac933146100825780633d3ac1b5146100b25780636c19e783146100d5575b600080fd5b600354610095906001600160a01b031681565b6040516001600160a01b0390911681526020015b60405180910390f35b6100c56100c0366004610af9565b610131565b60405190151581526020016100a9565b6100e86100e3366004610bbb565b6101c1565b005b6100e861027b565b6100fa61028f565b6040516100a99796959493929190610c23565b6002546001600160a01b0316610095565b6100e861012c366004610bbb565b610333565b6000806101977f21d8840bd8c10509aa539d8c2345dc09c5f0a0a03df8655015adbef3491cc7dd8460405160200161017c9291909182526001600160a01b0316602082015260400190565b60405160208183030381529060405280519060200120610468565b905060006101a582866104b0565b6003546001600160a01b03918216911614925050505b92915050565b6101c96104d4565b6001600160a01b0381166102245760405162461bcd60e51b815260206004820152600f60248201527f496e76616c69642061646472657373000000000000000000000000000000000060448201526064015b60405180910390fd5b6003805473ffffffffffffffffffffffffffffffffffffffff19166001600160a01b0383169081179091556040517f5553331329228fbd4123164423717a4a7539f6dfa1c3279a923b98fd681a6c7390600090a250565b6102836104d4565b61028d600061052e565b565b6000606080828080836102c27f00000000000000000000000000000000000000000000000000000000000000008361058d565b6102ed7f0000000000000000000000000000000000000000000000000000000000000000600161058d565b604080516000808252602082019092527f0f000000000000000000000000000000000000000000000000000000000000009b939a50919850469750309650945092509050565b61033b6104d4565b6001600160a01b0381166103b75760405162461bcd60e51b815260206004820152602660248201527f4f776e61626c653a206e6577206f776e657220697320746865207a65726f206160448201527f6464726573730000000000000000000000000000000000000000000000000000606482015260840161021b565b6103c08161052e565b50565b60006020835110156103df576103d883610631565b90506101bb565b816103ea8482610d5e565b5060ff90506101bb565b6103c0816040516024016104089190610e1e565b60408051601f198184030181529190526020810180517bffffffffffffffffffffffffffffffffffffffffffffffffffffffff167f41304fac00000000000000000000000000000000000000000000000000000000179052610688565b90565b60006101bb6104756106a9565b836040517f19010000000000000000000000000000000000000000000000000000000000008152600281019290925260228201526042902090565b60008060006104bf85856107d9565b915091506104cc8161081e565b509392505050565b6002546001600160a01b0316331461028d5760405162461bcd60e51b815260206004820181905260248201527f4f776e61626c653a2063616c6c6572206973206e6f7420746865206f776e6572604482015260640161021b565b600280546001600160a01b0383811673ffffffffffffffffffffffffffffffffffffffff19831681179093556040519116919082907f8be0079c531659141344cd1fd0a4f28419497f9722a3daafe3b4186f6b6457e090600090a35050565b606060ff83146105a0576103d883610983565b8180546105ac90610cd5565b80601f01602080910402602001604051908101604052809291908181526020018280546105d890610cd5565b80156106255780601f106105fa57610100808354040283529160200191610625565b820191906000526020600020905b81548152906001019060200180831161060857829003601f168201915b505050505090506101bb565b600080829050601f8151111561067557826040517f305a27a900000000000000000000000000000000000000000000000000000000815260040161021b9190610e1e565b805161068082610e31565b179392505050565b80516a636f6e736f6c652e6c6f67602083016000808483855afa5050505050565b6000306001600160a01b037f00000000000000000000000000000000000000000000000000000000000000001614801561070257507f000000000000000000000000000000000000000000000000000000000000000046145b1561072c57507f000000000000000000000000000000000000000000000000000000000000000090565b6107d4604080517f8b73c3c69bb8fe3d512ecc4cf759cc79239f7b179b0ffacaa9a75d522b39400f60208201527f0000000000000000000000000000000000000000000000000000000000000000918101919091527f000000000000000000000000000000000000000000000000000000000000000060608201524660808201523060a082015260009060c00160405160208183030381529060405280519060200120905090565b905090565b600080825160410361080f5760208301516040840151606085015160001a610803878285856109c2565b94509450505050610817565b506000905060025b9250929050565b600081600481111561083257610832610e55565b0361083a5750565b600181600481111561084e5761084e610e55565b0361089b5760405162461bcd60e51b815260206004820152601860248201527f45434453413a20696e76616c6964207369676e61747572650000000000000000604482015260640161021b565b60028160048111156108af576108af610e55565b036108fc5760405162461bcd60e51b815260206004820152601f60248201527f45434453413a20696e76616c6964207369676e6174757265206c656e67746800604482015260640161021b565b600381600481111561091057610910610e55565b036103c05760405162461bcd60e51b815260206004820152602260248201527f45434453413a20696e76616c6964207369676e6174757265202773272076616c60448201527f7565000000000000000000000000000000000000000000000000000000000000606482015260840161021b565b6060600061099083610a86565b604080516020808252818301909252919250600091906020820181803683375050509182525060208101929092525090565b6000807f7fffffffffffffffffffffffffffffff5d576e7357a4501ddfe92f46681b20a08311156109f95750600090506003610a7d565b6040805160008082526020820180845289905260ff881692820192909252606081018690526080810185905260019060a0016020604051602081039080840390855afa158015610a4d573d6000803e3d6000fd5b5050604051601f1901519150506001600160a01b038116610a7657600060019250925050610a7d565b9150600090505b94509492505050565b600060ff8216601f8111156101bb576040517fb3512b0c00000000000000000000000000000000000000000000000000000000815260040160405180910390fd5b634e487b7160e01b600052604160045260246000fd5b80356001600160a01b0381168114610af457600080fd5b919050565b60008060408385031215610b0c57600080fd5b823567ffffffffffffffff80821115610b2457600080fd5b818501915085601f830112610b3857600080fd5b813581811115610b4a57610b4a610ac7565b604051601f8201601f19908116603f01168101908382118183101715610b7257610b72610ac7565b81604052828152886020848701011115610b8b57600080fd5b826020860160208301376000602084830101528096505050505050610bb260208401610add565b90509250929050565b600060208284031215610bcd57600080fd5b610bd682610add565b9392505050565b6000815180845260005b81811015610c0357602081850181015186830182015201610be7565b506000602082860101526020601f19601f83011685010191505092915050565b7fff00000000000000000000000000000000000000000000000000000000000000881681526000602060e081840152610c5f60e084018a610bdd565b8381036040850152610c71818a610bdd565b606085018990526001600160a01b038816608086015260a0850187905284810360c0860152855180825283870192509083019060005b81811015610cc357835183529284019291840191600101610ca7565b50909c9b505050505050505050505050565b600181811c90821680610ce957607f821691505b602082108103610d0957634e487b7160e01b600052602260045260246000fd5b50919050565b601f821115610d5957600081815260208120601f850160051c81016020861015610d365750805b601f850160051c820191505b81811015610d5557828155600101610d42565b5050505b505050565b815167ffffffffffffffff811115610d7857610d78610ac7565b610d8c81610d868454610cd5565b84610d0f565b602080601f831160018114610dc15760008415610da95750858301515b600019600386901b1c1916600185901b178555610d55565b600085815260208120601f198616915b82811015610df057888601518255948401946001909101908401610dd1565b5085821015610e0e5787850151600019600388901b60f8161c191681555b5050505050600190811b01905550565b602081526000610bd66020830184610bdd565b80516020808301519190811015610d095760001960209190910360031b1b16919050565b634e487b7160e01b600052602160045260246000fdfea2646970667358221220c6371934d7115a3ebbbcead40951b0107ea74ddcfb4b91efbf36137bad2d5cbb64736f6c63430008110033",
  "devdoc": {
    "kind": "dev",
    "methods": {
      "eip712Domain()": {
        "details": "See {EIP-5267}. _Available since v4.9._"
      },
      "owner()": {
        "details": "Returns the address of the current owner."
      },
      "renounceOwnership()": {
        "details": "Leaves the contract without owner. It will not be possible to call `onlyOwner` functions. Can only be called by the current owner. NOTE: Renouncing ownership will leave the contract without an owner, thereby disabling any functionality that is only available to the owner."
      },
      "transferOwnership(address)": {
        "details": "Transfers ownership of the contract to a new account (`newOwner`). Can only be called by the current owner."
      }
    },
    "version": 1
  },
  "userdoc": {
    "kind": "user",
    "methods": {},
    "version": 1
  },
  "storageLayout": {
    "storage": [
      {
        "astId": 3844,
        "contract": "contracts/ethregistrar/PohVerifier.sol:PohVerifier",
        "label": "_nameFallback",
        "offset": 0,
        "slot": "0",
        "type": "t_string_storage"
      },
      {
        "astId": 3846,
        "contract": "contracts/ethregistrar/PohVerifier.sol:PohVerifier",
        "label": "_versionFallback",
        "offset": 0,
        "slot": "1",
        "type": "t_string_storage"
      },
      {
        "astId": 444,
        "contract": "contracts/ethregistrar/PohVerifier.sol:PohVerifier",
        "label": "_owner",
        "offset": 0,
        "slot": "2",
        "type": "t_address"
      },
      {
        "astId": 14926,
        "contract": "contracts/ethregistrar/PohVerifier.sol:PohVerifier",
        "label": "signer",
        "offset": 0,
        "slot": "3",
        "type": "t_address_payable"
      }
    ],
    "types": {
      "t_address": {
        "encoding": "inplace",
        "label": "address",
        "numberOfBytes": "20"
      },
      "t_address_payable": {
        "encoding": "inplace",
        "label": "address payable",
        "numberOfBytes": "20"
      },
      "t_string_storage": {
        "encoding": "bytes",
        "label": "string",
        "numberOfBytes": "32"
      }
    }
  }
}