{
  "_format": "hh-sol-artifact-1",
  "contractName": "LineaResolverStub",
  "sourceName": "contracts/l1/LineaResolverStub.sol",
  "abi": [
    {
      "inputs": [
        {
          "internalType": "string[]",
          "name": "_gateways",
          "type": "string[]"
        },
        {
          "internalType": "address",
          "name": "_l2resolver",
          "type": "address"
        },
        {
          "internalType": "address",
          "name": "_rollup",
          "type": "address"
        }
      ],
      "stateMutability": "nonpayable",
      "type": "constructor"
    },
    {
      "inputs": [
        {
          "internalType": "address",
          "name": "sender",
          "type": "address"
        },
        {
          "internalType": "string[]",
          "name": "urls",
          "type": "string[]"
        },
        {
          "internalType": "bytes",
          "name": "callData",
          "type": "bytes"
        },
        {
          "internalType": "bytes4",
          "name": "callbackFunction",
          "type": "bytes4"
        },
        {
          "internalType": "bytes",
          "name": "extraData",
          "type": "bytes"
        }
      ],
      "name": "OffchainLookup",
      "type": "error"
    },
    {
      "inputs": [
        {
          "internalType": "uint256",
          "name": "",
          "type": "uint256"
        }
      ],
      "name": "gateways",
      "outputs": [
        {
          "internalType": "string",
          "name": "",
          "type": "string"
        }
      ],
      "stateMutability": "view",
      "type": "function"
    },
    {
      "inputs": [],
      "name": "l2resolver",
      "outputs": [
        {
          "internalType": "address",
          "name": "",
          "type": "address"
        }
      ],
      "stateMutability": "view",
      "type": "function"
    },
    {
      "inputs": [
        {
          "internalType": "bytes",
          "name": "name",
          "type": "bytes"
        },
        {
          "internalType": "bytes",
          "name": "data",
          "type": "bytes"
        }
      ],
      "name": "resolve",
      "outputs": [
        {
          "internalType": "bytes",
          "name": "",
          "type": "bytes"
        }
      ],
      "stateMutability": "view",
      "type": "function"
    },
    {
      "inputs": [
        {
          "internalType": "bytes",
          "name": "response",
          "type": "bytes"
        },
        {
          "internalType": "bytes",
          "name": "extraData",
          "type": "bytes"
        }
      ],
      "name": "resolveWithProof",
      "outputs": [
        {
          "internalType": "bytes",
          "name": "",
          "type": "bytes"
        }
      ],
      "stateMutability": "view",
      "type": "function"
    },
    {
      "inputs": [],
      "name": "rollup",
      "outputs": [
        {
          "internalType": "address",
          "name": "",
          "type": "address"
        }
      ],
      "stateMutability": "view",
      "type": "function"
    },
    {
      "inputs": [
        {
          "internalType": "bytes4",
          "name": "interfaceID",
          "type": "bytes4"
        }
      ],
      "name": "supportsInterface",
      "outputs": [
        {
          "internalType": "bool",
          "name": "",
          "type": "bool"
        }
      ],
      "stateMutability": "pure",
      "type": "function"
    }
  ],
  "bytecode": "0x60806040523480156200001157600080fd5b50604051620015b7380380620015b78339818101604052810190620000379190620004bc565b82600090805190602001906200004f929190620000db565b5081600160006101000a81548173ffffffffffffffffffffffffffffffffffffffff021916908373ffffffffffffffffffffffffffffffffffffffff16021790555080600260006101000a81548173ffffffffffffffffffffffffffffffffffffffff021916908373ffffffffffffffffffffffffffffffffffffffff16021790555050505062000869565b82805482825590600052602060002090810192821562000128579160200282015b828111156200012757825182908162000116919062000782565b5091602001919060010190620000fc565b5b5090506200013791906200013b565b5090565b5b808211156200015f576000818162000155919062000163565b506001016200013c565b5090565b508054620001719062000571565b6000825580601f10620001855750620001a6565b601f016020900490600052602060002090810190620001a59190620001a9565b5b50565b5b80821115620001c4576000816000905550600101620001aa565b5090565b6000604051905090565b600080fd5b600080fd5b600080fd5b6000601f19601f8301169050919050565b7f4e487b7100000000000000000000000000000000000000000000000000000000600052604160045260246000fd5b6200022c82620001e1565b810181811067ffffffffffffffff821117156200024e576200024d620001f2565b5b80604052505050565b600062000263620001c8565b905062000271828262000221565b919050565b600067ffffffffffffffff821115620002945762000293620001f2565b5b602082029050602081019050919050565b600080fd5b600080fd5b600067ffffffffffffffff821115620002cd57620002cc620001f2565b5b620002d882620001e1565b9050602081019050919050565b60005b8381101562000305578082015181840152602081019050620002e8565b60008484015250505050565b6000620003286200032284620002af565b62000257565b905082815260208101848484011115620003475762000346620002aa565b5b62000354848285620002e5565b509392505050565b600082601f830112620003745762000373620001dc565b5b81516200038684826020860162000311565b91505092915050565b6000620003a6620003a08462000276565b62000257565b90508083825260208201905060208402830185811115620003cc57620003cb620002a5565b5b835b818110156200041a57805167ffffffffffffffff811115620003f557620003f4620001dc565b5b8086016200040489826200035c565b85526020850194505050602081019050620003ce565b5050509392505050565b600082601f8301126200043c576200043b620001dc565b5b81516200044e8482602086016200038f565b91505092915050565b600073ffffffffffffffffffffffffffffffffffffffff82169050919050565b6000620004848262000457565b9050919050565b620004968162000477565b8114620004a257600080fd5b50565b600081519050620004b6816200048b565b92915050565b600080600060608486031215620004d857620004d7620001d2565b5b600084015167ffffffffffffffff811115620004f957620004f8620001d7565b5b620005078682870162000424565b93505060206200051a86828701620004a5565b92505060406200052d86828701620004a5565b9150509250925092565b600081519050919050565b7f4e487b7100000000000000000000000000000000000000000000000000000000600052602260045260246000fd5b600060028204905060018216806200058a57607f821691505b602082108103620005a0576200059f62000542565b5b50919050565b60008190508160005260206000209050919050565b60006020601f8301049050919050565b600082821b905092915050565b6000600883026200060a7fffffffffffffffffffffffffffffffffffffffffffffffffffffffffffffffff82620005cb565b620006168683620005cb565b95508019841693508086168417925050509392505050565b6000819050919050565b6000819050919050565b6000620006636200065d62000657846200062e565b62000638565b6200062e565b9050919050565b6000819050919050565b6200067f8362000642565b620006976200068e826200066a565b848454620005d8565b825550505050565b600090565b620006ae6200069f565b620006bb81848462000674565b505050565b5b81811015620006e357620006d7600082620006a4565b600181019050620006c1565b5050565b601f8211156200073257620006fc81620005a6565b6200070784620005bb565b8101602085101562000717578190505b6200072f6200072685620005bb565b830182620006c0565b50505b505050565b600082821c905092915050565b6000620007576000198460080262000737565b1980831691505092915050565b600062000772838362000744565b9150826002028217905092915050565b6200078d8262000537565b67ffffffffffffffff811115620007a957620007a8620001f2565b5b620007b5825462000571565b620007c2828285620006e7565b600060209050601f831160018114620007fa5760008415620007e5578287015190505b620007f1858262000764565b86555062000861565b601f1984166200080a86620005a6565b60005b8281101562000834578489015182556001820191506020850194506020810190506200080d565b8683101562000854578489015162000850601f89168262000744565b8355505b6001600288020188555050505b505050505050565b610d3e80620008796000396000f3fe608060405234801561001057600080fd5b50600436106100625760003560e01c806301ffc9a71461006757806364c17056146100975780637a1dc070146100c75780639061b923146100e5578063cb23bcb514610115578063f4d4d2f814610133575b600080fd5b610081600480360381019061007c919061065b565b610163565b60405161008e91906106a3565b60405180910390f35b6100b160048036038101906100ac91906106f4565b6101dd565b6040516100be91906107b1565b60405180910390f35b6100cf610289565b6040516100dc9190610814565b60405180910390f35b6100ff60048036038101906100fa9190610894565b6102af565b60405161010c919061096a565b60405180910390f35b61011d610380565b60405161012a9190610814565b60405180910390f35b61014d60048036038101906101489190610894565b6103a6565b60405161015a919061096a565b60405180910390f35b60007f9061b923000000000000000000000000000000000000000000000000000000007bffffffffffffffffffffffffffffffffffffffffffffffffffffffff1916827bffffffffffffffffffffffffffffffffffffffffffffffffffffffff191614806101d657506101d5826104cd565b5b9050919050565b600081815481106101ed57600080fd5b906000526020600020016000915090508054610208906109bb565b80601f0160208091040260200160405190810160405280929190818152602001828054610234906109bb565b80156102815780601f1061025657610100808354040283529160200191610281565b820191906000526020600020905b81548152906001019060200180831161026457829003601f168201915b505050505081565b600160009054906101000a900473ffffffffffffffffffffffffffffffffffffffff1681565b60606000639061b92360e01b868686866040516024016102d29493929190610a28565b604051602081830303815290604052907bffffffffffffffffffffffffffffffffffffffffffffffffffffffff19166020820180517bffffffffffffffffffffffffffffffffffffffffffffffffffffffff838183161783525050505090503060008263f4d4d2f860e01b87876040517f556f183000000000000000000000000000000000000000000000000000000000815260040161037796959493929190610be2565b60405180910390fd5b600260009054906101000a900473ffffffffffffffffffffffffffffffffffffffff1681565b6060600083836000906004926103be93929190610c56565b906103c99190610ca9565b9050633b3b57de60e01b7bffffffffffffffffffffffffffffffffffffffffffffffffffffffff1916817bffffffffffffffffffffffffffffffffffffffffffffffffffffffff19161461042f57604051806020016040528060008152509150506104c5565b61047c86868080601f016020809104026020016040519081016040528093929190818152602001838380828437600081840152601f19601f82011690508083019250505050505050610537565b85858080601f016020809104026020016040519081016040528093929190818152602001838380828437600081840152601f19601f820116905080830192505050505050509150505b949350505050565b60007f01ffc9a7000000000000000000000000000000000000000000000000000000007bffffffffffffffffffffffffffffffffffffffffffffffffffffffff1916827bffffffffffffffffffffffffffffffffffffffffffffffffffffffff1916149050919050565b6105cd8160405160240161054b919061096a565b6040516020818303038152906040527f0be77f56000000000000000000000000000000000000000000000000000000007bffffffffffffffffffffffffffffffffffffffffffffffffffffffff19166020820180517bffffffffffffffffffffffffffffffffffffffffffffffffffffffff83818316178352505050506105d0565b50565b60008151905060006a636f6e736f6c652e6c6f679050602083016000808483855afa5050505050565b600080fd5b600080fd5b60007fffffffff0000000000000000000000000000000000000000000000000000000082169050919050565b61063881610603565b811461064357600080fd5b50565b6000813590506106558161062f565b92915050565b600060208284031215610671576106706105f9565b5b600061067f84828501610646565b91505092915050565b60008115159050919050565b61069d81610688565b82525050565b60006020820190506106b86000830184610694565b92915050565b6000819050919050565b6106d1816106be565b81146106dc57600080fd5b50565b6000813590506106ee816106c8565b92915050565b60006020828403121561070a576107096105f9565b5b6000610718848285016106df565b91505092915050565b600081519050919050565b600082825260208201905092915050565b60005b8381101561075b578082015181840152602081019050610740565b60008484015250505050565b6000601f19601f8301169050919050565b600061078382610721565b61078d818561072c565b935061079d81856020860161073d565b6107a681610767565b840191505092915050565b600060208201905081810360008301526107cb8184610778565b905092915050565b600073ffffffffffffffffffffffffffffffffffffffff82169050919050565b60006107fe826107d3565b9050919050565b61080e816107f3565b82525050565b60006020820190506108296000830184610805565b92915050565b600080fd5b600080fd5b600080fd5b60008083601f8401126108545761085361082f565b5b8235905067ffffffffffffffff81111561087157610870610834565b5b60208301915083600182028301111561088d5761088c610839565b5b9250929050565b600080600080604085870312156108ae576108ad6105f9565b5b600085013567ffffffffffffffff8111156108cc576108cb6105fe565b5b6108d88782880161083e565b9450945050602085013567ffffffffffffffff8111156108fb576108fa6105fe565b5b6109078782880161083e565b925092505092959194509250565b600081519050919050565b600082825260208201905092915050565b600061093c82610915565b6109468185610920565b935061095681856020860161073d565b61095f81610767565b840191505092915050565b600060208201905081810360008301526109848184610931565b905092915050565b7f4e487b7100000000000000000000000000000000000000000000000000000000600052602260045260246000fd5b600060028204905060018216806109d357607f821691505b6020821081036109e6576109e561098c565b5b50919050565b82818337600083830152505050565b6000610a078385610920565b9350610a148385846109ec565b610a1d83610767565b840190509392505050565b60006040820190508181036000830152610a438186886109fb565b90508181036020830152610a588184866109fb565b905095945050505050565b600081549050919050565b600082825260208201905092915050565b60008190508160005260206000209050919050565b600082825260208201905092915050565b60008190508160005260206000209050919050565b60008154610ac7816109bb565b610ad18186610a94565b94506001821660008114610aec5760018114610b0257610b35565b60ff198316865281151560200286019350610b35565b610b0b85610aa5565b60005b83811015610b2d57815481890152600182019150602081019050610b0e565b808801955050505b50505092915050565b6000610b4a8383610aba565b905092915050565b6000600182019050919050565b6000610b6a82610a63565b610b748185610a6e565b935083602082028501610b8685610a7f565b8060005b85811015610bc157848403895281610ba28582610b3e565b9450610bad83610b52565b925060208a01995050600181019050610b8a565b50829750879550505050505092915050565b610bdc81610603565b82525050565b600060a082019050610bf76000830189610805565b8181036020830152610c098188610b5f565b90508181036040830152610c1d8187610931565b9050610c2c6060830186610bd3565b8181036080830152610c3f8184866109fb565b9050979650505050505050565b600080fd5b600080fd5b60008085851115610c6a57610c69610c4c565b5b83861115610c7b57610c7a610c51565b5b6001850283019150848603905094509492505050565b600082905092915050565b600082821b905092915050565b6000610cb58383610c91565b82610cc08135610603565b92506004821015610d0057610cfb7fffffffff0000000000000000000000000000000000000000000000000000000083600403600802610c9c565b831692505b50509291505056fea26469706673582212209b59e2aa89a3b0e4d90e5f348431f2dc5be89faa74eea575a61583a55298906064736f6c63430008120033",
  "linkReferences": {},
  "deployedLinkReferences": {}
}