{
  "_format": "hh-sol-artifact-1",
  "contractName": "LineaResolverStub",
  "sourceName": "contracts/l1/LineaResolverStub.sol",
  "abi": [
    {
      "inputs": [
        {
          "internalType": "string[]",
          "name": "_gateways",
          "type": "string[]"
        }
      ],
      "stateMutability": "nonpayable",
      "type": "constructor"
    },
    {
      "inputs": [
        {
          "internalType": "address",
          "name": "sender",
          "type": "address"
        },
        {
          "internalType": "string[]",
          "name": "urls",
          "type": "string[]"
        },
        {
          "internalType": "bytes",
          "name": "callData",
          "type": "bytes"
        },
        {
          "internalType": "bytes4",
          "name": "callbackFunction",
          "type": "bytes4"
        },
        {
          "internalType": "bytes",
          "name": "extraData",
          "type": "bytes"
        }
      ],
      "name": "OffchainLookup",
      "type": "error"
    },
    {
      "inputs": [
        {
          "internalType": "uint256",
          "name": "",
          "type": "uint256"
        }
      ],
      "name": "gateways",
      "outputs": [
        {
          "internalType": "string",
          "name": "",
          "type": "string"
        }
      ],
      "stateMutability": "view",
      "type": "function"
    },
    {
      "inputs": [
        {
          "internalType": "bytes",
          "name": "name",
          "type": "bytes"
        },
        {
          "internalType": "bytes",
          "name": "data",
          "type": "bytes"
        }
      ],
      "name": "resolve",
      "outputs": [
        {
          "internalType": "bytes",
          "name": "",
          "type": "bytes"
        }
      ],
      "stateMutability": "view",
      "type": "function"
    },
    {
      "inputs": [
        {
          "internalType": "bytes",
          "name": "response",
          "type": "bytes"
        },
        {
          "internalType": "bytes",
          "name": "extraData",
          "type": "bytes"
        }
      ],
      "name": "resolveWithProof",
      "outputs": [
        {
          "internalType": "bytes",
          "name": "",
          "type": "bytes"
        }
      ],
      "stateMutability": "pure",
      "type": "function"
    },
    {
      "inputs": [
        {
          "internalType": "bytes4",
          "name": "interfaceID",
          "type": "bytes4"
        }
      ],
      "name": "supportsInterface",
      "outputs": [
        {
          "internalType": "bool",
          "name": "",
          "type": "bool"
        }
      ],
      "stateMutability": "pure",
      "type": "function"
    }
  ],
  "bytecode": "0x60806040523480156200001157600080fd5b5060405162001389380380620013898339818101604052810190620000379190620003d3565b80600090805190602001906200004f92919062000057565b505062000756565b828054828255906000526020600020908101928215620000a4579160200282015b82811115620000a35782518290816200009291906200066f565b509160200191906001019062000078565b5b509050620000b39190620000b7565b5090565b5b80821115620000db5760008181620000d19190620000df565b50600101620000b8565b5090565b508054620000ed906200045e565b6000825580601f1062000101575062000122565b601f01602090049060005260206000209081019062000121919062000125565b5b50565b5b808211156200014057600081600090555060010162000126565b5090565b6000604051905090565b600080fd5b600080fd5b600080fd5b6000601f19601f8301169050919050565b7f4e487b7100000000000000000000000000000000000000000000000000000000600052604160045260246000fd5b620001a8826200015d565b810181811067ffffffffffffffff82111715620001ca57620001c96200016e565b5b80604052505050565b6000620001df62000144565b9050620001ed82826200019d565b919050565b600067ffffffffffffffff82111562000210576200020f6200016e565b5b602082029050602081019050919050565b600080fd5b600080fd5b600067ffffffffffffffff8211156200024957620002486200016e565b5b62000254826200015d565b9050602081019050919050565b60005b838110156200028157808201518184015260208101905062000264565b60008484015250505050565b6000620002a46200029e846200022b565b620001d3565b905082815260208101848484011115620002c357620002c262000226565b5b620002d084828562000261565b509392505050565b600082601f830112620002f057620002ef62000158565b5b8151620003028482602086016200028d565b91505092915050565b6000620003226200031c84620001f2565b620001d3565b9050808382526020820190506020840283018581111562000348576200034762000221565b5b835b818110156200039657805167ffffffffffffffff81111562000371576200037062000158565b5b808601620003808982620002d8565b855260208501945050506020810190506200034a565b5050509392505050565b600082601f830112620003b857620003b762000158565b5b8151620003ca8482602086016200030b565b91505092915050565b600060208284031215620003ec57620003eb6200014e565b5b600082015167ffffffffffffffff8111156200040d576200040c62000153565b5b6200041b84828501620003a0565b91505092915050565b600081519050919050565b7f4e487b7100000000000000000000000000000000000000000000000000000000600052602260045260246000fd5b600060028204905060018216806200047757607f821691505b6020821081036200048d576200048c6200042f565b5b50919050565b60008190508160005260206000209050919050565b60006020601f8301049050919050565b600082821b905092915050565b600060088302620004f77fffffffffffffffffffffffffffffffffffffffffffffffffffffffffffffffff82620004b8565b620005038683620004b8565b95508019841693508086168417925050509392505050565b6000819050919050565b6000819050919050565b6000620005506200054a62000544846200051b565b62000525565b6200051b565b9050919050565b6000819050919050565b6200056c836200052f565b620005846200057b8262000557565b848454620004c5565b825550505050565b600090565b6200059b6200058c565b620005a881848462000561565b505050565b5b81811015620005d057620005c460008262000591565b600181019050620005ae565b5050565b601f8211156200061f57620005e98162000493565b620005f484620004a8565b8101602085101562000604578190505b6200061c6200061385620004a8565b830182620005ad565b50505b505050565b600082821c905092915050565b6000620006446000198460080262000624565b1980831691505092915050565b60006200065f838362000631565b9150826002028217905092915050565b6200067a8262000424565b67ffffffffffffffff8111156200069657620006956200016e565b5b620006a282546200045e565b620006af828285620005d4565b600060209050601f831160018114620006e75760008415620006d2578287015190505b620006de858262000651565b8655506200074e565b601f198416620006f78662000493565b60005b828110156200072157848901518255600182019150602085019450602081019050620006fa565b868310156200074157848901516200073d601f89168262000631565b8355505b6001600288020188555050505b505050505050565b610c2380620007666000396000f3fe608060405234801561001057600080fd5b506004361061004c5760003560e01c806301ffc9a71461005157806364c17056146100815780639061b923146100b1578063f4d4d2f8146100e1575b600080fd5b61006b60048036038101906100669190610527565b610111565b604051610078919061056f565b60405180910390f35b61009b600480360381019061009691906105c0565b61018b565b6040516100a8919061067d565b60405180910390f35b6100cb60048036038101906100c69190610704565b610237565b6040516100d891906107da565b60405180910390f35b6100fb60048036038101906100f69190610704565b610308565b60405161010891906107da565b60405180910390f35b60007f9061b923000000000000000000000000000000000000000000000000000000007bffffffffffffffffffffffffffffffffffffffffffffffffffffffff1916827bffffffffffffffffffffffffffffffffffffffffffffffffffffffff19161480610184575061018382610427565b5b9050919050565b6000818154811061019b57600080fd5b9060005260206000200160009150905080546101b69061082b565b80601f01602080910402602001604051908101604052809291908181526020018280546101e29061082b565b801561022f5780601f106102045761010080835404028352916020019161022f565b820191906000526020600020905b81548152906001019060200180831161021257829003601f168201915b505050505081565b60606000639061b92360e01b8686868660405160240161025a9493929190610898565b604051602081830303815290604052907bffffffffffffffffffffffffffffffffffffffffffffffffffffffff19166020820180517bffffffffffffffffffffffffffffffffffffffffffffffffffffffff838183161783525050505090503060008263f4d4d2f860e01b87876040517f556f18300000000000000000000000000000000000000000000000000000000081526004016102ff96959493929190610a93565b60405180910390fd5b60606000838360009060049261032093929190610b07565b9061032b9190610b5a565b9050633b3b57de60e01b7bffffffffffffffffffffffffffffffffffffffffffffffffffffffff1916817bffffffffffffffffffffffffffffffffffffffffffffffffffffffff191614610391576040518060200160405280600081525091505061041f565b600086866040906054926103a793929190610b07565b8080601f016020809104026020016040519081016040528093929190818152602001838380828437600081840152601f19601f82011690508083019250505050505050905060006103f782610491565b90508060405160200161040a9190610bd2565b60405160208183030381529060405293505050505b949350505050565b60007f01ffc9a7000000000000000000000000000000000000000000000000000000007bffffffffffffffffffffffffffffffffffffffffffffffffffffffff1916827bffffffffffffffffffffffffffffffffffffffffffffffffffffffff1916149050919050565b60008060006020845111156104a75760206104aa565b83515b90506020840151600882602003021c91508192505050919050565b600080fd5b600080fd5b60007fffffffff0000000000000000000000000000000000000000000000000000000082169050919050565b610504816104cf565b811461050f57600080fd5b50565b600081359050610521816104fb565b92915050565b60006020828403121561053d5761053c6104c5565b5b600061054b84828501610512565b91505092915050565b60008115159050919050565b61056981610554565b82525050565b60006020820190506105846000830184610560565b92915050565b6000819050919050565b61059d8161058a565b81146105a857600080fd5b50565b6000813590506105ba81610594565b92915050565b6000602082840312156105d6576105d56104c5565b5b60006105e4848285016105ab565b91505092915050565b600081519050919050565b600082825260208201905092915050565b60005b8381101561062757808201518184015260208101905061060c565b60008484015250505050565b6000601f19601f8301169050919050565b600061064f826105ed565b61065981856105f8565b9350610669818560208601610609565b61067281610633565b840191505092915050565b600060208201905081810360008301526106978184610644565b905092915050565b600080fd5b600080fd5b600080fd5b60008083601f8401126106c4576106c361069f565b5b8235905067ffffffffffffffff8111156106e1576106e06106a4565b5b6020830191508360018202830111156106fd576106fc6106a9565b5b9250929050565b6000806000806040858703121561071e5761071d6104c5565b5b600085013567ffffffffffffffff81111561073c5761073b6104ca565b5b610748878288016106ae565b9450945050602085013567ffffffffffffffff81111561076b5761076a6104ca565b5b610777878288016106ae565b925092505092959194509250565b600081519050919050565b600082825260208201905092915050565b60006107ac82610785565b6107b68185610790565b93506107c6818560208601610609565b6107cf81610633565b840191505092915050565b600060208201905081810360008301526107f481846107a1565b905092915050565b7f4e487b7100000000000000000000000000000000000000000000000000000000600052602260045260246000fd5b6000600282049050600182168061084357607f821691505b602082108103610856576108556107fc565b5b50919050565b82818337600083830152505050565b60006108778385610790565b935061088483858461085c565b61088d83610633565b840190509392505050565b600060408201905081810360008301526108b381868861086b565b905081810360208301526108c881848661086b565b905095945050505050565b600073ffffffffffffffffffffffffffffffffffffffff82169050919050565b60006108fe826108d3565b9050919050565b61090e816108f3565b82525050565b600081549050919050565b600082825260208201905092915050565b60008190508160005260206000209050919050565b600082825260208201905092915050565b60008190508160005260206000209050919050565b600081546109788161082b565b6109828186610945565b9450600182166000811461099d57600181146109b3576109e6565b60ff1983168652811515602002860193506109e6565b6109bc85610956565b60005b838110156109de578154818901526001820191506020810190506109bf565b808801955050505b50505092915050565b60006109fb838361096b565b905092915050565b6000600182019050919050565b6000610a1b82610914565b610a25818561091f565b935083602082028501610a3785610930565b8060005b85811015610a7257848403895281610a5385826109ef565b9450610a5e83610a03565b925060208a01995050600181019050610a3b565b50829750879550505050505092915050565b610a8d816104cf565b82525050565b600060a082019050610aa86000830189610905565b8181036020830152610aba8188610a10565b90508181036040830152610ace81876107a1565b9050610add6060830186610a84565b8181036080830152610af081848661086b565b9050979650505050505050565b600080fd5b600080fd5b60008085851115610b1b57610b1a610afd565b5b83861115610b2c57610b2b610b02565b5b6001850283019150848603905094509492505050565b600082905092915050565b600082821b905092915050565b6000610b668383610b42565b82610b7181356104cf565b92506004821015610bb157610bac7fffffffff0000000000000000000000000000000000000000000000000000000083600403600802610b4d565b831692505b505092915050565b6000819050919050565b610bcc81610bb9565b82525050565b6000602082019050610be76000830184610bc3565b9291505056fea26469706673582212201a4df399d5121de8a20a0ff8d5ae3b8a7801adda04d46807c9107a501545810464736f6c63430008120033",
  "linkReferences": {},
  "deployedLinkReferences": {}
}