{
  "_format": "hh-sol-artifact-1",
  "contractName": "LineaResolver",
  "sourceName": "contracts/l2/LineaResolver.sol",
  "abi": [
    {
      "inputs": [],
      "stateMutability": "nonpayable",
      "type": "constructor"
    },
    {
      "anonymous": false,
      "inputs": [
        {
          "indexed": true,
          "internalType": "bytes32",
          "name": "node",
          "type": "bytes32"
        },
        {
          "indexed": false,
          "internalType": "address",
          "name": "a",
          "type": "address"
        }
      ],
      "name": "AddrChanged",
      "type": "event"
    },
    {
      "anonymous": false,
      "inputs": [
        {
          "indexed": true,
          "internalType": "address",
          "name": "owner",
          "type": "address"
        },
        {
          "indexed": true,
          "internalType": "address",
          "name": "approved",
          "type": "address"
        },
        {
          "indexed": true,
          "internalType": "uint256",
          "name": "tokenId",
          "type": "uint256"
        }
      ],
      "name": "Approval",
      "type": "event"
    },
    {
      "anonymous": false,
      "inputs": [
        {
          "indexed": true,
          "internalType": "address",
          "name": "owner",
          "type": "address"
        },
        {
          "indexed": true,
          "internalType": "address",
          "name": "operator",
          "type": "address"
        },
        {
          "indexed": false,
          "internalType": "bool",
          "name": "approved",
          "type": "bool"
        }
      ],
      "name": "ApprovalForAll",
      "type": "event"
    },
    {
      "anonymous": false,
      "inputs": [
        {
          "indexed": false,
          "internalType": "uint8",
          "name": "version",
          "type": "uint8"
        }
      ],
      "name": "Initialized",
      "type": "event"
    },
    {
      "anonymous": false,
      "inputs": [
        {
          "indexed": true,
          "internalType": "address",
          "name": "previousOwner",
          "type": "address"
        },
        {
          "indexed": true,
          "internalType": "address",
          "name": "newOwner",
          "type": "address"
        }
      ],
      "name": "OwnershipTransferred",
      "type": "event"
    },
    {
      "anonymous": false,
      "inputs": [
        {
          "indexed": true,
          "internalType": "address",
          "name": "from",
          "type": "address"
        },
        {
          "indexed": true,
          "internalType": "address",
          "name": "to",
          "type": "address"
        },
        {
          "indexed": true,
          "internalType": "uint256",
          "name": "tokenId",
          "type": "uint256"
        }
      ],
      "name": "Transfer",
      "type": "event"
    },
    {
      "inputs": [
        {
          "internalType": "bytes32",
          "name": "",
          "type": "bytes32"
        }
      ],
      "name": "addresses",
      "outputs": [
        {
          "internalType": "uint256",
          "name": "",
          "type": "uint256"
        }
      ],
      "stateMutability": "view",
      "type": "function"
    },
    {
      "inputs": [
        {
          "internalType": "address",
          "name": "to",
          "type": "address"
        },
        {
          "internalType": "uint256",
          "name": "tokenId",
          "type": "uint256"
        }
      ],
      "name": "approve",
      "outputs": [],
      "stateMutability": "nonpayable",
      "type": "function"
    },
    {
      "inputs": [
        {
          "internalType": "address",
          "name": "owner",
          "type": "address"
        }
      ],
      "name": "balanceOf",
      "outputs": [
        {
          "internalType": "uint256",
          "name": "",
          "type": "uint256"
        }
      ],
      "stateMutability": "view",
      "type": "function"
    },
    {
      "inputs": [],
      "name": "baseFee",
      "outputs": [
        {
          "internalType": "uint256",
          "name": "",
          "type": "uint256"
        }
      ],
      "stateMutability": "view",
      "type": "function"
    },
    {
      "inputs": [
        {
          "internalType": "uint256",
          "name": "tokenId",
          "type": "uint256"
        }
      ],
      "name": "burn",
      "outputs": [],
      "stateMutability": "nonpayable",
      "type": "function"
    },
    {
      "inputs": [
        {
          "internalType": "uint256",
          "name": "_tokenId",
          "type": "uint256"
        }
      ],
      "name": "exists",
      "outputs": [
        {
          "internalType": "bool",
          "name": "",
          "type": "bool"
        }
      ],
      "stateMutability": "view",
      "type": "function"
    },
    {
      "inputs": [
        {
          "internalType": "uint256",
          "name": "tokenId",
          "type": "uint256"
        }
      ],
      "name": "getApproved",
      "outputs": [
        {
          "internalType": "address",
          "name": "",
          "type": "address"
        }
      ],
      "stateMutability": "view",
      "type": "function"
    },
    {
      "inputs": [
        {
          "internalType": "string",
          "name": "_name",
          "type": "string"
        },
        {
          "internalType": "string",
          "name": "_symbol",
          "type": "string"
        },
        {
          "internalType": "string",
          "name": "baseURI",
          "type": "string"
        }
      ],
      "name": "initialize",
      "outputs": [],
      "stateMutability": "nonpayable",
      "type": "function"
    },
    {
      "inputs": [
        {
          "internalType": "address",
          "name": "owner",
          "type": "address"
        },
        {
          "internalType": "address",
          "name": "operator",
          "type": "address"
        }
      ],
      "name": "isApprovedForAll",
      "outputs": [
        {
          "internalType": "bool",
          "name": "",
          "type": "bool"
        }
      ],
      "stateMutability": "view",
      "type": "function"
    },
    {
      "inputs": [
        {
          "internalType": "string",
          "name": "name",
          "type": "string"
        },
        {
          "internalType": "address",
          "name": "_addr",
          "type": "address"
        }
      ],
      "name": "mintSubdomain",
      "outputs": [],
      "stateMutability": "payable",
      "type": "function"
    },
    {
      "inputs": [],
      "name": "name",
      "outputs": [
        {
          "internalType": "string",
          "name": "",
          "type": "string"
        }
      ],
      "stateMutability": "view",
      "type": "function"
    },
    {
      "inputs": [],
      "name": "owner",
      "outputs": [
        {
          "internalType": "address",
          "name": "",
          "type": "address"
        }
      ],
      "stateMutability": "view",
      "type": "function"
    },
    {
      "inputs": [
        {
          "internalType": "uint256",
          "name": "tokenId",
          "type": "uint256"
        }
      ],
      "name": "ownerOf",
      "outputs": [
        {
          "internalType": "address",
          "name": "",
          "type": "address"
        }
      ],
      "stateMutability": "view",
      "type": "function"
    },
    {
      "inputs": [],
      "name": "renounceOwnership",
      "outputs": [],
      "stateMutability": "nonpayable",
      "type": "function"
    },
    {
      "inputs": [
        {
          "internalType": "bytes32",
          "name": "node",
          "type": "bytes32"
        }
      ],
      "name": "resolve",
      "outputs": [
        {
          "internalType": "address",
          "name": "",
          "type": "address"
        }
      ],
      "stateMutability": "view",
      "type": "function"
    },
    {
      "inputs": [
        {
          "internalType": "address",
          "name": "from",
          "type": "address"
        },
        {
          "internalType": "address",
          "name": "to",
          "type": "address"
        },
        {
          "internalType": "uint256",
          "name": "tokenId",
          "type": "uint256"
        }
      ],
      "name": "safeTransferFrom",
      "outputs": [],
      "stateMutability": "nonpayable",
      "type": "function"
    },
    {
      "inputs": [
        {
          "internalType": "address",
          "name": "from",
          "type": "address"
        },
        {
          "internalType": "address",
          "name": "to",
          "type": "address"
        },
        {
          "internalType": "uint256",
          "name": "tokenId",
          "type": "uint256"
        },
        {
          "internalType": "bytes",
          "name": "data",
          "type": "bytes"
        }
      ],
      "name": "safeTransferFrom",
      "outputs": [],
      "stateMutability": "nonpayable",
      "type": "function"
    },
    {
      "inputs": [
        {
          "internalType": "address",
          "name": "operator",
          "type": "address"
        },
        {
          "internalType": "bool",
          "name": "approved",
          "type": "bool"
        }
      ],
      "name": "setApprovalForAll",
      "outputs": [],
      "stateMutability": "nonpayable",
      "type": "function"
    },
    {
      "inputs": [
        {
          "internalType": "uint256",
          "name": "newBaseFee",
          "type": "uint256"
        }
      ],
      "name": "setBaseFee",
      "outputs": [],
      "stateMutability": "nonpayable",
      "type": "function"
    },
    {
      "inputs": [
        {
          "internalType": "string",
          "name": "baseURI",
          "type": "string"
        }
      ],
      "name": "setBaseTokenURI",
      "outputs": [
        {
          "internalType": "string",
          "name": "",
          "type": "string"
        }
      ],
      "stateMutability": "nonpayable",
      "type": "function"
    },
    {
      "inputs": [
        {
          "internalType": "bytes4",
          "name": "interfaceId",
          "type": "bytes4"
        }
      ],
      "name": "supportsInterface",
      "outputs": [
        {
          "internalType": "bool",
          "name": "",
          "type": "bool"
        }
      ],
      "stateMutability": "view",
      "type": "function"
    },
    {
      "inputs": [],
      "name": "symbol",
      "outputs": [
        {
          "internalType": "string",
          "name": "",
          "type": "string"
        }
      ],
      "stateMutability": "view",
      "type": "function"
    },
    {
      "inputs": [
        {
          "internalType": "uint256",
          "name": "index",
          "type": "uint256"
        }
      ],
      "name": "tokenByIndex",
      "outputs": [
        {
          "internalType": "uint256",
          "name": "",
          "type": "uint256"
        }
      ],
      "stateMutability": "view",
      "type": "function"
    },
    {
      "inputs": [
        {
          "internalType": "uint256",
          "name": "",
          "type": "uint256"
        }
      ],
      "name": "tokenDomains",
      "outputs": [
        {
          "internalType": "string",
          "name": "",
          "type": "string"
        }
      ],
      "stateMutability": "view",
      "type": "function"
    },
    {
      "inputs": [
        {
          "internalType": "uint256",
          "name": "tokenId",
          "type": "uint256"
        }
      ],
      "name": "tokenName",
      "outputs": [
        {
          "internalType": "string",
          "name": "",
          "type": "string"
        }
      ],
      "stateMutability": "view",
      "type": "function"
    },
    {
      "inputs": [
        {
          "internalType": "address",
          "name": "owner",
          "type": "address"
        },
        {
          "internalType": "uint256",
          "name": "index",
          "type": "uint256"
        }
      ],
      "name": "tokenOfOwnerByIndex",
      "outputs": [
        {
          "internalType": "uint256",
          "name": "",
          "type": "uint256"
        }
      ],
      "stateMutability": "view",
      "type": "function"
    },
    {
      "inputs": [
        {
          "internalType": "uint256",
          "name": "tokenId",
          "type": "uint256"
        }
      ],
      "name": "tokenURI",
      "outputs": [
        {
          "internalType": "string",
          "name": "",
          "type": "string"
        }
      ],
      "stateMutability": "view",
      "type": "function"
    },
    {
      "inputs": [],
      "name": "totalSupply",
      "outputs": [
        {
          "internalType": "uint256",
          "name": "",
          "type": "uint256"
        }
      ],
      "stateMutability": "view",
      "type": "function"
    },
    {
      "inputs": [
        {
          "internalType": "address",
          "name": "from",
          "type": "address"
        },
        {
          "internalType": "address",
          "name": "to",
          "type": "address"
        },
        {
          "internalType": "uint256",
          "name": "tokenId",
          "type": "uint256"
        }
      ],
      "name": "transferFrom",
      "outputs": [],
      "stateMutability": "nonpayable",
      "type": "function"
    },
    {
      "inputs": [
        {
          "internalType": "address",
          "name": "newOwner",
          "type": "address"
        }
      ],
      "name": "transferOwnership",
      "outputs": [],
      "stateMutability": "nonpayable",
      "type": "function"
    }
  ],
  "bytecode": "0x60806040523480156200001157600080fd5b50620000226200002860201b60201c565b620001d2565b600060019054906101000a900460ff16156200007b576040517f08c379a0000000000000000000000000000000000000000000000000000000008152600401620000729062000175565b60405180910390fd5b60ff801660008054906101000a900460ff1660ff1614620000ec5760ff6000806101000a81548160ff021916908360ff1602179055507f7f26b83ff96e1f2b6a682f133852f6798a09c465da95921460cefb384740249860ff604051620000e39190620001b5565b60405180910390a15b565b600082825260208201905092915050565b7f496e697469616c697a61626c653a20636f6e747261637420697320696e69746960008201527f616c697a696e6700000000000000000000000000000000000000000000000000602082015250565b60006200015d602783620000ee565b91506200016a82620000ff565b604082019050919050565b6000602082019050818103600083015262000190816200014e565b9050919050565b600060ff82169050919050565b620001af8162000197565b82525050565b6000602082019050620001cc6000830184620001a4565b92915050565b614cdb80620001e26000396000f3fe6080604052600436106101cd5760003560e01c80636352211e116100f7578063a22cb46511610095578063e1ed475e11610064578063e1ed475e146106e4578063e725f87714610700578063e985e9c51461073d578063f2fde38b1461077a576101cd565b8063a22cb4651461062c578063a6487c5314610655578063b88d4fde1461067e578063c87b56dd146106a7576101cd565b806370a08231116100d157806370a0823114610582578063715018a6146105bf5780638da5cb5b146105d657806395d89b4114610601576101cd565b80636352211e146104dd578063699f200f1461051a5780636ef25c3a14610557576101cd565b80632f745c591161016f578063468606981161013e57806346860698146103fd5780634f558e79146104265780634f6ccce7146104635780635c23bdf5146104a0576101cd565b80632f745c591461033157806330176e131461036e57806342842e0e146103ab57806342966c68146103d4576101cd565b8063095ea7b3116101ab578063095ea7b3146102775780630b0da2ec146102a057806318160ddd146102dd57806323b872dd14610308576101cd565b806301ffc9a7146101d257806306fdde031461020f578063081812fc1461023a575b600080fd5b3480156101de57600080fd5b506101f960048036038101906101f491906132cd565b6107a3565b6040516102069190613315565b60405180910390f35b34801561021b57600080fd5b5061022461081d565b60405161023191906133c0565b60405180910390f35b34801561024657600080fd5b50610261600480360381019061025c9190613418565b6108af565b60405161026e9190613486565b60405180910390f35b34801561028357600080fd5b5061029e600480360381019061029991906134cd565b6108f5565b005b3480156102ac57600080fd5b506102c760048036038101906102c29190613418565b610a0c565b6040516102d491906133c0565b60405180910390f35b3480156102e957600080fd5b506102f2610aac565b6040516102ff919061351c565b60405180910390f35b34801561031457600080fd5b5061032f600480360381019061032a9190613537565b610ab9565b005b34801561033d57600080fd5b50610358600480360381019061035391906134cd565b610b19565b604051610365919061351c565b60405180910390f35b34801561037a57600080fd5b50610395600480360381019061039091906136bf565b610bbe565b6040516103a291906133c0565b60405180910390f35b3480156103b757600080fd5b506103d260048036038101906103cd9190613537565b610cae565b005b3480156103e057600080fd5b506103fb60048036038101906103f69190613418565b610cce565b005b34801561040957600080fd5b50610424600480360381019061041f9190613418565b610d49565b005b34801561043257600080fd5b5061044d60048036038101906104489190613418565b610d5b565b60405161045a9190613315565b60405180910390f35b34801561046f57600080fd5b5061048a60048036038101906104859190613418565b610d6d565b604051610497919061351c565b60405180910390f35b3480156104ac57600080fd5b506104c760048036038101906104c2919061373e565b610dde565b6040516104d49190613486565b60405180910390f35b3480156104e957600080fd5b5061050460048036038101906104ff9190613418565b610e20565b6040516105119190613486565b60405180910390f35b34801561052657600080fd5b50610541600480360381019061053c919061373e565b610ea6565b60405161054e919061351c565b60405180910390f35b34801561056357600080fd5b5061056c610ebe565b604051610579919061351c565b60405180910390f35b34801561058e57600080fd5b506105a960048036038101906105a4919061376b565b610ec4565b6040516105b6919061351c565b60405180910390f35b3480156105cb57600080fd5b506105d4610f7b565b005b3480156105e257600080fd5b506105eb610f8f565b6040516105f89190613486565b60405180910390f35b34801561060d57600080fd5b50610616610fb9565b60405161062391906133c0565b60405180910390f35b34801561063857600080fd5b50610653600480360381019061064e91906137c4565b61104b565b005b34801561066157600080fd5b5061067c60048036038101906106779190613804565b611061565b005b34801561068a57600080fd5b506106a560048036038101906106a0919061394c565b6111d4565b005b3480156106b357600080fd5b506106ce60048036038101906106c99190613418565b611236565b6040516106db91906133c0565b60405180910390f35b6106fe60048036038101906106f991906139cf565b61131c565b005b34801561070c57600080fd5b5061072760048036038101906107229190613418565b6114b0565b60405161073491906133c0565b60405180910390f35b34801561074957600080fd5b50610764600480360381019061075f9190613a2b565b611555565b6040516107719190613315565b60405180910390f35b34801561078657600080fd5b506107a1600480360381019061079c919061376b565b6115e9565b005b60007f780e9d63000000000000000000000000000000000000000000000000000000007bffffffffffffffffffffffffffffffffffffffffffffffffffffffff1916827bffffffffffffffffffffffffffffffffffffffffffffffffffffffff1916148061081657506108158261166c565b5b9050919050565b60606065805461082c90613a9a565b80601f016020809104026020016040519081016040528092919081815260200182805461085890613a9a565b80156108a55780601f1061087a576101008083540402835291602001916108a5565b820191906000526020600020905b81548152906001019060200180831161088857829003601f168201915b5050505050905090565b60006108ba8261174e565b6069600083815260200190815260200160002060009054906101000a900473ffffffffffffffffffffffffffffffffffffffff169050919050565b600061090082610e20565b90508073ffffffffffffffffffffffffffffffffffffffff168373ffffffffffffffffffffffffffffffffffffffff1603610970576040517f08c379a000000000000000000000000000000000000000000000000000000000815260040161096790613b3d565b60405180910390fd5b8073ffffffffffffffffffffffffffffffffffffffff1661098f611799565b73ffffffffffffffffffffffffffffffffffffffff1614806109be57506109bd816109b8611799565b611555565b5b6109fd576040517f08c379a00000000000000000000000000000000000000000000000000000000081526004016109f490613bcf565b60405180910390fd5b610a0783836117a1565b505050565b60fc6020528060005260406000206000915090508054610a2b90613a9a565b80601f0160208091040260200160405190810160405280929190818152602001828054610a5790613a9a565b8015610aa45780601f10610a7957610100808354040283529160200191610aa4565b820191906000526020600020905b815481529060010190602001808311610a8757829003601f168201915b505050505081565b6000609980549050905090565b610aca610ac4611799565b8261185a565b610b09576040517f08c379a0000000000000000000000000000000000000000000000000000000008152600401610b0090613c61565b60405180910390fd5b610b148383836118ef565b505050565b6000610b2483610ec4565b8210610b65576040517f08c379a0000000000000000000000000000000000000000000000000000000008152600401610b5c90613cf3565b60405180910390fd5b609760008473ffffffffffffffffffffffffffffffffffffffff1673ffffffffffffffffffffffffffffffffffffffff168152602001908152602001600020600083815260200190815260200160002054905092915050565b6060610bc8611be8565b6000825103610c0c576040517f08c379a0000000000000000000000000000000000000000000000000000000008152600401610c0390613d5f565b60405180910390fd5b8160fe9081610c1b9190613f2b565b5060fe8054610c2990613a9a565b80601f0160208091040260200160405190810160405280929190818152602001828054610c5590613a9a565b8015610ca25780601f10610c7757610100808354040283529160200191610ca2565b820191906000526020600020905b815481529060010190602001808311610c8557829003601f168201915b50505050509050919050565b610cc9838383604051806020016040528060008152506111d4565b505050565b610cdf610cd9611799565b8261185a565b610d1e576040517f08c379a0000000000000000000000000000000000000000000000000000000008152600401610d1590614049565b60405180910390fd5b610d2781611c66565b60fc60008281526020019081526020016000206000610d469190613204565b50565b610d51611be8565b8060ff8190555050565b6000610d6682611db4565b9050919050565b6000610d77610aac565b8210610db8576040517f08c379a0000000000000000000000000000000000000000000000000000000008152600401610daf906140db565b60405180910390fd5b60998281548110610dcc57610dcb6140fb565b5b90600052602060002001549050919050565b60008060fb6000848152602001908152602001600020549050610e0081611db4565b610e0e576000915050610e1b565b610e1781610e20565b9150505b919050565b600080610e2c83611df5565b9050600073ffffffffffffffffffffffffffffffffffffffff168173ffffffffffffffffffffffffffffffffffffffff1603610e9d576040517f08c379a0000000000000000000000000000000000000000000000000000000008152600401610e9490614176565b60405180910390fd5b80915050919050565b60fb6020528060005260406000206000915090505481565b60ff5481565b60008073ffffffffffffffffffffffffffffffffffffffff168273ffffffffffffffffffffffffffffffffffffffff1603610f34576040517f08c379a0000000000000000000000000000000000000000000000000000000008152600401610f2b90614208565b60405180910390fd5b606860008373ffffffffffffffffffffffffffffffffffffffff1673ffffffffffffffffffffffffffffffffffffffff168152602001908152602001600020549050919050565b610f83611be8565b610f8d6000611e32565b565b600060c960009054906101000a900473ffffffffffffffffffffffffffffffffffffffff16905090565b606060668054610fc890613a9a565b80601f0160208091040260200160405190810160405280929190818152602001828054610ff490613a9a565b80156110415780601f1061101657610100808354040283529160200191611041565b820191906000526020600020905b81548152906001019060200180831161102457829003601f168201915b5050505050905090565b61105d611056611799565b8383611ef8565b5050565b60008060019054906101000a900460ff161590508080156110925750600160008054906101000a900460ff1660ff16105b806110bf57506110a130612064565b1580156110be5750600160008054906101000a900460ff1660ff16145b5b6110fe576040517f08c379a00000000000000000000000000000000000000000000000000000000081526004016110f59061429a565b60405180910390fd5b60016000806101000a81548160ff021916908360ff160217905550801561113b576001600060016101000a81548160ff0219169083151502179055505b6111458484612087565b61114d6120e4565b8160fe908161115c9190613f2b565b5061116760fd61213d565b66038d7ea4c6800060ff8190555080156111ce5760008060016101000a81548160ff0219169083151502179055507f7f26b83ff96e1f2b6a682f133852f6798a09c465da95921460cefb384740249860016040516111c59190614302565b60405180910390a15b50505050565b6111e56111df611799565b8361185a565b611224576040517f08c379a000000000000000000000000000000000000000000000000000000000815260040161121b90613c61565b60405180910390fd5b61123084848484612153565b50505050565b60606112418261174e565b600061124c836121af565b9050600060fe805461125d90613a9a565b80601f016020809104026020016040519081016040528092919081815260200182805461128990613a9a565b80156112d65780601f106112ab576101008083540402835291602001916112d6565b820191906000526020600020905b8154815290600101906020018083116112b957829003601f168201915b5050505050905060008151036112f0578192505050611317565b8082604051602001611303929190614359565b604051602081830303815290604052925050505b919050565b60ff54341015611361576040517f08c379a0000000000000000000000000000000000000000000000000000000008152600401611358906143c9565b60405180910390fd5b600061136c8361227d565b915050600061137a8461256d565b9050600061138860fd612725565b9050600060fb600085815260200190815260200160002054146113e0576040517f08c379a00000000000000000000000000000000000000000000000000000000081526004016113d79061445b565b60405180910390fd5b6000825103611424576040517f08c379a000000000000000000000000000000000000000000000000000000000815260040161141b906144c7565b60405180910390fd5b8060fb6000858152602001908152602001600020819055508160fc6000838152602001908152602001600020908161145c9190613f2b565b50827f52d7d861f09ab3d26239d492e8968629f95e9e318cf0b73bfddc441522a15fd28560405161148d9190613486565b60405180910390a261149f8482612733565b6114a960fd61213d565b5050505050565b606060fc600083815260200190815260200160002080546114d090613a9a565b80601f01602080910402602001604051908101604052809291908181526020018280546114fc90613a9a565b80156115495780601f1061151e57610100808354040283529160200191611549565b820191906000526020600020905b81548152906001019060200180831161152c57829003601f168201915b50505050509050919050565b6000606a60008473ffffffffffffffffffffffffffffffffffffffff1673ffffffffffffffffffffffffffffffffffffffff16815260200190815260200160002060008373ffffffffffffffffffffffffffffffffffffffff1673ffffffffffffffffffffffffffffffffffffffff16815260200190815260200160002060009054906101000a900460ff16905092915050565b6115f1611be8565b600073ffffffffffffffffffffffffffffffffffffffff168173ffffffffffffffffffffffffffffffffffffffff1603611660576040517f08c379a000000000000000000000000000000000000000000000000000000000815260040161165790614559565b60405180910390fd5b61166981611e32565b50565b60007f80ac58cd000000000000000000000000000000000000000000000000000000007bffffffffffffffffffffffffffffffffffffffffffffffffffffffff1916827bffffffffffffffffffffffffffffffffffffffffffffffffffffffff1916148061173757507f5b5e139f000000000000000000000000000000000000000000000000000000007bffffffffffffffffffffffffffffffffffffffffffffffffffffffff1916827bffffffffffffffffffffffffffffffffffffffffffffffffffffffff1916145b80611747575061174682612950565b5b9050919050565b61175781611db4565b611796576040517f08c379a000000000000000000000000000000000000000000000000000000000815260040161178d90614176565b60405180910390fd5b50565b600033905090565b816069600083815260200190815260200160002060006101000a81548173ffffffffffffffffffffffffffffffffffffffff021916908373ffffffffffffffffffffffffffffffffffffffff160217905550808273ffffffffffffffffffffffffffffffffffffffff1661181483610e20565b73ffffffffffffffffffffffffffffffffffffffff167f8c5be1e5ebec7d5bd14f71427d1e84f3dd0314c0f7b2291e5b200ac8c7c3b92560405160405180910390a45050565b60008061186683610e20565b90508073ffffffffffffffffffffffffffffffffffffffff168473ffffffffffffffffffffffffffffffffffffffff1614806118a857506118a78185611555565b5b806118e657508373ffffffffffffffffffffffffffffffffffffffff166118ce846108af565b73ffffffffffffffffffffffffffffffffffffffff16145b91505092915050565b8273ffffffffffffffffffffffffffffffffffffffff1661190f82610e20565b73ffffffffffffffffffffffffffffffffffffffff1614611965576040517f08c379a000000000000000000000000000000000000000000000000000000000815260040161195c906145eb565b60405180910390fd5b600073ffffffffffffffffffffffffffffffffffffffff168273ffffffffffffffffffffffffffffffffffffffff16036119d4576040517f08c379a00000000000000000000000000000000000000000000000000000000081526004016119cb9061467d565b60405180910390fd5b6119e183838360016129ba565b8273ffffffffffffffffffffffffffffffffffffffff16611a0182610e20565b73ffffffffffffffffffffffffffffffffffffffff1614611a57576040517f08c379a0000000000000000000000000000000000000000000000000000000008152600401611a4e906145eb565b60405180910390fd5b6069600082815260200190815260200160002060006101000a81549073ffffffffffffffffffffffffffffffffffffffff02191690556001606860008573ffffffffffffffffffffffffffffffffffffffff1673ffffffffffffffffffffffffffffffffffffffff168152602001908152602001600020600082825403925050819055506001606860008473ffffffffffffffffffffffffffffffffffffffff1673ffffffffffffffffffffffffffffffffffffffff16815260200190815260200160002060008282540192505081905550816067600083815260200190815260200160002060006101000a81548173ffffffffffffffffffffffffffffffffffffffff021916908373ffffffffffffffffffffffffffffffffffffffff160217905550808273ffffffffffffffffffffffffffffffffffffffff168473ffffffffffffffffffffffffffffffffffffffff167fddf252ad1be2c89b69c2b068fc378daa952ba7f163c4a11628f55a4df523b3ef60405160405180910390a4611be38383836001612b18565b505050565b611bf0611799565b73ffffffffffffffffffffffffffffffffffffffff16611c0e610f8f565b73ffffffffffffffffffffffffffffffffffffffff1614611c64576040517f08c379a0000000000000000000000000000000000000000000000000000000008152600401611c5b906146e9565b60405180910390fd5b565b6000611c7182610e20565b9050611c818160008460016129ba565b611c8a82610e20565b90506069600083815260200190815260200160002060006101000a81549073ffffffffffffffffffffffffffffffffffffffff02191690556001606860008373ffffffffffffffffffffffffffffffffffffffff1673ffffffffffffffffffffffffffffffffffffffff168152602001908152602001600020600082825403925050819055506067600083815260200190815260200160002060006101000a81549073ffffffffffffffffffffffffffffffffffffffff021916905581600073ffffffffffffffffffffffffffffffffffffffff168273ffffffffffffffffffffffffffffffffffffffff167fddf252ad1be2c89b69c2b068fc378daa952ba7f163c4a11628f55a4df523b3ef60405160405180910390a4611db0816000846001612b18565b5050565b60008073ffffffffffffffffffffffffffffffffffffffff16611dd683611df5565b73ffffffffffffffffffffffffffffffffffffffff1614159050919050565b60006067600083815260200190815260200160002060009054906101000a900473ffffffffffffffffffffffffffffffffffffffff169050919050565b600060c960009054906101000a900473ffffffffffffffffffffffffffffffffffffffff1690508160c960006101000a81548173ffffffffffffffffffffffffffffffffffffffff021916908373ffffffffffffffffffffffffffffffffffffffff1602179055508173ffffffffffffffffffffffffffffffffffffffff168173ffffffffffffffffffffffffffffffffffffffff167f8be0079c531659141344cd1fd0a4f28419497f9722a3daafe3b4186f6b6457e060405160405180910390a35050565b8173ffffffffffffffffffffffffffffffffffffffff168373ffffffffffffffffffffffffffffffffffffffff1603611f66576040517f08c379a0000000000000000000000000000000000000000000000000000000008152600401611f5d90614755565b60405180910390fd5b80606a60008573ffffffffffffffffffffffffffffffffffffffff1673ffffffffffffffffffffffffffffffffffffffff16815260200190815260200160002060008473ffffffffffffffffffffffffffffffffffffffff1673ffffffffffffffffffffffffffffffffffffffff16815260200190815260200160002060006101000a81548160ff0219169083151502179055508173ffffffffffffffffffffffffffffffffffffffff168373ffffffffffffffffffffffffffffffffffffffff167f17307eab39ab6107e8899845ad3d59bd9653f200f220920489ca2b5937696c31836040516120579190613315565b60405180910390a3505050565b6000808273ffffffffffffffffffffffffffffffffffffffff163b119050919050565b600060019054906101000a900460ff166120d6576040517f08c379a00000000000000000000000000000000000000000000000000000000081526004016120cd906147e7565b60405180910390fd5b6120e08282612b1e565b5050565b600060019054906101000a900460ff16612133576040517f08c379a000000000000000000000000000000000000000000000000000000000815260040161212a906147e7565b60405180910390fd5b61213b612b91565b565b6001816000016000828254019250508190555050565b61215e8484846118ef565b61216a84848484612bf2565b6121a9576040517f08c379a00000000000000000000000000000000000000000000000000000000081526004016121a090614879565b60405180910390fd5b50505050565b6060600060016121be84612d79565b01905060008167ffffffffffffffff8111156121dd576121dc613594565b5b6040519080825280601f01601f19166020018201604052801561220f5781602001600182028036833780820191505090505b509050600082602001820190505b600115612272578080600190039150507f3031323334353637383961626364656600000000000000000000000000000000600a86061a8153600a858161226657612265614899565b5b0494506000850361221d575b819350505050919050565b606060008060009050600084905060008151905060028161229e91906148f7565b67ffffffffffffffff8111156122b7576122b6613594565b5b6040519080825280601f01601f1916602001820160405280156122e95781602001600182028036833780820191505090505b5094506000801b93506000810361234a57600060f81b85600081518110612313576123126140fb565b5b60200101907effffffffffffffffffffffffffffffffffffffffffffffffffffffffffffff1916908160001a905350505050612568565b60006001820390505b600081106124d9577f2e0000000000000000000000000000000000000000000000000000000000000083828151811061238f5761238e6140fb565b5b602001015160f81c60f81b7effffffffffffffffffffffffffffffffffffffffffffffffffffffffffffff191603612458578360f81b8660018301815181106123db576123da6140fb565b5b60200101907effffffffffffffffffffffffffffffffffffffffffffffffffffffffffffff1916908160001a90535084612426600183018660ff1686612ecc9092919063ffffffff16565b60405160200161243792919061494c565b604051602081830303815290604052805190602001209450600093506124c2565b600184019350828181518110612471576124706140fb565b5b602001015160f81c60f81b866001830181518110612492576124916140fb565b5b60200101907effffffffffffffffffffffffffffffffffffffffffffffffffffffffffffff1916908160001a9053505b60008103156124d957808060019003915050612353565b50836124f460008560ff1685612ecc9092919063ffffffff16565b60405160200161250592919061494c565b6040516020818303038152906040528051906020012093508260f81b85600081518110612535576125346140fb565b5b60200101907effffffffffffffffffffffffffffffffffffffffffffffffffffffffffffff1916908160001a9053505050505b915091565b606060008290506000815167ffffffffffffffff81111561259157612590613594565b5b6040519080825280601f01601f1916602001820160405280156125c35781602001600182028036833780820191505090505b50905060005b825181101561271a5760418382815181106125e7576125e66140fb565b5b602001015160f81c60f81b60f81c60ff161015801561262a5750605a838281518110612616576126156140fb565b5b602001015160f81c60f81b60f81c60ff1611155b156126a6576020838281518110612644576126436140fb565b5b602001015160f81c60f81b60f81c61265c9190614978565b60f81b828281518110612672576126716140fb565b5b60200101907effffffffffffffffffffffffffffffffffffffffffffffffffffffffffffff1916908160001a905350612707565b8281815181106126b9576126b86140fb565b5b602001015160f81c60f81b8282815181106126d7576126d66140fb565b5b60200101907effffffffffffffffffffffffffffffffffffffffffffffffffffffffffffff1916908160001a9053505b8080612712906149ad565b9150506125c9565b508092505050919050565b600081600001549050919050565b600073ffffffffffffffffffffffffffffffffffffffff168273ffffffffffffffffffffffffffffffffffffffff16036127a2576040517f08c379a000000000000000000000000000000000000000000000000000000000815260040161279990614a41565b60405180910390fd5b6127ab81611db4565b156127eb576040517f08c379a00000000000000000000000000000000000000000000000000000000081526004016127e290614aad565b60405180910390fd5b6127f96000838360016129ba565b61280281611db4565b15612842576040517f08c379a000000000000000000000000000000000000000000000000000000000815260040161283990614aad565b60405180910390fd5b6001606860008473ffffffffffffffffffffffffffffffffffffffff1673ffffffffffffffffffffffffffffffffffffffff16815260200190815260200160002060008282540192505081905550816067600083815260200190815260200160002060006101000a81548173ffffffffffffffffffffffffffffffffffffffff021916908373ffffffffffffffffffffffffffffffffffffffff160217905550808273ffffffffffffffffffffffffffffffffffffffff16600073ffffffffffffffffffffffffffffffffffffffff167fddf252ad1be2c89b69c2b068fc378daa952ba7f163c4a11628f55a4df523b3ef60405160405180910390a461294c600083836001612b18565b5050565b60007f01ffc9a7000000000000000000000000000000000000000000000000000000007bffffffffffffffffffffffffffffffffffffffffffffffffffffffff1916827bffffffffffffffffffffffffffffffffffffffffffffffffffffffff1916149050919050565b6129c684848484612ef8565b6001811115612a0a576040517f08c379a0000000000000000000000000000000000000000000000000000000008152600401612a0190614b3f565b60405180910390fd5b6000829050600073ffffffffffffffffffffffffffffffffffffffff168573ffffffffffffffffffffffffffffffffffffffff1603612a5157612a4c81612efe565b612a90565b8373ffffffffffffffffffffffffffffffffffffffff168573ffffffffffffffffffffffffffffffffffffffff1614612a8f57612a8e8582612f47565b5b5b600073ffffffffffffffffffffffffffffffffffffffff168473ffffffffffffffffffffffffffffffffffffffff1603612ad257612acd816130b4565b612b11565b8473ffffffffffffffffffffffffffffffffffffffff168473ffffffffffffffffffffffffffffffffffffffff1614612b1057612b0f8482613185565b5b5b5050505050565b50505050565b600060019054906101000a900460ff16612b6d576040517f08c379a0000000000000000000000000000000000000000000000000000000008152600401612b64906147e7565b60405180910390fd5b8160659081612b7c9190613f2b565b508060669081612b8c9190613f2b565b505050565b600060019054906101000a900460ff16612be0576040517f08c379a0000000000000000000000000000000000000000000000000000000008152600401612bd7906147e7565b60405180910390fd5b612bf0612beb611799565b611e32565b565b6000612c138473ffffffffffffffffffffffffffffffffffffffff16612064565b15612d6c578373ffffffffffffffffffffffffffffffffffffffff1663150b7a02612c3c611799565b8786866040518563ffffffff1660e01b8152600401612c5e9493929190614bb4565b6020604051808303816000875af1925050508015612c9a57506040513d601f19601f82011682018060405250810190612c979190614c15565b60015b612d1c573d8060008114612cca576040519150601f19603f3d011682016040523d82523d6000602084013e612ccf565b606091505b506000815103612d14576040517f08c379a0000000000000000000000000000000000000000000000000000000008152600401612d0b90614879565b60405180910390fd5b805181602001fd5b63150b7a0260e01b7bffffffffffffffffffffffffffffffffffffffffffffffffffffffff1916817bffffffffffffffffffffffffffffffffffffffffffffffffffffffff191614915050612d71565b600190505b949350505050565b600080600090507a184f03e93ff9f4daa797ed6e38ed64bf6a1f0100000000000000008310612dd7577a184f03e93ff9f4daa797ed6e38ed64bf6a1f0100000000000000008381612dcd57612dcc614899565b5b0492506040810190505b6d04ee2d6d415b85acef81000000008310612e14576d04ee2d6d415b85acef81000000008381612e0a57612e09614899565b5b0492506020810190505b662386f26fc100008310612e4357662386f26fc100008381612e3957612e38614899565b5b0492506010810190505b6305f5e1008310612e6c576305f5e1008381612e6257612e61614899565b5b0492506008810190505b6127108310612e91576127108381612e8757612e86614899565b5b0492506004810190505b60648310612eb45760648381612eaa57612ea9614899565b5b0492506002810190505b600a8310612ec3576001810190505b80915050919050565b600083518284612edc91906148f7565b1115612ee757600080fd5b818360208601012090509392505050565b50505050565b609980549050609a600083815260200190815260200160002081905550609981908060018154018082558091505060019003906000526020600020016000909190919091505550565b60006001612f5484610ec4565b612f5e9190614c42565b9050600060986000848152602001908152602001600020549050818114613043576000609760008673ffffffffffffffffffffffffffffffffffffffff1673ffffffffffffffffffffffffffffffffffffffff168152602001908152602001600020600084815260200190815260200160002054905080609760008773ffffffffffffffffffffffffffffffffffffffff1673ffffffffffffffffffffffffffffffffffffffff168152602001908152602001600020600084815260200190815260200160002081905550816098600083815260200190815260200160002081905550505b6098600084815260200190815260200160002060009055609760008573ffffffffffffffffffffffffffffffffffffffff1673ffffffffffffffffffffffffffffffffffffffff16815260200190815260200160002060008381526020019081526020016000206000905550505050565b600060016099805490506130c89190614c42565b90506000609a60008481526020019081526020016000205490506000609983815481106130f8576130f76140fb565b5b90600052602060002001549050806099838154811061311a576131196140fb565b5b906000526020600020018190555081609a600083815260200190815260200160002081905550609a600085815260200190815260200160002060009055609980548061316957613168614c76565b5b6001900381819060005260206000200160009055905550505050565b600061319083610ec4565b905081609760008573ffffffffffffffffffffffffffffffffffffffff1673ffffffffffffffffffffffffffffffffffffffff168152602001908152602001600020600083815260200190815260200160002081905550806098600084815260200190815260200160002081905550505050565b50805461321090613a9a565b6000825580601f106132225750613241565b601f0160209004906000526020600020908101906132409190613244565b5b50565b5b8082111561325d576000816000905550600101613245565b5090565b6000604051905090565b600080fd5b600080fd5b60007fffffffff0000000000000000000000000000000000000000000000000000000082169050919050565b6132aa81613275565b81146132b557600080fd5b50565b6000813590506132c7816132a1565b92915050565b6000602082840312156132e3576132e261326b565b5b60006132f1848285016132b8565b91505092915050565b60008115159050919050565b61330f816132fa565b82525050565b600060208201905061332a6000830184613306565b92915050565b600081519050919050565b600082825260208201905092915050565b60005b8381101561336a57808201518184015260208101905061334f565b60008484015250505050565b6000601f19601f8301169050919050565b600061339282613330565b61339c818561333b565b93506133ac81856020860161334c565b6133b581613376565b840191505092915050565b600060208201905081810360008301526133da8184613387565b905092915050565b6000819050919050565b6133f5816133e2565b811461340057600080fd5b50565b600081359050613412816133ec565b92915050565b60006020828403121561342e5761342d61326b565b5b600061343c84828501613403565b91505092915050565b600073ffffffffffffffffffffffffffffffffffffffff82169050919050565b600061347082613445565b9050919050565b61348081613465565b82525050565b600060208201905061349b6000830184613477565b92915050565b6134aa81613465565b81146134b557600080fd5b50565b6000813590506134c7816134a1565b92915050565b600080604083850312156134e4576134e361326b565b5b60006134f2858286016134b8565b925050602061350385828601613403565b9150509250929050565b613516816133e2565b82525050565b6000602082019050613531600083018461350d565b92915050565b6000806000606084860312156135505761354f61326b565b5b600061355e868287016134b8565b935050602061356f868287016134b8565b925050604061358086828701613403565b9150509250925092565b600080fd5b600080fd5b7f4e487b7100000000000000000000000000000000000000000000000000000000600052604160045260246000fd5b6135cc82613376565b810181811067ffffffffffffffff821117156135eb576135ea613594565b5b80604052505050565b60006135fe613261565b905061360a82826135c3565b919050565b600067ffffffffffffffff82111561362a57613629613594565b5b61363382613376565b9050602081019050919050565b82818337600083830152505050565b600061366261365d8461360f565b6135f4565b90508281526020810184848401111561367e5761367d61358f565b5b613689848285613640565b509392505050565b600082601f8301126136a6576136a561358a565b5b81356136b684826020860161364f565b91505092915050565b6000602082840312156136d5576136d461326b565b5b600082013567ffffffffffffffff8111156136f3576136f2613270565b5b6136ff84828501613691565b91505092915050565b6000819050919050565b61371b81613708565b811461372657600080fd5b50565b60008135905061373881613712565b92915050565b6000602082840312156137545761375361326b565b5b600061376284828501613729565b91505092915050565b6000602082840312156137815761378061326b565b5b600061378f848285016134b8565b91505092915050565b6137a1816132fa565b81146137ac57600080fd5b50565b6000813590506137be81613798565b92915050565b600080604083850312156137db576137da61326b565b5b60006137e9858286016134b8565b92505060206137fa858286016137af565b9150509250929050565b60008060006060848603121561381d5761381c61326b565b5b600084013567ffffffffffffffff81111561383b5761383a613270565b5b61384786828701613691565b935050602084013567ffffffffffffffff81111561386857613867613270565b5b61387486828701613691565b925050604084013567ffffffffffffffff81111561389557613894613270565b5b6138a186828701613691565b9150509250925092565b600067ffffffffffffffff8211156138c6576138c5613594565b5b6138cf82613376565b9050602081019050919050565b60006138ef6138ea846138ab565b6135f4565b90508281526020810184848401111561390b5761390a61358f565b5b613916848285613640565b509392505050565b600082601f8301126139335761393261358a565b5b81356139438482602086016138dc565b91505092915050565b600080600080608085870312156139665761396561326b565b5b6000613974878288016134b8565b9450506020613985878288016134b8565b935050604061399687828801613403565b925050606085013567ffffffffffffffff8111156139b7576139b6613270565b5b6139c38782880161391e565b91505092959194509250565b600080604083850312156139e6576139e561326b565b5b600083013567ffffffffffffffff811115613a0457613a03613270565b5b613a1085828601613691565b9250506020613a21858286016134b8565b9150509250929050565b60008060408385031215613a4257613a4161326b565b5b6000613a50858286016134b8565b9250506020613a61858286016134b8565b9150509250929050565b7f4e487b7100000000000000000000000000000000000000000000000000000000600052602260045260246000fd5b60006002820490506001821680613ab257607f821691505b602082108103613ac557613ac4613a6b565b5b50919050565b7f4552433732313a20617070726f76616c20746f2063757272656e74206f776e6560008201527f7200000000000000000000000000000000000000000000000000000000000000602082015250565b6000613b2760218361333b565b9150613b3282613acb565b604082019050919050565b60006020820190508181036000830152613b5681613b1a565b9050919050565b7f4552433732313a20617070726f76652063616c6c6572206973206e6f7420746f60008201527f6b656e206f776e6572206f7220617070726f76656420666f7220616c6c000000602082015250565b6000613bb9603d8361333b565b9150613bc482613b5d565b604082019050919050565b60006020820190508181036000830152613be881613bac565b9050919050565b7f4552433732313a2063616c6c6572206973206e6f7420746f6b656e206f776e6560008201527f72206f7220617070726f76656400000000000000000000000000000000000000602082015250565b6000613c4b602d8361333b565b9150613c5682613bef565b604082019050919050565b60006020820190508181036000830152613c7a81613c3e565b9050919050565b7f455243373231456e756d657261626c653a206f776e657220696e646578206f7560008201527f74206f6620626f756e6473000000000000000000000000000000000000000000602082015250565b6000613cdd602b8361333b565b9150613ce882613c81565b604082019050919050565b60006020820190508181036000830152613d0c81613cd0565b9050919050565b7f42617365205552492063616e6e6f7420626520656d7074790000000000000000600082015250565b6000613d4960188361333b565b9150613d5482613d13565b602082019050919050565b60006020820190508181036000830152613d7881613d3c565b9050919050565b60008190508160005260206000209050919050565b60006020601f8301049050919050565b600082821b905092915050565b600060088302613de17fffffffffffffffffffffffffffffffffffffffffffffffffffffffffffffffff82613da4565b613deb8683613da4565b95508019841693508086168417925050509392505050565b6000819050919050565b6000613e28613e23613e1e846133e2565b613e03565b6133e2565b9050919050565b6000819050919050565b613e4283613e0d565b613e56613e4e82613e2f565b848454613db1565b825550505050565b600090565b613e6b613e5e565b613e76818484613e39565b505050565b5b81811015613e9a57613e8f600082613e63565b600181019050613e7c565b5050565b601f821115613edf57613eb081613d7f565b613eb984613d94565b81016020851015613ec8578190505b613edc613ed485613d94565b830182613e7b565b50505b505050565b600082821c905092915050565b6000613f0260001984600802613ee4565b1980831691505092915050565b6000613f1b8383613ef1565b9150826002028217905092915050565b613f3482613330565b67ffffffffffffffff811115613f4d57613f4c613594565b5b613f578254613a9a565b613f62828285613e9e565b600060209050601f831160018114613f955760008415613f83578287015190505b613f8d8582613f0f565b865550613ff5565b601f198416613fa386613d7f565b60005b82811015613fcb57848901518255600182019150602085019450602081019050613fa6565b86831015613fe85784890151613fe4601f891682613ef1565b8355505b6001600288020188555050505b505050505050565b7f43616c6c6572206973206e6f74206f776e6572206f7220617070726f76656400600082015250565b6000614033601f8361333b565b915061403e82613ffd565b602082019050919050565b6000602082019050818103600083015261406281614026565b9050919050565b7f455243373231456e756d657261626c653a20676c6f62616c20696e646578206f60008201527f7574206f6620626f756e64730000000000000000000000000000000000000000602082015250565b60006140c5602c8361333b565b91506140d082614069565b604082019050919050565b600060208201905081810360008301526140f4816140b8565b9050919050565b7f4e487b7100000000000000000000000000000000000000000000000000000000600052603260045260246000fd5b7f4552433732313a20696e76616c696420746f6b656e2049440000000000000000600082015250565b600061416060188361333b565b915061416b8261412a565b602082019050919050565b6000602082019050818103600083015261418f81614153565b9050919050565b7f4552433732313a2061646472657373207a65726f206973206e6f74206120766160008201527f6c6964206f776e65720000000000000000000000000000000000000000000000602082015250565b60006141f260298361333b565b91506141fd82614196565b604082019050919050565b60006020820190508181036000830152614221816141e5565b9050919050565b7f496e697469616c697a61626c653a20636f6e747261637420697320616c72656160008201527f647920696e697469616c697a6564000000000000000000000000000000000000602082015250565b6000614284602e8361333b565b915061428f82614228565b604082019050919050565b600060208201905081810360008301526142b381614277565b9050919050565b6000819050919050565b600060ff82169050919050565b60006142ec6142e76142e2846142ba565b613e03565b6142c4565b9050919050565b6142fc816142d1565b82525050565b600060208201905061431760008301846142f3565b92915050565b600081905092915050565b600061433382613330565b61433d818561431d565b935061434d81856020860161334c565b80840191505092915050565b60006143658285614328565b91506143718284614328565b91508190509392505050565b7f4c696e65615265736f6c7665723a20696e73756666696369656e742066656573600082015250565b60006143b360208361333b565b91506143be8261437d565b602082019050919050565b600060208201905081810360008301526143e2816143a6565b9050919050565b7f5375622d646f6d61696e2068617320616c7265616479206265656e207265676960008201527f7374657265640000000000000000000000000000000000000000000000000000602082015250565b600061444560268361333b565b9150614450826143e9565b604082019050919050565b6000602082019050818103600083015261447481614438565b9050919050565b7f5375622d646f6d61696e2063616e6e6f74206265206e756c6c00000000000000600082015250565b60006144b160198361333b565b91506144bc8261447b565b602082019050919050565b600060208201905081810360008301526144e0816144a4565b9050919050565b7f4f776e61626c653a206e6577206f776e657220697320746865207a65726f206160008201527f6464726573730000000000000000000000000000000000000000000000000000602082015250565b600061454360268361333b565b915061454e826144e7565b604082019050919050565b6000602082019050818103600083015261457281614536565b9050919050565b7f4552433732313a207472616e736665722066726f6d20696e636f72726563742060008201527f6f776e6572000000000000000000000000000000000000000000000000000000602082015250565b60006145d560258361333b565b91506145e082614579565b604082019050919050565b60006020820190508181036000830152614604816145c8565b9050919050565b7f4552433732313a207472616e7366657220746f20746865207a65726f2061646460008201527f7265737300000000000000000000000000000000000000000000000000000000602082015250565b600061466760248361333b565b91506146728261460b565b604082019050919050565b600060208201905081810360008301526146968161465a565b9050919050565b7f4f776e61626c653a2063616c6c6572206973206e6f7420746865206f776e6572600082015250565b60006146d360208361333b565b91506146de8261469d565b602082019050919050565b60006020820190508181036000830152614702816146c6565b9050919050565b7f4552433732313a20617070726f766520746f2063616c6c657200000000000000600082015250565b600061473f60198361333b565b915061474a82614709565b602082019050919050565b6000602082019050818103600083015261476e81614732565b9050919050565b7f496e697469616c697a61626c653a20636f6e7472616374206973206e6f74206960008201527f6e697469616c697a696e67000000000000000000000000000000000000000000602082015250565b60006147d1602b8361333b565b91506147dc82614775565b604082019050919050565b60006020820190508181036000830152614800816147c4565b9050919050565b7f4552433732313a207472616e7366657220746f206e6f6e20455243373231526560008201527f63656976657220696d706c656d656e7465720000000000000000000000000000602082015250565b600061486360328361333b565b915061486e82614807565b604082019050919050565b6000602082019050818103600083015261489281614856565b9050919050565b7f4e487b7100000000000000000000000000000000000000000000000000000000600052601260045260246000fd5b7f4e487b7100000000000000000000000000000000000000000000000000000000600052601160045260246000fd5b6000614902826133e2565b915061490d836133e2565b9250828201905080821115614925576149246148c8565b5b92915050565b6000819050919050565b61494661494182613708565b61492b565b82525050565b60006149588285614935565b6020820191506149688284614935565b6020820191508190509392505050565b6000614983826142c4565b915061498e836142c4565b9250828201905060ff8111156149a7576149a66148c8565b5b92915050565b60006149b8826133e2565b91507fffffffffffffffffffffffffffffffffffffffffffffffffffffffffffffffff82036149ea576149e96148c8565b5b600182019050919050565b7f4552433732313a206d696e7420746f20746865207a65726f2061646472657373600082015250565b6000614a2b60208361333b565b9150614a36826149f5565b602082019050919050565b60006020820190508181036000830152614a5a81614a1e565b9050919050565b7f4552433732313a20746f6b656e20616c7265616479206d696e74656400000000600082015250565b6000614a97601c8361333b565b9150614aa282614a61565b602082019050919050565b60006020820190508181036000830152614ac681614a8a565b9050919050565b7f455243373231456e756d657261626c653a20636f6e736563757469766520747260008201527f616e7366657273206e6f7420737570706f727465640000000000000000000000602082015250565b6000614b2960358361333b565b9150614b3482614acd565b604082019050919050565b60006020820190508181036000830152614b5881614b1c565b9050919050565b600081519050919050565b600082825260208201905092915050565b6000614b8682614b5f565b614b908185614b6a565b9350614ba081856020860161334c565b614ba981613376565b840191505092915050565b6000608082019050614bc96000830187613477565b614bd66020830186613477565b614be3604083018561350d565b8181036060830152614bf58184614b7b565b905095945050505050565b600081519050614c0f816132a1565b92915050565b600060208284031215614c2b57614c2a61326b565b5b6000614c3984828501614c00565b91505092915050565b6000614c4d826133e2565b9150614c58836133e2565b9250828203905081811115614c7057614c6f6148c8565b5b92915050565b7f4e487b7100000000000000000000000000000000000000000000000000000000600052603160045260246000fdfea2646970667358221220d280e5180296e0847ca7c64af2bd7852e5b895d4e80a3bba5e01ec465a1039ad64736f6c63430008120033",
  "linkReferences": {},
  "deployedLinkReferences": {}
}